:020000040800F2
:1000000000000220110A00080D0A000899A8000843
:100010000D0A00080D0A00080D0A00080000000083
:100020000000000000000000000000000D0A0008B1
:100030000D0A0008000000000D0A00081DA80008B5
:100040000D0A00080D0A00080D0A00080D0A000834
:100050000D0A00080D0A00080D0A00080D0A000824
:100060000D0A00080D0A00080D0A00085194000846
:100070005D940008CD81000869940008759400081B
:10008000D1A200087D8900080D0A00080D0A0008A9
:100090000D0A00080D0A00080D0A00080D0A0008E4
:1000A0000D0A00080D0A00080D0A00080D0A0008D4
:1000B000412101084D21010859210108B189000899
:1000C0000D0A0008BD8900080D0A0008B1190108D1
:1000D000BD19010805A1000831A1000865A10008AB
:1000E0000D0A00080D0A0008000000000D0A0008B3
:1000F0000D0A00080D0A00080D0A00080D0A000884
:100100000D0A00080D0A000865210108C919010837
:1001100099A10008CDA100080D0A00080D0A0008E9
:100120000D0A00080D0A0008ED190108211A01083E
:1001300005A300080D0A00080D0A00080D0A0008B2
:1001400000000000000000000000000000000000AF
:100150000D0A00080D0A00080D0A000801A2000897
:10016000C98900080D0A00082DA8000851A8000838
:100170000D0A000875A800080D0A00080D0A0008FD
:100180000D0A00080D0A000835A2000869A200083F
:10019000D5190108E11901080D0A00080D0A000827
:1001A0000D0A00080D0A00080D0A00080D0A0008D3
:1001B000719100080D0A00080D0A00080D0A0008D8
:1001C0000D0A00080D0A00080D0A00080D0A0008B3
:1001D0000D0A00080D0A00080D0A00080D0A0008A3
:1001E0000D0A00080D0A00080D0A00080D0A000893
:1001F0000D0A00080D0A00080D0A00080D0A000883
:100200000D0A00080D0A00080D0A00080D0A000872
:100210000D0A00080D0A00080D0A00080D0A000862
:100220000D0A00080D0A00080D0A00080000000071
:100230000D0A00080D0A0008000000000D0A000861
:100240000D0A00080D0A00080D0A00080D0A000832
:100250000D0A00080D0A00080D0A00080D0A000822
:100260000D0A00080D0A00080D0A00080D0A000812
:100270000D0A00080D0A00089DA2000800000000F9
:100280000D0A00080D0A00080D0A00080000000011
:08029000000000000D0A000847
:1002A00010B5054C237833B9044B13B10448AFF3B0
:1002B00000800123237010BDE8030024000000002B
:1002C000EC42010808B5034B1BB103490348AFF3E7
:1002D000008008BD00000000EC030024EC4201088F
:1002E000034613F8012B002AFBD1181A0138704776
:1002F00001F0FF01102A2BDB10F0070F08D010F8D7
:10030000013B013A8B422DD010F0070F42B3F6D1DA
:10031000F0B441EA012141EA014122F007047FF0F3
:1003200000070023F0E80256083C85EA010586EA4A
:10033000010685FA47F5A3FA87F586FA47F6A5FA86
:1003400087F68EB9EED1F0BC01F0FF0102F0070292
:1003500032B110F8013B013A83EA010313B1F8D13D
:100360000020704701387047002D06BF354603381E
:10037000073815F0010F07D1013015F4807F02BF57
:10038000013015F4C03F0130F0BC0138704700BFA8
:1003900081F0004102E000BF83F0004330B54FEA36
:1003A00041044FEA430594EA050F08BF90EA020FA3
:1003B0001FBF54EA000C55EA020C7FEA645C7FEA36
:1003C000655C00F0E2804FEA5454D4EB5555B8BF59
:1003D0006D420CDD2C4480EA020281EA030382EACA
:1003E000000083EA010180EA020281EA0303362D5C
:1003F00088BF30BD11F0004F4FEA01314FF4801C2F
:100400004CEA113102D0404261EB410113F0004F40
:100410004FEA03334CEA133302D0524263EB4303F7
:1004200094EA050F00F0A780A4F10104D5F1200E95
:100430000DDB02FA0EFC22FA05F2801841F10001F0
:1004400003FA0EF2801843FA05F359410EE0A5F1C4
:1004500020050EF1200E012A03FA0EFC28BF4CF0F5
:10046000020C43FA05F3C01851EBE37101F00045AB
:1004700007D54FF0000EDCF1000C7EEB00006EEBB8
:100480000101B1F5801F1BD3B1F5001F0CD3490842
:100490005FEA30004FEA3C0C04F101044FEA445299
:1004A00012F5800F80F09A80BCF1004F08BF5FEA20
:1004B000500C50F1000041EB045141EA050130BD00
:1004C0005FEA4C0C404141EB0101013C28BFB1F512
:1004D000801FE9D291F0000F04BF01460020B1FA5D
:1004E00081F308BF2033A3F10B03B3F120020CDA30
:1004F0000C3208DD02F1140CC2F10C0201FA0CF00E
:1005000021FA02F10CE002F11402D8BFC2F1200C72
:1005100001FA02F120FA0CFCDCBF41EA0C01904028
:10052000E41AA2BF01EB0451294330BD6FEA040471
:100530001F3C1CDA0C340EDC04F11404C4F120025C
:1005400020FA04F001FA02F340EA030021FA04F36E
:1005500045EA030130BDC4F10C04C4F1200220FAC5
:1005600002F001FA04F340EA0300294630BD21FA03
:1005700004F0294630BD94F0000F83F4801306BFC9
:1005800081F480110134013D4EE77FEA645C18BFBD
:100590007FEA655C29D094EA050F08BF90EA020F54
:1005A00005D054EA000C04BF1946104630BD91EA4C
:1005B000030F1EBF0021002030BD5FEA545C05D14F
:1005C0004000494128BF41F0004130BD14F580048E
:1005D0003CBF01F5801130BD01F0004545F0FE4102
:1005E00041F470014FF0000030BD7FEA645C1ABF37
:1005F000194610467FEA655C1CBF0B46024650EA6E
:10060000013406BF52EA033591EA030F41F4002199
:1006100030BD00BF90F0000F04BF0021704730B51F
:100620004FF4806404F132044FF000054FF00001F4
:1006300050E700BF90F0000F04BF0021704730B5B5
:100640004FF4806404F1320410F0004548BF40428A
:100650004FF000013EE700BF42004FEAE2014FEADF
:1006600031014FEA02701FBF12F07F4393F07F4FBA
:1006700081F06051704732F07F4208BF704793F0BD
:100680007F4F04BF41F40021704730B54FF46074D0
:1006900001F0004521F000411CE700BF50EA0102D3
:1006A00008BF704730B54FF000050AE050EA01027C
:1006B00008BF704730B511F0004502D5404261EBEC
:1006C00041014FF4806404F132045FEA915C3FF42D
:1006D000D8AE4FF003025FEADC0C18BF03325FEACA
:1006E000DC0C18BF033202EBDC02C2F1200300FA7B
:1006F00003FC20FA02F001FA03FE40EA0E0021FAA0
:1007000002F11444BDE600BF53B94AB9002908BF3D
:1007100000281CBF4FF0FF314FF0FF3000F074B9DC
:10072000ADF1080C6DE904CE00F006F8DDF804E048
:10073000DDE9022304B070472DE9F047089D044627
:100740008E46002B4DD18A42944669D9B2FA82F284
:1007500052B101FA02F3C2F1200120FA01F10CFAC0
:1007600002FC41EA030E94404FEA1C48210CBEFBF8
:10077000F8F61FFA8CF708FB16E341EA034306FB81
:1007800007F199420AD91CEB030306F1FF3080F010
:100790001F81994240F21C81023E63445B1AA4B25D
:1007A000B3FBF8F008FB103344EA034400FB07F7FF
:1007B000A7420AD91CEB040400F1FF3380F00A8140
:1007C000A74240F207816444023840EA0640E41B35
:1007D00000261DB1D4400023C5E900433146BDE8E1
:1007E000F0878B4209D9002D00F0EF800026C5E983
:1007F000000130463146BDE8F087B3FA83F6002E9B
:100800004AD18B4202D3824200F2F980841A61EB12
:10081000030301209E46002DE0D0C5E9004EDDE730
:1008200002B9FFDEB2FA82F2002A40F09280A1EB18
:100830000C014FEA1C471FFA8CFE0126200CB1FB6D
:10084000F7F307FB131140EA01410EFB03F0884266
:1008500008D91CEB010103F1FF3802D2884200F2F3
:10086000CB804346091AA4B2B1FBF7F007FB101185
:1008700044EA01440EFB00FEA64508D91CEB040423
:1008800000F1FF3102D2A64500F2BB800846A4EB7E
:100890000E0440EA03409CE7C6F12007B34022FA69
:1008A00007FC4CEA030C20FA07F401FA06F31C4398
:1008B000F9404FEA1C4900FA06F3B1FBF9F8200CA5
:1008C0001FFA8CFE09FB181140EA014108FB0EF0EB
:1008D000884202FA06F20BD91CEB010108F1FF3A3B
:1008E00080F08880884240F28580A8F10208614447
:1008F000091AA4B2B1FBF9F009FB101144EA014155
:1009000000FB0EFE8E4508D91CEB010100F1FF34FF
:100910006CD28E456AD90238614440EA0840A0FB97
:100920000294A1EB0E01A142C846A64656D353D06D
:100930005DB1B3EB080261EB0E0101FA07F722FA91
:1009400006F3F1401F43C5E9007100263146BDE8BA
:10095000F087C2F12003D8400CFA02FC21FA03F31D
:10096000914001434FEA1C471FFA8CFEB3FBF7F09E
:1009700007FB10360B0C43EA064300FB0EF69E42C3
:1009800004FA02F408D91CEB030300F1FF382FD25C
:100990009E422DD9023863449B1B89B2B3FBF7F604
:1009A00007FB163341EA034106FB0EF38B4208D9DD
:1009B0001CEB010106F1FF3816D28B4214D9023E1E
:1009C0006144C91A46EA004638E72E46284605E73C
:1009D0000646E3E61846F8E64B45A9D2B9EB02080D
:1009E00064EB0C0E0138A3E74646EAE7204694E79D
:1009F0004046D1E7D0467BE7023B614432E73046D0
:100A000009E76444023842E7704700BFFEE700BFD1
:100A10000B480C4A904203D0121A0B4912F072FD97
:100A20000A480B4A904203D0121A002112F078FDB6
:100A30000AF08AF912F042FD00F018F8FEE700BF54
:100A400000000024E40300241C430108E803002400
:100A500088230124704700BF8446134602480A4693
:100A6000614600F0D3BD00BF040400242DE9F04F1F
:100A7000002195B0714805F071FF03216F4805F022
:100A800071FE30216D4805F08DFE6D4C6D48DFF82C
:100A9000CC816D4D6D4FDFF8C8916D4E6749224690
:100AA00000F008FA404601F0E9FA4FF0000B284642
:100AB00001F036F8DA4609F05FFF01463846D846BD
:100AC00001F0A2F85F4609F057FF5A460146484632
:100AD00001F042FF594805F061FE214630462A46A2
:100AE00000F03EFD5B495548FF2605F037FE2BE040
:100AF000002E61D02146554801F086F84FF0000ADB
:100B000023464F2B1BD94FF4805253494E4801F0D6
:100B100031F8002800F0848003A84C499DED0C1AA0
:100B20004FF48053DDED0B0AA2469DED0A0A4A4AB6
:100B3000009401F05DF903A9484801F0B5FB0120DC
:100B400037462E4609F01AFF09F016FF04464448BE
:100B5000214601F0D1FE99F87C30023B012B3ED9B1
:100B600038490AA82346354A00F00CFB10999DF835
:100B70003A50A1F101013148B1FA81F1490905F07A
:100B80002DFEAE4203D02946344801F093FA9DF879
:100B90004430E3B99DF8383023B9A4EB0803B3F52A
:100BA000FA7F04D30AA92D48A04601F09DFAB5FAB0
:100BB00085F67609002F9BD07DB31FB321462348CD
:100BC00001F022F82548A34601F0D4FBB7E7DDE9A0
:100BD00012239DF84510214801F048FBDAE7194837
:100BE00000F0FCFB1F4801F04FFE01281AD002283C
:100BF0001ED021461A4801F0FBFE01460F4805F0C1
:100C0000EDFDADE74DB1A4EB0B03B3F57A7F96D3C1
:100C10001248A34601F0AEFB91E7A4EB0A0370E78C
:100C2000A2468CE799ED290A0C4801F0BDFBE0E7EC
:100C3000D9F8AC10094801F0E7FBDAE79C4500243D
:100C4000CC040024DC4500249004002498040024F3
:100C500004040024590A00089C050024444600248A
:100C6000DC0400245805002410B512480024124A60
:100C70001249046044610462C46312F043FB104BE8
:100C800010485C6043F8044B5C601C8100F0AEF8D7
:100C90000D4800F031FF0D4800F0A0FF0C4800F0B7
:100CA000A7FB0C4801F0E6F90B48BDE8104001F045
:100CB000F3BD00BF9C45002400000024550A000835
:100CC000CC040024DC450024900400249804002473
:100CD0000404002444460024DC040024F0B50D88FC
:100CE00007464E88013A00F10E044FF0000CAE4268
:100CF0002CBF0023012303732B460AE09E4510D22C
:100D0000734494454FEA530324F8023B0BDA31F85D
:100D1000023FAE420CF1010CB1F802E0EED39E4569
:100D2000EED80020F0BD012318467B73F0BD00BF54
:100D300070B50646407B30B3F0697568002801DD68
:100D4000A84221DD002D4DDD33684FF0010C00205D
:100D50004FF6FF74A3F1020E3EF8023F9942A3EB57
:100D60000102A1EB030392B288BF9AB26346A2428A
:100D700001D260461446AB420CF1010CECDB7389E6
:100D8000A34238BF002070BD6FF000423368B6F850
:100D90000AE00244348933F8122074448A42A4B22F
:100DA00034BF8A1A521A92B29442ECD29E1E012487
:100DB00000204FF6FF7C36F8023F9942A3EB010278
:100DC000A1EB030392B288BF9AB22346624501D2D7
:100DD000204694469D4204F10104ECDCE64538BF10
:100DE000002070BD00204FF6FF74C8E710B4184C07
:100DF00003464FF60B7C002220680021A3F804C0B4
:100E000040F2011CC3F86200A088A3F84C20A3F8AC
:100E1000660018461A601A61A3F818C0A3F84420A7
:100E20009A6483F84E20196559659965DA65A3F8C7
:100E30006020C3E90B22C3E902225DF8044BC3E939
:100E40000722C3E90922C3E90D22C3E90F22704733
:100E5000AC3D010890F844305BB303684BB3B0F885
:100E600060C0F0B5B0F85C40B0F85EE090F84C704F
:100E700090F84D6090F84E50A0F86240A0F864E001
:100E8000A0F866C000201A68BFF35B8F911C42F087
:100E9000010221F001011A601F715E719D71D8710C
:100EA0001C81A3F80AE0A3F80CC0BFF35B8F1960A4
:100EB000F0BD70472DE9F04F00240226054680461C
:100EC00089464FF0010A08F1200B08272DED028B0F
:100ED0009FB045F8042B32468DF814600CA88DF8AD
:100EE0001540059906F0DEFE03238DF818403246C2
:100EF0008DF819300DF14200069906F0D3FE8DF8F9
:100F00001CA08DF81DA03246079915A806F0CAFE50
:100F100007238DF8204032468DF821300DF1660010
:100F2000089909F1180606F0BDFE04230CA9304605
:100F30001A4606F0CBFE304607F0D6F805214846A3
:100F400005F008FC8A4A5346284611682246009458
:100F500007F0E8F9DFED877A87490622874B584684
:100F6000C8F84040B0EE678A88F82D40F0EE678AF6
:100F7000C8F82010C8E90E44C8E90923FFF7AEFEFF
:100F80008246CDED097ACDED0A7ACDED0B7A0AAD28
:100F90000024E1B2304607F0BDF8B5EEC00AF7EE26
:100FA000007AF1EE10FA0FD4B4EE670A0134F1EED4
:100FB00010FA37FE800A30EE080A032C05ED010A0C
:100FC0000BD0B5EC018AE4E79FED6A0A013430EEFC
:100FD000080A032C05ED010AF3D12146304607F03B
:100FE00099F8B5EEC00AF1EE10FA12D4F7EE007AD5
:100FF000B4EE670AF1EE10FA37FE800A0121484686
:1010000078EE808A05F0A6FB013F05D09DED098AA8
:10101000BDE79FED580AF1E708F15C0109A808F166
:1010200050030C46B4EE007AF0EC017AF7EE006A59
:10103000002267EE877AF5EEC07AE3EC017AF1EEF2
:1010400010FA11D4F4EEE67A9FED4D6AB6EE007A0E
:101050004FF6FF72F1EE10FA06DCA7EE867ABCEED0
:10106000C77A17EE102A92B29C4221F8022BD9D1EE
:10107000BAF1000F31D0F4EE007A68EEA78AF5EEEF
:10108000C08AF1EE10FA33D50021039109F074FC07
:10109000039906465846FFF74BFED8F838400546F8
:1010A000A0423BD00446C8F83800C8F84060584613
:1010B000FFF73EFEA042D8F83C5006F1140640D09F
:1010C0002C46C8F83800C8F84060002C08BF2C46F1
:1010D000631E042B98BF88F84C300123404688F8E3
:1010E0004430FFF7B7FE1FB0BDEC028BBDE8F08FB8
:1010F000F7EE007AF4EEE78AF1EE10FA02DD4FF631
:10110000FF71C2E7F6EE007A9FED1D7AE8EE877A6E
:10111000FCEEE77A17EE903A99B2B6E7D8F83C00C1
:10112000854202461CD0D8F84030F31A132B1AD946
:101130005846C8F83C50FFF7FBFDA04206F11406E4
:10114000BED1AC4209D0D8F84010721A132A94BF0D
:10115000D8F83C40C8F83C40B7E72246D8F83C00F5
:1011600004461546B1E72C4614360546E9E700BFAC
:10117000543E010800000000583E01088403F00AB4
:1011800000FF7F472DE9F04F00250C4602F1180BB8
:1011900028222946074604F15C0604F15008BA46A5
:1011A000A9462DED028B83B0019312F0B9F9B4F882
:1011B0004C207A82E26BBA61E9B2584606F0AAFF87
:1011C000B5EEC00AF1EE10FA5FD4F7EE007AB4EE95
:1011D000670AF1EE10FA37FE800AD8ED007A9FED2B
:1011E0007A7A30EE670AE0EE077AF5EEC07AE8EC3C
:1011F000017AF1EE10FA42D4B7EE007AF4EEC77A33
:10120000F1EE10FA44DCB6EE007ADFED706AA7EE7C
:10121000A67AFCEEC77A17EE903A9AB207EE902AB9
:10122000B8EE677AC7EE267AF1883280914234BFF1
:10123000521A8A1A92B2802A05F1010506F10206B5
:10124000EAEC017A28BF4FF00109032DB4D1B6EEC4
:10125000008A2946584687ED038A06F05BFFB5EE03
:10126000C00AF1EE10FA18D4F7EE007AB4EEE70AED
:10127000F1EE10FA40F396804FF6FF710EE0002277
:10128000DFED537A3280F288D5E79FED510AA4E76B
:10129000F0EE477A4FF6FF72C6E7002104F1200016
:1012A000B982FFF745FDA36B984262D0019BA06312
:1012B000E06B2364B8610138042813D9201D4D4622
:1012C00007F016F9637E834220D0019B6076E361CC
:1012D00087F81090002D43D1384603B0BDEC028B47
:1012E000BDE8F08FC0B294F84C308342E6D00023C2
:1012F000012584F84C00B874201D84F84D30FB742F
:101300007D7407F0F5F8637E8342DED1227E9A4237
:10131000DED0E2690199A1EB020ABAF10E0FD7D92A
:101320002376002B30D194F84530002BD0D1012307
:1013300094F84C2084F84530A36C0133A3647B629D
:10134000002A3BD094F84D3040F2011287F81090FB
:1013500083F00103BA831F4A84F84D30FB743A626C
:101360002046FFF777FD384603B0BDEC028BBDE8A1
:10137000F08FE26B90429DD0236C0199CB1A132B16
:1013800094BF1046E06395E794F84530002B9FD05A
:10139000002384F84530A36C7B6201233B770E4B1E
:1013A0003B6295E7F0EE487A9FED087AE0EE077A27
:1013B000FCEEE77A17EE903A99B26FE740F201132C
:1013C000BB83044B3B6283E70AD7A33D00FF7F4703
:1013D00000000000403E0108483E010890F84E2001
:1013E00002B17047012280F84E20FFF733BD00BFE5
:1013F000204BB7EE007A9FED206A9C46DFED1F6A16
:10140000DFED1F7AF0B50025864600F11C0403F1DC
:101410003C068561C0E90055C0E90255C0E90455A4
:10142000BCE80F000FC4BCE80F000FC4BCE80F00FD
:101430000FC49CE8070084E8070003CECEE91655E8
:101440003388CEF862007046AEF860508EED1E6AAA
:10145000CEED1F6A8EF874508EF880508EED217A92
:10146000CEED227ACEF86610AEF86A30CEE91B5582
:10147000F0BD00BFB43D0108000000008888883B33
:101480008888083BF0B5046887B02CB12568BFF3A5
:101490005B8F15F0010701D007B0F0BD03AE221D30
:1014A0000346B44607CAACE80300ACF80020226843
:1014B000BFF35B8F9542EFD1EE46DC6E96E80700F6
:1014C000F446AC42ACE80300ACF80020E4D003F1F1
:1014D000580CDD669EE80700644603C4228093F83A
:1014E0005A20A3F85870012A2FD093F88020002AA0
:1014F000D2D193F8722012B993F87320D2B1D3ED00
:101500001E7A0022F5EEC07AA3F87220F1EE10FAEE
:1015100009DD93F8702032B193F871201AB90122D5
:1015200083F8742006E000220021A3F87020996758
:1015300083F87420624603CA1288C3F86200C3F8B5
:101540006610A3F86A2007B0F0BD93F88010002958
:10155000A2D14FF07E5183F88020C3F884109BE71E
:101560009FED0D7A10B5C0E900120446FFF78AFF1F
:10157000F7EE007A002320EE070A0022A4F8583084
:10158000236787EE807AA26784F88030C4ED217AE1
:1015900084ED227A10BD00BF0BD7233C90F8743045
:1015A000012B13D0022B00D07047D0ED1E7AB7EE7E
:1015B000007AD0ED1F6A77EEA67AF4EEC77AF1EEE4
:1015C00010FA0FDB002380ED1E7A1AE0D0ED1E7AB0
:1015D000002390ED1F7A77EEC77AF5EEC07AF1EE30
:1015E00010FA02D9C0ED1E7A704790F8722090F878
:1015F0007310836780F8702080F8711002B119B100
:10160000002380F8743070470223FAE72DE9F04197
:10161000044682B098460F461646FFF733FF94F80B
:101620008030022B00F08180606810B1002B00F048
:101630009680B8F1000F65D0002520E0DFED526AFA
:10164000F4EE667AF1EE10FA76FEA77A706867EE2D
:10165000277A012A0844C0ED007A4DD1D4ED217AD1
:10166000002394ED227A77EEC77AF5EEC07AF1EE98
:1016700010FA54D9C4ED217A0135A84542D094F826
:101680008020022A41D03B68A90094ED1E5A03EB4A
:101690008503DFED3E5AD4ED216AD3ED007A37EEB3
:1016A000E76AB0EE677AA5EE067AB4EEE57AF1EE77
:1016B00010FA1ED4DFED345AB4EE657AF1EE10FA6A
:1016C00035FE877A336826EE877ADFED306A03EBE2
:1016D000010C8CED007AD4ED1E5A94ED217AE6EEE1
:1016E000257AF4EEE67AF1EE10FAA7D5F0EE667AF6
:1016F000ACE7B0EE657AE5E701352046FFF74EFF2F
:10170000A845BCD102B0BDE8F0813368002203EBEC
:1017100085031A60736803EB85031A60ACE7C4F8AD
:101720008430022384F88030A6E7B8F1000FE9D0B6
:101730004FEA8802D6E9000404EB8808404502D24B
:1017400081188C4210D30021019211F0E9FE019A18
:101750000021204602B0BDE8F04111F0E1BE424652
:10176000396800F0EDF964E7002340F8043B884253
:1017700044F8043BC6D0002340F8043B884244F8B8
:10178000043BF1D1BEE700BF3333733F333373BF44
:10179000002ADFEDC07A2DE9F84307461C462DEDFF
:1017A000028BB0EE408A08DD0B4601EB8205B3ECFC
:1017B000017AAB4277EE877AF9D107EE102AB64D5F
:1017C000501EDFEDB45AB8EEC77A6FF00308DFF8A9
:1017D00024E305F580592E4687EE876A4246AF4BD3
:1017E00008F10408DFEDAE6A9FEDAA7A01E0F3ECA0
:1017F000016A002A8C4605DB82429446A8BF8446D3
:1018000001EB8C0CDCED007A734502F1010277EEFE
:10181000C67AA7EEA67AEAD1A6EC017A4E45E7EEA3
:10182000075ADBD1DFED9F7A25EEA70AB5EE400A15
:10183000F1EE10FA00F12981F1EEC07A9FED9A7A6B
:10184000D7ED086AF4EEC77AF1EE10FA07DD9FEDE6
:10185000977AF4EEC76AF1EE10FA00F3CF809FEDAD
:10186000947ADFED945A27EE877A9FED936AF4EE2F
:10187000C67AA6EEA57AF1EE10FA87ED087A00F1A5
:10188000AE80002140F2F4628C48012611F048FE3F
:101890008B484FEA450C8B4907460CF5805CACEB56
:1018A00001022B469FED7B7AF3EC017AF2EC016AA0
:1018B0008B4277EEE67AA7EEA77AF5D1013640F2B1
:1018C000BD12191FA7EC017A9642E8D17E4D4FF068
:1018D0007E53DFED707A2A467C4942F8043B0123AF
:1018E000F0EC016AB7EE007A9FED796A77EEA67A9E
:1018F000F4EEC67AF1EE10FA07DD07EE103AB8EE14
:10190000C77A67EE266A86EEA77A814203F1010361
:10191000A2EC017AE4D1B5EEC08AF1EE10FA63D5FB
:101920009FED6C7A6C4A0C2302E001338B4256D057
:10193000F2EC017A40F2BD11F4EEC77AF1EE10FA42
:10194000F3D505EB830209E0D2ED017AB2EC017A1E
:10195000F4EEC77AF1EE10FA66D50B46B3F5DE7FEA
:1019600003F10101F0DBDFED4B7A07EE103AF7EE01
:10197000006AB8EEC77A77EE277AF4EEE67AF1EEEF
:1019800010FA2CD9DFED555AB3EE0B6A85EEA77A23
:10199000B4EEC67AF1EE10FA21D4DFED517AB4EE4E
:1019A000E77AF1EE10FA1ADC05EB830384ED007A96
:1019B000D3ED007A76EEE77AF5EEC07AF1EE10FA22
:1019C0005DD4F4EE667AF1EE10FA76FEA77A0A9B01
:1019D0000120BDEC028BC3ED007ABDE8F883BDECBD
:1019E000028B0020BDE8F883F7EE007AB4EEE78AB8
:1019F000F1EE10FA11DD9FED3B7A93E787EEA67AC0
:101A00009FED396AB4EEC67AF1EE10FA7FF727AF90
:101A1000FB6A0B9A13447B6221E7DFED347A9FED7A
:101A20002D7AA8EE677A7DE705EB8302B0EE005AC7
:101A3000DFED2F5A52ED016AB0EE666A97EE056A45
:101A400036EE676AB0EEC67AB4EEE57AF1EE10FAD9
:101A500089D476EEE77AF6EE006AFEEE005A27EEBB
:101A6000A67AC7EE067AF4EEE57AF1EE10FA09D41A
:101A7000F4EE667AF1EE10FA76FEA77A75E7DFEDFE
:101A8000057AA4E7F0EE657A6FE711F0D7FCF0EE87
:101A9000407AD3E6000000004C560024D43E0108F2
:101AA000F1F0F03C0000803AA69B443CBD378635FF
:101AB0009A99193E9A99593F0AD7233C4CE600243B
:101AC00050E60024486600244C46002440ED0024E3
:101AD0005F708930AE47613E7C46002400803B4603
:101AE00000007A44CDCCCC3D3333D33F8FC2F53D9B
:101AF000CCBC8C2BF43E010800220549054B10B4E8
:101B0000C0E90022044C054A5DF8044B704700BF51
:101B10004C6600244CE600244C5600244C4600241D
:101B200010B54FF4004204460021044811F0F8FCBF
:101B300000232360BFF35B8F636010BD4C660024FD
:101B4000036830B492B19C18094DC3F30C02013301
:101B500051F804CB05EB8202A342C2F800C0F4D1D5
:101B60000460BFF35B8F446030BC70471C46F7E7EE
:101B70004C660024531EB3F5805F03D2B1FA81F3A3
:101B80005B0909B90020704770B502F58075466899
:101B9000BFF35B8FB5421CD8A6F580768C460E4D00
:101BA0001946B41A0B19013141F6FF7EC3F30C0339
:101BB0008A4205EB83031B684CF8043BF2DC436864
:101BC000901BBFF35B8F184470458CBF0020012031
:101BD00070BD002070BD00BF4C66002400220021B3
:101BE00010B478248161C161C46201625DF8044B64
:101BF00080F83020C0E90022C0E90222C0E90422B6
:101C0000C0E90922704700BF002300227831036039
:101C100043608360C360036142618361C3610362A7
:101C200080F8302010B47824C0E90912C4625DF84D
:101C3000044B7047B5EEC00AF0B5F1EE10FA154648
:101C40002DED028B83B044D9DFED267A04460E4693
:101C50009FED258A80EE270A244F11F087FB20464E
:101C6000234B3146234EF2EE087AA0EE278AF8FE87
:101C7000487AFDEEE77A17EE904A83FB04234FEA99
:101C8000E47C1D4ACCEB630C0CEB4C030CF1FF3CE9
:101C9000A4EB8303CDF800C00C33A6FB036C4FEA22
:101CA000DC0C0CEB4C0CA3EB8C0357F8233011F03D
:101CB000F5FC07EE904A9FED117AF8EEE77A38EEE0
:101CC000678A28EE078A85ED008A03B0BDEC028B97
:101CD000F0BD00270A4A11F0E1FC2F6003B0BDEC13
:101CE000028BF0BD0000DC4300008A42A03E0108E8
:101CF000ABAAAA2AABAAAAAA683E01080000C84259
:101D0000643E0108D0ED006AD0ED017A90ED020A40
:101D1000F4EEE76A90ED037A90ED046AF1EE10FAC2
:101D200005DDF0EE665AF0EE676AF0EE657AB4EE25
:101D3000C67AF1EE10FA33DCB4EEC60AF1EE10FA10
:101D400005DDF0EE405AB0EE460AB0EE656AB4EE3C
:101D5000C70AF1EE10FA30DCF4EEC76AF1EE10FAC1
:101D600005DDF0EE665AF0EE476AB0EE657AF4EE05
:101D7000406AF1EE10FA36FE800AF4EE467AF1EE91
:101D800010FA76FE277AF4EE477AF1EE10FA77FE33
:101D9000277AF4EE407AF1EE10FA37FE800A7047A7
:101DA000B4EEC70AF1EE10FA0FDDF0EE405AB0EED5
:101DB000470AB0EE467AB0EE656AF4EEC06AF1EE1C
:101DC00010FA0EDDB0EE667AD7E7F0EE475AB0EEC5
:101DD000467AB0EE656AB4EEC70AF1EE10FABBDDE2
:101DE000EBE7F0EE475AB0EE407AB0EE650ABEE798
:101DF000F0B50D461146954A04460020166895F840
:101E000030202DED028B206185B02682360CB0EE9D
:101E1000608A0C9FA674C4E90000C4E90200C4E90A
:101E200005002AB1AA6ABA1AB2F5966F00F2AE801E
:101E3000B5EEC01A00220292F1EE10FA03921AD403
:101E4000F7EE007AB4EEE71AF1EE10FA40F385806F
:101E5000C822EA6299B96B6A00229F42A26180F0AF
:101E6000888095F83030002B40F0A180204605B0E6
:101E7000BDEC028BF0BD3C22EA620029EBD0B3F549
:101E8000805FE8DB1A4603AB28460197009302AB5C
:101E9000FFF77EFC6B6A9DED020ABB4284ED060AE9
:101EA000DFD8002865D095F83020002A40F09480D3
:101EB0009DED035A6B682B60AB686B60EB68AB60A1
:101EC0002B6985ED040AEB606B69042B00F3B78086
:101ED0000133052B6B6100F0B280B5EEC08AF1EEE4
:101EE00010FA00F1A980F7EE007AB4EEE78AF1EE7D
:101EF00010FA00F3A8809FED567ADFED567AE8EEEF
:101F0000077A3AB195ED067A70EE476AA6EEA77A9F
:101F1000B0EE470ADFED507A85ED060AB4EEE75AD7
:101F2000F1EE10FACCBF0123002305DD012285ED7F
:101F3000070AAF6285F8302004F1100004F10C02AA
:101F40000821237084ED010A84ED025AFFF772FE26
:101F5000204605B0BDEC028BF0BDF6EE007A9FED99
:101F60003F7AE1EE077AFCEEE77A17EE902A3C32F0
:101F700082E7002295F830302270002B4CD10023EC
:101F80002046A36005B0BDEC028BF0BD0022686165
:101F9000A8622A606A60AA60EA602A61AA61EA61AE
:101FA0002A6207F1780285F830006A6240E7002073
:101FB00095ED070A4FF07A5304F10C0220700821C6
:101FC00004F1100084ED010AA360FFF733FE204600
:101FD00005B0BDEC028BF0BDD5ED077ADFED206AD0
:101FE00080EE277AB4EEE67AF1EE10FA07DCDFED48
:101FF0001D6AB4EEE67AF1EE10FA7FF559AF9DED69
:10200000035A9FED197AB4EEC75AF1EE10FA7FF534
:1020100051AF0023237001E0D5ED077A134BB0EEEA
:10202000670A04F10C02082104F11000A360C4ED5A
:10203000017AFFF7FFFD19E7DFED067A61E7284631
:10204000FFF760FE49E7DFED0A7A5AE7643E0108D0
:1020500014AEC7BE6666E63ECDCCCC3E00000C4357
:102060009A99F93FB81E053F6666663FCDCC4C3E57
:1020700090C2753D0022C0E90022704710B50C4A9D
:1020800088B001230021B2F800C04FF4E13403937B
:1020900006930491029101A9059393880794ADF8E2
:1020A00004C0ADF8063008F0E3F908B010BD00BF79
:1020B000FC3D010810B588B00B460A4A20210446B1
:1020C000684611F0EBFA6846FEF70AF90A23024661
:1020D0006946204608F036FA10B163680133636040
:1020E00008B010BDF43E010891ED007AB5EEC07A5B
:1020F00030B5F1EE10FA9DB0044640D4F7EE007A08
:10210000B4EEE77AF1EE10FA40F3998091ED017A9E
:1021100042F21073B5EEC07AF1EE10FA37D5002016
:1021200091ED027AB5EEC07AF1EE10FA3FD4F7EEF7
:10213000007AB4EEE77AF1EE10FA5CDD91ED037A05
:1021400042F21075B5EEC07AF1EE10FA37D50022E2
:1021500060210292434ACDE9000504A811F09EFADD
:1021600004A8FEF7BDF80A23024604A9204608F099
:10217000E9F910B16368013363601DB030BD00231D
:1021800091ED017AB5EEC07AF1EE10FAC7D4F7EE10
:10219000007AB4EEE77AF1EE10FA3EDD91ED027AC4
:1021A00042F21070B5EEC07AF1EE10FABFD50025FC
:1021B00091ED037AB5EEC07AF1EE10FAC7D4F7EEDE
:1021C000007AB4EEE77AF1EE10FA02DD42F2107214
:1021D000BEE7F6EE007ADFED246A42F21071E7EE18
:1021E000267AFDEEE77A17EE902A8A42A8BF0A46C1
:1021F00022EAE272ACE7F6EE007ADFED1B6A42F209
:102200001072E7EE267AFDEEE77A17EE905A9542C5
:10221000A8BF154625EAE575CAE7F6EE007ADFEDB8
:10222000126A42F21072E7EE267AFDEEE77A17EEB6
:10223000900A9042A8BF104620EAE07070E7F6EEE0
:10224000007ADFED096A42F21072E7EE267AFDEEBF
:10225000E77A17EE903A9342A8BF134623EAE37356
:102260008EE700BFFC3E010800401C4610B5144636
:102270009AB01A460B46009460210446019202A8C7
:10228000084A11F00BFA02A8FEF72AF80A230246C0
:1022900002A9204608F056F910B163680133636063
:1022A0001AB010BD0C3F010891ED017AB5EEC07A6D
:1022B00010B5F1EE10FAA4B0044653D4F6EE007A4D
:1022C000DFED296AE7EE267AFDEEE77A17EE900A4F
:1022D0009FED266AF6EE006A91ED037AFEEE007A33
:1022E00027EE067A91ED026AB5EEC07AF1EE10FAA9
:1022F000B5EEC06A66FEA77A77EE877AF1EE10FA3D
:10230000FDEEE77A09D4B7EE007AB4EEC76AF1EED3
:1023100010FA1EDD4FF47A7300E00023CDED027A4F
:10232000009004A8039311F8103B114A01918021F9
:1023300011F0B4F904A8FDF7D3FF0A23024604A95B
:10234000204608F0FFF810B163680133636024B0E1
:1023500010BD9FED057AE6EE076ABDEEE67A17EE50
:10236000103ADBE70020B3E700007A440000C842DF
:10237000183F01080B4A002300B5126889B04FEAE4
:10238000124C01A9059301930493ADF814208DF824
:1023900016C0CDE90233CDE90633FFF785FF09B05A
:1023A0005DF804FB643E0108DFED156ABEEE007ABD
:1023B000F6EE007A134A20EE260A302110B5B5EE6B
:1023C000C00A8CB004466846F1EE10FA67FE877AC0
:1023D00077EE807AFDEEE77A17EE903A11F05EF92B
:1023E0006846FDF77DFF0A2302466946204608F04D
:1023F000A9F810B16368013363600CB010BD00BF71
:102400000000C8422C3F010810B58CB00B460A4AA8
:1024100030210446684611F041F96846FDF760FF37
:102420000A2302466946204608F08CF810B163681A
:10243000013363600CB010BD3C3F0108394A4FF6D0
:10244000FF71138CF0B5A0F8703089B0B2F840403D
:1024500005468C4218BFA342A0F8724003F1FF3337
:10246000B2F860202CBF012400244FF6FD719BB20E
:10247000A0F87420013A8B4288BF44F0010492B264
:102480008A4288BF44F001042CB1032300248366F0
:10249000204609B0F0BD244B214604270126D3F87D
:1024A000E02042F08072C3F8E0206422D3F8E030EC
:1024B00003F080730093009B11F032F84FF48023F7
:1024C0001A4A28462F61AE61C5E900234FF48053B4
:1024D0002B6301F0FBF810B10223AB66D8E740F2A2
:1024E000FF724FF00111284601F0FCF90028F3D1EA
:1024F0000F4B062201A92846019307230597CDE932
:10250000022340F2FF73CDE90644049300F0ECFB94
:102510000028E1D1304608F031FAAC6685F86460F5
:102520003446B5E700E8F11F004402580060025845
:10253000000084CBF0B5002389B017460622019134
:102540000446CDE906330723CDE90223042340F2F4
:10255000FF720DEB0301CDE9042300F0C5FB00BBC6
:1025600008260546204600F08DFE0346022120463F
:10257000A3B900F0E1FA034620467BB900F064FB02
:10258000034620461D4400F0BBFF50B9013EE9D18F
:1025900004350120ED083D8009B0F0BD204600F073
:1025A000AFFF002009B0F0BD10B54FF6FE7C00F182
:1025B000FF3EE6452DED028B68D801F1FF3EE64572
:1025C00064D802F1FF3EE64560D803F1FF3EE645E0
:1025D0005CD8049CA34238BFB4F5803F56D2069C19
:1025E000A446059CA44551DD049CB4EB030C6EEBA2
:1025F0000E0EBCF1010F7EF1000447DB07EE902ABE
:1026000005EE903A9FED241BB8EEE74B07EE901ACB
:10261000B8EEE55B7146B8EEE76B07EE900A24EE84
:10262000014B6046B8EEE77BDDE9052384EE062B1F
:102630009B1A03EE103AB8EEC33B22EE077B87EEFF
:10264000018B38EE458B28EE038BFEF72FF8DDED7E
:10265000057A079BB8EEE77BFBEE045A41EC160BBC
:1026600088EE066B36EE077BB7EEC77BB4EEE57AF5
:1026700083ED007AF1EE10FA08DBDFED097AB4EEB3
:10268000E77AF1EE10FA01D8012000E00020BDEC5D
:10269000028B10BDAFF300800000000000C8A9400D
:1026A00000000243002391F8642030B5C0E90033F4
:1026B000836085B08B6E0446C36012B9204605B0B6
:1026C00030BD0D4600F1080215492846FFF732FFDC
:1026D00048B195F8643033B104F10A021149284633
:1026E000FFF728FF20B904232046E36005B030BD82
:1026F000A96F231DB5F8722002911E210393009249
:10270000B5F87030B5F87420019161892089FFF720
:102710004BFF0028207014BF00230523E360CDE7A2
:10272000000084CB0000B8CF03789A1E012A78D924
:10273000CA6810B40C89026384850C78002C5AD0C6
:10274000BBEE047AD1ED017AF4EEC77AF1EE10FA1D
:1027500051D49FED477AF4EEC77AF1EE10FA4ADCD5
:102760009FED447A0022F4EEC77A4262F1EE10FA4D
:1027700058DA81694A1C00EB81015442C1ED017AAB
:1027800002F0030204F0030158BF4A4241690329E1
:10279000826103DC01310029416158DD021DDFED5A
:1027A000367A02EB8104B2EC017AA24277EE877AA4
:1027B000F9D107EE101A9FED316AB8EEC77AC7EE6D
:1027C000876AF4EEC66AC0ED0A6AF1EE10FA41DAE1
:1027D000DFED2B7A0022F4EEE76A0262F1EE10FAE6
:1027E00029DBC3690133022BC36101DD01230370BF
:1027F0005DF8044B7047436A00210133022B4362AA
:10280000C0E90711F4DD8A424FF002034FF00301E3
:102810005DF8044B08BF052280F834300170026374
:102820007047704702210123C0ED0A7A02630170EC
:1028300080F83430DCE7012BC261D9D1DFED117AA9
:10284000F4EEE76AF1EE10FA98BF0270D0E7DFED20
:102850000A7AAEE7036A00220133022BC0E907239C
:10286000C6DD022101230263017080F83430BFE726
:10287000000002430000C842000000000000B44213
:102880000000A042000096420346002290F8340067
:1028900083F83420704700BF10B56422002104463D
:1028A00010F03EFE002300220221204684F864300E
:1028B0002367A4F87430A36784F87C30C4F88020C0
:1028C000C4F88420C4F88820C4F88C20C4F8A03050
:1028D000C4F8A420A4F8A830C4F8AC3084F8B03010
:1028E000A4F8BC30C4E91A13C4E92433C4E926337C
:1028F000C4E92D3310BD00BF70B590F8BC6084B042
:10290000DEB190F87C300446023B012B18D9D0F898
:10291000B4300D46CB1A632B12D90146C0F8B4501F
:102920006846FFF7BFFE694604F17C00FFF7FCFE36
:1029300094F87C30023B012B06D9304604B070BDC0
:102940000026304604B070BDD4F8B830002BF4D166
:10295000C4F8B850F1E700BF00234FF0000C70B589
:1029600080F87C300446C0F880C00D46C0F884C0B2
:102970001646C0F888C0C0F88CC0C0F8A030C0F8B7
:10298000A4C0A0F8A830C0F8AC3080F8B030C0E9DE
:102990002433C0E9263300F0C9F880B2E066D8B12C
:1029A0004FF6FF73984217D041F2030398428CBF51
:1029B00082236E232046A367FFF740FDA5F1640341
:1029C000002284F8BD00C4F8B4300123C4F8B82054
:1029D00084F8BC302EB970BD00200623A067A36622
:1029E000ECE729462046BDE87040FFF785BF00BFF1
:1029F00090F87C30023B012B15D8D0F8B82040F27B
:102A000014530A48891AA0FB0120800A03FB101006
:102A1000B0F5167F07D2064BA3FB0030C0F3401081
:102A200080F0010070470020704700BFFD33A6C949
:102A30001F85EB51704700BF0F4B1B780BB901206E
:102A4000704710B504464FF47A700C4AB0FBF3F3AC
:102A50001068B0FBF3F001F06BF80F2C00D808B150
:102A6000012010BD002221464FF0FF3001F000F898
:102A7000034B00201C6010BD04000024440200240D
:102A80000800002438B50320124D00F0DFFF124C7F
:102A900002F0F8FA114A12499369C3F30323CB5C9D
:102AA00003F01F0320FA03F30E202B60926902F05B
:102AB0000F028A5C02F01F02D3402360FFF7BCFFC5
:102AC00010B10124204638BD0446FFF7B3FF20466D
:102AD00038BD00BF440200244802002400440258CC
:102AE00008400108034A044B11681B780B4413602B
:102AF000704700BF4CF6002404000024014B186806
:102B0000704700BF4CF6002438B50446FFF7F6FFC7
:102B10000546631C02D0044B1B781C44FFF7EEFFF4
:102B2000431BA342FAD338BD04000024014B1868AC
:102B3000000C70470010005C3F4A036893422DE987
:102B4000F04105460E4657D002F58072934253D0AD
:102B50003A4A2C699768082C07F01F070AD0092FFA
:102B60004CD840F22121F940C90747D5DB68DA0784
:102B700048D40424FFF7C2FF8046731C2A6827D17B
:102B800013681C42FCD06B6D43F400736B65D36813
:102B900013F4406F0FD16B7D6BB9136818070AD51A
:102BA0006B6D23F480736B656B6DD90403D46B6D0F
:102BB00043F001036B65224B9A422ED0D068082C5B
:102BC00027D010F4804034D10C231360BDE8F0818D
:102BD00013682342D7D1FFF791FFA0EB0800B04262
:102BE00001D8002EC9D16B6D0022032043F00403ED
:102BF00085F850206B65E9E7124AAAE7936813F459
:102C0000404FB6D06B6D012043F020036B65BDE8EB
:102C1000F08100201460BDE8F081092F02D9064B35
:102C2000D868CCE740F2212323FA07F7FB07C5D485
:102C3000F5E70020BDE8F081002002400063025863
:102C400000210240002302400368186C704700BF57
:102C5000704700BF806B08B5FFF7FAFF08BD00BFE3
:102C6000836B5A6D12F0500F5A6D10B51DD1196853
:102C700042F400725A650A6812F0080FCA681BD045
:102C800012F4406F0DD1CA6894040AD45A6D22F42C
:102C900080725A655A6DD10403D45A6D42F0010214
:102CA0005A65184605F098FA10BDD2060AD4DB6CB6
:102CB000BDE81040DB6C18479007E7D0184605F0D8
:102CC0008BFAF1E7184605F02BFB10BD806B08B5B9
:102CD000436D43F040034365836D43F00403836514
:102CE00005F01EFB08BD00BFF0B5002283B00192C5
:102CF00090F85020012A00F01C81034601201A6838
:102D000083F850009468640700F18A800C68C4F36B
:102D10001305002D40F08F80C4F38464A0404D68FB
:102D20004FF01F0ED6694FEA951C30430CF00C0C87
:102D3000D06105F01F0002F1300584400EFA00FE5C
:102D40005CF8050020EA0E0004434CF8054090684A
:102D500040076ED4956815F0080547D10C68072028
:102D600002F11406B94F4FEAD45CC4F304540CF0DA
:102D7000040C00FA04FE886800FA04F45CF806000B
:102D800020EA0E0020434CF80600386800F070403E
:102D9000B0F1805F00F0C580D068D668C70600F14A
:102DA000E880C6F382064869760000FA06F60F69E5
:102DB000042F00F0C18002F16004086854F827C0B5
:102DC00000F0F8400CF0004C40EA0C00304344F8AE
:102DD0002700487E0E69012854F8260008BF4FF0EE
:102DE000004520F00040054344F826509068C40791
:102DF00014D4CE68086806F01807954CD2F8C05075
:102E0000FC40C0F31307044025EA07052C43C2F831
:102E1000C040904CA64246D0002816DB002003E0BC
:102E20005A6D42F020025A65002283F8502003B008
:102E3000F0BD9068DAE794FAA4F5B5FA85F5C4F325
:102E4000846405F01F05A84069E783498A4200F0C1
:102E5000B68001F580718A4200F0B1807F4D804CD0
:102E6000A968A46801F0E076E44304F00104002CB2
:102E700000F0B4807B4CA04200F0FC807A4CA04271
:102E800000F01A81794CA042C8D14902C6D47449D5
:102E90008A42C3D1AA68002022F0E072324342F491
:102EA0008002AA60C0E7002F6AD090FAA0F4B4FABA
:102EB00084F4013404F01F04092C00F2A48090FA79
:102EC000A0F4B4FA84F490FAA0F5B5FA85F50134CB
:102ED00001260135A40605F01F0504F0F84406FAA2
:102EE00005F52C4390FAA0F0B0FA80F0304400F0E1
:102EF0001F0000EB400000052043C60D02F1140541
:102F0000C0F30450072406F0040604FA00F77459CD
:102F100024EA07048F6807FA00F02043705108681C
:102F20007AE7D6684869C6F38206760000FA06F6A4
:102F30003DE7022003B0F0BD106E0C6800F0F840D1
:102F4000A506B0EB846F30D0506E00F0F84085429B
:102F500026D0906E00F0F84085422BD0D06E00F065
:102F6000F84085427FF442AFD06E20F00040D0663A
:102F70003CE77608486906F0080600FA06F616E708
:102F8000800E441C04F01F06092E2DD8A406012033
:102F900004F0F844B040044306EB46000005ABE7FC
:102FA000506E20F000405066D3E7106E20F00040D5
:102FB0001066C9E7906E20F000409066CEE7264C80
:102FC0002B4D04F58074A96854F8F86CA468344358
:102FD00001F0E076E44304F0010448E75A6D012073
:102FE00042F020025A651FE706EB4600A5060124C1
:102FF0001E3805F0F84504FA06F60005354340F0A2
:103000000070284379E790FAA0F5B5FA85F590FAB3
:10301000A0F4B4FA84F4013501260134AD0604F0BD
:103020001F0405F0F84506FA04F4254390FAA0F4CD
:10303000B4FA84F4344404F01F0404EB4404A4F10F
:103040001E00000540F00070DBE700BF0010005CD0
:10305000FFFF0F000000FF470020024000630258FE
:1030600000600258000084CB000052C70000B8CFB7
:103070000023024008023FF5D1AE17498A427FF48F
:10308000CDAE164AA9681268154821F0E071920980
:103090003143A0FB020241F400019209A9605200F1
:1030A0000192019A002A3FF4B9AE019A013A0192C5
:1030B000019A002AF9D1B1E611F080707FF4AEAE2A
:1030C00005498A427FF4AAAEAA6822F0E072324330
:1030D00042F08072AA60A7E6006002584402002411
:1030E000632D3E0503689A6812F0040F9A6870B564
:1030F000044603D1120701D4002070BDDA6895019F
:1031000004D5A08A40F2011290421AD002299A688E
:103110003ED0550708D59A68900705D498682C4A80
:10312000024042F010029A60012919D09A681207F1
:1031300002D59A68900732D5032914BF04260C26BD
:103140000FE01A68500606D4224A01E0013A16D070
:1031500019684906FAD540221A609A68560725D49C
:103160000426FFF7CBFC054604E0FFF7C7FC431B32
:10317000052B04D823689B683342F6D1BCE7636D06
:10318000012043F010036365A36D0343A36570BD85
:10319000150702D59A68920713D50826E1E79868C3
:1031A0000B4A024042F020029A60C5E79A689607EF
:1031B000D6D499680426064A0A4042F010029A6062
:1031C000CFE79968024A0A4042F020029A60E4E799
:1031D000C0FFFF7F00DC0C0003689A68D20701D5AE
:1031E000002070479968214A114270B5044608D002
:1031F000636D012043F010036365A36D0343A36572
:1032000070BD99681A4A0A4042F001029A60FFF7BD
:1032100075FC2368174A054693421ED002F580725A
:1032200093421AD0144A9268114E0AE09A683240CA
:1032300042F001029A60FFF761FC401B0228D7D8D8
:1032400023681A68D2070FD49A68D107EED5FFF722
:1032500055FC401B0228F3D9CAE7084A9268D006F9
:10326000E2D0074A9342DFD1002070BD3F000080CA
:10327000C0FFFF7F0020024000630258002302408D
:1032800000210240394A0368934270B5044646D093
:1032900002F58072934242D0354A96689D6815F0D7
:1032A000040542D194F85030012B3ED00123204632
:1032B00084F85030FFF790FF002838D1636D06F096
:1032C0001F062C4A1A40236842F4807262652A4A1B
:1032D000934245D01946626D22F480126265626D98
:1032E00012F4805240D0A26D22F00602A2651C2288
:1032F0008B421A604FF0000284F8502020D0092E33
:1033000018D9636D43F480136365CB689B0105D5C1
:10331000636D23F4405343F48053636570BD174AD3
:1033200096689D6815F00405BCD0022070BD84F835
:10333000505070BD40F2212222FA06F6F507E0D582
:10334000DA68920105D5626D22F4405242F480524F
:10335000626599680A4A0A4042F004029A6070BDA8
:103360000249002EB7D0BAE7A265C0E700200240AC
:1033700000630258FEF0FFFF0021024000230240DC
:10338000C0FFFF7F2DE9F0413A4D044600680F462B
:103390001646A84219D0384B984216D0374DAB6824
:1033A0008068420716D494F85020012A12D003F006
:1033B0001F080122B8F1090F84F850200DD900230D
:1033C000012084F85030BDE8F0812D4DAB68806855
:1033D0004207E8D50220BDE8F08140F2212323FA1C
:1033E00008F3DB4313EA0205E9D12046FFF7F4FEB8
:1033F000002839D1626D234B2168134043F4807358
:103400006365B8F1000F02D01B4B994203D0636D86
:1034100023F480136365636D13F4805328D0A36D88
:1034200023F00603A365E06C3346174D3A4640315E
:10343000C563164D0564164DC5641C2541F8405CF6
:10344000002584F8505051F83C5C45F0100541F8D7
:103450003C5C00F07DFE22680E4B91680B4043F00F
:1034600004039360BDE8F08184F85050BDE8F0811A
:10347000A365D8E700200240002102400063025803
:1034800000230240FEF0FFFF612C0008552C0008CD
:10349000CD2C0008C0FFFF7F38B503689A689107FC
:1034A00002D59B68002038BD9A68D20723D59A6858
:1034B000044602F00D02012A08D0636D012043F09A
:1034C00010036365A36D0343A36538BD98680321AA
:1034D0000A4A024042F002029A601960FFF70EFBAE
:1034E000054604E0FFF70AFB401B0228E5D82368E5
:1034F0009B68DB07F6D4002038BD00BFC0FFFF7F0C
:1035000090F85030012B1BD00123032110B580F817
:1035100050300446FFF7E6FD18B1002384F8503020
:1035200010BD2046FFF7B8FF0028F6D1626D054BAD
:10353000134043F001036365002384F8503010BD4D
:1035400002207047FEEEFFFF38B5574A0446036875
:10355000934226D002F58072934222D0534B9B684F
:1035600013F4403F22D001F047FF63680546B3F5EE
:10357000003F00F08880B3F5403F70D0B3F5803F46
:1035800000F08180FFF7D2FA41F2030398422DD870
:10359000474B9D425DD92268936843F480739360E2
:1035A00038BD444B9B6813F4403FDCD14FF40020FE
:1035B00002F0EEFF63680546B3F5101F6DD008D822
:1035C000B3F5E01F55D01AD9B3F5001FDAD145097C
:1035D000D8E7B3F5201F4AD0B3F5301FD2D1FFF79B
:1035E000A5FA41F20303984233D92D0A324B9D428A
:1035F0001DD82268936823F44073936038BDB3F5F7
:10360000801F06D00AD9B3F5A01F02D0B3F5C01FA2
:10361000B8D19B0C5B00B5FBF3F5B3E7B3F5002F16
:10362000F7D023F40022B2F5802FF2D0AAE7234B83
:10363000234A2B4493421ED9224B234A2B449342C4
:10364000226893682BD823F4407343F4007393608B
:1036500038BD2268936823F48073936038BD850871
:10366000FFF764FA41F203039842BFD890E7C50917
:1036700088E7050986E72268936823F4407343F4DA
:103680008073936038BD1B0CB5FBF3F5FFF74EFA62
:1036900041F203039842A9D87AE7850972E743F417
:1036A0004073936038BD00BF0020024000630258A1
:1036B000002D310100230240105E5F00EFA1A0FF4A
:1036C0000F5E5F00DF4341FF1FBCBE0030B500232B
:1036D00083B00193002800F0D080456D0446002D92
:1036E00000F0BA80226893689B0003D59168714B03
:1036F0000B4093609368DD0015D46F4B90686F4961
:103700001B6801406E489B0941F08051A0FB0303F8
:1037100091609B090193019B2BB1019B013B01939C
:10372000019B002BF9D19368D80024D4636D012547
:1037300043F010036365A36D2B43A365936813F0F7
:10374000040F636D1DD1D9061BD4636D23F48173FF
:1037500043F0020363659368DB0728D4594B9A4210
:1037600017D003F580739A4213D0574B9B68D90743
:103770001DD4564A15E09368002513F0040F636DBD
:10378000E1D0636D012543F010032846636503B063
:1037900030BD4C4A4E4B92689B681343D80706D401
:1037A0004C4A9368616823F47C130B439360FFF7E2
:1037B000BDF941F20303A1689842237F52D894F8DF
:1037C00015C01A04206B42EA4C3202430A43012B13
:1037D00003D1236A013B42EA4342636A23B103F403
:1037E0007873A16A0B431A4323683B49D8680140A8
:1037F0000A43DA609A6812F0040F9A681CD1120723
:103800001AD4D868354A217D024042EA8132E16A01
:103810000A43DA6094F83820012A3AD01A6922F073
:1038200001021A611A692046616B22F070420A4354
:103830001A61FFF789FE2368E268012A21D01A6B1A
:1038400022F00F021A63636D284623F0030343F04E
:103850000103636503B030BD04F06CFCA56584F81A
:1038600050503FE71029AAD1617D1A0442EA413243
:10387000216B0A4342F01C02A9E70125284603B048
:1038800030BD196BA26921F00F01013A0A431A6396
:10389000D9E7D4E9102118690A43114901400A43C4
:1038A000A16C0A43E16B42EA014242F001021A6153
:1038B000B8E700BFC0FFFF5F44020024C0FFFF6FF6
:1038C000632D3E050020024000600258006302584C
:1038D000002102400023024003C0F0FFFCBFFFFFB5
:1038E0001EF800FCF0B5002383B0019390F850302F
:1038F000012B40D0012304460E46154680F8503077
:10390000FFF7CAFDE8B9676D05F080421B4B06F46E
:1039100080311B4D3B401B4F43F00203636523681E
:103920009E68354015430D4345F000459D609A68FB
:10393000002A0FDB636D23F0030343F0010363658B
:1039400003E0636D43F010036365002384F8503097
:1039500003B0F0BD019A01320192019ABA42E6D950
:10396000636D0022012023F0120384F8502043F0FD
:1039700010036365ECE7022003B0F0BDFDEEFFFF2E
:10398000C0FFFE3FFF955A55F0B490F850200E68E6
:10399000012A49D00346294A01201C6883F85000B7
:1039A000944208D05A6D002142F0200283F8501052
:1039B0005A65F0BC7047224DAA6852070AD5A26822
:1039C0005A6D012042F020025A65002283F85020EF
:1039D000F0BC7047A06810F00400F1D1C6B1DFF868
:1039E00068C04F68DCF8082022F440423A43CCF823
:1039F0000820A468AA682243D40713D48A68DCF894
:103A0000081016430F4A0A401643CCF80860DCE75A
:103A10000D498A6822F440428A60A068AA6802437D
:103A2000D00704D50020D0E70220F0BC70478C6896
:103A30003046044A22408A60C7E700BF00200240A7
:103A400000210240E0F0FFFF0023024006494FF64C
:103A5000FF0C0002054BCA6800F4E06002EA0C02A9
:103A600010430343CB60704700ED00E00000FA050F
:103A70001B4BDB68C3F3022300B5C3F1070E03F150
:103A8000040CBEF1040F28BF4FF0040EBCF1060F6A
:103A90001AD9033B4FF0FF3C0CFA03FC22EA0C025C
:103AA0004FF0FF3C00280CFA0EFC21EA0C0101FA51
:103AB00003F141EA02010ADB09010A4BC9B20344DE
:103AC00083F800135DF804FB00221346E8E700F0DA
:103AD0000F000901044BC9B2034419765DF804FBD9
:103AE00000ED00E000E100E0FCEC00E0002807DB76
:103AF00000F01F0101234009024A8B4042F82030A8
:103B0000704700BF00E100E000280DDB43090122FF
:103B100000F01F000549203302FA00F041F82300AD
:103B2000BFF34F8FBFF36F8F704700BF00E100E01E
:103B3000431EB3F1807F0CD24FF0E02200200649F3
:103B40004FF0F00C5361072381F823C0906113619B
:103B500070470120704700BF00ED00E0BFF35F8FAA
:103B6000044B00215A6A22F480325A62C3F894103E
:103B7000704700BF00ED00E0064B40F00100C3F8C5
:103B800094005A6A42F480325A62BFF34F8FBFF3F7
:103B90006F8F704700ED00E0174A4378C2F8983005
:103BA000017821B3436800B5C2F89C30C37A90F81D
:103BB0000CC01B0690F80FE043EA0C7390F80AC0A3
:103BC0000B43817B43EACC4390F80DC043EA8C431E
:103BD00090F809C043EA4143017A43EA0E4343EABD
:103BE0000C2343EA4103C2F8A0305DF804FBC2F89D
:103BF0009C10C2F8A010704700ED00E0704700BFB5
:103C000008B5FFF7FBFF08BD0268344B344930B4F8
:103C1000344D354CAA4218BF9A420CBF01230023F1
:103C20008A4208BF43F001033031A24208BF43F08B
:103C3000010330348A4208BF43F001033031A2420D
:103C400008BF43F0010330348A4208BF43F0010348
:103C500001F55C71A24208BF43F0010304F55C74F6
:103C60008A4208BF43F001033031A24208BF43F04B
:103C7000010330348A4208BF43F001033031A242CD
:103C800008BF43F0010330348A4208BF43F0010308
:103C90003031A24208BF43F001038A4208BF43F01B
:103CA000010313B9114B9A4213D1D3B21049114CED
:103CB000103BA1FB03515F2B0F4BC1F3021103EA31
:103CC0000203615C88BF0433C1658365184630BC5C
:103CD000704722F0FF038365F8E700BF1000024041
:103CE000400002402800024058000240B804024050
:103CF000ABAAAAAA503F010800FCFFFF0368294AAB
:103D0000294930B4294D2A4CAB4218BF93420CBF0D
:103D1000012200228B4208BF42F001022831A34257
:103D200008BF42F0010228348B4208BF42F0010272
:103D30002831A34208BF42F001028B4208BF42F083
:103D4000010212B91B4A934213D1DBB21A4C1B4A2F
:103D50000121083B1A4DA4FB0343456602EB1312F5
:103D6000C3F30413920001FA03F30266836630BCC6
:103D70007047DAB21349144C1944103AA829A4FB2D
:103D800002234FEA131300D80833104A03F01F052B
:103D900001210F4C1A44A9404466920081660266D4
:103DA000E5E700BF08540258305402581C5402582A
:103DB0004454025894540258CDCCCCCC00960016F2
:103DC00080580258F0FBFDBFABAAAAAA00820010DF
:103DD0008008024070B50446FEF790FE002C00F00B
:103DE000C68023680546954A934248D018329342CC
:103DF00045D0303292498B4218BF934201F13001D5
:103E00000CBF012200228B4208BF42F00102183190
:103E10008B4208BF42F0010218318B4208BF42F0CA
:103E2000010218318B4208BF42F0010201F55671C0
:103E30008B4208BF42F0010218318B4208BF42F0AA
:103E4000010218318B4208BF42F0010218318B4247
:103E500008BF42F0010218318B4208BF42F0010254
:103E600018318B4208BF42F0010218318B4208BF63
:103E700042F001021AB9734A934240F0F5800222DF
:103E8000002184F8352084F834101A6822F00102E9
:103E90001A6005E0FEF732FE431B052B40D823686D
:103EA0001A68D107F6D4D4E9022521692A43A0690A
:103EB0001D680A4361690A43E16902430A43624992
:103EC0002940256A2A430A43616A04292FD01A60CF
:103ED0005A6922F00702114359612046FFF794FE08
:103EE000E26D3F2302F01F02934083602046FFF7FC
:103EF00005FFA368802B3CD06368A06EDAB2013B5B
:103F0000D4E91851072B2A60486026D90023C4E958
:103F10001B33636700200123606584F8353070BD72
:103F2000202203230120626584F8353070BDD4E976
:103F30000B5129430A431A605969A26A21F007010B
:103F4000114341F00401002DC6D000284FD1012AB1
:103F50006ED032F00202BFD151E0501E072810D9B6
:103F6000626FD4E91B31002018604A60D2E701205B
:103F700070BD0023A16ED4E9180263600360516034
:103F8000C4E72168314B324DA94218BF994205F16F
:103F900014050CBF01230023A94208BF43F001030D
:103FA0001435A94208BF43F001031435A94208BFE4
:103FB00043F001031435A94208BF43F0010314354F
:103FC000A94208BF43F001033BB9224B994204D0F8
:103FD000214B224913449B0003E0214B2149134408
:103FE0009B0001228240C4E91B316267BBE7B0F548
:103FF000005F0ED0022A05D9032A7FF46DAFEA01D3
:104000007FF56AAF012340221846626584F8353097
:1040100070BD032A3FF660AF01A050F822F000BF48
:1040200005400008FF3F0008054000083140000837
:10403000B5F1C07F7FF450AFE4E700BF100002404D
:1040400040000240B80402403F8010FE085402586D
:104050001C540258945402583F82001040090240F8
:104060003F96001640590258324A3348334983423A
:1040700018BF934200F128000CBF012200228B429E
:1040800008BF42F001022831834208BF42F001021A
:1040900028308B4208BF42F001022831834208BF1A
:1040A00042F001028B4208BF42F0010212B9244AD9
:1040B000934238D102220021224D84F8341084F832
:1040C00035201A681540A268402A2AD0802A0CBFE1
:1040D0004FF480400846266AD4E90312D20842EA27
:1040E000D102616942EAD102A16942EAD102E169E1
:1040F00042EAD102144942EA161219442A43024301
:104100001248A0FB010120461A600B099B00E365E1
:10411000FFF77AFDE26D012302F01F029340436036
:10412000E4E61020D7E7402203230120626584F8EB
:10413000353070BD085402581C540258305402588F
:10414000945402580F00FEFFF8ABFDA7CDCCCCCCA9
:10415000002800F0BC80844690F83400012800F06C
:10416000B88001202DE9F0419CF835408CF83400EE
:10417000844208D000224FF400638CF83420CCF83D
:104180005430BDE8F0810220DCF800507A4C8CF805
:1041900035000020794ECCF854007948854218BF8C
:1041A000A54200F118000CBF01240024854208BF7D
:1041B00044F001041830854208BF44F0010418306F
:1041C000854208BF44F001041830854208BF44F01E
:1041D000010400F55670854208BF44F00104183010
:1041E000854208BF44F001041830854208BF44F0FE
:1041F00001041830854208BF44F00104183085429C
:1042000008BF44F001041830854208BF44F001049F
:104210001830854208BF44F001041830854208BFB9
:1042200044F00104A0F59560B54218BF8542DCF862
:104230006C600CBF0120002054EA0008286820F0C0
:1042400001002860DCF86400DCF86840DCF8587095
:10425000446040D016B1DCE91C044460DCF85C002A
:104260004FF03F0E00F01F000EFA00F0B860286813
:1042700020F4802028606B60DCF80830402B23D0CD
:10428000A960EA602B6823F01E0343F016032B603D
:10429000DCF840301BB12B6843F008032B60DCF8DE
:1042A00060301A68D20303D51A6842F480721A602B
:1042B0001EB1336843F4807333602B68002043F0F1
:1042C00001032B60BDE8F081AA60E960DAE7012014
:1042D00070470220704716B1DCE91C04446029488D
:1042E000DFF8A8E0754518BF85420EF1140E0CBF2B
:1042F00001200020754508BF40F001000EF1140EAA
:10430000754508BF40F001000EF1140E754508BF59
:1043100040F001000EF1140E754508BF40F0010099
:104320000EF1140E754508BF40F0010010B9164893
:1043300085420ED1DCF85C0000F01F0E012000FA6F
:104340000EF078606B60DCF80830402B10D0A9606C
:10435000EA602B6823F00E0343F00A032B60DCF8BD
:104360004030002B9BD02B6843F004032B6096E772
:10437000AA60E960EDE700BF40000240280002406B
:104380005800024008540258945402581C540258D1
:1043900000285FD038B590F835200346022A55D161
:1043A0000168444A914248D01832914245D0303297
:1043B000414C4248A14218BF914204F148040CBF4D
:1043C00001220022814208BF42F001023030A142A6
:1043D00008BF42F001023034814208BF42F00102BE
:1043E00000F55C70A14208BF42F0010204F55C7464
:1043F000814208BF42F001023030A14208BF42F0C2
:1044000001023034814208BF42F001023030A14243
:1044100008BF42F001023034814208BF42F001027D
:104420003030A14208BF42F00102814208BF42F091
:10443000010212B9224A91420ED10422002083F8CF
:1044400035200B6823F001030B6038BD802201206A
:104450005A6538BD012070470A681C6E22F00E02B2
:10446000D86D9D6D0A6000F01F000A6822F00102FD
:104470000A6001222168824021F4807121606A6013
:10448000DA6ED3E91910486032B11168D3E91C041F
:1044900021F4807111604460002401211A6D83F8B9
:1044A000344083F835101AB118469047204638BD7D
:1044B000104638BD1000024040000240700002402B
:1044C000B80402402DE9F04300229C4B83B09C4E7F
:1044D0001D688146019203689A4A846D934218BF11
:1044E000B342276808BF0126216818BF002645D0BF
:1044F00018329548834218BF934200F118000CBF50
:1045000001220022834208BF42F001021830834298
:1045100008BF42F001021830834208BF42F0010296
:104520001830834208BF42F0010200F55670834202
:1045300008BF42F001021830834208BF42F0010276
:104540001830834208BF42F001021830834208BF8E
:1045500042F001021830834208BF42F001021830D5
:10456000834208BF42F001021830834208BF42F084
:1045700001021AB9754A934240F05082D9F85C1092
:10458000082201F01F0C02FA0CF2174240F0888159
:1045900027FA0CF2D2070CD55A69100609D5012268
:1045A00002FA0CF2A260D9F8542042F00202C9F8D3
:1045B00054204FF0040E0EFA0CF038425BD0002E5F
:1045C0004FD1634ADFF88081434518BF934208F119
:1045D00018080CBF01220022434508BF42F0010227
:1045E00008F11808434508BF42F0010208F1180815
:1045F000434508BF42F0010208F11808434508BFCF
:1046000042F0010208F55678434508BF42F0010226
:1046100008F11808434508BF42F0010208F11808E4
:10462000434508BF42F0010208F11808434508BF9E
:1046300042F0010208F11808434508BF42F00102A8
:1046400008F11808434508BF42F0010208F11808B4
:10465000434508BF42F001021AB93C4A934240F078
:1046600019821A68920706D5A060D9F8542042F042
:104670000402C9F85420102202FA0CFC1CEA070FAD
:104680006CD0002E45D1324A2F4EB34218BF934210
:1046900006F118060CBF01220022B34208BF42F007
:1046A00001021836B34208BF42F001021836B34285
:1046B00008BF42F001021836B34208BF42F00102BF
:1046C00006F55676B34208BF42F001021836B342EF
:1046D00008BF42F001021836B34208BF42F001029F
:1046E0001836B34208BF42F001021836B34208BF81
:1046F00042F001021836B34208BF42F001021836F8
:10470000B34208BF42F001021AB9104A934240F086
:10471000C9811A68100721D5C4F808C01A68560361
:1047200000F14C811A68D20503D41A6822F00802FD
:104730001A60D9F840308BB10CE000BF440200246D
:10474000100002402800024058000240B804024015
:104750004000024048469847D9F85C1001F01F011C
:1047600020268E403E4268D0D9F80020A54BA64FA7
:10477000BA4218BF9A4207F118070CBF0123002361
:10478000BA4208BF43F001031837BA4208BF43F0EA
:1047900001031837BA4208BF43F001031837BA4281
:1047A00008BF43F001031837BA4208BF43F00103C2
:1047B0001837BA4208BF43F0010307F55677BA42EB
:1047C00008BF43F001031837BA4208BF43F00103A2
:1047D0001837BA4208BF43F001031837BA4208BF7E
:1047E00043F001031837BA4208BF43F001031837FA
:1047F000BA4208BF43F001031837BA4208BF43F07A
:1048000001031BB9814B9A4240F062811368DB06B9
:1048100013D5A66099F83530042B136800F0AE80EC
:1048200013F4802F136800F0D3801C0340F1DE8066
:10483000D9F83C300BB148469847D9F85430002B92
:1048400000F0B980D9F85430D8071FD5D9F8002026
:10485000042189F83510136823F0010313606C4BB1
:10486000A3FB0535AD0A02E01368D90704D5019B07
:104870000133AB420193F7D9002389F83430136830
:10488000DB074CBF0323012389F83530D9F84C30BE
:10489000002B00F09080484603B0BDE8F043184775
:1048A000186840070AD5186820F004001860A26054
:1048B000D9F8542042F00102C9F8542027FA0CF22A
:1048C000D2077FF576AE534A5348834218BF9342CE
:1048D00000F130000CBF01220022834208BF42F0E9
:1048E00001021830834208BF42F0010218308342AF
:1048F00008BF42F001021830834208BF42F00102B3
:1049000000F55670834208BF42F00102183083421E
:1049100008BF42F001021830834208BF42F0010292
:104920001830834208BF42F001021830834208BFAA
:1049300042F001021830834208BF42F001021830F1
:10494000834208BF42F001021830834208BF42F0A0
:104950000102002A7FF420AE002E7FF41DAE1A68FB
:10496000042202FA0CF23A4240F09480102202FA39
:104970000CFC17EA0C0F3FF4F1AE84E623F01603AB
:104980001360536923F080035361D9F840309BB31F
:10499000136823F0080313603F230025012203FA64
:1049A00001F1D9F85030A16089F8345089F83520E8
:1049B000002B7FF470AF03B0BDE8F0831B681803D1
:1049C0007FF5B7AED9F84830002B7FF4C3AEC5E60B
:1049D00013F480737FF42CAF116821F01001116083
:1049E000012289F8343089F8352021E7D9F844309C
:1049F000002B7FF420AF20E7D9F84830002BC7D137
:104A0000CAE700BF1000024028000240B80402407C
:104A1000B5814E1B58000240400002404E4A4F4DA7
:104A2000AB4218BF934205F114050CBF01220022CE
:104A3000AB4208BF42F001021435AB4208BF42F05E
:104A400001021435AB4208BF42F001021435AB42FB
:104A500008BF42F001021435AB4208BF42F0010228
:104A600012B93F4A9342A6D1D9F85C5004261A687D
:104A700005F01F05AE400E4219D0570717D5100498
:104A800066604BD5D1034FD4D9F84830002B7FF462
:104A900002AF90E71A68102202FA0CFC17EA0C0F1A
:104AA0003FF45CAE1A6852077FF558AE34E6022632
:104AB000AE400E4211D097070FD56660140439D569
:104AC000D00343D4D9F84430002B7FF4E4AE72E72E
:104AD00013689F077FF5B1AE9BE60826AE400E42F5
:104AE0003FF469AF11077FF566AF1A68002122F025
:104AF0000E021A600123D9F84C2003FA05F565600F
:104B0000C9F8543089F8341089F83530002A3FF458
:104B100052AF484603B0BDE8F0431047920603D4B5
:104B20001A6822F004021A60D9F84030002B7FF492
:104B3000B2AE40E712F0200208D11968012421F03A
:104B40000A01196089F8342089F83540D9F83C30D9
:104B5000002B7FF4A0AE2EE7085402581C540258D4
:104B600094540258406D7047002800F0DE81F8B57B
:104B700003680446D80730D59F490A69896A02F05C
:104B80003802102A00F00081182A00F0F8806368CB
:104B9000B3F5803F00F02081002B00F05E81B3F57B
:104BA000A02F954B1A6800F02F8222F480321A60F1
:104BB0001A6822F480221A60FDF7A0FF8E4E41F29F
:104BC0008837054605E0FDF799FF401BB84200F223
:104BD000428133689A03F6D523689D0700F18580EA
:104BE000D9062FD5844A1369926A03F03803082B3B
:104BF00000F0DA80182B00F0D280E3697E4D002BA4
:104C000000F065812B6843F080032B60FDF776FF91
:104C1000064605E0FDF772FF801B022800F21B81AB
:104C20002B68DB05F6D5FDF781FF41F203039842BF
:104C300000F20B826B68226A23F0F84343EA826336
:104C40006B6023681D0716D563696B4D002B00F060
:104C50001C816B6F43F001036B67FDF74FFF064646
:104C600005E0FDF74BFF801B022800F2F4806B6F1C
:104C70009807F6D523689A0616D5A3695E4D002BD2
:104C800000F014812B6843F480532B60FDF736FF4E
:104C9000064605E0FDF732FF801B022800F2DB80AC
:104CA0002B689F04F6D52368590700F19B80636A3F
:104CB000CBB1514D2A6902F03802182A6DD0022B6F
:104CC0002B6823F080732B6000F03981FDF716FF0D
:104CD000044605E0FDF712FF001B022800F2BB802E
:104CE0002B689B01F6D40020F8BD434A1369926AF1
:104CF00013F0380329D1404BE2681B68590701D5EE
:104D0000002A4AD03C4D2B6823F0190313432B6033
:104D1000FDF7F4FE064605E0FDF7F0FE801B0228D5
:104D200000F299802B685B07F6D5FDF7FFFE41F294
:104D30000303226998426B6800F2F08023F47C330D
:104D400043EA02336B6023684AE7182B00F0E280E5
:104D5000294DE2682B68002A00F0CB8023F019036C
:104D600013432B60FDF7CAFE064604E0FDF7C6FEBE
:104D7000801B02286FD82B685F07F7D5D5E701F0B5
:104D8000030102297FF403AF1B4A126891037FF5E8
:104D900024AF6268002A7FF420AF0120F8BD02F042
:104DA0000302012A7FF429AF134B1B68DA0502D5F1
:104DB000E369802BF1D1FDF7B9FE41F203030E4AFE
:104DC0009842216A00F2B380536823F0F84343EA23
:104DD00081635360236835E7074A136843F48033DF
:104DE0001360E9E6054D2B6843F480732B60FDF7F3
:104DF00085FE064609E000BF0044025800480258FC
:104E0000FDF77CFE801B642825D82B68DA05F7D5D2
:104E1000A368012B00F02281002B00F0FD80052B00
:104E2000954B1A6F00F0208122F001021A671A6F69
:104E300022F004021A67FDF761FE8F4E41F28837B7
:104E4000054604E0FDF75AFE401BB84203D8336F15
:104E50009B07F7D52BE70320F8BD874D41F2883734
:104E60002B6823F480332B602B6823F480232B6082
:104E7000FDF744FE064604E0FDF740FE801BB84205
:104E8000E9D82B689B03F7D4A6E66B6F23F00103E8
:104E90006B67FDF733FE064604E0FDF72FFE801B2F
:104EA0000228D8D86B6F9907F7D4E3E62B6823F470
:104EB00080532B60FDF722FE064604E0FDF71EFE40
:104EC000801B0228C7D82B689804F7D4EBE62B6820
:104ED00023F080032B60FDF711FE064604E0FDF78A
:104EE0000DFE801B0228B6D82B68DF05F7D4236897
:104EF000A8E623F001032B60FDF700FE064604E060
:104F0000FDF7FCFD801B0228A5D82B685807F7D4B5
:104F1000236865E690077FF41BAFECE623F0FE43C1
:104F200043EA02636B6023685AE601207047D36846
:104F300023F07C5343EA0163D360236882E6FDF7E4
:104F4000DDFD064604E0FDF7D9FD801B022882D86E
:104F50002B689901F7D4A96A484BA26A0B404849CB
:104F6000454E1343E26A43EA0213AB62D4E90D32C1
:104F7000013B013A5B0212049BB202F4FE021343AE
:104F8000226B013AC2F308021343E26B013A1206A4
:104F900002F0FE4213432B63EB6A23F00103EB6242
:104FA0006A6BA36C114041EAC3016963EB6A226C2E
:104FB00023F00C031343EB62EB6A626C23F00203F1
:104FC0001343EB62EB6A43F48033EB62EB6A43F426
:104FD0000033EB62EB6A43F48023EB62EB6A43F04D
:104FE0000103EB622B6843F080732B60FDF786FDB5
:104FF000044605E0FDF782FD001B02283FF62BAFBB
:1050000033689A01F6D56EE642F480221A601A6877
:1050100042F480321A60CFE5174D41F288372B6F8A
:1050200023F001032B672B6F23F004032B67FDF79D
:1050300065FD064605E0FDF761FD801BB8423FF6C1
:105040000AAF2B6F9807F6D431E6EB68226A23F09B
:105050007C5343EA0263EB602368F3E5064A136F6F
:1050600043F001031367E6E642F004021A671A6F81
:1050700042F001021A67DEE6004402580CFCFFFF12
:105080000700FFFF474A136903F03803102B04D0D1
:10509000182B0DD01BB14448704744487047136823
:1050A00099064AD513684248C3F3C103D8407047F4
:1050B000936A30B4946AD56A14F47C7F516BC4F35C
:1050C000051038D0C1F3CC0105F0010503F003034E
:1050D00005FB01F1012B07EE901AB8EEE77A02D03A
:1050E000022B2CD093B307EE900A9FED325AF8EEC4
:1050F000E77A136BC5EE276ADFED2F5AC3F3080377
:1051000007EE903AB7EE006AF8EEE77AE7EE257A16
:1051100077EE867A66EEA76A224B1B6BC3F34623B3
:10512000013307EE903AB8EEE77AC6EE877AFCEEE6
:10513000E77A17EE900A30BC70471D48704707EEBB
:10514000900A9FED1E5AF8EEE77AD2E713689B06A5
:1051500020D5146807EE900A1549F7EE005A136B34
:10516000C4F3C104F8EEE77A9FED135AC3F30803C2
:10517000E14006EE903A06EE101AF8EEE66AB8EE56
:10518000C66AE7EE056A86EE277A76EEA56A66EECF
:10519000876AC1E707EE900A9FED095AF8EEE77AB1
:1051A000A7E700BF0044025800093D000024F400B6
:1051B0000090D0030024744A000000390024744B8E
:1051C0000024744C002800F00281874A136803F021
:1051D0000F038B422DE9F04104460D460CD21368B3
:1051E00023F00F030B431360136803F00F038B428C
:1051F00002D00120BDE8F08123685F070BD57B4911
:1052000020698A6902F07002904204D98A6922F00A
:10521000700202438A611E070BD574496069CA692E
:1052200002F07002904204D9CA6922F0700202436F
:10523000CA61D8060BD56D49A069CA6902F4E0625B
:10524000904204D9CA6922F4E0620243CA61990615
:105250000BD56649E0690A6A02F07002904204D9EF
:105260000A6A22F0700202430A629A0740F1A180A2
:105270005E48E168826902F00F02914204D98269B6
:1052800022F00F020A438261D80730D5574AA1683D
:10529000936923F470630B43936161681368022977
:1052A00000F09780032900F08E80012900F097809C
:1052B00058079ED54D4E41F28838336923F00703D5
:1052C0000B433361FDF71AFC074605E0FDF716FCBA
:1052D000C01B404500F281803369626803F03803E7
:1052E000B3EBC20FF2D12368990706D5E1683F48B6
:1052F000826902F00F028A425FD83B490A6802F0D5
:105300000F02AA420AD90A6822F00F022A430A6051
:105310000A6802F00F02AA427FF46BAF5A070BD55E
:10532000324920698A6902F07002904204D28A6987
:1053300022F0700202438A611F070BD52B49606976
:10534000CA6902F07002904204D2CA6922F0700267
:105350000243CA61DE060BD52449A069CA6902F47A
:10536000E062904204D2CA6922F4E0620243CA6158
:105370009D060BD51D4AE169136A03F0700399423B
:1053800004D2136A23F070030B431362FFF77AFE13
:10539000164A0346164892691649C2F30322825CF4
:1053A0000E2002F01F02D340BDE8F0410B60FDF774
:1053B00043BBDA073FF56AAF9FE7826922F00F022D
:1053C0001143816199E79F013FF574AF11E7012017
:1053D00070479B033FF56EAF0BE703200AE7DE053E
:1053E0003FF568AF05E700BF0020005200440258B7
:1053F000084001084402002408B501F095F9064B65
:1054000006499B69064A03F00F03CB5C03F01F03B8
:10541000D840106008BD00BF004402580840010891
:105420004802002410B501F07FF90949094A8B6947
:10543000094C03F00F03D35C03F01F03D840206036
:10544000CB69C3F30213D35C03F01F03D84010BD34
:1054500000440258084001084802002410B501F039
:1054600063F90949094A8B69094C03F00F03D35CBE
:1054700003F01F03D8402060CB69C3F30223D35C41
:1054800003F01F03D84010BD004402580840010833
:1054900048020024F8B53A4CA36A03F00303032B37
:1054A00067D0236806460F4623F080632360FDF72C
:1054B00025FB054604E0FDF721FB431B022B56D8D4
:1054C00023681A01F7D4A36A326823F47C3343EAD1
:1054D0000233A362D6E90232013B013A5B021204B5
:1054E0009BB202F4FE0213437268013AC2F308024F
:1054F00013433269013A120602F0FE421343A363DA
:10550000E36A726923F0C0031343E362E26AB3699A
:1055100022F020021A431B4BE262E26A22F01002E0
:10552000E262E16BF2690B4043EAC203E363E36AC0
:1055300043F01003E362E36AEFB1012F0CBF43F4C1
:10554000801343F40013E3620D4C236843F080633F
:105550002360FDF7D3FA054604E0FDF7CFFA401BC0
:10556000022804D823681B01F7D50020F8BD0320CA
:10557000F8BD0120F8BD43F40023E362E4E700BF77
:10558000004402580700FFFFF8B53A4CA36A03F045
:105590000303032B67D0236806460F4623F080538E
:1055A0002360FDF7ABFA054604E0FDF7A7FA431BBD
:1055B000022B56D823689A00F7D4A36A326823F0E6
:1055C0007C7343EA0253A362D6E90232013B013AFB
:1055D0005B0212049BB202F4FE0213437268013AAA
:1055E000C2F3080213433269013A120602F0FE4286
:1055F00013432364E36A726923F440631343E36251
:10560000E26AB36922F400721A431B4BE262E26A57
:1056100022F48072E262616CF2690B4043EAC203D9
:105620006364E36A43F48073E362E36AEFB1012FDA
:105630000CBF43F4000343F08073E3620D4C236816
:1056400043F080532360FDF759FA054604E0FDF767
:1056500055FA401B022804D823689B00F7D5002088
:10566000F8BD0320F8BD0120F8BD43F48003E362D8
:10567000E4E700BF004402580700FFFF2DE9F843AC
:105680000368044613F0006622D0426EB2F5001F94
:1056900000F0CE8411D8002A00F0F884B2F5801F03
:1056A00040F0F18402210430FFF7F4FE0646002E9C
:1056B00040F08684626E236803E0B2F5401F40F03C
:1056C000E284A8480026016D21F440110A430265D6
:1056D000DD050AD5626D042A06D8DFE812F0A204BF
:1056E00093049A04DF02DF020126354698051BD594
:1056F000A26D802A00F05B8400F2EC80002A00F0AA
:105700008B83402A40F0ED800021201DFFF7C2FE70
:1057100023680546002D40F067839249A06D0A6D0D
:1057200022F4E07202430A6559051FD5D4F8A4207B
:10573000B2F5800F00F0478400F2D680002A00F016
:105740007183B2F5001F40F0D7800021201DFFF7C4
:10575000A1FE23680546002D40F044838149D4F81A
:10576000A4008A6D22F4600202438A651A051FD5DF
:10577000D4F8A820B2F1007F00F02E8400F2BF80A0
:10578000002A00F05583B2F1807F40F0C0800021F4
:10579000201DFFF77FFE23680546002D40F02A8379
:1057A0007049D4F8A8008A6D22F0E06202438A654D
:1057B0009F0118D5A26C202A00F0DA8300F2AA809B
:1057C0003AB1102A40F0A9806649CA6A42F4003210
:1057D000CA62002D40F059836249A06CCA6C22F065
:1057E00030020243CA64D8041DD5E26DB2F5005FF1
:1057F00000F0FB8300F29480002A00F01F83B2F5D2
:10580000805F40F095800021201DFFF743FE236854
:105810000546002D40F0EC825249E06D0A6D22F4FD
:10582000E04202430A6599041AD5226EB2F5003FA0
:1058300000F074837FD84AB1B2F5803F40F0838096
:105840000121201DFFF726FE23680546002D40F0AC
:105850001E834449206E0A6D22F4E02202430A6549
:105860005A041BD5D4F8AC20B2F1005F00F060837D
:105870006CD842B1B2F1805F70D10121201DFFF7D9
:1058800009FE23680546002D40F003833549D4F80E
:10589000AC008A6D22F0E04202438A651F040DD5F8
:1058A000E26EB2F1805F00F03183B2F1005F00F090
:1058B0000182002A00F0048201263546D8015DD518
:1058C000626C032A00F20A84DFE812F05400170326
:1058D0004E005400C02A3FF41DAFB2F5807F3FF464
:1058E00019AF012635461FE7B2F5C00F3FF433AFBD
:1058F000B2F5000F3FF42FAF0126354636E7B2F17F
:10590000407F3FF44AAFB2F1806F3FF446AF0126CB
:1059100035464DE7302A3FF45CAF0126354662E755
:10592000B2F5405F3FF475AFB2F5804F3FF471AF11
:105930000126354677E722F48031B1F5802F85D0F6
:10594000B2F5403F82D00126354689E722F08051EA
:10595000B1F1804F97D0B2F1405F94D00126354627
:105960009CE700BF004402580221201DFFF792FD72
:1059700023680546002D00F06B822E46590200F187
:10598000F081DF072FD5A26F282A2AD8DFE812F08E
:10599000D301290029002900290029002900290014
:1059A0006D03290029002900290029002900290068
:1059B000CC012900290029002900290029002900FB
:1059C000D3012900290029002900290029002900E4
:1059D000D3012900290029002900290029002900D4
:1059E000D30101263546980716D5626F052A00F2C5
:1059F0007883DFE812F00D00300306000D000D0083
:105A00000D00012104F12400FFF7BEFD23680546C7
:105A1000002D00F025822E46590717D5D4F8902086
:105A2000052A00F26183DFE812F00D000C03060086
:105A30000D000D000D00012104F12400FFF7A4FD6D
:105A400023680546002D00F013822E469A061DD5C8
:105A5000D4F88C20B2F1005F00F0458200F2DC80C7
:105A60004AB1B2F1805F40F0E1800021201DFFF7D4
:105A700011FD23680546002D40F00582A949D4F8A0
:105A80008C004A6D22F0E04202434A655F061DD554
:105A9000D4F89820B2F5006F00F0548200F2C9806B
:105AA0004AB1B2F5806F40F0CE800021201DFFF793
:105AB000F1FC23680546002D40F0C8819949D4F8CF
:105AC00098008A6D22F4E05202438A6518061DD5BB
:105AD000D4F89C20B2F5804F00F03F8200F2B680EF
