:020000040800F2
:10000000000002209906000895060008618D00088E
:1000100095060008950600089506000800000000F7
:10002000000000000000000000000000950600082D
:10003000950600080000000095060008E58C000801
:100040009506000895060008950600089506000824
:100050009506000895060008950600089506000814
:10006000950600089506000895060008197900080D
:100070002579000899660008317900083D79000863
:1000800099870008496E0008950600089506000843
:1000900095060008950600089506000895060008D4
:1000A00095060008950600089506000895060008C4
:1000B0000906010815060108210601087D6E0008E1
:1000C00095060008896E00089506000879FE00086C
:1000D00085FE0008CD850008F98500082D860008FA
:1000E0009506000895060008000000009506000827
:1000F0009506000895060008950600089506000874
:1001000095060008950600082D06010891FE0008D6
:100110006186000895860008950600089506000887
:100120009506000895060008B5FE0008E9FE0008DF
:10013000CD8700089506000895060008950600087A
:1001400000000000000000000000000000000000AF
:10015000950600089506000895060008C98600085F
:10016000956E000895060008F58C0008198D0008AA
:10017000950600083D8D00089506000895060008C4
:100180009506000895060008FD86000831870008DE
:100190009DFE0008A9FE00089506000895060008C7
:1001A00095060008950600089506000895060008C3
:1001B000397600089506000895060008950600089F
:1001C00095060008950600089506000895060008A3
:1001D0009506000895060008950600089506000893
:1001E0009506000895060008950600089506000883
:1001F0009506000895060008950600089506000873
:100200009506000895060008950600089506000862
:100210009506000895060008950600089506000852
:1002200095060008950600089506000800000000E5
:1002300095060008950600080000000095060008D5
:100240009506000895060008950600089506000822
:100250009506000895060008950600089506000812
:100260009506000895060008950600089506000802
:100270009506000895060008658700080000000044
:100280009506000895060008950600080000000085
:080290000000000095060008C3
:1002A00010B5054C237833B9044B13B10448AFF3B0
:1002B00000800123237010BDE00300240000000033
:1002C000F023010808B5034B1BB103490348AFF302
:1002D000008008BD00000000E4030024F0230108B2
:1002E000034613F8012B002AFBD1181A0138704776
:1002F00001F0FF01102A2BDB10F0070F08D010F8D7
:10030000013B013A8B422DD010F0070F42B3F6D1DA
:10031000F0B441EA012141EA014122F007047FF0F3
:1003200000070023F0E80256083C85EA010586EA4A
:10033000010685FA47F5A3FA87F586FA47F6A5FA86
:1003400087F68EB9EED1F0BC01F0FF0102F0070292
:1003500032B110F8013B013A83EA010313B1F8D13D
:100360000020704701387047002D06BF354603381E
:10037000073815F0010F07D1013015F4807F02BF57
:10038000013015F4C03F0130F0BC0138704700BFA8
:1003900053B94AB9002908BF00281CBF4FF0FF31EC
:1003A0004FF0FF3000F074B9ADF1080C6DE904CEE8
:1003B00000F006F8DDF804E0DDE9022304B0704740
:1003C0002DE9F047089D04468E46002B4DD18A4208
:1003D000944669D9B2FA82F252B101FA02F3C2F13B
:1003E000200120FA01F10CFA02FC41EA030E9440CC
:1003F0004FEA1C48210CBEFBF8F61FFA8CF708FBED
:1004000016E341EA034306FB07F199420AD91CEBC4
:10041000030306F1FF3080F01F81994240F21C81F6
:10042000023E63445B1AA4B2B3FBF8F008FB10333E
:1004300044EA034400FB07F7A7420AD91CEB040473
:1004400000F1FF3380F00A81A74240F20781644443
:10045000023840EA0640E41B00261DB1D4400023C8
:10046000C5E900433146BDE8F0878B4209D9002D2C
:1004700000F0EF800026C5E9000130463146BDE8B6
:10048000F087B3FA83F6002E4AD18B4202D3824220
:1004900000F2F980841A61EB030301209E46002DCF
:1004A000E0D0C5E9004EDDE702B9FFDEB2FA82F224
:1004B000002A40F09280A1EB0C014FEA1C471FFA82
:1004C0008CFE0126200CB1FBF7F307FB131140EA69
:1004D00001410EFB03F0884208D91CEB010103F136
:1004E000FF3802D2884200F2CB804346091AA4B2F8
:1004F000B1FBF7F007FB101144EA01440EFB00FECC
:10050000A64508D91CEB040400F1FF3102D2A64530
:1005100000F2BB800846A4EB0E0440EA03409CE7CF
:10052000C6F12007B34022FA07FC4CEA030C20FA7C
:1005300007F401FA06F31C43F9404FEA1C4900FA9C
:1005400006F3B1FBF9F8200C1FFA8CFE09FB181119
:1005500040EA014108FB0EF0884202FA06F20BD98C
:100560001CEB010108F1FF3A80F08880884240F2DC
:100570008580A8F102086144091AA4B2B1FBF9F020
:1005800009FB101144EA014100FB0EFE8E4508D91B
:100590001CEB010100F1FF346CD28E456AD90238A0
:1005A000614440EA0840A0FB0294A1EB0E01A14285
:1005B000C846A64656D353D05DB1B3EB080261EBF3
:1005C0000E0101FA07F722FA06F3F1401F43C5E9CD
:1005D000007100263146BDE8F087C2F12003D84003
:1005E0000CFA02FC21FA03F3914001434FEA1C4745
:1005F0001FFA8CFEB3FBF7F007FB10360B0C43EA37
:10060000064300FB0EF69E4204FA02F408D91CEBE6
:10061000030300F1FF382FD29E422DD902386344E4
:100620009B1B89B2B3FBF7F607FB163341EA034184
:1006300006FB0EF38B4208D91CEB010106F1FF38D3
:1006400016D28B4214D9023E6144C91A46EA0046CA
:1006500038E72E46284605E70646E3E61846F8E65C
:100660004B45A9D2B9EB020864EB0C0E0138A3E7A5
:100670004646EAE7204694E74046D1E7D0467BE786
:10068000023B614432E7304609E76444023842E7FE
:10069000704700BFFEE700BF0B480C4A904203D0F2
:1006A000121A0B4911F0CAF80A480B4A904203D0BB
:1006B000121A002111F0D0F808F0AAFD11F09AF8F2
:1006C00000F02AF8FEE700BF00000024E003002449
:1006D00020240108E003002430E20024704700BF1A
:1006E000F8B5154606460F4601680A4800F056FC64
:1006F0007DB133683C68706803EB850C796853F80A
:10070000042B44F8042B634550F8042B41F8042BC8
:10071000F5D1F8BDFC030024F0B500218BB02E48C4
:1007200004F082FB03212C4804F086FA30212A4889
:1007300004F09EFA294A2A482A4E2B4D2B4C264972
:10074000002700F073F9304600F072FC284600F0F4
:1007500015FCFF2608F074FB0146204600F04EFC15
:1007600023491D4804F064FA0EE09DF81030E21BA6
:1007700069461C4813B9B2F5FA7F02D3274600F048
:100780008DFC012008F05EFB08F05AFB0446124A7B
:1007900068461349234600F0B1FA06999DF81250B5
:1007A000A1F101010C48B1FA81F1490904F07CFA88
:1007B000AE4229460B4801D000F056FC9DF81C3093
:1007C0002E46002BD1D09DF81D100648DDE90823E8
:1007D00000F026FDC9E700BF4804002438040024C7
:1007E00088040024F0040024FC03002404040024F2
:1007F000E106000810B50F4800240F4A0F490460B5
:1008000044610462C46310F0E1FF0D4B0D485C606D
:1008100043F8044B5C601C8100F0A4F80A4800F027
:1008200099FB0A4800F0D4FB0948BDE8104000F0ED
:10083000FBBB00BF4804002400000024DD060008C4
:100840003804002488040024FC0300240404002449
:10085000F0040024F0B50D8807464E88013A00F1F7
:100860000E044FF0000CAE422CBF00230123037393
:100870002B460AE09E4510D2734494454FEA530339
:1008800024F8023B0BDA31F8023FAE420CF1010CC6
:10089000B1F802E0EED39E45EED80020F0BD012372
:1008A00018467B73F0BD00BF70B50646407B30B381
:1008B000F0697568002801DDA84221DD002D4DDDBD
:1008C00033684FF0010C00204FF6FF74A3F1020EC5
:1008D0003EF8023F9942A3EB0102A1EB030392B25F
:1008E00088BF9AB26346A24201D260461446AB4228
:1008F0000CF1010CECDB7389A34238BF002070BD02
:100900006FF000423368B6F80AE00244348933F8E5
:10091000122074448A42A4B234BF8A1A521A92B284
:100920009442ECD29E1E012400204FF6FF7C36F844
:10093000023F9942A3EB0102A1EB030392B288BFED
:100940009AB22346624501D2204694469D4204F164
:100950000104ECDCE64538BF002070BD00204FF6F6
:10096000FF74C8E710B4184C03464FF60B7C002206
:1009700020680021A3F804C040F2011CC3F8620003
:10098000A088A3F84C20A3F8660018461A601A61E4
:10099000A3F818C0A3F844209A6483F84E20196580
:1009A00059659965DA65A3F86020C3E90B22C3E9AC
:1009B00002225DF8044BC3E90722C3E90922C3E917
:1009C0000D22C3E90F227047E420010890F844305B
:1009D0005BB303684BB3B0F860C0F0B5B0F85C40EF
:1009E000B0F85EE090F84C7090F84D6090F84E5082
:1009F000A0F86240A0F864E0A0F866C000201A6881
:100A0000BFF35B8F911C42F0010221F001011A60DB
:100A10001F715E719D71D8711C81A3F80AE0A3F863
:100A20000CC0BFF35B8F1960F0BD70472DE9F04F2C
:100A3000002402260546804689464FF0010A08F147
:100A4000200B08272DED028B9FB045F8042B324672
:100A50008DF814600CA88DF81540059905F088FBF9
:100A600003238DF8184032468DF819300DF14200FD
:100A7000069905F07DFB8DF81CA08DF81DA032466F
:100A8000079915A805F074FB07238DF8204032461E
:100A90008DF821300DF16600089909F1180605F06E
:100AA00067FB04230CA930461A4605F075FB304657
:100AB00005F080FD0521484604F0B6F88A4A534601
:100AC000284611682246009405F092FEDFED877AF1
:100AD00087490622874B5846C8F84040B0EE678ADF
:100AE00088F82D40F0EE678AC8F82010C8E90E4457
:100AF000C8E90923FFF7AEFE8246CDED097ACDEDB8
:100B00000A7ACDED0B7A0AAD0024E1B2304605F049
:100B100067FDB5EEC00AF7EE007AF1EE10FA0FD4D9
:100B2000B4EE670A0134F1EE10FA37FE800A30EEB7
:100B3000080A032C05ED010A0BD0B5EC018AE4E7A5
:100B40009FED6A0A013430EE080A032C05ED010A14
:100B5000F3D12146304605F043FDB5EEC00AF1EE73
:100B600010FA12D4F7EE007AB4EE670AF1EE10FA3A
:100B700037FE800A0121484678EE808A04F054F856
:100B8000013F05D09DED098ABDE79FED580AF1E7C9
:100B900008F15C0109A808F150030C46B4EE007A94
:100BA000F0EC017AF7EE006A002267EE877AF5EE44
:100BB000C07AE3EC017AF1EE10FA11D4F4EEE67AA1
:100BC0009FED4D6AB6EE007A4FF6FF72F1EE10FA25
:100BD00006DCA7EE867ABCEEC77A17EE102A92B230
:100BE0009C4221F8022BD9D1BAF1000F31D0F4EE9A
:100BF000007A68EEA78AF5EEC08AF1EE10FA33D5D6
:100C00000021039108F01CF9039906465846FFF7A6
:100C10004BFED8F838400546A0423BD00446C8F801
:100C20003800C8F840605846FFF73EFEA042D8F8AA
:100C30003C5006F1140640D02C46C8F83800C8F8DD
:100C40004060002C08BF2C46631E042B98BF88F818
:100C50004C300123404688F84430FFF7B7FE1FB000
:100C6000BDEC028BBDE8F08FF7EE007AF4EEE78A78
:100C7000F1EE10FA02DD4FF6FF71C2E7F6EE007AF0
:100C80009FED1D7AE8EE877AFCEEE77A17EE903A50
:100C900099B2B6E7D8F83C00854202461CD0D8F895
:100CA0004030F31A132B1AD95846C8F83C50FFF7B6
:100CB000FBFDA04206F11406BED1AC4209D0D8F823
:100CC0004010721A132A94BFD8F83C40C8F83C4030
:100CD000B7E72246D8F83C0004461546B1E72C4653
:100CE00014360546E9E700BF442101080000000072
:100CF000482101088403F00A00FF7F472DE9F04FE7
:100D000000250C4602F1180B28222946074604F15B
:100D10005C0604F15008BA46A9462DED028B83B05B
:100D2000019310F099FDB4F84C207A82E26BBA611D
:100D3000E9B2584605F054FCB5EEC00AF1EE10FADF
:100D40005FD4F7EE007AB4EE670AF1EE10FA37FEE0
:100D5000800AD8ED007A9FED7A7A30EE670AE0EEED
:100D6000077AF5EEC07AE8EC017AF1EE10FA42D497
:100D7000B7EE007AF4EEC77AF1EE10FA44DCB6EE84
:100D8000007ADFED706AA7EEA67AFCEEC77A17EE5E
:100D9000903A9AB207EE902AB8EE677AC7EE267AB2
:100DA000F1883280914234BF521A8A1A92B2802A54
:100DB00005F1010506F10206EAEC017A28BF4FF0C1
:100DC0000109032DB4D1B6EE008A2946584687EDB5
:100DD000038A05F005FCB5EEC00AF1EE10FA18D44E
:100DE000F7EE007AB4EEE70AF1EE10FA40F39680DF
:100DF0004FF6FF710EE00022DFED537A3280F28869
:100E0000D5E79FED510AA4E7F0EE477A4FF6FF725F
:100E1000C6E7002104F12000B982FFF745FDA36B6E
:100E2000984262D0019BA063E06B2364B8610138F3
:100E3000042813D9201D4D4605F0C0FD637E834272
:100E400020D0019B6076E36187F81090002D43D19C
:100E5000384603B0BDEC028BBDE8F08FC0B294F809
:100E60004C308342E6D00023012584F84C00B8744E
:100E7000201D84F84D30FB747D7405F09FFD637E6A
:100E80008342DED1227E9A42DED0E2690199A1EB53
:100E9000020ABAF10E0FD7D92376002B30D194F87D
:100EA0004530002BD0D1012394F84C2084F84530F4
:100EB000A36C0133A3647B62002A3BD094F84D30CD
:100EC00040F2011287F8109083F00103BA831F4AA1
:100ED00084F84D30FB743A622046FFF777FD3846C0
:100EE00003B0BDEC028BBDE8F08FE26B90429DD069
:100EF000236C0199CB1A132B94BF1046E06395E73E
:100F000094F84530002B9FD0002384F84530A36C23
:100F10007B6201233B770E4B3B6295E7F0EE487A0C
:100F20009FED087AE0EE077AFCEEE77A17EE903A4A
:100F300099B26FE740F20113BB83044B3B6283E736
:100F40000AD7A33D00FF7F470000000030210108C1
:100F50003821010800220549054B10B4C0E90022E0
:100F6000044C054A5DF8044B704700BFF824002488
:100F7000F8A40024F8140024F804002410B54FF459
:100F8000004204460021044810F066FC0023236060
:100F9000BFF35B8F636010BDF8240024036830B496
:100FA00092B19C18094DC3F30C02013351F804CBE4
:100FB00005EB8202A342C2F800C0F4D10460BFF383
:100FC0005B8F446030BC70471C46F7E7F824002470
:100FD0000022002110B478248161C161C4620162E1
:100FE0005DF8044B80F83020C0E90022C0E90222FD
:100FF000C0E90422C0E90922704700BF0023002293
:101000007831036043608360C36003614261836140
:10101000C361036280F8302010B47824C0E909125B
:10102000C4625DF8044B70470022C0E9002270479B
:1010300010B50C4A88B001230021B2F800C04FF46B
:10104000E134039306930491029101A905939388D7
:101050000794ADF804C0ADF8063007F06DFC08B099
:1010600010BD00BFEC20010810B588B00B460A4A3D
:1010700020210446684610F0ADFC6846FFF730F9C1
:101080000A2302466946204607F0C0FC10B1636897
:101090000133636008B010BD5421010891ED007A5E
:1010A000B5EEC07A30B5F1EE10FA9DB0044640D4EA
:1010B000F7EE007AB4EEE77AF1EE10FA40F3998099
:1010C00091ED017A42F21073B5EEC07AF1EE10FAAA
:1010D00037D5002091ED027AB5EEC07AF1EE10FA24
:1010E0003FD4F7EE007AB4EEE77AF1EE10FA5CDD69
:1010F00091ED037A42F21075B5EEC07AF1EE10FA76
:1011000037D5002260210292434ACDE9000504A8A8
:1011100010F060FC04A8FFF7E3F80A23024604A9D4
:10112000204607F073FC10B16368013363601DB0A3
:1011300030BD002391ED017AB5EEC07AF1EE10FAE0
:10114000C7D4F7EE007AB4EEE77AF1EE10FA3EDD9E
:1011500091ED027A42F21070B5EEC07AF1EE10FA1B
:10116000BFD5002591ED037AB5EEC07AF1EE10FA05
:10117000C7D4F7EE007AB4EEE77AF1EE10FA02DDAA
:1011800042F21072BEE7F6EE007ADFED246A42F218
:101190001071E7EE267AFDEEE77A17EE902A8A4282
:1011A000A8BF0A4622EAE272ACE7F6EE007ADFED6B
:1011B0001B6A42F21072E7EE267AFDEEE77A17EE2E
:1011C000905A9542A8BF154625EAE575CAE7F6EE9E
:1011D000007ADFED126A42F21072E7EE267AFDEE37
:1011E000E77A17EE900A9042A8BF104620EAE07016
:1011F00070E7F6EE007ADFED096A42F21072E7EE70
:10120000267AFDEEE77A17EE903A9342A8BF13468E
:1012100023EAE3738EE700BF5C21010800401C460F
:1012200010B514469AB01A460B4600946021044645
:10123000019202A8084A10F0CDFB02A8FFF750F86F
:101240000A23024602A9204607F0E0FB10B16368BA
:10125000013363601AB010BD6C210108704700BFF4
:101260000F4B1B780BB90120704710B504464FF4A3
:101270007A700C4AB0FBF3F31068B0FBF3F000F0A7
:10128000C1FE0F2C00D808B1012010BD002221465C
:101290004FF0FF3000F056FE034B00201C6010BDE5
:1012A00004000024440200240800002438B5032070
:1012B000124D00F035FE124C02F04EF9114A12495F
:1012C0009369C3F30323CB5C03F01F0320FA03F3FA
:1012D0000E202B60926902F00F028A5C02F01F025E
:1012E000D3402360FFF7BCFF10B10124204638BD76
:1012F0000446FFF7B3FF204638BD00BF4402002478
:10130000480200240044025830220108034A044BDA
:1013100011681B780B441360704700BFF8B40024B9
:1013200004000024014B1868704700BFF8B4002483
:1013300038B50446FFF7F6FF0546631C02D0044BA0
:101340001B781C44FFF7EEFF431BA342FAD338BDC2
:1013500004000024014B1868000C70470010005C6A
:10136000704700BF806B08B5FFF7FAFF08BD00BFEC
:10137000836B5A6D12F0500F5A6D10B51DD119685C
:1013800042F400725A650A6812F0080FCA681BD04E
:1013900012F4406F0DD1CA6894040AD45A6D22F435
:1013A00080725A655A6DD10403D45A6D42F001021D
:1013B0005A65184605F076F910BDD2060AD4DB6CE2
:1013C000BDE81040DB6C18479007E7D0184605F0E1
:1013D00069F9F1E7184605F009FA10BD806B08B508
:1013E000436D43F040034365836D43F0040383651D
:1013F00005F0FCF908BD00BFF0B5002283B00192F2
:1014000090F85020012A00F01C81034601201A6840
:1014100083F850009468640700F18A800C68C4F374
:101420001305002D40F08F80C4F38464A0404D6804
:101430004FF01F0ED6694FEA951C30430CF00C0C90
:10144000D06105F01F0002F1300584400EFA00FE65
:101450005CF8050020EA0E0004434CF80540906853
:1014600040076ED4956815F0080547D10C68072031
:1014700002F11406B94F4FEAD45CC4F304540CF0E3
:10148000040C00FA04FE886800FA04F45CF8060014
:1014900020EA0E0020434CF80600386800F0704047
:1014A000B0F1805F00F0C580D068D668C70600F153
:1014B000E880C6F382064869760000FA06F60F69EE
:1014C000042F00F0C18002F16004086854F827C0BE
:1014D00000F0F8400CF0004C40EA0C00304344F8B7
:1014E0002700487E0E69012854F8260008BF4FF0F7
:1014F000004520F00040054344F826509068C4079A
:1015000014D4CE68086806F01807954CD2F8C0507D
:10151000FC40C0F31307044025EA07052C43C2F83A
:10152000C040904CA64246D0002816DB002003E0C5
:101530005A6D42F020025A65002283F8502003B011
:10154000F0BD9068DAE794FAA4F5B5FA85F5C4F32E
:10155000846405F01F05A84069E783498A4200F0CA
:10156000B68001F580718A4200F0B1807F4D804CD9
:10157000A968A46801F0E076E44304F00104002CBB
:1015800000F0B4807B4CA04200F0FC807A4CA0427A
:1015900000F01A81794CA042C8D14902C6D47449DE
:1015A0008A42C3D1AA68002022F0E072324342F49A
:1015B0008002AA60C0E7002F6AD090FAA0F4B4FAC3
:1015C00084F4013404F01F04092C00F2A48090FA82
:1015D000A0F4B4FA84F490FAA0F5B5FA85F50134D4
:1015E00001260135A40605F01F0504F0F84406FAAB
:1015F00005F52C4390FAA0F0B0FA80F0304400F0EA
:101600001F0000EB400000052043C60D02F1140549
:10161000C0F30450072406F0040604FA00F77459D6
:1016200024EA07048F6807FA00F020437051086825
:101630007AE7D6684869C6F38206760000FA06F6AD
:101640003DE7022003B0F0BD106E0C6800F0F840DA
:10165000A506B0EB846F30D0506E00F0F8408542A4
:1016600026D0906E00F0F84085422BD0D06E00F06E
:10167000F84085427FF442AFD06E20F00040D06643
:101680003CE77608486906F0080600FA06F616E711
:10169000800E441C04F01F06092E2DD8A40601203C
:1016A00004F0F844B040044306EB46000005ABE705
:1016B000506E20F000405066D3E7106E20F00040DE
:1016C0001066C9E7906E20F000409066CEE7264C89
:1016D0002B4D04F58074A96854F8F86CA468344361
:1016E00001F0E076E44304F0010448E75A6D01207C
:1016F00042F020025A651FE706EB4600A5060124CA
:101700001E3805F0F84504FA06F60005354340F0AA
:101710000070284379E790FAA0F5B5FA85F590FABC
:10172000A0F4B4FA84F4013501260134AD0604F0C6
:101730001F0405F0F84506FA04F4254390FAA0F4D6
:10174000B4FA84F4344404F01F0404EB4404A4F118
:101750001E00000540F00070DBE700BF0010005CD9
:10176000FFFF0F000000FF47002002400063025807
:1017700000600258000084CB000052C70000B8CFC0
:101780000023024008023FF5D1AE17498A427FF498
:10179000CDAE164AA9681268154821F0E071920989
:1017A0003143A0FB020241F400019209A9605200FA
:1017B0000192019A002A3FF4B9AE019A013A0192CE
:1017C000019A002AF9D1B1E611F080707FF4AEAE33
:1017D00005498A427FF4AAAEAA6822F0E072324339
:1017E00042F08072AA60A7E600600258440200241A
:1017F000632D3E0503689A68D20701D50020704723
:101800009968214A114270B5044608D0636D0120E1
:1018100043F010036365A36D0343A36570BD99682E
:101820001A4A0A4042F001029A60FFF77BFD2368E2
:10183000174A054693421ED002F5807293421AD091
:10184000144A9268114E0AE09A68324042F001024E
:101850009A60FFF767FD401B0228D7D823681A68F3
:10186000D2070FD49A68D107EED5FFF75BFD401B76
:101870000228F3D9CAE7084A9268D006E2D0074A9C
:101880009342DFD1002070BD3F000080C0FFFF7F8A
:101890000020024000630258002302400021024061
:1018A0002DE9F0413A4D044600680F461646A8421D
:1018B00019D0384B984216D0374DAB688068420734
:1018C00016D494F85020012A12D003F01F080122E8
:1018D000B8F1090F84F850200DD90023012084F8B5
:1018E0005030BDE8F0812D4DAB6880684207E8D5E7
:1018F0000220BDE8F08140F2212323FA08F3DB4304
:1019000013EA0205E9D12046FFF774FF002839D118
:10191000626D234B2168134043F480736365B8F113
:10192000000F02D01B4B994203D0636D23F4801348
:101930006365636D13F4805328D0A36D23F0060311
:10194000A365E06C3346174D3A464031C563164DEA
:101950000564164DC5641C2541F8405C002584F8DB
:10196000505051F83C5C45F0100541F83C5C00F0EB
:1019700059FE22680E4B91680B4043F004039360BC
:10198000BDE8F08184F85050BDE8F081A365D8E748
:101990000020024000210240006302580023024060
:1019A000FEF0FFFF7113000865130008DD13000847
:1019B000C0FFFF7F38B503689A68910702D59B681E
:1019C000002038BD9A68D20723D59A68044602F0F1
:1019D0000D02012A08D0636D012043F010036365F6
:1019E000A36D0343A36538BD986803210A4A0240EA
:1019F00042F002029A601960FFF794FC054604E089
:101A0000FFF790FC401B0228E5D823689B68DB07A2
:101A1000F6D4002038BD00BFC0FFFF7F38B5574A5D
:101A200004460368934226D002F58072934222D086
:101A3000534B9B6813F4403F22D001F047FF63688B
:101A40000546B3F5003F00F08880B3F5403F70D005
:101A5000B3F5803F00F08180FFF77CFC41F2030387
:101A600098422DD8474B9D425DD92268936843F434
:101A70008073936038BD444B9B6813F4403FDCD1C6
:101A80004FF4002002F0EEFF63680546B3F5101F27
:101A90006DD008D8B3F5E01F55D01AD9B3F5001FA3
:101AA000DAD14509D8E7B3F5201F4AD0B3F5301F86
:101AB000D2D1FFF74FFC41F20303984233D92D0AEC
:101AC000324B9D421DD82268936823F44073936083
:101AD00038BDB3F5801F06D00AD9B3F5A01F02D0D8
:101AE000B3F5C01FB8D19B0C5B00B5FBF3F5B3E7B2
:101AF000B3F5002FF7D023F40022B2F5802FF2D0F7
:101B0000AAE7234B234A2B4493421ED9224B234A54
:101B10002B449342226893682BD823F4407343F4F8
:101B20000073936038BD2268936823F480739360D8
:101B300038BD8508FFF70EFC41F203039842BFD879
:101B400090E7C50988E7050986E72268936823F4CA
:101B5000407343F48073936038BD1B0CB5FBF3F501
:101B6000FFF7F8FB41F203039842A9D87AE7850909
:101B700072E743F44073936038BD00BF0020024019
:101B800000630258002D310100230240105E5F0007
:101B9000EFA1A0FF0F5E5F00DF4341FF1FBCBE004F
:101BA00030B5002383B00193002800F0D080456D4C
:101BB0000446002D00F0BA80226893689B0003D58C
:101BC0009168714B0B4093609368DD0015D46F4BA7
:101BD00090686F491B6801406E489B0941F0805135
:101BE000A0FB030391609B090193019B2BB1019B17
:101BF000013B0193019B002BF9D19368D80024D4B9
:101C0000636D012543F010036365A36D2B43A3654A
:101C1000936813F0040F636D1DD1D9061BD4636D57
:101C200023F4817343F0020363659368DB0728D4D0
:101C3000594B9A4217D003F580739A4213D0574BF1
:101C40009B68D9071DD4564A15E09368002513F008
:101C5000040F636DE1D0636D012543F01003284646
:101C6000636503B030BD4C4A4E4B92689B6813438A
:101C7000D80706D44C4A9368616823F47C130B435D
:101C80009360FFF767FB41F20303A1689842237F4B
:101C900052D894F815C01A04206B42EA4C32024321
:101CA0000A43012B03D1236A013B42EA4342636AA0
:101CB00023B103F47873A16A0B431A4323683B49A9
:101CC000D86801400A43DA609A6812F0040F9A68F3
:101CD0001CD112071AD4D868354A217D024042EA45
:101CE0008132E16A0A43DA6094F83820012A3AD056
:101CF0001A6922F001021A611A692046616B22F00A
:101D000070420A431A61FFF789FE2368E268012ADC
:101D100021D01A6B22F00F021A63636D284623F05C
:101D2000030343F00103636503B030BD04F068FCB6
:101D3000A56584F850503FE71029AAD1617D1A04A7
:101D400042EA4132216B0A4342F01C02A9E7012515
:101D5000284603B030BD196BA26921F00F01013A8A
:101D60000A431A63D9E7D4E9102118690A431149D3
:101D700001400A43A16C0A43E16B42EA014242F08E
:101D800001021A61B8E700BFC0FFFF5F44020024F0
:101D9000C0FFFF6F632D3E05002002400060025827
:101DA00000630258002102400023024003C0F0FFFC
:101DB000FCBFFFFF1EF800FCF0B5002383B00193C9
:101DC00090F85030012B40D0012304460E461546B2
:101DD00080F85030FFF7EEFDE8B9676D05F08042FE
:101DE0001B4B06F480311B4D3B401B4F43F002035D
:101DF000636523689E68354015430D4345F00045F3
:101E00009D609A68002A0FDB636D23F0030343F0A3
:101E10000103636503E0636D43F010036365002312
:101E200084F8503003B0F0BD019A01320192019A5A
:101E3000BA42E6D9636D0022012023F0120384F830
:101E4000502043F010036365ECE7022003B0F0BDBF
:101E5000FDEEFFFFC0FFFE3FFF955A55F0B490F82E
:101E600050200E68012A49D00346294A01201C68E7
:101E700083F85000944208D05A6D002142F02002AD
:101E800083F850105A65F0BC7047224DAA6852077B
:101E90000AD5A2685A6D012042F020025A6500223C
:101EA00083F85020F0BC7047A06810F00400F1D116
:101EB000C6B1DFF868C04F68DCF8082022F4404261
:101EC0003A43CCF80820A468AA682243D40713D464
:101ED0008A68DCF8081016430F4A0A401643CCF80B
:101EE0000860DCE70D498A6822F440428A60A068F5
:101EF000AA680243D00704D50020D0E70220F0BC36
:101F000070478C683046044A22408A60C7E700BFA9
:101F10000020024000210240E0F0FFFF00230240C9
:101F200006494FF6FF0C0002054BCA6800F4E0605A
:101F300002EA0C0210430343CB60704700ED00E05F
:101F40000000FA051B4BDB68C3F3022300B5C3F1A5
:101F5000070E03F1040CBEF1040F28BF4FF0040E6E
:101F6000BCF1060F1AD9033B4FF0FF3C0CFA03FCFF
:101F700022EA0C024FF0FF3C00280CFA0EFC21EA8A
:101F80000C0101FA03F141EA02010ADB09010A4BE3
:101F9000C9B2034483F800135DF804FB0022134622
:101FA000E8E700F00F000901044BC9B203441976B9
:101FB0005DF804FB00ED00E000E100E0FCEC00E077
:101FC000002807DB00F01F0101234009024A8B4073
:101FD00042F82030704700BF00E100E000280DDB30
:101FE0004309012200F01F000549203302FA00F0E6
:101FF00041F82300BFF34F8FBFF36F8F704700BFCF
:1020000000E100E0431EB3F1807F0CD24FF0E022EC
:10201000002006494FF0F00C5361072381F823C0DC
:102020009061136170470120704700BF00ED00E030
:10203000BFF35F8F044B00215A6A22F480325A6248
:10204000C3F89410704700BF00ED00E0064B40F06D
:102050000100C3F894005A6A42F480325A62BFF316
:102060004F8FBFF36F8F704700ED00E0174A437842
:10207000C2F89830017821B3436800B5C2F89C30AB
:10208000C37A90F80CC01B0690F80FE043EA0C737B
:1020900090F80AC00B43817B43EACC4390F80DC013
:1020A00043EA8C4390F809C043EA4143017A43EA8A
:1020B0000E4343EA0C2343EA4103C2F8A0305DF823
:1020C00004FBC2F89C10C2F8A010704700ED00E0BD
:1020D000704700BF08B5FFF7FBFF08BD0268344B2F
:1020E000344930B4344D354CAA4218BF9A420CBF23
:1020F000012300238A4208BF43F001033031A2428A
:1021000008BF43F0010330348A4208BF43F00103A3
:102110003031A24208BF43F0010330348A4208BF85
:1021200043F0010301F55C71A24208BF43F00103D3
:1021300004F55C748A4208BF43F001033031A242C7
:1021400008BF43F0010330348A4208BF43F0010363
:102150003031A24208BF43F0010330348A4208BF45
:1021600043F001033031A24208BF43F001038A4229
:1021700008BF43F0010313B9114B9A4213D1D3B2F4
:102180001049114C103BA1FB03515F2B0F4BC1F3C6
:10219000021103EA0203615C88BF0433C1658365F1
:1021A000184630BC704722F0FF038365F8E700BF94
:1021B0001000024040000240280002405800024047
:1021C000B8040240ABAAAAAA7821010800FCFFFFCC
:1021D0000368294A294930B4294D2A4CAB4218BF1B
:1021E00093420CBF012200228B4208BF42F0010241
:1021F0002831A34208BF42F0010228348B4208BFB5
:1022000042F001022831A34208BF42F001028B4292
:1022100008BF42F0010212B91B4A934213D1DBB24C
:102220001A4C1B4A0121083B1A4DA4FB0343456687
:1022300002EB1312C3F30413920001FA03F30266D4
:10224000836630BC7047DAB21349144C1944103A13
:10225000A829A4FB02234FEA131300D80833104A1D
:1022600003F01F0501210F4C1A44A9404466920057
:1022700081660266E5E700BF0854025830540258F0
:102280001C5402584454025894540258CDCCCCCC1F
:102290000096001680580258F0FBFDBFABAAAAAA10
:1022A000008200108008024070B50446FFF73AF83B
:1022B000002C00F0C68023680546954A934248D01A
:1022C0001832934245D0303292498B4218BF934224
:1022D00001F130010CBF012200228B4208BF42F005
:1022E000010218318B4208BF42F0010218318B42C3
:1022F00008BF42F0010218318B4208BF42F00102D0
:1023000001F556718B4208BF42F0010218318B4231
:1023100008BF42F0010218318B4208BF42F00102AF
:1023200018318B4208BF42F0010218318B4208BFBE
:1023300042F0010218318B4208BF42F0010218310D
:102340008B4208BF42F001021AB9734A934240F02F
:10235000F5800222002184F8352084F834101A68B0
:1023600022F001021A6005E0FEF7DCFF431B052B9B
:1023700040D823681A68D107F6D4D4E90225216928
:102380002A43A0691D680A4361690A43E16902435F
:102390000A4362492940256A2A430A43616A04299B
:1023A0002FD01A605A6922F0070211435961204662
:1023B000FFF794FEE26D3F2302F01F02934083601B
:1023C0002046FFF705FFA368802B3CD06368A06E12
:1023D000DAB2013BD4E91851072B2A60486026D9AC
:1023E0000023C4E91B33636700200123606584F880
:1023F000353070BD202203230120626584F835301A
:1024000070BDD4E90B5129430A431A605969A26A85
:1024100021F00701114341F00401002DC6D000282E
:102420004FD1012A6ED032F00202BFD151E0501ECE
:10243000072810D9626FD4E91B31002018604A6068
:10244000D2E7012070BD0023A16ED4E918026360B9
:1024500003605160C4E72168314B324DA94218BF77
:10246000994205F114050CBF01230023A94208BFBE
:1024700043F001031435A94208BF43F001031435AA
:10248000A94208BF43F001031435A94208BF43F035
:1024900001031435A94208BF43F001033BB9224BA5
:1024A000994204D0214B224913449B0003E0214B65
:1024B000214913449B0001228240C4E91B31626719
:1024C000BBE7B0F5005F0ED0022A05D9032A7FF4DE
:1024D0006DAFEA017FF56AAF0123402218466265BD
:1024E00084F8353070BD032A3FF660AF01A050F884
:1024F00022F000BFD9240008D3240008D924000802
:1025000005250008B5F1C07F7FF450AFE4E700BFB8
:102510001000024040000240B80402403F8010FE1C
:10252000085402581C540258945402583F82001018
:10253000400902403F96001640590258324A33483B
:102540003349834218BF934200F128000CBF012297
:1025500000228B4208BF42F001022831834208BFAB
:1025600042F0010228308B4208BF42F001022831BC
:10257000834208BF42F001028B4208BF42F00102D1
:1025800012B9244A934238D102220021224D84F804
:10259000341084F835201A681540A268402A2AD0E1
:1025A000802A0CBF4FF480400846266AD4E9031203
:1025B000D20842EAD102616942EAD102A16942EA43
:1025C000D102E16942EAD102144942EA16121944E1
:1025D0002A4302431248A0FB010120461A600B095E
:1025E0009B00E365FFF77AFDE26D012302F01F0215
:1025F00093404360E4E61020D7E740220323012004
:10260000626584F8353070BD085402581C54025875
:1026100030540258945402580F00FEFFF8ABFDA747
:10262000CDCCCCCC002800F0BC80844690F834009F
:10263000012800F0B88001202DE9F0419CF83540D8
:102640008CF83400844208D000224FF400638CF8E8
:102650003420CCF85430BDE8F0810220DCF8005082
:102660007A4C8CF835000020794ECCF8540079482B
:10267000854218BFA54200F118000CBF01240024B8
:10268000854208BF44F001041830854208BF44F079
:1026900001041830854208BF44F001041830854217
:1026A00008BF44F0010400F55670854208BF44F0AD
:1026B00001041830854208BF44F0010418308542F7
:1026C00008BF44F001041830854208BF44F00104FB
:1026D0001830854208BF44F001041830854208BF15
:1026E00044F001041830854208BF44F0010418305A
:1026F000854208BF44F00104A0F59560B54218BFBB
:102700008542DCF86C600CBF0120002054EA000810
:10271000286820F001002860DCF86400DCF86840DC
:10272000DCF85870446040D016B1DCE91C04446009
:10273000DCF85C004FF03F0E00F01F000EFA00F0D6
:10274000B860286820F4802028606B60DCF80830CE
:10275000402B23D0A960EA602B6823F01E0343F0CE
:1027600016032B60DCF840301BB12B6843F00803E4
:102770002B60DCF860301A68D20303D51A6842F483
:1027800080721A601EB1336843F4807333602B6823
:10279000002043F001032B60BDE8F081AA60E960EE
:1027A000DAE7012070470220704716B1DCE91C040B
:1027B00044602948DFF8A8E0754518BF85420EF14E
:1027C000140E0CBF01200020754508BF40F0010029
:1027D0000EF1140E754508BF40F001000EF1140E05
:1027E000754508BF40F001000EF1140E754508BF95
:1027F00040F001000EF1140E754508BF40F00100D5
:1028000010B9164885420ED1DCF85C0000F01F0EAE
:10281000012000FA0EF078606B60DCF80830402B85
:1028200010D0A960EA602B6823F00E0343F00A037E
:102830002B60DCF84030002B9BD02B6843F0040366
:102840002B6096E7AA60E960EDE700BF4000024018
:10285000280002405800024008540258945402587C
:102860001C54025800285FD038B590F83520034634
:10287000022A55D10168444A914248D01832914207
:1028800045D03032414C4248A14218BF914204F138
:1028900048040CBF01220022814208BF42F001021D
:1028A0003030A14208BF42F001023034814208BFFB
:1028B00042F0010200F55C70A14208BF42F0010243
:1028C00004F55C74814208BF42F001023030A1423D
:1028D00008BF42F001023034814208BF42F00102D9
:1028E0003030A14208BF42F001023034814208BFBB
:1028F00042F001023030A14208BF42F001028142A1
:1029000008BF42F0010212B9224A91420ED10422BC
:10291000002083F835200B6823F001030B6038BDDD
:10292000802201205A6538BD012070470A681C6E5C
:1029300022F00E02D86D9D6D0A6000F01F000A683B
:1029400022F001020A6001222168824021F4807194
:1029500021606A60DA6ED3E91910486032B11168FB
:10296000D3E91C0421F4807111604460002401212A
:102970001A6D83F8344083F835101AB11846904721
:10298000204638BD104638BD1000024040000240CD
:1029900070000240B80402402DE9F04300229C4B35
:1029A00083B09C4E1D688146019203689A4A846DEB
:1029B000934218BFB342276808BF0126216818BF99
:1029C000002645D018329548834218BF934200F143
:1029D00018000CBF01220022834208BF42F001020E
:1029E0001830834208BF42F001021830834208BF0A
:1029F00042F001021830834208BF42F0010200F5A4
:102A00005670834208BF42F001021830834208BF6B
:102A100042F001021830834208BF42F00102183030
:102A2000834208BF42F001021830834208BF42F0DF
:102A300001021830834208BF42F00102183083427D
:102A400008BF42F001021AB9754A934240F0508221
:102A5000D9F85C10082201F01F0C02FA0CF21742A0
:102A600040F0888127FA0CF2D2070CD55A6910067B
:102A700009D5012202FA0CF2A260D9F8542042F0E2
:102A80000202C9F854204FF0040E0EFA0CF038423E
:102A90005BD0002E4FD1634ADFF88081434518BFD9
:102AA000934208F118080CBF01220022434508BFD9
:102AB00042F0010208F11808434508BF42F0010244
:102AC00008F11808434508BF42F0010208F1180850
:102AD000434508BF42F0010208F55678434508BF58
:102AE00042F0010208F11808434508BF42F0010214
:102AF00008F11808434508BF42F0010208F1180820
:102B0000434508BF42F0010208F11808434508BFD9
:102B100042F0010208F11808434508BF42F00102E3
:102B200008F11808434508BF42F001021AB93C4AAF
:102B3000934240F019821A68920706D5A060D9F82E
:102B4000542042F00402C9F85420102202FA0CFC6E
:102B50001CEA070F6CD0002E45D1324A2F4EB342EB
:102B600018BF934206F118060CBF01220022B3429F
:102B700008BF42F001021836B34208BF42F001021A
:102B80001836B34208BF42F001021836B34208BFFC
:102B900042F0010206F55676B34208BF42F0010248
:102BA0001836B34208BF42F001021836B34208BFDC
:102BB00042F001021836B34208BF42F00102183653
:102BC000B34208BF42F001021836B34208BF42F0D8
:102BD00001021836B34208BF42F001021AB9104A86
:102BE000934240F0C9811A68100721D5C4F808C083
:102BF0001A68560300F14C811A68D20503D41A688A
:102C000022F008021A60D9F840308BB10CE000BF06
:102C100044020024100002402800024058000240F4
:102C2000B80402404000024048469847D9F85C107A
:102C300001F01F0120268E403E4268D0D9F80020C6
:102C4000A54BA64FBA4218BF9A4207F118070CBF0E
:102C500001230023BA4208BF43F001031837BA42E8
:102C600008BF43F001031837BA4208BF43F001031D
:102C70001837BA4208BF43F001031837BA4208BFF9
:102C800043F001031837BA4208BF43F0010307F5C8
:102C90005677BA4208BF43F001031837BA4208BF5B
:102CA00043F001031837BA4208BF43F00103183755
:102CB000BA4208BF43F001031837BA4208BF43F0D5
:102CC00001031837BA4208BF43F001031837BA426C
:102CD00008BF43F001031BB9814B9A4240F0628167
:102CE0001368DB0613D5A66099F83530042B1368FA
:102CF00000F0AE8013F4802F136800F0D3801C0323
:102D000040F1DE80D9F83C300BB148469847D9F8FD
:102D10005430002B00F0B980D9F85430D8071FD5B3
:102D2000D9F80020042189F83510136823F0010335
:102D300013606C4BA3FB0535AD0A02E01368D9079D
:102D400004D5019B0133AB420193F7D9002389F8E5
:102D500034301368DB074CBF0323012389F8353077
:102D6000D9F84C30002B00F09080484603B0BDE805
:102D7000F0431847186840070AD5186820F0040087
:102D80001860A260D9F8542042F00102C9F854201A
:102D900027FA0CF2D2077FF576AE534A53488342A6
:102DA00018BF934200F130000CBF01220022834281
:102DB00008BF42F001021830834208BF42F001020E
:102DC0001830834208BF42F001021830834208BF26
:102DD00042F0010200F55670834208BF42F0010242
:102DE0001830834208BF42F001021830834208BF06
:102DF00042F001021830834208BF42F0010218304D
:102E0000834208BF42F001021830834208BF42F0FB
:102E100001021830834208BF42F001021830834299
:102E200008BF42F00102002A7FF420AE002E7FF49A
:102E30001DAE1A68042202FA0CF23A4240F0948065
:102E4000102202FA0CFC17EA0C0F3FF4F1AE84E6F4
:102E500023F016031360536923F080035361D9F8FC
:102E600040309BB3136823F0080313603F23002511
:102E7000012203FA01F1D9F85030A16089F83450E9
:102E800089F83520002B7FF470AF03B0BDE8F083E4
:102E90001B6818037FF5B7AED9F84830002B7FF4D4
:102EA000C3AEC5E613F480737FF42CAF116821F034
:102EB00010011160012289F8343089F8352021E7AA
:102EC000D9F84430002B7FF420AF20E7D9F8483000
:102ED000002BC7D1CAE700BF100002402800024003
:102EE000B8040240B5814E1B580002404000024029
:102EF0004E4A4F4DAB4218BF934205F114050CBF2B
:102F000001220022AB4208BF42F001021435AB425D
:102F100008BF42F001021435AB4208BF42F0010283
:102F20001435AB4208BF42F001021435AB4208BF72
:102F300042F0010212B93F4A9342A6D1D9F85C503F
:102F400004261A6805F01F05AE400E4219D0570737
:102F500017D5100466604BD5D1034FD4D9F848304B
:102F6000002B7FF402AF90E71A68102202FA0CFCE3
:102F700017EA0C0F3FF45CAE1A6852077FF558AEA3
:102F800034E60226AE400E4211D097070FD5666098
:102F9000140439D5D00343D4D9F84430002B7FF43E
:102FA000E4AE72E713689F077FF5B1AE9BE6082693
:102FB000AE400E423FF469AF11077FF566AF1A6865
:102FC000002122F00E021A600123D9F84C2003FAE6
:102FD00005F56560C9F8543089F8341089F8353042
:102FE000002A3FF452AF484603B0BDE8F043104713
:102FF000920603D41A6822F004021A60D9F840300D
:10300000002B7FF4B2AE40E712F0200208D119681D
:10301000012421F00A01196089F8342089F835402B
:10302000D9F83C30002B7FF4A0AE2EE708540258AC
:103030001C54025894540258406D7047002800F008
:10304000DE81F8B503680446D80730D59F490A6980
:10305000896A02F03802102A00F00081182A00F074
:10306000F8806368B3F5803F00F02081002B00F00A
:103070005E81B3F5A02F954B1A6800F02F8222F4E1
:1030800080321A601A6822F480221A60FEF74AF928
:103090008E4E41F28837054605E0FEF743F9401BA6
:1030A000B84200F2428133689A03F6D523689D073F
:1030B00000F18580D9062FD5844A1369926A03F0FE
:1030C0003803082B00F0DA80182B00F0D280E36977
:1030D0007E4D002B00F065812B6843F080032B6050
:1030E000FEF720F9064605E0FEF71CF9801B0228D2
:1030F00000F21B812B68DB05F6D5FEF72BF941F2B8
:103100000303984200F20B826B68226A23F0F843B3
:1031100043EA82636B6023681D0716D563696B4DB4
:10312000002B00F01C816B6F43F001036B67FEF70F
:10313000F9F8064605E0FEF7F5F8801B022800F2D4
:10314000F4806B6F9807F6D523689A0616D5A369A5
:103150005E4D002B00F014812B6843F480532B60EC
:10316000FEF7E0F8064605E0FEF7DCF8801B0228D3
:1031700000F2DB802B689F04F6D52368590700F125
:103180009B80636ACBB1514D2A6902F03802182A3C
:103190006DD0022B2B6823F080732B6000F03981F7
:1031A000FEF7C0F8044605E0FEF7BCF8001B022855
:1031B00000F2BB802B689B01F6D40020F8BD434A87
:1031C0001369926A13F0380329D1404BE2681B68F7
:1031D000590701D5002A4AD03C4D2B6823F019032A
:1031E00013432B60FEF79EF8064605E0FEF79AF8BB
:1031F000801B022800F299802B685B07F6D5FEF74A
:10320000A9F841F20303226998426B6800F2F0804A
:1032100023F47C3343EA02336B6023684AE7182BBC
:1032200000F0E280294DE2682B68002A00F0CB8094
:1032300023F0190313432B60FEF774F8064604E0ED
:10324000FEF770F8801B02286FD82B685F07F7D550
:10325000D5E701F0030102297FF403AF1B4A12688E
:1032600091037FF524AF6268002A7FF420AF01202C
:10327000F8BD02F00302012A7FF429AF134B1B684B
:10328000DA0502D5E369802BF1D1FEF763F841F24C
:1032900003030E4A9842216A00F2B380536823F078
:1032A000F84343EA81635360236835E7074A1368AC
:1032B00043F480331360E9E6054D2B6843F48073D3
:1032C0002B60FEF72FF8064609E000BF00440258C5
:1032D00000480258FEF726F8801B642825D82B6882
:1032E000DA05F7D5A368012B00F02281002B00F04E
:1032F000FD80052B954B1A6F00F0208122F0010212
:103300001A671A6F22F004021A67FEF70BF88F4E45
:1033100041F28837054604E0FEF704F8401BB84246
:1033200003D8336F9B07F7D52BE70320F8BD874DF4
:1033300041F288372B6823F480332B602B6823F409
:1033400080232B60FDF7EEFF064604E0FDF7EAFF61
:10335000801BB842E9D82B689B03F7D4A6E66B6FB5
:1033600023F001036B67FDF7DDFF064604E0FDF780
:10337000D9FF801B0228D8D86B6F9907F7D4E3E6F2
:103380002B6823F480532B60FDF7CCFF064604E046
:10339000FDF7C8FF801B0228C7D82B689804F7D414
:1033A000EBE62B6823F080032B60FDF7BBFF06469E
:1033B00004E0FDF7B7FF801B0228B6D82B68DF05B5
:1033C000F7D42368A8E623F001032B60FDF7AAFFDA
:1033D000064604E0FDF7A6FF801B0228A5D82B684F
:1033E0005807F7D4236865E690077FF41BAFECE637
:1033F00023F0FE4343EA02636B6023685AE6012030
:103400007047D36823F07C5343EA0163D360236899
:1034100082E6FDF787FF064604E0FDF783FF801B89
:10342000022882D82B689901F7D4A96A484BA26A6E
:103430000B404849454E1343E26A43EA0213AB622C
:10344000D4E90D32013B013A5B0212049BB202F453
:10345000FE021343226B013AC2F308021343E26BEC
:10346000013A120602F0FE4213432B63EB6A23F08B
:103470000103EB626A6BA36C114041EAC30169630B
:10348000EB6A226C23F00C031343EB62EB6A626C71
:1034900023F002031343EB62EB6A43F48033EB62E5
:1034A000EB6A43F40033EB62EB6A43F48023EB6294
:1034B000EB6A43F00103EB622B6843F080732B60EF
:1034C000FDF730FF044605E0FDF72CFF001B022846
:1034D0003FF62BAF33689A01F6D56EE642F48022B0
:1034E0001A601A6842F480321A60CFE5174D41F233
:1034F00088372B6F23F001032B672B6F23F0040316
:103500002B67FDF70FFF064605E0FDF70BFF801B5D
:10351000B8423FF60AAF2B6F9807F6D431E6EB6856
:10352000226A23F07C5343EA0263EB602368F3E5ED
:10353000064A136F43F001031367E6E642F0040204
:103540001A671A6F42F001021A67DEE60044025859
:103550000CFCFFFF0700FFFF474A136903F0380325
:10356000102B04D0182B0DD01BB144487047444891
:103570007047136899064AD513684248C3F3C103DC
:10358000D8407047936A30B4946AD56A14F47C7F4B
:10359000516BC4F3051038D0C1F3CC0105F001051F
:1035A00003F0030305FB01F1012B07EE901AB8EEBF
:1035B000E77A02D0022B2CD093B307EE900A9FED4E
:1035C000325AF8EEE77A136BC5EE276ADFED2F5A11
:1035D000C3F3080307EE903AB7EE006AF8EEE77A15
:1035E000E7EE257A77EE867A66EEA76A224B1B6BAA
:1035F000C3F34623013307EE903AB8EEE77AC6EEFE
:10360000877AFCEEE77A17EE900A30BC70471D48C7
:10361000704707EE900A9FED1E5AF8EEE77AD2E760
:1036200013689B0620D5146807EE900A1549F7EE3B
:10363000005A136BC4F3C104F8EEE77A9FED135AF6
:10364000C3F30803E14006EE903A06EE101AF8EED6
:10365000E66AB8EEC66AE7EE056A86EE277A76EE87
:10366000A56A66EE876AC1E707EE900A9FED095AE0
:10367000F8EEE77AA7E700BF0044025800093D00D2
:103680000024F4000090D0030024744A00000039A4
:103690000024744B0024744C002800F00281874AF7
:1036A000136803F00F038B422DE9F04104460D46E9
:1036B0000CD2136823F00F030B431360136803F05D
:1036C0000F038B4202D00120BDE8F08123685F0721
:1036D0000BD57B4920698A6902F07002904204D9B7
:1036E0008A6922F0700202438A611E070BD5744971
:1036F0006069CA6902F07002904204D9CA6922F076
:1037000070020243CA61D8060BD56D49A069CA6927
:1037100002F4E062904204D9CA6922F4E0620243F2
:10372000CA6199060BD56649E0690A6A02F070021F
:10373000904204D90A6A22F0700202430A629A0790
:1037400040F1A1805E48E168826902F00F02914277
:1037500004D9826922F00F020A438261D80730D56A
:10376000574AA168936923F470630B4393616168BE
:103770001368022900F09780032900F08E80012948
:1037800000F0978058079ED54D4E41F28838336936
:1037900023F007030B433361FDF7C4FD074605E043
:1037A000FDF7C0FDC01B404500F2818033696268AF
:1037B00003F03803B3EBC20FF2D12368990706D5A3
:1037C000E1683F48826902F00F028A425FD83B49B4
:1037D0000A6802F00F02AA420AD90A6822F00F0210
:1037E0002A430A600A6802F00F02AA427FF46BAF14
:1037F0005A070BD5324920698A6902F0700290425B
:1038000004D28A6922F0700202438A611F070BD535
:103810002B496069CA6902F07002904204D2CA69F9
:1038200022F070020243CA61DE060BD52449A0696A
:10383000CA6902F4E062904204D2CA6922F4E062EA
:103840000243CA619D060BD51D4AE169136A03F064
:103850007003994204D2136A23F070030B4313627E
:10386000FFF77AFE164A0346164892691649C2F3D4
:103870000322825C0E2002F01F02D340BDE8F0411B
:103880000B60FDF7EDBCDA073FF56AAF9FE7826991
:1038900022F00F021143816199E79F013FF574AF58
:1038A00011E7012070479B033FF56EAF0BE7032044
:1038B0000AE7DE053FF568AF05E700BF00200052CC
:1038C00000440258302201084402002408B501F0E7
:1038D00095F9064B06499B69064A03F00F03CB5C3A
:1038E00003F01F03D840106008BD00BF0044025819
:1038F000302201084802002410B501F07FF909497F
:10390000094A8B69094C03F00F03D35C03F01F03D2
:10391000D8402060CB69C3F30213D35C03F01F03CC
:10392000D84010BD0044025830220108480200244B
:1039300010B501F063F90949094A8B69094C03F094
:103940000F03D35C03F01F03D8402060CB69C3F39F
:103950000223D35C03F01F03D84010BD004402587B
:103960003022010848020024F8B53A4CA36A03F05B
:103970000303032B67D0236806460F4623F08063BA
:103980002360FDF7CFFC054604E0FDF7CBFC431BAD
:10399000022B56D823681A01F7D4A36A326823F49D
:1039A0007C3343EA0233A362D6E90232013B013A97
:1039B0005B0212049BB202F4FE0213437268013AE6
:1039C000C2F3080213433269013A120602F0FE42C2
:1039D0001343A363E36A726923F0C0031343E362F2
:1039E000E26AB36922F020021A431B4BE262E26AE8
:1039F00022F01002E262E16BF2690B4043EAC2037B
:103A0000E363E36A43F01003E362E36AEFB1012F7B
:103A10000CBF43F4801343F40013E3620D4C23689E
:103A200043F080632360FDF77DFC054604E0FDF76D
:103A300079FC401B022804D823681B01F7D500201D
:103A4000F8BD0320F8BD0120F8BD43F40023E36274
:103A5000E4E700BF004402580700FFFFF8B53A4C06
:103A6000A36A03F00303032B67D0236806460F46BF
:103A700023F080532360FDF755FC054604E0FDF775
:103A800051FC431B022B56D823689A00F7D4A36A33
:103A9000326823F07C7343EA0253A362D6E9023210
:103AA000013B013A5B0212049BB202F4FE02134393
:103AB0007268013AC2F3080213433269013A1206EE
:103AC00002F0FE4213432364E36A726923F4406305
:103AD0001343E362E26AB36922F400721A431B4B98
:103AE000E262E26A22F48072E262616CF2690B4087
:103AF00043EAC2036364E36A43F48073E362E36A04
:103B0000EFB1012F0CBF43F4000343F08073E36275
:103B10000D4C236843F080532360FDF703FC0546FA
:103B200004E0FDF7FFFB401B022804D823689B003C
:103B3000F7D50020F8BD0320F8BD0120F8BD43F4FF
:103B40008003E362E4E700BF004402580700FFFF80
:103B50002DE9F8430368044613F0006622D0426E54
:103B6000B2F5001F00F0CE8411D8002A00F0F884CE
:103B7000B2F5801F40F0F18402210430FFF7F4FE1B
:103B80000646002E40F08684626E236803E0B2F59C
:103B9000401F40F0E284A8480026016D21F4401146
:103BA0000A430265DD050AD5626D042A06D8DFE8FE
:103BB00012F0A20493049A04DF02DF0201263546C4
:103BC00098051BD5A26D802A00F05B8400F2EC8082
:103BD000002A00F08B83402A40F0ED800021201D58
:103BE000FFF7C2FE23680546002D40F06783924927
:103BF000A06D0A6D22F4E07202430A6559051FD5D3
:103C0000D4F8A420B2F5800F00F0478400F2D680EB
:103C1000002A00F07183B2F5001F40F0D780002128
:103C2000201DFFF7A1FE23680546002D40F04483C8
:103C30008149D4F8A4008A6D22F4600202438A65A7
:103C40001A051FD5D4F8A820B2F1007F00F02E8409
:103C500000F2BF80002A00F05583B2F1807F40F06F
:103C6000C0800021201DFFF77FFE23680546002D40
:103C700040F02A837049D4F8A8008A6D22F0E062EF
:103C800002438A659F0118D5A26C202A00F0DA83CE
:103C900000F2AA803AB1102A40F0A9806649CA6AA7
:103CA00042F40032CA62002D40F059836249A06C90
:103CB000CA6C22F030020243CA64D8041DD5E26DFA
:103CC000B2F5005F00F0FB8300F29480002A00F060
:103CD0001F83B2F5805F40F095800021201DFFF723
:103CE00043FE23680546002D40F0EC825249E06D0A
:103CF0000A6D22F4E04202430A6599041AD5226E45
:103D0000B2F5003F00F074837FD84AB1B2F5803F2E
:103D100040F083800121201DFFF726FE2368054621
:103D2000002D40F01E834449206E0A6D22F4E022EB
:103D300002430A655A041BD5D4F8AC20B2F1005FE7
:103D400000F060836CD842B1B2F1805F70D1012184
:103D5000201DFFF709FE23680546002D40F0038370
:103D60003549D4F8AC008A6D22F0E04202438A65FE
:103D70001F040DD5E26EB2F1805F00F03183B2F125
:103D8000005F00F00182002A00F00482012635461F
:103D9000D8015DD5626C032A00F20A84DFE812F0D4
:103DA000540017034E005400C02A3FF41DAFB2F573
:103DB000807F3FF419AF012635461FE7B2F5C00FEB
:103DC0003FF433AFB2F5000F3FF42FAF0126354675
:103DD00036E7B2F1407F3FF44AAFB2F1806F3FF473
:103DE00046AF012635464DE7302A3FF45CAF012649
:103DF000354662E7B2F5405F3FF475AFB2F5804FEC
:103E00003FF471AF0126354677E722F48031B1F5F2
:103E1000802F85D0B2F5403F82D00126354689E714
:103E200022F08051B1F1804F97D0B2F1405F94D031
:103E3000012635469CE700BF004402580221201DA0
:103E4000FFF792FD23680546002D00F06B822E4699
:103E5000590200F1F081DF072FD5A26F282A2AD856
:103E6000DFE812F0D30129002900290029002900E8
:103E7000290029006D0329002900290029002900B3
:103E800029002900CC012900290029002900290046
:103E900029002900D301290029002900290029002F
:103EA00029002900D301290029002900290029001F
:103EB00029002900D30101263546980716D5626FDF
:103EC000052A00F27883DFE812F00D0030030600C7
:103ED0000D000D000D00012104F12400FFF7BEFDCF
:103EE00023680546002D00F025822E46590717D578
:103EF000D4F89020052A00F26183DFE812F00D006B
:103F00000C0306000D000D000D00012104F124003A
:103F1000FFF7A4FD23680546002D00F013822E460E
:103F20009A061DD5D4F88C20B2F1005F00F04582CE
:103F300000F2DC804AB1B2F1805F40F0E180002104
:103F4000201DFFF711FD23680546002D40F0058276
:103F5000A949D4F88C004A6D22F0E04202434A6538
:103F60005F061DD5D4F89820B2F5006F00F054829A
:103F700000F2C9804AB1B2F5806F40F0CE800021D6
:103F8000201DFFF7F1FC23680546002D40F0C88195
:103F90009949D4F898008A6D22F4E05202438A6568
:103FA00018061DD5D4F89C20B2F5804F00F03F8252
:103FB00000F2B6804AB1B2F5005F40F0BB8000214C
:103FC000201DFFF7D1FC23680546002D40F0A68197
:103FD0008949D4F89C008A6D22F4604202438A65C4
:103FE00019070BD5D4F88010B1F5805F00F03E8240
:103FF0008148426D22F440520A434265DA060BD5ED
:10400000D4F89410B1F5807F00F025827A48826D53
:1040100022F440720A4382651F030ED5D4F8A01023
:10402000B1F5803F00F0D480B1F5003F00F0D780BB
:10403000002900F0BA810126354658030FD5D4F87F
:104040008420B2F5001F00F0B080B2F5401F00F0F0
:10405000B380B2F5801F00F0A08101263546D90358
:1040600009D5E26C002A00F08681B2F5803F00F0AD
:104070002D81012635469A0000F1D2809F035CD441
:10408000301E18BF0120DE0206D55B49256F0A6D80
:1040900022F000422A430A65DD0007D55649D4F8CC
:1040A000B4500A6922F480422A430A61990206D573
:1040B0005149A56E0A6D22F080722A430A655A00A2
:1040C00009D54D4A116921F4004111611169D4F8F3
:1040D000B85029431161002B06DA474A216DD36C91
:1040E00023F040530B43D364BDE8F88322F08051A2
:1040F000B1F1804F3FF429AFB2F1405F3FF425AFFB
:10410000012635462CE722F48061B1F5805F3FF44B
:104110003CAFB2F5406F3FF438AF012635463FE77C
:1041200022F40051B1F5004F3FF44FAFB2F5C04F4C
:104130003FF44BAF0126354652E7E26FB2F5807F80
:1041400000F0228106D922F48071B1F5007F03D0FE
:10415000012098E7002AFBD1002DF9D1264D301E11
:10416000696D18BF012021F440710A436A658AE72E
:104170003546002D40F0A4801F49606D0A6D22F085
:10418000070202430A651BE50121201DFFF7ECFB36
:1041900023680546002D40F0DE801749E06E0A6D69
:1041A00022F0405202430A65F2E5012104F12400A5
:1041B000FFF754FC23680546002D40F0DA800E49D5
:1041C000D4F884004A6D22F4401202434A6546E75F
:1041D000022104F12400FFF741FC23680546002D6D
:1041E00040F0C5800449D4F8A0008A6D22F4403222
:1041F00002438A6521E700BF00440258012104F10F
:104200002400FFF72BFC23680546002D40F0AD800D
:10421000AF49A06F4A6D22F0380202434A654CE66E
:10422000022104F12400FFF719FC236800283FF461
:1042300025AF012622E7A74F3B6843F480733B601C
:10424000FDF770F8804606E0FDF76CF8A0EB08007B
:10425000642800F27E813B68DA05F5D5002D40F038
:10426000A4819B4AD4F8B030116F594011F4407FBB
:104270000BD0116F106F21F4407140F48030106743
:10428000106F20F4803010671167B3F5807F00F065
:104290006E8103F44072B2F5407F00F07C818C495E
:1042A0000A6922F47C520A61894AC3F30B03116F35
:1042B0000B4313672368CEE52E46C1E42E469DE4EA
:1042C0002E467DE42E4618E52E46DBE40221201D15
:1042D000FFF74AFB05462368002D53D17C49E06C6B
:1042E000CA6C22F480320243CA64C4E67849CA6ABE
:1042F00042F40032CA6277E47549CA6A42F4003275
:10430000CA6292E47249CA6A42F40032CA62AEE4F6
:104310006F49CA6A42F40032CA62E4E42E465FE69C
:104320002E463DE66A49606CCA6C22F003020243E5
:10433000CA648DE56649606F4A6D22F00702024348
:104340004A65D3E56249D4F890008A6D22F00702ED
:1043500002438A65E4E52E461AE52E4600E62E461F
:10436000ABE42E46E6E42E4602E52E46A5E52E46B3
:1043700063E62E4673E65649CA6A42F40032CA62C0
:10438000002DABD02E4676E65148C16A41F400318B
:10439000C162002D7FF4DCAEE0E64D49CA6A42F40A
:1043A0000032CA62002DE4D109E7201DFFF7DCFAD4
:1043B00005462368002DDAD114E7022104F1240018
:1043C000FFF74CFB05462368002DC6D1C0E54049E8
:1043D000CA6A42F40032CA62002D7FF438ADA1E708
:1043E0003B49CA6A42F40032CA62002DB3D1D4E616
:1043F000012104F12400FFF731FB05462368002D5D
:10440000AFD190E4012104F12400FFF727FB05461A
:104410002368002DA7D1A3E4022104F12400FFF7B3
:104420001DFB05462368002D7FF47AAFB0E502211D
:1044300004F12400FFF712FB05462368002D7FF4EA
:104440006DAFC5E50221201DFFF78EFA05462368F2
:10445000002D84D12AE4022104F12400FFF7FEFAA2
:10446000236800283FF4D8AD0126D5E5022104F1E8
:104470002400FFF7F3FA236800283FF4BFAD0126BC
:10448000BCE5002104F12400FFF7E8FA23680546A3
:10449000FFF7AABB2368FFF785BB002104F12400C6
:1044A000FFF7DCFA23680546FFF7BFBB002104F1E4
:1044B0002400FFF7D3FA23680546FFF7D8BB002195
:1044C00004F12400FFF7CAFA236805460BE400BF95
:1044D00000440258004802580021201DFFF744FA0A
:1044E0002368054645E6002104F12400FFF7B6FAEB
:1044F000236805463DE633493546CA6A42F4003230
:10450000CA6236E602212430FFF7A8FA0646002EDA
:104510003FF43AABBEE70121201DFFF725FA05461F
:104520002368002D7FF4FBAC0CE70121201DFFF771
:104530001BFA05462368002D7FF4D7ACFAE601216B
:10454000201DFFF711FA05462368002D7FF40DAFFB
:104550005EE60326236835467DE40126FFF722BB8D
:104560001848C16A41F40031C162FFF714BBFCF77F
:10457000D9FEDFF85080074641F2883904E0FCF7A5
:10458000D1FEC01B4845E4D8D8F870309B07F6D55B
:10459000D4F8B0307DE60B480B4A016902EA1312E9
:1045A00021F47C510A4302617EE623682E4652E4E0
:1045B000012635464CE40126354697E4012635466A
:1045C000AEE400BF00440258CFFFFF0008B5FFF77C
:1045D0007DF9054B054A1B6AC3F30213D35C03F054
:1045E0001F03D84008BD00BF004402583022010814
:1045F000584B70B4996A9D6ADE6A15F47C3FC5F326
:104600000532DC6B5CD0C4F3CC0406F0100601F07C
:10461000030106FB04F4012907EE904AB8EEE77A9D
:1046200003D0022975D000294FD007EE902ADFED84
:104630004A6AF8EEE77A9B6B86EEA76A9FED475AC7
:10464000C3F3080306EE903AF7EE005AF8EEE66A76
:10465000E7EE056A76EEA56A66EE266A3D4AB7EE93
:10466000006A936BC3F3462307EE103AB8EEC77A9D
:1046700070BC37EE067AC6EE877AFCEEE77AC0EDBC
:10468000007A936BC3F3064307EE103AB8EEC77A8D
:1046900037EE067AC6EE877AFCEEE77AC0ED017A4D
:1046A000936BC3F3066307EE903AF8EEE77A77EE82
:1046B000867A86EEA77ABCEEC77A80ED027A7047DA
:1046C00070BCC0E90022826070471968890627D54E
:1046D0001C6807EE902A2249F7EE005A9B6BC4F340
:1046E000C102F8EEE77A9FED1D5AC3F30803D140EB
:1046F00006EE903A06EE101AF8EEE66AB8EEC66AD2
:10470000E7EE056A86EE277A76EEA56A66EE876A98
:10471000A4E707EE902ADFED136AF8EEE77A8AE75E
:1047200007EE902A9FED105A9B6BB7EE006AF8EEE9
:10473000E77ADFED0A5AC3F30803C5EE276A07EEEE
:10474000903AF8EEE77AE7EE257A77EE867A66EE2B
:10475000A76A83E7004402580024744A0000003925
:104760000090D0030024744B0024744C584B70B458
:10477000996A9D6ADE6A15F07C7FC5F305525C6C10
:104780005CD0C4F3CC0406F4807601F0030106FB90
:1047900004F4012907EE904AB8EEE77A03D0022923
:1047A00075D000294FD007EE902ADFED4A6AF8EE67
:1047B000E77A1B6C86EEA76A9FED475AC3F308039E
:1047C00006EE903AF7EE005AF8EEE66AE7EE056A72
:1047D00076EEA56A66EE266A3D4AB7EE006A136C6D
:1047E000C3F3462307EE103AB8EEC77A70BC37EE33
:1047F000067AC6EE877AFCEEE77AC0ED007A136C93
:10480000C3F3064307EE103AB8EEC77A37EE067ADE
:10481000C6EE877AFCEEE77AC0ED017A136CC3F33B
:10482000066307EE903AF8EEE77A77EE867A86EE40
:10483000A77ABCEEC77A80ED027A704770BCC0E9F7
:104840000022826070471968890627D51C6807EE28
:10485000902A2249F7EE005A1B6CC4F3C102F8EE0D
:10486000E77A9FED1D5AC3F30803D14006EE903A54
:1048700006EE101AF8EEE66AB8EEC66AE7EE056ACA
:1048800086EE277A76EEA56A66EE876AA4E707EEDB
:10489000902ADFED136AF8EEE77A8AE707EE902AAE
:1048A0009FED105A1B6CB7EE006AF8EEE77ADFED69
:1048B0000A5AC3F30803C5EE276A07EE903AF8EEEA
:1048C000E77AE7EE257A77EE867A66EEA76A83E7DF
:1048D000004402580024744A000000390090D003BC
:1048E0000024744B0024744C584B70B4996A9D6A30
:1048F000DE6A15F47C7FC5F305125C6B5CD0C4F3F3
:10490000CC0406F0010601F0030106FB04F40129C2
:1049100007EE904AB8EEE77A03D0022975D0002955
:104920004FD007EE902ADFED4A6AF8EEE77A1B6B6C
:1049300086EEA76A9FED475AC3F3080306EE903A46
:10494000F7EE005AF8EEE66AE7EE056A76EEA56A3B
:1049500066EE266A3D4AB7EE006A136BC3F3462340
:1049600007EE103AB8EEC77A70BC37EE067AC6EE9C
:10497000877AFCEEE77AC0ED007A136BC3F3064347
:1049800007EE103AB8EEC77A37EE067AC6EE877AA7
:10499000FCEEE77AC0ED017A136BC3F3066307EE12
:1049A000903AF8EEE77A77EE867A86EEA77ABCEE52
:1049B000C77A80ED027A704770BCC0E9002282603D
:1049C00070471968890627D51C6807EE902A224986
:1049D000F7EE005A1B6BC4F3C102F8EEE77A9FEDC5
:1049E0001D5AC3F30803D14006EE903A06EE101AA2
:1049F000F8EEE66AB8EEC66AE7EE056A86EE277A52
:104A000076EEA56A66EE876AA4E707EE902ADFEDE8
:104A1000136AF8EEE77A8AE707EE902A9FED105ABC
:104A20001B6BB7EE006AF8EEE77ADFED0A5AC3F3C4
:104A30000803C5EE276A07EE903AF8EEE77AE7EE4C
:104A4000257A77EE867A66EEA76A83E700440258F5
:104A50000024744A000000390090D0030024744BF5
:104A60000024744CB0F5807F00B585B048D0B0F517
:104A7000007F11D0B0F5806F00F08280B0F5006F3C
:104A800052D0B0F5805F2CD0B0F5002F00F09680AA
:104A9000002005B05DF804FB534A136D03F4E07386
:104AA000802B59D012D9C02B26D0B3F5807FEFD1FF
:104AB000D36C13F040535BD0B3F1805F00F08D8076
:104AC000B3F1005F494818BF0020E2E7002B3CD05B
:104AD000402BDDD101A8FFF78BFD019805B05DF8F3
:104AE00004FB414A136D03F4E043B3F5005F33D098
:104AF00029D9B3F5405F58D13D4805B05DF804FBB6
:104B0000394B1B6D03F00703042BC1D801A252F8E7
:104B100023F000BF4B4B0008D54A0008594B000852
:104B2000F94A0008674B00082F4A936D03F0E063D1
:104B3000B3F1007F10D01DD9B3F1407FDCD0B3F1C9
:104B4000806FB5D0A4E7002B34D101A8FFF7CCFECD
:104B5000029805B05DF804FB01A8FFF707FE019875
:104B600005B05DF804FB204BDB6C13F04053A3D180
:104B700020488EE7002BE8D0B3F1807FAAD087E7EA
:104B8000194A936D03F46003B3F5800FE4D005D8A0
:104B9000002BDAD0B3F5001F9CD079E7B3F5C00F36
:104BA000AAD0B3F5000F83D072E7B3F5804F3FF47E
:104BB0007FAF6DE7B3F5805F8CD069E70A4A936DEC
:104BC00003F44033B3F5803F09D0B3F5003F3FF421
:104BD0006FAF002B7FF45CAF7CE7074859E701A873
:104BE000FFF7C4FD039854E7004402580024F40082
:104BF0000080BB000090D00300093D0008B5FEF71F
:104C0000ABFC064B06499B69064AC3F30323CB5C06
:104C100003F01F03D840106008BD00BF00440258D5
:104C20003022010844020024084604F00BB900BFFA
:104C3000143001F069BA00BF38B500F1140504461C
:104C40002DED028B284601F01BFA284601F014FADC
:104C50002846B0EE408A01F0FDF9D0ED007AF8EE7A
:104C6000677A88EE277ABDEC028B84ED0E7A38BD28
:104C700038B500F1140504462DED028B284601F0ED
:104C8000EDF9284601F0F8F92846B0EE408A01F027
:104C9000E1F9D0ED007AF8EE677A88EE277ABDEC7C
:104CA000028B84ED0E7A38BD253001F079BF00BF4C
:104CB00010B540F203338EB000244FF60B7240F271
:104CC0000341ADF8083009A80123ADF81020ADF874
:104CD00024202246ADF80C100094029907940C94FD
:104CE000CDE90544CDE90A4401F082FD04A8012381
:104CF00022460399009401F07BFD09A801F05EFEB5
:104D000010B901200EB010BD04A801F057FEA0425A
:104D10000CBF022020460EB010BD00BF2DE9F041AF
:104D200003239AB0012700240646CDE914373B4BF4
:104D3000CDE9104340F20453CDE91647ADF84830B1
:104D4000FFF7B6FFB842054625D0022845D040F609
:104D50000132334B0DF12C081894ADF82C200B9830
:104D60001997CDF84A3000F0E3F810A906F13C009D
:104D700002F05EFE302003224FF07E5341460D9339
:104D80000E93CDE90B02F26B06F1140001F02AF943
:104D90001AB0BDE8F0811023214A06A906908DF8CB
:104DA00028300DF12C081F4BCDF84A2007930294B0
:104DB000CDE91804CDE9080402A802F071F808232F
:104DC000029A03A94046ADF80C508DF80E400495A8
:104DD00005930B9400F0ECF8C7E700200121104B7D
:104DE0000DF12C083A460094CDF84A304FF60B737B
:104DF0000C94ADF82C302346CDE9180140F6013172
:104E00004046ADF818100699CDE90D4401F0F0FCCC
:104E10002146404601F0DEFDA7E700BF040204047E
:104E2000040604030704010B2DE9F04704462DEDA9
:104E3000028B82B000294DD0012140F201120023E3
:104E40000091ADF804208DF80630364A0127364B24
:104E500004F10409354904F12908626040F2027244
:104E6000A36040F60663E16004F1250AA4F825205A
:104E7000A4F82930278284F8277084F82B7004F076
:104E80007DF9054603F0E0FF6946064650BB4DB389
:104E900004F130008DF8067004F0F8F8072D3CD1CD
:104EA00004F114052046FFF739FF284601F0E4F825
:104EB0002846B0EE408A01F0CDF8D0ED007AF8EE49
:104EC000677A88EE277A84ED0E7A02B0BDEC028B09
:104ED000BDE8F08740F2011300918DF80610ADF89F
:104EE0000430B2E704F1300004F0D0F8072D11D0FF
:104EF0004946204602F01CFA0EB9002DD0D150468A
:104F000001F072FD404601F06FFD04F1120000F067
:104F100079F9C5E7002EF2D1C2E74946204602F0F2
:104F200007FABDE70508050905070506050A06068F
:104F300010B584B003460124ADF8040003A8ADF811
:104F40000C30ADF80E4001F04FFD214603A801F0F2
:104F500027FE204603F076FF002103A801F020FE83
:104F6000204603F06FFF214603A801F019FE04B0AC
:104F700010BD00BF10B5C2F3002384B00C46017C05
:104F80008DF80D2043EA4402FA2402238DF80C2008
:104F900003AA009402F01AF818B10124204604B0C4
:104FA00010BD04460A2003F04DFF204604B010BD9A
:104FB000034670B543F8042B044684B007C983E860
:104FC0000700A37983B91A210B461E22FA25237400
:104FD0002046ADF80C20022303AA009501F0F6FF4D
:104FE00028B1012004B070BD1B210B46EDE70A205B
:104FF00003F028FF4FF4B85200950223ADF80C20BF
:10500000204603AA217C01F0E1FF0028E9D10A2013
:1050100003F018FF41F2027200950223ADF80C2054
:10502000204603AA217C01F0D1FF0028D9D10A2013
:1050300003F008FF042200950223ADF80C2020465F
:1050400003AA217C01F0C2FF0028CAD10A2003F084
:10505000F9FE062200950223ADF80C20204603AA93
:10506000217C01F0B3FF0028BBD10A2003F0EAFE47
:1050700041F2082200950223ADF80C20204603AA35
:10508000217C01F0A3FF0028ABD10A20064603F0E3
:10509000D9FE0095022303AA217C2046ADF80C60BE
:1050A00001F094FF00289CD1304603F0CBFE009520
:1050B00022790C232046002A8DF80C3003AA4FF0E9
:1050C000020314BF622142218DF80D10217C01F0F2
:1050D0007DFF002885D1304603F0B4FE2279D4E963
:1050E00002310B43DBB20AB943F0400362790AB1E3
:1050F00043F020030E22FA258DF80D30204600954E
:1051000002238DF80C2003AA217C01F05FFF002808
:105110007FF467AF0A2003F095FE1022009502236A
:10512000ADF80C20204603AA217C01F04FFF002897
:105130007FF457AF0A2003F085FE12210095022369
:10514000ADF80C1003AA217C204601F03FFF002897
:105150007FF447AF0A2003F075FE012209212046A3
:10516000FFF708FF003818BF01203BE7F0B5102318
:1051700087B0234C012200250126002702A92046E2
:105180000195CDE902234FF48052CDE9046707F081
:10519000C7F86420FCF7CCF802A94FF480522046EF
:1051A000CDE9046702261027CDE9026707F0B8F8B9
:1051B0000322102302A92046CDE902230023042262
:1051C000CDE904234FF4805207F0AAF840F23223CD
:1051D000042202A9019310232046CDE90223019A5B
:1051E000012305924FF48052049307F099F840F69A
:1051F0000601204607F0B4F8284607B0F0BD00BF0E
:1052000004B500241C4B00221C494FF0400C30B563
:10521000054689B00220596007219A601A6201246C
:10522000DA620A224FF4006EDC6006922022CDE999
:10523000000104200821CDE9020103201021CDE95D
:10524000040108206946C3E904024FF4C072181D26
:10525000C3E906C24FF48052C3E909E207F036F809
:1052600038B92846FFF782FF003818BF012009B07F
:1052700030BD204609B030BD00B500244041005289
:10528000614A0021D0B513688EB00A91002B40F01E
:10529000B9805E4B01214FF683700C24116002210E
:1052A000D3F8D4200026032742F48052C3F8D42038
:1052B000D3F8D42002F480520092009AD3F8E02070
:1052C00042F01002C3F8E020D3F8E02002F0100210
:1052D0000192019AD3F8E02042F04002C3F8E020A6
:1052E000D3F8E02002F040020292029AD3F8E020C4
:1052F00042F00802C3F8E020D3F8E02002F00802F0
:105300000392039AD3F8E02042F48072C3F8E020BD
:10531000D3F8E02002F480720492049AD3F8E020DB
:1053200042F08002C3F8E020D3F8E02002F08002CF
:105330000592059AD3F8E02042F02002C3F8E0205D
:10534000D3F8E02002F020020692069AD3F8E0207B
:1053500042F00402C3F8E020D3F8E0300C9403F0EC
:10536000040307930323079A0B93CDE9080108A9C7
:10537000274804F03FF948F23712022308A92548CC
:105380000C94CDE90823CDE90A6704F033F94CF217
:105390000372022308A920480C94CDE90823CDE923
:1053A0000A6704F027F940F2FF62022308A91B48AC
:1053B0000C94CDE90823CDE90A6704F01BF94FF6F8
:1053C0000C72022308A916480C94CDE90823CDE9F4
:1053D0000A6704F00FF94FF63F02022308A91148AB
:1053E0000C94CDE90823CDE90A6704F003F92022E3
:1053F000022308A90A480C94CDE90A67CDE90823DD
:1054000004F0F8F80EB0D0BDFCB4002400440258FB
:105410000010025800180258000C025800200258D0
:10542000001C0258001402582DE9F04FDFF81084D8
:1054300006460D46144608F118002DED028B89B082
:1054400000AF02F0EDFBD8F8183073B3D8F81C3079
:10545000D8F80490002B43690BBF4FF0080A4FF0B7
:10546000100A4FF0020B4FF0040BB9F1000F2AD0D5
:10547000A200EA46012B02F1070222F00702ADEB7F
:10548000020D6846ADEB020D694600F03F81022B2C
:1054900000F0D680002B6FD02246C847D54624376F
:1054A000BD46BDEC028BBDE8F08FD8F81C30002B58
:1054B000F5D0D8F804904FF0080A4FF0020B43697A
:1054C000B9F1000FD4D1FB61D8F80030BB61002BDB
:1054D000E5D0D54802F016FC6B46BBF1020F7861AF
:1054E00008EE103AFB6900F083816A465146A2EB50
:1054F000C40295466200EA46B2FBFBF2AAEBC40086
:1055000085460AEB8200EE46F861ADEB010DF869C5
:105510000EEB820CC7F810C0EC46ADEB010D00EBB2
:105520008201CCF80400CCF8081001EB8201386944
:10553000E946CCF80C1000EB8201CCF800A001EB9E
:105540008202C9E900E0C9E90212012B00F064837C
:10555000022B00F06C82002B00F08081620849462B
:105560006046BB69984718EE103A24379D46BD4601
:10557000BDEC028BBDE8F08F002C8DD01A46D8ED23
:105580000C6A9FEDB27A8446331D36F922E00CF1A5
:10559000080C07EE90EA33F922E00232F8EEE77ADF
:1055A000944267EE877A67EEA67A4CED027A07EEB0
:1055B00090EAF8EEE77A67EE877A67EEA67A4CED26
:1055C000017AE2D8F9612246C847984ED8ED0D6AB3
:1055D0000020F9692B1D9FED9E7A9FED9E6ADFEDFD
:1055E0009E5A22E0F4EEC67AF1EE10FAC0F2C884B8
:1055F00047F6FE72D1ED017A45F8202066EEA77AD3
:10560000F4EEC77AF1EE10FA40F2F080F4EEC67ACA
:10561000F1EE10FAC0F2D58447F6FE7243F820206E
:105620000230083184427FF639AFD1ED007A66EE60
:10563000A77AF4EEC77AF1EE10FAD3D83246D9E75A
:10564000002C3FF429AFD8ED0C6A84469FED787AA0
:105650000022331D8E4656F822100CF1080C07EE7E
:10566000901A53F822100232F8EEE77A944267EE6D
:10567000877A67EEA67A4CED027A07EE901AF8EE7A
:10568000E77A67EE877A67EEA67A4CED017AE2D880
:1056900071462246C7F81CE0C847664ED8ED0D6A31
:1056A0000020F9692B1D9FED6A7A9FED6A6ADFF889
:1056B00094C120E0F4EEC67AF1EE10FAC0F27984DB
:1056C0003246D1ED017A45F8202066EEA77AF4EE55
:1056D000C77AF1EE10FA40F28780F4EEC67AF1EE66
:1056E00010FAC0F25E84324643F8202002300831BE
:1056F00084427FF6D3AED1ED007A66EEA77AF4EE5F
:10570000C77AF1EE10FAD5D86246DAE7002C3FF4FA
:10571000C3AED8ED0C6A86469FED477A4FF0000C79
:10572000331D56F82C200EF1080E82F40002A2F56B
:10573000000207EE902A53F82C200CF1020CF8EE30
:10574000E77A82F400026445A2F5000267EE877AE8
:1057500067EEA67A4EED027A07EE902AF8EEE77A27
:1057600067EE877A67EEA67A4EED017AD9D8F961AD
:105770002246C847314ED8ED0D6A0020F9692B1D2D
:105780009FED337A9FED336ADFF8BCC01FE0F4EE83
:10579000C67AF1EE10FAC0F2FC833246D1ED017AFE
:1057A00045F8202066EEA77AF4EEC77AF1EE10FAFB
:1057B00018D9F4EEC67AF1EE10FAC0F2DA83324666
:1057C00043F820200230083184427FF667AED1EDE5
:1057D000007A66EEA77AF4EEC77AF1EE10FAD6D820
:1057E0006246DBE76246EBE762467DE7324615E755
:1057F000A100D6466208073121F00701ADEB010D8B
:10580000EA46ADEB010D6946ADEB0E0D0AEB8200E9
:10581000EC46ADEB0E0D01EB8202F861E946CCE9F6
:1058200000A0C9E9001290E654B500240280FFFFF1
:10583000000000300082FF7F0000003482FF7F0004
:1058400038B50024007E00807E0080FF0000003814
:1058500004FF7FBF04FF7F3F00FEFF46002C00F0E7
:10586000C982BBF1020FD8F8242000F0FA827969CE
:10587000C7F8049002EB810E5FED0C5A8A00DCF849
:1058800008100EF104007A611A46DCF80C303B6116
:10589000331DD7F810903D61FD69C7E902CB8C46F6
:1058A000834636F92210D8ED0C7A06EE101A33F939
:1058B000221006EE901A3EF92210B8EEC66A07EEE4
:1058C000101AF8EEE66A3BF92210B8EEC77A26EE17
:1058D000256A66EEA56A27EE257A26EE276A66EE29
:1058E000A76A27EE277A07EE901A51080232F8EEDF
:1058F000E77A0AEB8100944280ED006A05EB8100B3
:1059000067EEA57AC0ED006A0CEB810009EB81011E
:1059100080ED007A98ED0C7A67EE877AC1ED007A17
:10592000BFD8D7F804903D69D7E902CB604662083A
:10593000BB6949469847D8F82C307A69D8ED0D6A8A
:105940001A441FED3D7A1FED3D6A2B1D904602F172
:10595000040A5FED3F5A0022A84ED9E900EC51E05D
:10596000F4EEC67AF1EE10FAC0F2C78247F6FE7086
:1059700045F822000CEB0100D0ED007A66EEA77A24
:10598000F4EEC77AF1EE10FA4BD9F4EEC67AF1EEE6
:1059900010FAC0F2BA8247F6FE70BBF1020F43F86C
:1059A00022002BD0D9F808000844D0ED007A66EE2A
:1059B000A77AF4EEC77AF1EE10FA36D9F4EEC67A89
:1059C000F1EE10FAC0F2CD8247F6FE7048F82200E0
:1059D000D9F80C000144D1ED007A66EEA77AF4EE16
:1059E000C77AF1EE10FA1ED9F4EEC67AF1EE10FA8B
:1059F000C0F2AF8247F6FE714AF82210023294429A
:105A00007FF6B1AD51080EEB81008900D0ED007A30
:105A100066EEA77AF4EEC77AF1EE10FAA0D8304617
:105A2000A6E73046B9E73146E6E73046CEE7002C38
:105A300000F0E081BBF1020FD8F8243000F0E181E2
:105A40007A69DCF8081003EB820EC7F80490930023
:105A5000DFED6B5A0EF1040000227B61DCF80C30A4
:105A60003B61331DD7F810903D61FD69C7E902CB5A
:105A70008C46834656F82210D8ED0C7A07EE101AA1
:105A800053F82210B8EEC76A07EE101A5EF822101B
:105A9000F8EEC76A07EE101A26EE256A5BF82210A8
:105AA000B8EEC77A66EEA56A26EE276A27EE257A53
:105AB00066EEA76A27EE277A07EE901A510802329F
:105AC000F8EEE77A0AEB8100944280ED006A05EB7C
:105AD000810067EEA57AC0ED006A0CEB810009EB4E
