:020000040800F2
:1000000000000220E1050008DD050008996E0008E7
:10001000DD050008DD050008DD0500080000000022
:10002000000000000000000000000000DD050008E6
:10003000DD05000800000000DD0500081D6E000859
:10004000DD050008DD050008DD050008DD05000808
:10005000DD050008DD050008DD050008DD050008F8
:10006000DD050008DD050008DD050008395B000836
:10007000455B0008014A0008515B00085D5B000811
:10008000B969000865500008DD050008DD050008B5
:10009000DD050008DD050008DD050008DD050008B8
:1000A000DD050008DD050008DD050008DD050008A8
:1000B000A9E40008B5E40008C1E40008995000086C
:1000C000DD050008A5500008DD05000819DD000861
:1000D00025DD0008ED670008196800084D68000874
:1000E000DD050008DD05000800000000DD05000852
:1000F000DD050008DD050008DD050008DD05000858
:10010000DD050008DD050008CDE4000831DD00084C
:1001100081680008B5680008DD050008DD050008F5
:10012000DD050008DD05000855DD000889DD000853
:10013000ED690008DD050008DD050008DD050008A3
:1001400000000000000000000000000000000000AF
:10015000DD050008DD050008DD050008E968000888
:10016000B1500008DD0500082D6E0008516E000832
:10017000DD050008756E0008DD050008DD050008D6
:10018000DD050008DD0500081D690008516900084B
:100190003DDD000849DD0008DD050008DD0500083B
:1001A000DD050008DD050008DD050008DD050008A7
:1001B00059580008DD050008DD050008DD050008C8
:1001C000DD050008DD050008DD050008DD05000887
:1001D000DD050008DD050008DD050008DD05000877
:1001E000DD050008DD050008DD050008DD05000867
:1001F000DD050008DD050008DD050008DD05000857
:10020000DD050008DD050008DD050008DD05000846
:10021000DD050008DD050008DD050008DD05000836
:10022000DD050008DD050008DD0500080000000010
:10023000DD050008DD05000800000000DD05000800
:10024000DD050008DD050008DD050008DD05000806
:10025000DD050008DD050008DD050008DD050008F6
:10026000DD050008DD050008DD050008DD050008E6
:10027000DD050008DD0500088569000800000000B4
:10028000DD050008DD050008DD05000800000000B0
:0802900000000000DD0500087C
:1002980010B5054C237833B9044B13B10448AFF3B8
:1002A80000800123237010BD80030024000000009B
:1002B80088F8000808B5034B1BB103490348AFF39E
:1002C800008008BD000000008403002488F80008AE
:1002D80053B94AB9002908BF00281CBF4FF0FF31A5
:1002E8004FF0FF3000F074B9ADF1080C6DE904CEA1
:1002F80000F006F8DDF804E0DDE9022304B07047F9
:100308002DE9F047089D04468E46002B4DD18A42C0
:10031800944669D9B2FA82F252B101FA02F3C2F1F3
:10032800200120FA01F10CFA02FC41EA030E944084
:100338004FEA1C48210CBEFBF8F61FFA8CF708FBA5
:1003480016E341EA034306FB07F199420AD91CEB7D
:10035800030306F1FF3080F01F81994240F21C81AF
:10036800023E63445B1AA4B2B3FBF8F008FB1033F7
:1003780044EA034400FB07F7A7420AD91CEB04042C
:1003880000F1FF3380F00A81A74240F207816444FC
:10039800023840EA0640E41B00261DB1D440002381
:1003A800C5E900433146BDE8F0878B4209D9002DE5
:1003B80000F0EF800026C5E9000130463146BDE86F
:1003C800F087B3FA83F6002E4AD18B4202D38242D9
:1003D80000F2F980841A61EB030301209E46002D88
:1003E800E0D0C5E9004EDDE702B9FFDEB2FA82F2DD
:1003F800002A40F09280A1EB0C014FEA1C471FFA3B
:100408008CFE0126200CB1FBF7F307FB131140EA21
:1004180001410EFB03F0884208D91CEB010103F1EE
:10042800FF3802D2884200F2CB804346091AA4B2B0
:10043800B1FBF7F007FB101144EA01440EFB00FE84
:10044800A64508D91CEB040400F1FF3102D2A645E9
:1004580000F2BB800846A4EB0E0440EA03409CE788
:10046800C6F12007B34022FA07FC4CEA030C20FA35
:1004780007F401FA06F31C43F9404FEA1C4900FA55
:1004880006F3B1FBF9F8200C1FFA8CFE09FB1811D2
:1004980040EA014108FB0EF0884202FA06F20BD945
:1004A8001CEB010108F1FF3A80F08880884240F295
:1004B8008580A8F102086144091AA4B2B1FBF9F0D9
:1004C80009FB101144EA014100FB0EFE8E4508D9D4
:1004D8001CEB010100F1FF346CD28E456AD9023859
:1004E800614440EA0840A0FB0294A1EB0E01A1423E
:1004F800C846A64656D353D05DB1B3EB080261EBAC
:100508000E0101FA07F722FA06F3F1401F43C5E985
:10051800007100263146BDE8F087C2F12003D840BB
:100528000CFA02FC21FA03F3914001434FEA1C47FD
:100538001FFA8CFEB3FBF7F007FB10360B0C43EAEF
:10054800064300FB0EF69E4204FA02F408D91CEB9F
:10055800030300F1FF382FD29E422DD9023863449D
:100568009B1B89B2B3FBF7F607FB163341EA03413D
:1005780006FB0EF38B4208D91CEB010106F1FF388C
:1005880016D28B4214D9023E6144C91A46EA004683
:1005980038E72E46284605E70646E3E61846F8E615
:1005A8004B45A9D2B9EB020864EB0C0E0138A3E75E
:1005B8004646EAE7204694E74046D1E7D0467BE73F
:1005C800023B614432E7304609E76444023842E7B7
:1005D800704700BFFEE700BF0B480C4A904203D0AB
:1005E800121A0B490FF076F80A480B4A904203D0CA
:1005F800121A00210FF07CF806F0A0FE0FF046F862
:1006080000F024F8FEE700BF000000247C0300246B
:10061800B8F800088003002414310024704700BF94
:100628009AB10368406803EB820C10B40C684968FF
:1006380053F8042B44F8042B634550F8042B41F875
:10064800042BF5D15DF8044B7047704708B50021BD
:10065800084803F02DF80321064802F035FF302141
:10066800044802F04DFF044B0449024802F028FFF9
:10067800FEE700BFAC0300249C0300242906000801
:1006880010B508480024084A084904604461046217
:10069800C4630EF0E7FF064B5C6043F8044B5C60F4
:1006A8001C8110BDAC0300240000002425060008AE
:1006B8009C030024704700BF0F4B1B780BB9012027
:1006C800704710B504464FF47A700C4AB0FBF3F348
:1006D8001068B0FBF3F000F0E1F80F2C00D808B177
:1006E800012010BD002221464FF0FF3000F076F8BF
:1006F800034B00201C6010BD0400002444020024A9
:100708000800002438B50320124D00F055F8124CAB
:1007180001F06EFB114A12499369C3F30323CB5CC2
:1007280003F01F0320FA03F30E202B60926902F0F6
:100738000F028A5C02F01F02D3402360FFF7BCFF60
:1007480010B10124204638BD0446FFF7B3FF204608
:1007580038BD00BF44020024480200240044025867
:1007680068F70008034A044B11681B780B441360B0
:10077800704700BFEC03002404000024014B1868F4
:10078800704700BFEC03002438B50446FFF7F6FFB6
:100798000546631C02D0044B1B781C44FFF7EEFF90
:1007A800431BA342FAD338BD04000024014B186848
:1007B800000C70470010005C06494FF6FF0C000261
:1007C800054BCA6800F4E06002EA0C0210430343D8
:1007D800CB60704700ED00E00000FA051B4BDB68BA
:1007E800C3F3022300B5C3F1070E03F1040CBEF1F5
:1007F800040F28BF4FF0040EBCF1060F1AD9033BB3
:100808004FF0FF3C0CFA03FC22EA0C024FF0FF3CCD
:1008180000280CFA0EFC21EA0C0101FA03F141EA66
:1008280002010ADB09010A4BC9B2034483F8001329
:100838005DF804FB00221346E8E700F00F00090109
:10084800044BC9B2034419765DF804FB00ED00E0DF
:1008580000E100E0FCEC00E0002807DB00F01F01ED
:1008680001234009024A8B4042F82030704700BFFC
:1008780000E100E000280DDB4309012200F01F0021
:100888000549203302FA00F041F82300BFF34F8FE7
:10089800BFF36F8F704700BF00E100E0431EB3F164
:1008A800807F0CD24FF0E022002006494FF0F00C78
:1008B8005361072381F823C09061136170470120B9
:1008C800704700BF00ED00E0BFF35F8F044B0021CD
:1008D8005A6A22F480325A62C3F89410704700BFF3
:1008E80000ED00E0064B40F00100C3F894005A6A9E
:1008F80042F480325A62BFF34F8FBFF36F8F704755
:1009080000ED00E0174A4378C2F89830017821B327
:10091800436800B5C2F89C30C37A90F80CC01B0637
:1009280090F80FE043EA0C7390F80AC00B43817B00
:1009380043EACC4390F80DC043EA8C4390F809C0D1
:1009480043EA4143017A43EA0E4343EA0C2343EA6C
:100958004103C2F8A0305DF804FBC2F89C10C2F84D
:10096800A010704700ED00E0704700BF08B5FFF722
:10097800FBFF08BD0268344B344930B4344D354C64
:10098800AA4218BF9A420CBF012300238A4208BF1B
:1009980043F001033031A24208BF43F00103303471
:1009A8008A4208BF43F001033031A24208BF43F036
:1009B800010330348A4208BF43F0010301F55C713A
:1009C800A24208BF43F0010304F55C748A4208BFE1
:1009D80043F001033031A24208BF43F00103303431
:1009E8008A4208BF43F001033031A24208BF43F0F6
:1009F800010330348A4208BF43F001033031A24278
:100A080008BF43F001038A4208BF43F0010313B94A
:100A1800114B9A4213D1D3B21049114C103BA1FB90
:100A280003515F2B0F4BC1F3021103EA0203615C10
:100A380088BF0433C1658365184630BC704722F00F
:100A4800FF038365F8E700BF100002404000024042
:100A58002800024058000240B8040240ABAAAAAAE3
:100A68003CF7000800FCFFFF0368294A294930B415
:100A7800294D2A4CAB4218BF93420CBF01220022D9
:100A88008B4208BF42F001022831A34208BF42F05E
:100A9800010228348B4208BF42F001022831A342E8
:100AA80008BF42F001028B4208BF42F0010212B9AE
:100AB8001B4A934213D1DBB21A4C1B4A0121083B53
:100AC8001A4DA4FB0343456602EB1312C3F3041348
:100AD800920001FA03F30266836630BC7047DAB20B
:100AE8001349144C1944103AA829A4FB02234FEACD
:100AF800131300D80833104A03F01F0501210F4CC7
:100B08001A44A9404466920081660266E5E700BF80
:100B180008540258305402581C540258445402587D
:100B280094540258CDCCCCCC00960016805802586C
:100B3800F0FBFDBFABAAAAAA008200108008024001
:100B480070B50446FFF71AFE002C00F0C680236833
:100B58000546954A934248D01832934245D03032E0
:100B680092498B4218BF934201F130010CBF012218
:100B780000228B4208BF42F0010218318B4208BFA5
:100B880042F0010218318B4208BF42F001021831CD
:100B98008B4208BF42F0010201F556718B4208BF33
:100BA80042F0010218318B4208BF42F001021831AD
:100BB8008B4208BF42F0010218318B4208BF42F055
:100BC800010218318B4208BF42F0010218318B42F2
:100BD80008BF42F0010218318B4208BF42F00102FF
:100BE8001AB9734A934240F0F5800222002184F832
:100BF800352084F834101A6822F001021A6005E0E2
:100C0800FFF7BCFD431B052B40D823681A68D107A2
:100C1800F6D4D4E9022521692A43A0691D680A434C
:100C280061690A43E16902430A4362492940256A26
:100C38002A430A43616A04292FD01A605A6922F0AC
:100C48000702114359612046FFF794FEE26D3F23E6
:100C580002F01F02934083602046FFF705FFA36858
:100C6800802B3CD06368A06EDAB2013BD4E91851FE
:100C7800072B2A60486026D90023C4E91B33636721
:100C880000200123606584F8353070BD20220323DD
:100C98000120626584F8353070BDD4E90B512943D1
:100CA8000A431A605969A26A21F00701114341F009
:100CB8000401002DC6D000284FD1012A6ED032F091
:100CC8000202BFD151E0501E072810D9626FD4E943
:100CD8001B31002018604A60D2E7012070BD002354
:100CE800A16ED4E91802636003605160C4E721680B
:100CF800314B324DA94218BF994205F114050CBF7A
:100D080001230023A94208BF43F001031435A94277
:100D180008BF43F001031435A94208BF43F001039B
:100D28001435A94208BF43F001031435A94208BF8E
:100D380043F001033BB9224B994204D0214B22498D
:100D480013449B0003E0214B214913449B000122DB
:100D58008240C4E91B316267BBE7B0F5005F0ED083
:100D6800022A05D9032A7FF46DAFEA017FF56AAF3D
:100D7800012340221846626584F8353070BD032A85
:100D88003FF660AF01A050F822F000BF790D0008CF
:100D9800730D0008790D0008A50D0008B5F1C07F96
:100DA8007FF450AFE4E700BF10000240400002406B
:100DB800B80402403F8010FE085402581C540258E0
:100DC800945402583F820010400902403F96001692
:100DD80040590258324A33483349834218BF934234
:100DE80000F128000CBF012200228B4208BF42F00C
:100DF80001022831834208BF42F0010228308B42A9
:100E080008BF42F001022831834208BF42F00102C4
:100E18008B4208BF42F0010212B9244A934238D1EA
:100E280002220021224D84F8341084F835201A68F3
:100E38001540A268402A2AD0802A0CBF4FF480406F
:100E48000846266AD4E90312D20842EAD102616947
:100E580042EAD102A16942EAD102E16942EAD10239
:100E6800144942EA161219442A4302431248A0FBC5
:100E7800010120461A600B099B00E365FFF77AFD24
:100E8800E26D012302F01F0293404360E4E6102064
:100E9800D7E7402203230120626584F8353070BD0E
:100EA800085402581C54025830540258945402589A
:100EB8000F00FEFFF8ABFDA7CDCCCCCC002800F08E
:100EC800BC80844690F83400012800F0B8800120E6
:100ED8002DE9F0419CF835408CF83400844208D064
:100EE80000224FF400638CF83420CCF85430BDE86D
:100EF800F0810220DCF800507A4C8CF83500002094
:100F0800794ECCF854007948854218BFA54200F1C3
:100F180018000CBF01240024854208BF44F00104D6
:100F28001830854208BF44F001041830854208BFD4
:100F380044F001041830854208BF44F0010400F56C
:100F48005670854208BF44F001041830854208BF36
:100F580044F001041830854208BF44F001041830F9
:100F6800854208BF44F001041830854208BF44F0A8
:100F780001041830854208BF44F001041830854246
:100F880008BF44F001041830854208BF44F001044A
:100F9800A0F59560B54218BF8542DCF86C600CBFBF
:100FA8000120002054EA0008286820F00100286089
:100FB800DCF86400DCF86840DCF85870446040D025
:100FC80016B1DCE91C044460DCF85C004FF03F0E0D
:100FD80000F01F000EFA00F0B860286820F48020A6
:100FE80028606B60DCF80830402B23D0A960EA60E9
:100FF8002B6823F01E0343F016032B60DCF8403007
:101008001BB12B6843F008032B60DCF860301A68CA
:10101800D20303D51A6842F480721A601EB133688D
:1010280043F4807333602B68002043F001032B6086
:10103800BDE8F081AA60E960DAE701207047022084
:10104800704716B1DCE91C0444602948DFF8A8E0C1
:10105800754518BF85420EF1140E0CBF0120002003
:10106800754508BF40F001000EF1140E754508BF24
:1010780040F001000EF1140E754508BF40F0010064
:101088000EF1140E754508BF40F001000EF1140E64
:10109800754508BF40F0010010B9164885420ED1C9
:1010A800DCF85C0000F01F0E012000FA0EF07860FA
:1010B8006B60DCF80830402B10D0A960EA602B6820
:1010C80023F00E0343F00A032B60DCF84030002BBA
:1010D8009BD02B6843F004032B6096E7AA60E96075
:1010E800EDE700BF400002402800024058000240DF
:1010F80008540258945402581C54025800285FD0CF
:1011080038B590F835200346022A55D10168444A7B
:10111800914248D01832914245D03032414C424831
:10112800A14218BF914204F148040CBF01220022D9
:10113800814208BF42F001023030A14208BF42F0AC
:1011480001023034814208BF42F0010200F55C70B0
:10115800A14208BF42F0010204F55C74814208BF55
:1011680042F001023030A14208BF42F0010230349F
:10117800814208BF42F001023030A14208BF42F06C
:1011880001023034814208BF42F001023030A142EE
:1011980008BF42F00102814208BF42F0010212B9C1
:1011A800224A91420ED10422002083F835200B6890
:1011B80023F001030B6038BD802201205A6538BD39
:1011C800012070470A681C6E22F00E02D86D9D6DD2
:1011D8000A6000F01F000A6822F001020A6001227A
:1011E8002168824021F4807121606A60DA6ED3E957
:1011F8001910486032B11168D3E91C0421F48071D8
:1012080011604460002401211A6D83F8344083F88A
:1012180035101AB118469047204638BD104638BDDB
:10122800100002404000024070000240B804024032
:101238002DE9F04300229C4B83B09C4E1D688146EB
:10124800019203689A4A846D934218BFB342276893
:1012580008BF0126216818BF002645D018329548D6
:10126800834218BF934200F118000CBF01220022EC
:10127800834208BF42F001021830834208BF42F09F
:1012880001021830834208BF42F00102183083423D
:1012980008BF42F0010200F55670834208BF42F0D1
:1012A80001021830834208BF42F00102183083421D
:1012B80008BF42F001021830834208BF42F0010221
:1012C8001830834208BF42F001021830834208BF39
:1012D80042F001021830834208BF42F001021AB9F5
:1012E800754A934240F05082D9F85C10082201F008
:1012F8001F0C02FA0CF2174240F0888127FA0CF210
:10130800D2070CD55A69100609D5012202FA0CF247
:10131800A260D9F8542042F00202C9F854204FF0D4
:10132800040E0EFA0CF038425BD0002E4FD1634AFF
:10133800DFF88081434518BF934208F118080CBFB5
:1013480001220022434508BF42F0010208F11808B3
:10135800434508BF42F0010208F11808434508BF99
:1013680042F0010208F11808434508BF42F00102A3
:1013780008F55678434508BF42F0010208F11808FD
:10138800434508BF42F0010208F11808434508BF69
:1013980042F0010208F11808434508BF42F0010273
:1013A80008F11808434508BF42F0010208F118087F
:1013B800434508BF42F0010208F11808434508BF39
:1013C80042F001021AB93C4A934240F019821A6865
:1013D800920706D5A060D9F8542042F00402C9F853
:1013E8005420102202FA0CFC1CEA070F6CD0002EC5
:1013F80045D1324A2F4EB34218BF934206F1180620
:101408000CBF01220022B34208BF42F00102183685
:10141800B34208BF42F001021836B34208BF42F097
:1014280001021836B34208BF42F0010206F55676AB
:10143800B34208BF42F001021836B34208BF42F077
:1014480001021836B34208BF42F001021836B3420F
:1014580008BF42F001021836B34208BF42F0010249
:101468001836B34208BF42F001021836B34208BF2B
:1014780042F001021AB9104A934240F0C9811A6831
:10148800100721D5C4F808C01A68560300F14C812A
:101498001A68D20503D41A6822F008021A60D9F82B
:1014A80040308BB10CE000BF440200241000024021
:1014B8002800024058000240B804024040000240A0
:1014C80048469847D9F85C1001F01F0120268E4045
:1014D8003E4268D0D9F80020A54BA64FBA4218BFA3
:1014E8009A4207F118070CBF01230023BA4208BF2C
:1014F80043F001031837BA4208BF43F00103183715
:10150800BA4208BF43F001031837BA4208BF43F094
:1015180001031837BA4208BF43F001031837BA422B
:1015280008BF43F0010307F55677BA4208BF43F0F6
:1015380001031837BA4208BF43F001031837BA420B
:1015480008BF43F001031837BA4208BF43F001034C
:101558001837BA4208BF43F001031837BA4208BF28
:1015680043F001031837BA4208BF43F001031BB91F
:10157800814B9A4240F062811368DB0613D5A6605E
:1015880099F83530042B136800F0AE8013F4802FDF
:10159800136800F0D3801C0340F1DE80D9F83C309A
:1015A8000BB148469847D9F85430002B00F0B98061
:1015B800D9F85430D8071FD5D9F80020042189F864
:1015C8003510136823F0010313606C4BA3FB05353A
:1015D800AD0A02E01368D90704D5019B0133AB4279
:1015E8000193F7D9002389F834301368DB074CBF1F
:1015F8000323012389F83530D9F84C30002B00F04B
:101608009080484603B0BDE8F04318471868400783
:101618000AD5186820F004001860A260D9F8542090
:1016280042F00102C9F8542027FA0CF2D2077FF5DC
:1016380076AE534A5348834218BF934200F13000B4
:101648000CBF01220022834208BF42F00102183079
:10165800834208BF42F001021830834208BF42F0BB
:1016680001021830834208BF42F0010200F55670AB
:10167800834208BF42F001021830834208BF42F09B
:1016880001021830834208BF42F001021830834239
:1016980008BF42F001021830834208BF42F001023D
:1016A8001830834208BF42F001021830834208BF55
:1016B80042F001021830834208BF42F00102002ABA
:1016C8007FF420AE002E7FF41DAE1A68042202FAC1
:1016D8000CF23A4240F09480102202FA0CFC17EA0D
:1016E8000C0F3FF4F1AE84E623F016031360536940
:1016F80023F080035361D9F840309BB3136823F07B
:10170800080313603F230025012203FA01F1D9F8E9
:101718005030A16089F8345089F83520002B7FF4C7
:1017280070AF03B0BDE8F0831B6818037FF5B7AE50
:10173800D9F84830002B7FF4C3AEC5E613F48073A4
:101748007FF42CAF116821F010011160012289F893
:10175800343089F8352021E7D9F84430002B7FF45C
:1017680020AF20E7D9F84830002BC7D1CAE700BF1F
:101778001000024028000240B8040240B5814E1B08
:1017880058000240400002404E4A4F4DAB4218BF3D
:10179800934205F114050CBF01220022AB4208BF99
:1017A80042F001021435AB4208BF42F00102143581
:1017B800AB4208BF42F001021435AB4208BF42F009
:1017C80001021435AB4208BF42F0010212B93F4A88
:1017D8009342A6D1D9F85C5004261A6805F01F0573
:1017E800AE400E4219D0570717D5100466604BD586
:1017F800D1034FD4D9F84830002B7FF402AF90E7DB
:101808001A68102202FA0CFC17EA0C0F3FF45CAEBF
:101818001A6852077FF558AE34E60226AE400E42EB
:1018280011D097070FD56660140439D5D00343D477
:10183800D9F84430002B7FF4E4AE72E713689F07B1
:101848007FF5B1AE9BE60826AE400E423FF469AF85
:1018580011077FF566AF1A68002122F00E021A60A0
:101868000123D9F84C2003FA05F56560C9F854300E
:1018780089F8341089F83530002A3FF452AF4846C9
:1018880003B0BDE8F0431047920603D41A6822F06B
:1018980004021A60D9F84030002B7FF4B2AE40E75A
:1018A80012F0200208D11968012421F00A011960F8
:1018B80089F8342089F83540D9F83C30002B7FF47A
:1018C800A0AE2EE7085402581C54025894540258EB
:1018D800406D7047002800F0DE81F8B503680446C3
:1018E800D80730D59F490A69896A02F03802102A58
:1018F80000F00081182A00F0F8806368B3F5803F93
:1019080000F02081002B00F05E81B3F5A02F954BED
:101918001A6800F02F8222F480321A601A6822F4C2
:1019280080221A60FEF72AFF8E4E41F2883705465C
:1019380005E0FEF723FF401BB84200F242813368FE
:101948009A03F6D523689D0700F18580D9062FD51F
:10195800844A1369926A03F03803082B00F0DA808E
:10196800182B00F0D280E3697E4D002B00F06581D2
:101978002B6843F080032B60FEF700FF064605E066
:10198800FEF7FCFE801B022800F21B812B68DB059A
:10199800F6D5FEF70BFF41F20303984200F20B82E3
:1019A8006B68226A23F0F84343EA82636B6023681A
:1019B8001D0716D563696B4D002B00F01C816B6FFA
:1019C80043F001036B67FEF7D9FE064605E0FEF714
:1019D800D5FE801B022800F2F4806B6F9807F6D5BD
:1019E80023689A0616D5A3695E4D002B00F0148172
:1019F8002B6843F480532B60FEF7C0FE064605E0D3
:101A0800FEF7BCFE801B022800F2DB802B689F04D7
:101A1800F6D52368590700F19B80636ACBB1514D15
:101A28002A6902F03802182A6DD0022B2B6823F09D
:101A380080732B6000F03981FEF7A0FE044605E0B4
:101A4800FEF79CFE001B022800F2BB802B689B015E
:101A5800F6D40020F8BD434A1369926A13F038039C
:101A680029D1404BE2681B68590701D5002A4AD0A2
:101A78003C4D2B6823F0190313432B60FEF77EFEC1
:101A8800064605E0FEF77AFE801B022800F29980E0
:101A98002B685B07F6D5FEF789FE41F2030322693E
:101AA80098426B6800F2F08023F47C3343EA0233F7
:101AB8006B6023684AE7182B00F0E280294DE26842
:101AC8002B68002A00F0CB8023F0190313432B6006
:101AD800FEF754FE064604E0FEF750FE801B02287F
:101AE8006FD82B685F07F7D5D5E701F00301022906
:101AF8007FF403AF1B4A126891037FF524AF626835
:101B0800002A7FF420AF0120F8BD02F00302012A69
:101B18007FF429AF134B1B68DA0502D5E369802BE4
:101B2800F1D1FEF743FE41F203030E4A9842216ABF
:101B380000F2B380536823F0F84343EA81635360AB
:101B4800236835E7074A136843F480331360E9E6EE
:101B5800054D2B6843F480732B60FEF70FFE064695
:101B680009E000BF0044025800480258FEF706FE8C
:101B7800801B642825D82B68DA05F7D5A368012BC4
:101B880000F02281002B00F0FD80052B954B1A6F89
:101B980000F0208122F001021A671A6F22F0040275
:101BA8001A67FEF7EBFD8F4E41F28837054604E0D1
:101BB800FEF7E4FD401BB84203D8336F9B07F7D507
:101BC8002BE70320F8BD874D41F288372B6823F4B3
:101BD80080332B602B6823F480232B60FEF7CEFD27
:101BE800064604E0FEF7CAFD801BB842E9D82B6818
:101BF8009B03F7D4A6E66B6F23F001036B67FEF730
:101C0800BDFD064604E0FEF7B9FD801B0228D8D8C2
:101C18006B6F9907F7D4E3E62B6823F480532B60A6
:101C2800FEF7ACFD064604E0FEF7A8FD801B02287F
:101C3800C7D82B689804F7D4EBE62B6823F0800309
:101C48002B60FEF79BFD064604E0FEF797FD801B20
:101C58000228B6D82B68DF05F7D42368A8E623F056
:101C680001032B60FEF78AFD064604E0FEF786FDB9
:101C7800801B0228A5D82B685807F7D4236865E687
:101C880090077FF41BAFECE623F0FE4343EA0263C0
:101C98006B6023685AE601207047D36823F07C53B1
:101CA80043EA0163D360236882E6FEF767FD0646D0
:101CB80004E0FEF763FD801B022882D82B68990197
:101CC800F7D4A96A484BA26A0B404849454E1343CA
:101CD800E26A43EA0213AB62D4E90D32013B013AEE
:101CE8005B0212049BB202F4FE021343226B013A18
:101CF800C2F308021343E26B013A120602F0FE42F5
:101D080013432B63EB6A23F00103EB626A6BA36C4A
:101D1800114041EAC3016963EB6A226C23F00C03AA
:101D28001343EB62EB6A626C23F002031343EB622A
:101D3800EB6A43F48033EB62EB6A43F40033EB6203
:101D4800EB6A43F48023EB62EB6A43F00103EB6236
:101D58002B6843F080732B60FEF710FD044605E006
:101D6800FEF70CFD001B02283FF62BAF33689A01E3
:101D7800F6D56EE642F480221A601A6842F4803280
:101D88001A60CFE5174D41F288372B6F23F0010316
:101D98002B672B6F23F004032B67FEF7EFFC064637
:101DA80005E0FEF7EBFC801BB8423FF60AAF2B6F4D
:101DB8009807F6D431E6EB68226A23F07C5343EAAD
:101DC8000263EB602368F3E5064A136F43F00103EF
:101DD8001367E6E642F004021A671A6F42F001023E
:101DE8001A67DEE6004402580CFCFFFF0700FFFFFD
:101DF800474A136903F03803102B04D0182B0DD071
:101E08001BB14448704744487047136899064AD53F
:101E180013684248C3F3C103D8407047936A30B48B
:101E2800946AD56A14F47C7F516BC4F3051038D0DA
:101E3800C1F3CC0105F0010503F0030305FB01F133
:101E4800012B07EE901AB8EEE77A02D0022B2CD0BD
:101E580093B307EE900A9FED325AF8EEE77A136BC8
:101E6800C5EE276ADFED2F5AC3F3080307EE903A51
:101E7800B7EE006AF8EEE77AE7EE257A77EE867A2B
:101E880066EEA76A224B1B6BC3F34623013307EEAA
:101E9800903AB8EEE77AC6EE877AFCEEE77A17EE64
:101EA800900A30BC70471D48704707EE900A9FEDB6
:101EB8001E5AF8EEE77AD2E713689B0620D5146815
:101EC80007EE900A1549F7EE005A136BC4F3C104E4
:101ED800F8EEE77A9FED135AC3F30803E14006EEE4
:101EE800903A06EE101AF8EEE66AB8EEC66AE7EE21
:101EF800056A86EE277A76EEA56A66EE876AC1E7F6
:101F080007EE900A9FED095AF8EEE77AA7E700BFB7
:101F18000044025800093D000024F4000090D0035A
:101F28000024744A000000390024744B0024744CC7
:101F3800002800F00281874A136803F00F038B42E0
:101F48002DE9F04104460D460CD2136823F00F0327
:101F58000B431360136803F00F038B4202D0012078
:101F6800BDE8F08123685F070BD57B4920698A6942
:101F780002F07002904204D98A6922F0700202438A
:101F88008A611E070BD574496069CA6902F070023C
:101F9800904204D9CA6922F070020243CA61D80685
:101FA8000BD56D49A069CA6902F4E062904204D970
:101FB800CA6922F4E0620243CA6199060BD56649F0
:101FC800E0690A6A02F07002904204D90A6A22F0B3
:101FD800700202430A629A0740F1A1805E48E168F4
:101FE800826902F00F02914204D9826922F00F023D
:101FF8000A438261D80730D5574AA168936923F408
:1020080070630B43936161681368022900F097803D
:10201800032900F08E80012900F0978058079ED58B
:102028004D4E41F28838336923F007030B4333617F
:10203800FEF7A4FB074605E0FEF7A0FBC01B4045E2
:1020480000F281803369626803F03803B3EBC20F92
:10205800F2D12368990706D5E1683F48826902F002
:102068000F028A425FD83B490A6802F00F02AA426F
:102078000AD90A6822F00F022A430A600A6802F0A5
:102088000F02AA427FF46BAF5A070BD53249206979
:102098008A6902F07002904204D28A6922F07002C2
:1020A80002438A611F070BD52B496069CA6902F090
:1020B8007002904204D2CA6922F070020243CA61D7
:1020C800DE060BD52449A069CA6902F4E062904291
:1020D80004D2CA6922F4E0620243CA619D060BD5A4
:1020E8001D4AE169136A03F07003994204D2136A26
:1020F80023F070030B431362FFF77AFE164A034678
:10210800164892691649C2F30322825C0E2002F037
:102118001F02D340BDE8F0410B60FEF7CDBADA07E5
:102128003FF56AAF9FE7826922F00F021143816190
:1021380099E79F013FF574AF11E7012070479B03B2
:102148003FF56EAF0BE703200AE7DE053FF568AF02
:1021580005E700BF002000520044025868F7000855
:102168004402002408B501F095F9064B06499B691D
:10217800064A03F00F03CB5C03F01F03D84010603E
:1021880008BD00BF0044025868F700084802002450
:1021980010B501F07FF90949094A8B69094C03F028
:1021A8000F03D35C03F01F03D8402060CB69C3F34F
:1021B8000213D35C03F01F03D84010BD004402583B
:1021C80068F700084802002410B501F063F90949CE
:1021D800094A8B69094C03F00F03D35C03F01F0312
:1021E800D8402060CB69C3F30223D35C03F01F03FC
:1021F800D84010BD0044025868F70008480200247F
:10220800F8B53A4CA36A03F00303032B67D023689D
:1022180006460F4623F080632360FEF7AFFA0546B3
:1022280004E0FEF7ABFA431B022B56D823681A01C9
:10223800F7D4A36A326823F47C3343EA0233A362F7
:10224800D6E90232013B013A5B0212049BB202F466
:10225800FE0213437268013AC2F30802134332695B
:10226800013A120602F0FE421343A363E36A72695D
:1022780023F0C0031343E362E26AB36922F0200249
:102288001A431B4BE262E26A22F01002E262E16B3F
:10229800F2690B4043EAC203E363E36A43F01003C5
:1022A800E362E36AEFB1012F0CBF43F4801343F4F8
:1022B8000013E3620D4C236843F080632360FEF74C
:1022C8005DFA054604E0FEF759FA401B022804D8D7
:1022D80023681B01F7D50020F8BD0320F8BD0120B5
:1022E800F8BD43F40023E362E4E700BF004402586A
:1022F8000700FFFFF8B53A4CA36A03F00303032B6A
:1023080067D0236806460F4623F080532360FEF704
:1023180035FA054604E0FEF731FA431B022B56D87E
:1023280023689A00F7D4A36A326823F07C7343EADF
:102338000253A362D6E90232013B013A5B0212045E
:102348009BB202F4FE0213437268013AC2F3080218
:1023580013433269013A120602F0FE421343236422
:10236800E36A726923F440631343E362E26AB36980
:1023780022F400721A431B4BE262E26A22F4807272
:10238800E262616CF2690B4043EAC2036364E36A88
:1023980043F48073E362E36AEFB1012F0CBF43F4A7
:1023A800000343F08073E3620D4C236843F08053CD
:1023B8002360FEF7E3F9054604E0FEF7DFF9401B6A
:1023C800022804D823689B00F7D50020F8BD032015
:1023D800F8BD0120F8BD43F48003E362E4E700BFE1
:1023E800004402580700FFFF2DE9F843036804463C
:1023F80013F0006622D0426EB2F5001F00F0CE84C2
:1024080011D8002A00F0F884B2F5801F40F0F1845A
:1024180002210430FFF7F4FE0646002E40F08684C1
:10242800626E236803E0B2F5401F40F0E284A848DA
:102438000026016D21F440110A430265DD050AD525
:10244800626D042A06D8DFE812F0A20493049A0405
:10245800DF02DF020126354698051BD5A26D802ACA
:1024680000F05B8400F2EC80002A00F08B83402AA5
:1024780040F0ED800021201DFFF7C2FE23680546CD
:10248800002D40F067839249A06D0A6D22F4E07236
:1024980002430A6559051FD5D4F8A420B2F5800F68
:1024A80000F0478400F2D680002A00F07183B2F56C
:1024B800001F40F0D7800021201DFFF7A1FE2368F0
:1024C8000546002D40F044838149D4F8A4008A6D64
:1024D80022F4600202438A651A051FD5D4F8A820A1
:1024E800B2F1007F00F02E8400F2BF80002A00F0D5
:1024F8005583B2F1807F40F0C0800021201DFFF796
:102508007FFE23680546002D40F02A837049D4F8E1
:10251800A8008A6D22F0E06202438A659F0118D5FF
:10252800A26C202A00F0DA8300F2AA803AB1102ABD
:1025380040F0A9806649CA6A42F40032CA62002D96
:1025480040F059836249A06CCA6C22F03002024301
:10255800CA64D8041DD5E26DB2F5005F00F0FB83B4
:1025680000F29480002A00F01F83B2F5805F40F0EB
:1025780095800021201DFFF743FE23680546002DA6
:1025880040F0EC825249E06D0A6D22F4E0420243C9
:102598000A6599041AD5226EB2F5003F00F07483DB
:1025A8007FD84AB1B2F5803F40F083800121201DD9
:1025B800FFF726FE23680546002D40F01E83444998
:1025C800206E0A6D22F4E02202430A655A041BD5E4
:1025D800D4F8AC20B2F1005F00F060836CD842B14F
:1025E800B2F1805F70D10121201DFFF709FE236839
:1025F8000546002D40F003833549D4F8AC008A6DB8
:1026080022F0E04202438A651F040DD5E26EB2F162
:10261800805F00F03183B2F1005F00F00182002A90
:1026280000F0048201263546D8015DD5626C032A84
:1026380000F20A84DFE812F0540017034E00540039
:10264800C02A3FF41DAFB2F5807F3FF419AF0126D1
:1026580035461FE7B2F5C00F3FF433AFB2F5000FB0
:102668003FF42FAF0126354636E7B2F1407F3FF4FD
:102678004AAFB2F1806F3FF446AF012635464DE7C9
:10268800302A3FF45CAF0126354662E7B2F5405F79
:102698003FF475AFB2F5804F3FF471AF0126354670
:1026A80077E722F48031B1F5802F85D0B2F5403F2D
:1026B80082D00126354689E722F08051B1F1804F5A
:1026C80097D0B2F1405F94D0012635469CE700BF11
:1026D800004402580221201DFFF792FD2368054699
:1026E800002D00F06B822E46590200F1F081DF07C1
:1026F8002FD5A26F282A2AD8DFE812F0D3012900A3
:102708002900290029002900290029006D03290032
:10271800290029002900290029002900CC012900C5
:10272800290029002900290029002900D3012900AE
:10273800290029002900290029002900D30129009E
:10274800290029002900290029002900D301012690
:102758003546980716D5626F052A00F27883DFE8B8
:1027680012F00D00300306000D000D000D000121D0
:1027780004F12400FFF7BEFD23680546002D00F094
:1027880025822E46590717D5D4F89020052A00F23D
:102798006183DFE812F00D000C0306000D000D0048
:1027A8000D00012104F12400FFF7A4FD236805466C
:1027B800002D00F013822E469A061DD5D4F88C20E1
:1027C800B2F1005F00F0458200F2DC804AB1B2F15C
:1027D800805F40F0E1800021201DFFF711FD236894
:1027E8000546002D40F00582A949D4F88C004A6DB1
:1027F80022F0E04202434A655F061DD5D4F89820CE
:10280800B2F5006F00F0548200F2C9804AB1B2F507
:10281800806F40F0CE800021201DFFF7F1FC236877
:102828000546002D40F0C8819949D4F898008A6D72
:1028380022F4E05202438A6518061DD5D4F89C207C
:10284800B2F5804F00F03F8200F2B6804AB1B2F58F
:10285800005F40F0BB800021201DFFF7D1FC2368FA
:102868000546002D40F0A6818949D4F89C008A6D60
:1028780022F4604202438A6519070BD5D4F8801008
:10288800B1F5805F00F03E828148426D22F44052EB
:102898000A434265DA060BD5D4F89410B1F5807F67
:1028A80000F025827A48826D22F440720A438265DC
:1028B8001F030ED5D4F8A010B1F5803F00F0D480E6
:1028C800B1F5003F00F0D780002900F0BA81012659
:1028D800354658030FD5D4F88420B2F5001F00F010
:1028E800B080B2F5401F00F0B380B2F5801F00F051
:1028F800A08101263546D90309D5E26C002A00F0EB
:102908008681B2F5803F00F02D81012635469A0078
:1029180000F1D2809F035CD4301E18BF0120DE0274
:1029280006D55B49256F0A6D22F000422A430A65E5
:10293800DD0007D55649D4F8B4500A6922F480421C
:102948002A430A61990206D55149A56E0A6D22F0FB
:1029580080722A430A655A0009D54D4A116921F443
:10296800004111611169D4F8B85029431161002B55
:1029780006DA474A216DD36C23F040530B43D364E6
:10298800BDE8F88322F08051B1F1804F3FF429AFC0
:10299800B2F1405F3FF425AF012635462CE722F41B
:1029A8008061B1F5805F3FF43CAFB2F5406F3FF412
:1029B80038AF012635463FE722F40051B1F5004F04
:1029C8003FF44FAFB2F5C04F3FF44BAF0126354649
:1029D80052E7E26FB2F5807F00F0228106D922F437
:1029E8008071B1F5007F03D0012098E7002AFBD160
:1029F800002DF9D1264D301E696D18BF012021F434
:102A080040710A436A658AE73546002D40F0A48084
:102A18001F49606D0A6D22F0070202430A651BE533
:102A28000121201DFFF7ECFB23680546002D40F02F
:102A3800DE801749E06E0A6D22F0405202430A65B3
:102A4800F2E5012104F12400FFF754FC2368054650
:102A5800002D40F0DA800E49D4F884004A6D22F443
:102A6800401202434A6546E7022104F12400FFF7B9
:102A780041FC23680546002D40F0C5800449D4F880
:102A8800A0008A6D22F4403202438A6521E700BF24
:102A980000440258012104F12400FFF72BFC2368AD
:102AA8000546002D40F0AD80AF49A06F4A6D22F079
:102AB800380202434A654CE6022104F12400FFF77C
:102AC80019FC236800283FF425AF012622E7A74F09
:102AD8003B6843F480733B60FDF750FE804606E098
:102AE800FDF74CFEA0EB0800642800F27E813B68ED
:102AF800DA05F5D5002D40F0A4819B4AD4F8B03012
:102B0800116F594011F4407F0BD0116F106F21F4F1
:102B1800407140F480301067106F20F480301067E7
:102B28001167B3F5807F00F06E8103F44072B2F54F
:102B3800407F00F07C818C490A6922F47C520A614A
:102B4800894AC3F30B03116F0B4313672368CEE560
:102B58002E46C1E42E469DE42E467DE42E4618E519
:102B68002E46DBE40221201DFFF74AFB05462368B9
:102B7800002D53D17C49E06CCA6C22F480320243A8
:102B8800CA64C4E67849CA6A42F40032CA6277E481
:102B98007549CA6A42F40032CA6292E47249CA6A42
:102BA80042F40032CA62AEE46F49CA6A42F40032A3
:102BB800CA62E4E42E465FE62E463DE66A49606C4A
:102BC800CA6C22F003020243CA648DE56649606F4D
:102BD8004A6D22F0070202434A65D3E56249D4F8F8
:102BE80090008A6D22F0070202438A65E4E52E46CA
:102BF8001AE52E4600E62E46ABE42E46E6E42E46BF
:102C080002E52E46A5E52E4663E62E4673E65649AE
:102C1800CA6A42F40032CA62002DABD02E4676E66C
:102C28005148C16A41F40031C162002D7FF4DCAE25
:102C3800E0E64D49CA6A42F40032CA62002DE4D186
:102C480009E7201DFFF7DCFA05462368002DDAD1D5
:102C580014E7022104F12400FFF74CFB0546236822
:102C6800002DC6D1C0E54049CA6A42F40032CA62A2
:102C7800002D7FF438ADA1E73B49CA6A42F400321F
:102C8800CA62002DB3D1D4E6012104F12400FFF774
:102C980031FB05462368002DAFD190E4012104F1F2
:102CA8002400FFF727FB05462368002DA7D1A3E4DE
:102CB800022104F12400FFF71DFB05462368002DBF
:102CC8007FF47AAFB0E5022104F12400FFF712FB8C
:102CD80005462368002D7FF46DAFC5E50221201D50
:102CE800FFF78EFA05462368002D84D12AE40221D5
:102CF80004F12400FFF7FEFA236800283FF4D8AD5A
:102D08000126D5E5022104F12400FFF7F3FA236830
:102D180000283FF4BFAD0126BCE5002104F12400E2
:102D2800FFF7E8FA23680546FFF7AABB2368FFF711
:102D380085BB002104F12400FFF7DCFA236805466F
:102D4800FFF7BFBB002104F12400FFF7D3FA236883
:102D58000546FFF7D8BB002104F12400FFF7CAFAA3
:102D6800236805460BE400BF004402580048025897
:102D78000021201DFFF744FA2368054645E6002197
:102D880004F12400FFF7B6FA236805463DE6334907
:102D98003546CA6A42F40032CA6236E60221243055
:102DA800FFF7A8FA0646002E3FF43AABBEE701212A
:102DB800201DFFF725FA05462368002D7FF4FBAC9C
:102DC8000CE70121201DFFF71BFA05462368002D9B
:102DD8007FF4D7ACFAE60121201DFFF711FA05466A
:102DE8002368002D7FF40DAF5EE603262368354681
:102DF8007DE40126FFF722BB1848C16A41F400317F
:102E0800C162FFF714BBFDF7B9FCDFF85080074635
:102E180041F2883904E0FDF7B1FCC01B4845E4D80D
:102E2800D8F870309B07F6D5D4F8B0307DE60B485B
:102E38000B4A016902EA131221F47C510A43026128
:102E48007EE623682E4652E4012635464CE40126E8
:102E5800354697E401263546AEE400BF00440258E3
:102E6800CFFFFF0008B5FFF77DF9054B054A1B6A40
:102E7800C3F30213D35C03F01F03D84008BD00BF9F
:102E88000044025868F70008584B70B4996A9D6A64
:102E9800DE6A15F47C3FC5F30532DC6B5CD0C4F305
:102EA800CC0406F0100601F0030106FB04F4012926
:102EB80007EE904AB8EEE77A03D0022975D00029C8
:102EC8004FD007EE902ADFED4A6AF8EEE77A9B6B5F
:102ED80086EEA76A9FED475AC3F3080306EE903AB9
:102EE800F7EE005AF8EEE66AE7EE056A76EEA56AAE
:102EF80066EE266A3D4AB7EE006A936BC3F3462333
:102F080007EE103AB8EEC77A70BC37EE067AC6EE0E
:102F1800877AFCEEE77AC0ED007A936BC3F3064339
:102F280007EE103AB8EEC77A37EE067AC6EE877A19
:102F3800FCEEE77AC0ED017A936BC3F3066307EE04
:102F4800903AF8EEE77A77EE867A86EEA77ABCEEC4
:102F5800C77A80ED027A704770BCC0E900228260AF
:102F680070471968890627D51C6807EE902A2249F8
:102F7800F7EE005A9B6BC4F3C102F8EEE77A9FEDB7
:102F88001D5AC3F30803D14006EE903A06EE101A14
:102F9800F8EEE66AB8EEC66AE7EE056A86EE277AC4
:102FA80076EEA56A66EE876AA4E707EE902ADFED5B
:102FB800136AF8EEE77A8AE707EE902A9FED105A2F
:102FC8009B6BB7EE006AF8EEE77ADFED0A5AC3F3B7
:102FD8000803C5EE276A07EE903AF8EEE77AE7EEBF
:102FE800257A77EE867A66EEA76A83E70044025868
:102FF8000024744A000000390090D0030024744B68
:103008000024744C584B70B4996A9D6ADE6A15F0B6
:103018007C7FC5F305525C6C5CD0C4F3CC0406F429
:10302800807601F0030106FB04F4012907EE904ABB
:10303800B8EEE77A03D0022975D000294FD007EE01
:10304800902ADFED4A6AF8EEE77A1B6C86EEA76AEB
:103058009FED475AC3F3080306EE903AF7EE005A7D
:10306800F8EEE66AE7EE056A76EEA56A66EE266A87
:103078003D4AB7EE006A136CC3F3462307EE103AD5
:10308800B8EEC77A70BC37EE067AC6EE877AFCEEE1
:10309800E77AC0ED007A136CC3F3064307EE103AE3
:1030A800B8EEC77A37EE067AC6EE877AFCEEE77A8C
:1030B800C0ED017A136CC3F3066307EE903AF8EE9D
:1030C800E77A77EE867A86EEA77ABCEEC77A80ED45
:1030D800027A704770BCC0E90022826070471968A4
:1030E800890627D51C6807EE902A2249F7EE005A70
:1030F8001B6CC4F3C102F8EEE77A9FED1D5AC3F3C7
:103108000803D14006EE903A06EE101AF8EEE66A89
:10311800B8EEC66AE7EE056A86EE277A76EEA56A05
:1031280066EE876AA4E707EE902ADFED136AF8EEE9
:10313800E77A8AE707EE902A9FED105A1B6CB7EEE4
:10314800006AF8EEE77ADFED0A5AC3F30803C5EE22
:10315800276A07EE903AF8EEE77AE7EE257A77EEF7
:10316800867A66EEA76A83E7004402580024744A08
:10317800000000390090D0030024744B0024744CE4
:10318800584B70B4996A9D6ADE6A15F47C7FC5F362
:1031980005125C6B5CD0C4F3CC0406F0010601F0A8
:1031A800030106FB04F4012907EE904AB8EEE77A1A
:1031B80003D0022975D000294FD007EE902ADFED01
:1031C8004A6AF8EEE77A1B6B86EEA76A9FED475AC4
:1031D800C3F3080306EE903AF7EE005AF8EEE66AF3
:1031E800E7EE056A76EEA56A66EE266A3D4AB7EE10
:1031F800006A136BC3F3462307EE103AB8EEC77A9A
:1032080070BC37EE067AC6EE877AFCEEE77AC0ED38
:10321800007A136BC3F3064307EE103AB8EEC77A89
:1032280037EE067AC6EE877AFCEEE77AC0ED017AC9
:10323800136BC3F3066307EE903AF8EEE77A77EE7E
:10324800867A86EEA77ABCEEC77A80ED027A704756
:1032580070BCC0E90022826070471968890627D5CA
:103268001C6807EE902A2249F7EE005A1B6BC4F33C
:10327800C102F8EEE77A9FED1D5AC3F30803D14067
:1032880006EE903A06EE101AF8EEE66AB8EEC66A4E
:10329800E7EE056A86EE277A76EEA56A66EE876A15
:1032A800A4E707EE902ADFED136AF8EEE77A8AE7DB
:1032B80007EE902A9FED105A1B6BB7EE006AF8EEE6
:1032C800E77ADFED0A5AC3F30803C5EE276A07EE6B
:1032D800903AF8EEE77AE7EE257A77EE867A66EEA8
:1032E800A76A83E7004402580024744A00000039A2
:1032F8000090D0030024744B0024744CB0F5807FF8
:1033080000B585B048D0B0F5007F11D0B0F5806F1A
:1033180000F08280B0F5006F52D0B0F5805F2CD0FD
:10332800B0F5002F00F09680002005B05DF804FB92
:10333800534A136D03F4E073802B59D012D9C02B74
:1033480026D0B3F5807FEFD1D36C13F040535BD018
:10335800B3F1805F00F08D80B3F1005F494818BF7A
:103368000020E2E7002B3CD0402BDDD101A8FFF77D
:103378008BFD019805B05DF804FB414A136D03F419
:10338800E043B3F5005F33D029D9B3F5405F58D196
:103398003D4805B05DF804FB394B1B6D03F007038E
:1033A800042BC1D801A252F823F000BFEB33000868
:1033B80075330008F933000899330008073400080A
:1033C8002F4A936D03F0E063B3F1007F10D01DD94D
:1033D800B3F1407FDCD0B3F1806FB5D0A4E7002B08
:1033E80034D101A8FFF7CCFE029805B05DF804FBC4
:1033F80001A8FFF707FE019805B05DF804FB204B14
:10340800DB6C13F04053A3D120488EE7002BE8D0A3
:10341800B3F1807FAAD087E7194A936D03F460035C
:10342800B3F5800FE4D005D8002BDAD0B3F5001F30
:103438009CD079E7B3F5C00FAAD0B3F5000F83D0BD
:1034480072E7B3F5804F3FF47FAF6DE7B3F5805F68
:103458008CD069E70A4A936D03F44033B3F5803F93
:1034680009D0B3F5003F3FF46FAF002B7FF45CAF9A
:103478007CE7074859E701A8FFF7C4FD039854E71C
:10348800004402580024F4000080BB000090D003E0
:1034980000093D0008B5FEF7ABFC064B06499B69E1
:1034A800064AC3F30323CB5C03F01F03D840106024
:1034B80008BD00BF0044025868F700084402002411
:1034C800143001F065BA00BF38B500F114050446A0
:1034D8002DED028B284601F017FA284601F010FA64
:1034E8002846B0EE408A01F0F9F9D0ED007AF8EEFE
:1034F800677A88EE277ABDEC028B84ED0E7A38BDA8
:1035080038B500F1140504462DED028B284601F06C
:10351800E9F9284601F0F4F92846B0EE408A01F0AE
:10352800DDF9D0ED007AF8EE677A88EE277ABDECFF
:10353800028B84ED0E7A38BD10B540F203338EB09D
:1035480000244FF60B7240F20341ADF8083009A889
:103558000123ADF81020ADF824202246ADF80C1058
:103568000094029907940C94CDE90544CDE90A44E6
:1035780001F048FA04A8012322460399009401F0B7
:1035880041FA09A801F024FB10B901200EB010BDC2
:1035980004A801F01DFBA0420CBF022020460EB07B
:1035A80010BD00BF2DE9F04103239AB00127002484
:1035B8000646CDE914373B4BCDE9104340F204539E
:1035C800CDE91647ADF84830FFF7B6FFB8420546D3
:1035D80025D0022845D040F60132334B0DF12C0896
:1035E8001894ADF82C200B981997CDF84A3000F0B4
:1035F800E3F810A906F13C0002F026FB3020032274
:103608004FF07E5341460D930E93CDE90B02F26BBA
:1036180006F1140001F02AF91AB0BDE8F081102370
:10362800214A06A906908DF828300DF12C081F4B69
:10363800CDF84A2007930294CDE91804CDE908048F
:1036480002A801F037FD0823029A03A94046ADF805
:103658000C508DF80E40049505930B9400F0ECF88F
:10366800C7E700200121104B0DF12C083A460094C1
:10367800CDF84A304FF60B730C94ADF82C30234636
:10368800CDE9180140F601314046ADF81810069909
:10369800CDE90D4401F0B6F92146404601F0A4FAFF
:1036A800A7E700BF04020404040604030704010B8F
:1036B8002DE9F04704462DED028B82B000294DD04C
:1036C800012140F2011200230091ADF804208DF889
:1036D8000630364A0127364B04F10409354904F10E
:1036E8002908626040F20272A36040F60663E16056
:1036F80004F1250AA4F82520A4F82930278284F8A3
:10370800277084F82B7003F0CFFD054603F032FCD8
:103718006946064650BB4DB304F130008DF806707B
:1037280003F04AFD072D3CD104F114052046FFF7AC
:1037380039FF284601F0E4F82846B0EE408A01F047
:10374800CDF8D0ED007AF8EE677A88EE277A84ED26
:103758000E7A02B0BDEC028BBDE8F08740F201138F
:1037680000918DF80610ADF80430B2E704F130008E
:1037780003F022FD072D11D04946204601F0E4FE52
:103788000EB9002DD0D1504601F038FA404601F06C
:1037980035FA04F1120000F079F9C5E7002EF2D1EC
:1037A800C2E74946204601F0CFFEBDE705080509F6
:1037B80005070506050A060610B584B00346012468
:1037C800ADF8040003A8ADF80C30ADF80E4001F0D8
:1037D80015FA214603A801F0EDFA204603F0C8FBCC
:1037E800002103A801F0E6FA204603F0C1FB2146B8
:1037F80003A801F0DFFA04B010BD00BF10B5C2F392
:10380800002384B00C46017C8DF80D2043EA440265
:10381800FA2402238DF80C2003AA009401F0E0FC9E
:1038280018B10124204604B010BD04460A2003F054
:103838009FFB204604B010BD034670B543F8042B27
:10384800044684B007C983E80700A37983B91A211D
:103858000B461E22FA2523742046ADF80C200223BD
:1038680003AA009501F0BCFC28B1012004B070BD8A
:103878001B210B46EDE70A2003F07AFB4FF4B85200
:1038880000950223ADF80C20204603AA217C01F004
:10389800A7FC0028E9D10A2003F06AFB41F2027272
:1038A80000950223ADF80C20204603AA217C01F0E4
:1038B80097FC0028D9D10A2003F05AFB042200956E
:1038C8000223ADF80C20204603AA217C01F088FCD5
:1038D8000028CAD10A2003F04BFB062200950223D8
:1038E800ADF80C20204603AA217C01F079FC0028C1
:1038F800BBD10A2003F03CFB41F2082200950223C9
:10390800ADF80C20204603AA217C01F069FC0028B0
:10391800ABD10A20064603F02BFB0095022303AA2D
:10392800217C2046ADF80C6001F05AFC00289CD19F
:10393800304603F01DFB009522790C232046002A0F
:103948008DF80C3003AA4FF0020314BF6221422104
:103958008DF80D10217C01F043FC002885D13046FC
:1039680003F006FB2279D4E902310B43DBB20AB932
:1039780043F0400362790AB143F020030E22FA258E
:103988008DF80D302046009502238DF80C2003AAEF
:10399800217C01F025FC00287FF467AF0A2003F0A2
:1039A800E7FA102200950223ADF80C20204603AA5E
:1039B800217C01F015FC00287FF457AF0A2003F0A2
:1039C800D7FA122100950223ADF80C1003AA217C26
:1039D800204601F005FC00287FF447AF0A2003F0D9
:1039E800C7FA012209212046FFF708FF003818BF4F
:1039F80001203BE7F0B5102387B0234C01220025B6
:103A08000126002702A920460195CDE902234FF49B
:103A18008052CDE9046706F019FD6420FCF7B4FE76
:103A280002A94FF480522046CDE9046702261027E8
:103A3800CDE9026706F00AFD0322102302A92046F9
:103A4800CDE9022300230422CDE904234FF4805258
:103A580006F0FCFC40F23223042202A90193102351
:103A68002046CDE90223019A012305924FF48052A2
:103A7800049306F0EBFC40F60601204606F006FD2E
:103A8800284607B0F0BD00BFF80300241C4B0022F5
:103A98001C494FF0400C30B5054689B002205960EA
:103AA80007219A601A620124DA620A224FF4006E32
:103AB800DC6006922022CDE9000104200821CDE92E
:103AC800020103201021CDE9040108206946C3E959
:103AD80004024FF4C072181DC3E906C24FF48052A5
:103AE800C3E909E206F088FC38B92846FFF782FFE7
:103AF800003818BF012009B030BD204609B030BDDC
:103B0800F403002440410052614A0021D0B51368F3
:103B18008EB00A91002B40F0B9805E4B01214FF620
:103B280083700C2411600221D3F8D42000260327C7
:103B380042F48052C3F8D420D3F8D42002F480523F
:103B48000092009AD3F8E02042F01002C3F8E02077
:103B5800D3F8E02002F010020192019AD3F8E02095
:103B680042F04002C3F8E020D3F8E02002F040021F
:103B78000292029AD3F8E02042F00802C3F8E0204B
:103B8800D3F8E02002F008020392039AD3F8E02069
:103B980042F48072C3F8E020D3F8E02002F4807287
:103BA8000492049AD3F8E02042F08002C3F8E0209F
:103BB800D3F8E02002F080020592059AD3F8E020BD
:103BC80042F02002C3F8E020D3F8E02002F02002FF
:103BD8000692069AD3F8E02042F00402C3F8E020E7
:103BE800D3F8E0300C9403F0040307930323079AF7
:103BF8000B93CDE9080108A9274803F091FD48F285
:103C08003712022308A925480C94CDE90823CDE9E9
:103C18000A6703F085FD4CF20372022308A92048C5
:103C28000C94CDE90823CDE90A6703F079FD40F249
:103C3800FF62022308A91B480C94CDE90823CDE9AB
:103C48000A6703F06DFD4FF60C72022308A91648A7
:103C58000C94CDE90823CDE90A6703F061FD4FF61E
:103C68003F02022308A911480C94CDE90823CDE9A5
:103C78000A6703F055FD2022022308A90A480C947C
:103C8800CDE90A67CDE9082303F04AFD0EB0D0BD9F
:103C9800F00300240044025800100258001802588B
:103CA800000C025800200258001C02580014025848
:103CB8002DE9F04FDFF8108406460D46144608F14A
:103CC80018002DED028B89B000AF02F0B5F8D8F8D6
:103CD800183073B3D8F81C30D8F80490002B436917
:103CE8000BBF4FF0080A4FF0100A4FF0020B4FF0CD
:103CF800040BB9F1000F2AD0A200EA46012B02F109
:103D0800070222F00702ADEB020D6846ADEB020D8B
:103D1800694600F03F81022B00F0D680002B6FD05F
:103D28002246C847D5462437BD46BDEC028BBDE8C0
:103D3800F08FD8F81C30002BF5D0D8F804904FF04D
:103D4800080A4FF0020B4369B9F1000FD4D1FB61A7
:103D5800D8F80030BB61002BE5D0D54802F0DEF87A
:103D68006B46BBF1020F786108EE103AFB6900F070
:103D780083816A465146A2EBC40295466200EA4630
:103D8800B2FBFBF2AAEBC40085460AEB8200EE46C2
:103D9800F861ADEB010DF8690EEB820CC7F810C0A5
:103DA800EC46ADEB010D00EB8201CCF80400CCF839
:103DB800081001EB82013869E946CCF80C1000EBD9
:103DC8008201CCF800A001EB8202C9E900E0C9E950
:103DD8000212012B00F06483022B00F06C82002B8E
:103DE80000F08081620849466046BB69984718EE32
:103DF800103A24379D46BD46BDEC028BBDE8F08FD6
:103E0800002C8DD01A46D8ED0C6A9FEDB27A844604
:103E1800331D36F922E00CF1080C07EE90EA33F96D
:103E280022E00232F8EEE77A944267EE877A67EE8C
:103E3800A67A4CED027A07EE90EAF8EEE77A67EE9A
:103E4800877A67EEA67A4CED017AE2D8F9612246C4
:103E5800C847984ED8ED0D6A0020F9692B1D9FEDD3
:103E68009E7A9FED9E6ADFED9E5A22E0F4EEC67AB6
:103E7800F1EE10FAC0F2C88447F6FE72D1ED017A6D
:103E880045F8202066EEA77AF4EEC77AF1EE10FA2C
:103E980040F2F080F4EEC67AF1EE10FAC0F2D58462
:103EA80047F6FE7243F820200230083184427FF63C
:103EB80039AFD1ED007A66EEA77AF4EEC77AF1EE63
:103EC80010FAD3D83246D9E7002C3FF429AFD8ED01
:103ED8000C6A84469FED787A0022331D8E4656F888
:103EE80022100CF1080C07EE901A53F82210023237
:103EF800F8EEE77A944267EE877A67EEA67A4CED99
:103F0800027A07EE901AF8EEE77A67EE877A67EE9C
:103F1800A67A4CED017AE2D871462246C7F81CE031
:103F2800C847664ED8ED0D6A0020F9692B1D9FED34
:103F38006A7A9FED6A6ADFF894C120E0F4EEC67AE7
:103F4800F1EE10FAC0F279843246D1ED017A45F8E3
:103F5800202066EEA77AF4EEC77AF1EE10FA40F266
:103F68008780F4EEC67AF1EE10FAC0F25E8432462B
:103F780043F820200230083184427FF6D3AED1EDD9
:103F8800007A66EEA77AF4EEC77AF1EE10FAD5D881
:103F98006246DAE7002C3FF4C3AED8ED0C6A8646D9
:103FA8009FED477A4FF0000C331D56F82C200EF188
:103FB800080E82F40002A2F5000207EE902A53F8D8
:103FC8002C200CF1020CF8EEE77A82F4000264452A
:103FD800A2F5000267EE877A67EEA67A4EED027ABE
:103FE80007EE902AF8EEE77A67EE877A67EEA67A08
:103FF8004EED017AD9D8F9612246C847314ED8ED3D
:104008000D6A0020F9692B1D9FED337A9FED336A05
:10401800DFF8BCC01FE0F4EEC67AF1EE10FAC0F289
:10402800FC833246D1ED017A45F8202066EEA77A66
:10403800F4EEC77AF1EE10FA18D9F4EEC67AF1EE7A
:1040480010FAC0F2DA83324643F8202002300831F1
:1040580084427FF667AED1ED007A66EEA77AF4EE79
:10406800C77AF1EE10FAD6D86246DBE76246EBE78C
:1040780062467DE7324615E7A100D6466208073159
:1040880021F00701ADEB010DEA46ADEB010D6946E4
:10409800ADEB0E0D0AEB8200EC46ADEB0E0D01EB1D
:1040A8008202F861E946CCE900A0C9E9001290E66D
:1040B800480400240280FFFF000000300082FF7FD8
:1040C8000000003482FF7F002C040024007E008062
:1040D8007E0080FF0000003804FF7FBF04FF7F3FA1
:1040E80000FEFF46002C00F0C982BBF1020FD8F891
:1040F800242000F0FA827969C7F8049002EB810E57
:104108005FED0C5A8A00DCF808100EF104007A61A1
:104118001A46DCF80C303B61331DD7F810903D612E
:10412800FD69C7E902CB8C46834636F92210D8EDE3
:104138000C7A06EE101A33F9221006EE901A3EF9A0
:104148002210B8EEC66A07EE101AF8EEE66A3BF9D6
:104158002210B8EEC77A26EE256A66EEA56A27EE23
:10416800257A26EE276A66EEA76A27EE277A07EEF3
:10417800901A51080232F8EEE77A0AEB810094426D
:1041880080ED006A05EB810067EEA57AC0ED006A54
:104198000CEB810009EB810180ED007A98ED0C7A37
:1041A80067EE877AC1ED007ABFD8D7F804903D69E9
:1041B800D7E902CB60466208BB6949469847D8F8F8
:1041C8002C307A69D8ED0D6A1A441FED3D7A1FED3F
:1041D8003D6A2B1D904602F1040A5FED3F5A00220A
:1041E800A84ED9E900EC51E0F4EEC67AF1EE10FAE7
:1041F800C0F2C78247F6FE7045F822000CEB0100BA
:10420800D0ED007A66EEA77AF4EEC77AF1EE10FAEE
:104218004BD9F4EEC67AF1EE10FAC0F2BA8247F63C
:10422800FE70BBF1020F43F822002BD0D9F808002A
:104238000844D0ED007A66EEA77AF4EEC77AF1EE7C
:1042480010FA36D9F4EEC67AF1EE10FAC0F2CD8241
:1042580047F6FE7048F82200D9F80C000144D1ED69
:10426800007A66EEA77AF4EEC77AF1EE10FA1ED954
:10427800F4EEC67AF1EE10FAC0F2AF8247F6FE719C
:104288004AF82210023294427FF6B1AD51080EEB83
:1042980081008900D0ED007A66EEA77AF4EEC77A3D
:1042A800F1EE10FAA0D83046A6E73046B9E7314615
:1042B800E6E73046CEE7002C00F0E081BBF1020FC4
:1042C800D8F8243000F0E1817A69DCF8081003EBB3
:1042D800820EC7F804909300DFED6B5A0EF10400CC
:1042E80000227B61DCF80C303B61331DD7F810905D
:1042F8003D61FD69C7E902CB8C46834656F822101A
:10430800D8ED0C7A07EE101A53F82210B8EEC76AE7
:1043180007EE101A5EF82210F8EEC76A07EE101AB8
:1043280026EE256A5BF82210B8EEC77A66EEA56A13
:1043380026EE276A27EE257A66EEA76A27EE277A01
:1043480007EE901A51080232F8EEE77A0AEB81007C
:10435800944280ED006A05EB810067EEA57AC0ED16
:10436800006A0CEB810009EB810180ED007A98ED81
:104378000C7A67EE877AC1ED007ABFD8D7F8049037
:104388003D69D7E902CB60466208BB694946984750
:10439800D8F82C307A69D8ED0D6A1A449FED3E7A28
:1043A8009FED3E6A131D9246DFF8E4C00022FB61D0
:1043B8002B1D364ED9E9008E4EE0F4EEC67AF1EEAA
:1043C80010FAC0F2FC81304645F822000EEB0100DD
:1043D800D0ED007A66EEA77AF4EEC77AF1EE10FA1D
:1043E80049D9F4EEC67AF1EE10FAC0F2EF81304600
:1043F800BBF1020F43F822002AD0D9F8080008447C
:10440800D0ED007A66EEA77AF4EEC77AF1EE10FAEC
:1044180035D9F4EEC67AF1EE10FAC0F2C981304609
:104428004AF82200D9F80C000144D1ED007A66EE72
:10443800A77AF4EEC77AF1EE10FA1ED9F4EEC67A2E
:10444800F1EE10FAC0F2AD813146F86940F8221059
:10445800023294427FF6CBAC510808EB8100890008
:10446800D0ED007A66EEA77AF4EEC77AF1EE10FA8C
:10447800A3D86046A8E76046BAE76146E5E7604624
:10448800CEE700BF0280FFFF000000300082FF7F00
:10449800007E00800000003404FF7FBF04FF7F3FE0
:1044A800002C00F0EB807A690021D8F82430C7F896
:1044B800109003EB820ED7F81C909300FD610EF16B
:1044C80004021FED0C6A7B61331D154656F8212046
:1044D8004808D8ED0C6ABBF1020F82F40002A2F57D
:1044E800000207EE902A53F8212082F40002B8EE69
:1044F800E77AA2F5000227EE067A07EE902A0AEB81
:104508008002F8EEE77A27EE267A67EE867A82ED61
:10451800007A09EB80024FEA800067EEA67AC2EDC6
:10452800007A27D05EF8212082F40002A2F500026A
:1045380007EE902A55F8212082F40002B8EEE77AB7
:10454800A2F5000227EE067A07EE902ADCF808208A
:10455800F8EEE77A024427EE267A67EE867A82ED4D
:10456800007A98ED0C7ADCF80C2067EE877A024422
:10457800C2ED007A02318C42A8D8D7F81090604674
:104588006208BB694946FD699847D8F82C307A69B2
:10459800D8ED0D6A1A441FED407A1FED406A131DCD
:1045A8009246DFF8C4C20022FB612B1DAB4ED9E94D
:1045B800008E4EE0F4EEC67AF1EE10FAC0F2C58035
:1045C800304645F822000EEB0100D0ED007A66EE89
:1045D800A77AF4EEC77AF1EE10FA49D9F4EEC67A62
:1045E800F1EE10FAC0F2BF803046BBF1020F43F87B
:1045F80022002AD0D9F808000844D0ED007A66EEE7
:10460800A77AF4EEC77AF1EE10FA35D9F4EEC67A45
:10461800F1EE10FAC0F2AE8030464AF82200D9F81E
:104628000C000144D1ED007A66EEA77AF4EEC77A61
:10463800F1EE10FA1ED9F4EEC67AF1EE10FAC0F2D5
:104648008B803146F86940F82210023294427FF696
:10465800CEAB510808EB81008900D0ED007A66EEF8
:10466800A77AF4EEC77AF1EE10FAA3D86046A8E765
:104678006046BAE76146E5E76046CEE72246494626
:104688006046BB699847FFF7B2BBC7F810B0002275
:1046980098ED0C6A331DDFED726AD7F81CB07869A3
:1046A80056F8221007EE901A53F82210B8EEE77A5F
:1046B80007EE901A51080232F8EEE77A27EE267ACA
:1046C8000AEB810E94420BEB810167EEA67A27EE86
:1046D800067A67EE867A8EED007AC1ED007ADFD829
:1046E8008300D7F810B07B614DE61A46C7F810B0C2
:1046F80098ED0C6A331DDFED5B6AD7F81CB078695A
:1047080036F9221007EE101A33F9221007EE901A24
:10471800B8EEC77A51080232F8EEE77A27EE267A21
:104728000AEB810E94420BEB810167EEA67A27EE25
:10473800067A67EE867A8EED007AC1ED007ADFD8C8
:104748008300D7F810B07B6134E5F0EE675AFEEECF
:10475800E45A15EE900A34E7F0EE675AFEEEE45A92
:1047680015EE901A6EE7F0EE675AFEEEE45A15EE73
:10477800900A3AE7F0EE675AFEEEE45A15EE900A10
:104788004BE767EEA57AFDEEE77A17EE900A00B2DE
:1047980032E567EEA57AFDEEE77A17EE900A00B2E9
:1047A8003FE5F0EE675AFEEEE05A15EE901A4CE639
:1047B800F0EE675AFEEEE05A15EE900A30E6F0EE9B
:1047C800675AFEEEE05A15EE900AFDE5F0EE675ADC
:1047D800FEEEE05A15EE900A0AE667EEA57AFDEEBF
:1047E800E77A17EE901A09B24AE567EEA57AFDEE68
:1047F800E77A17EE900A00B22CE5F0EE675AFEEE63
:10480800E45A15EE902A1FE467EEA57AFDEEE77AE2
:1048180017EE902A12B2FFF731BBF0EE675AFEEEA0
:10482800E45A15EE902AFFF7FDBBF0EE675AFEEE4C
:10483800E05A15EE902AFFF79BBBF0EE675AFEEEA2
:10484800E05A15EE902AFFF780BB67EEA57AFDEED9
:10485800E77A17EE902A12B2FFF724BB82FF7F0097
:1048680000000030000000387E0080FF30B5184C92
:10487800154685B0046004F1080EEC460FC98EE8B1
:104888000F00D4ED047AF5EEC07A8CE80F00F1EE53
:1048980010FA1ADDB7EE006A94ED057A27EE277A4A
:1048A800C6EE276A84ED0D7AC4ED0C6A6DB1204618
:1048B80040F8185F01F0C0FA064903690020064A6B
:1048C8002162A262E36005B030BD012005B030BDB1
:1048D8002C0400240020003000000030006808305C
:1048E800704700BFB1F5807F03680A4628BF4FF4C0
:1048F8008072B1F5807F9A6094BF002001207047D4
:104908000068183001F0F8BA70B504688AB0A36975
:10491800E160CBB104F11805284601F08DFA844610
:10492800EE46E668BCE80F00AEE80F00BCE80F00F2
:10493800AEE80F009CE803008EE8030069462846AD
:10494800049601F081F9F8B9E069D8B104F11C05C1
:10495800284601F071FA8446EE46E468BCE80F0088
:10496800AEE80F00BCE80F00AEE80F009CE80300BB
:104978008EE8030069462846049401F065F900387A
:1049880018BF01200AB070BD01200AB070BD00BF79
:1049980030B5046883B00D46E3694BB1A3680020C5
:1049A800E26A616A9B00009004F11C0001F046FA7B
:1049B800A3680748A26A9B00216A009004F11800C6
:1049C80001F03CFA0020C4E9005003B030BD00BF3C
:1049D800B93C000810B4074B4FF07E513024002238
:1049E800032019619C60D8605DF8044B5961C3E9E4
:1049F800062270472C0400240148FCF719BC00BFAC
:104A08003806002410B592B0ADF804100180C9B280
:104A1800149C0B29C460C0E901233FD090F801C061
:104A2800BCF10F0F3AD8022A3FD0032A02D0012A3C
:104A380000D000220E92012B02D0022B18BF0023B7
:104A4800022C0F932CD0032C2AD0012C28D0002321
:104A58000A29109327D85C4A02EB812202610A29AD
:104A680014D8DFE801F0A39587796B5D4F413325B2
:104A78000600564BD3F8E01041F48061C3F8E0100B
:104A8800D3F8E03003F480630C930C9B01230DA949
:104A9800104603FA0CF30D9302F042FE12B010BD5B
:104AA8000A291094D7D90022D8E711220E92C2E71A
:104AB800464BD3F8E01041F40071C3F8E010D3F886
:104AC800E03003F400730B930B9BDFE73F4BD3F805
:104AD800E01041F48071C3F8E010D3F8E03003F43B
:104AE80080730A930A9BD1E7384BD3F8E01041F062
:104AF8008001C3F8E010D3F8E03003F08003099395
:104B0800099BC3E7314BD3F8E01041F04001C3F8EB
:104B1800E010D3F8E03003F040030893089BB5E7B2
:104B28002A4BD3F8E01041F02001C3F8E010D3F885
:104B3800E03003F020030793079BA7E7234BD3F844
:104B4800E01041F01001C3F8E010D3F8E03003F0B2
:104B580010030693069B99E71C4BD3F8E01041F02D
:104B68000801C3F8E010D3F8E03003F00803059318
:104B7800059B8BE7154BD3F8E01041F00401C3F80F
:104B8800E010D3F8E03003F004030493049B7DE7BE
:104B98000E4BD3F8E01041F00201C3F8E010D3F84F
:104BA800E03003F002030393039B6FE7074BD3F84E
:104BB800E01041F00101C3F8E010D3F8E03003F051
:104BC80001030293029B61E7000002580044025867
:104BD80008B5012143780069994089B202F0A8FF1D
:104BE800003818BF012008BD01230A464178006932
:104BF80003FA01F189B202F0A1BF00BF8378022B4A
:104C080030B504468FB037D0032B33D0012B31D0C9
:104C180000230A93E378012B2AD0022B28D0002303
:104C28000B93002320460C9302F0C2FC0546204655
:104C380002F0C6FC23780990082B13D8DFE803F0AC
:104C48001F3245586B7E91A40500594BD3F8E020DC
:104C580042F48072C3F8E020D3F8E03003F48073A4
:104C68000893089B09A9284602F05AFD0FB030BDE9
:104C78000B93D6E70A93CDE711230A93CAE74C4B67
:104C880009A92846D3F8E02042F00102C3F8E02041
:104C9800D3F8E03003F001030093009B02F040FDDD
:104CA8000FB030BD424B09A92846D3F8E02042F0A6
:104CB8000202C3F8E020D3F8E03003F002030193C6
:104CC800019B02F02DFD0FB030BD394B09A92846D4
:104CD800D3F8E02042F00402C3F8E020D3F8E03033
:104CE80003F004030293029B02F01AFD0FB030BDDB
:104CF8002F4B09A92846D3F8E02042F00802C3F850
:104D0800E020D3F8E03003F008030393039B02F09C
:104D180007FD0FB030BD264B09A92846D3F8E0207F
:104D280042F01002C3F8E020D3F8E03003F010039B
:104D38000493049B02F0F4FC0FB030BD1C4B09A98E
:104D48002846D3F8E02042F02002C3F8E020D3F848
:104D5800E03003F020030593059B02F0E1FC0FB05F
:104D680030BD134B09A92846D3F8E02042F0400291
:104D7800C3F8E020D3F8E03003F040030693069B25
:104D880002F0CEFC0FB030BD094B09A92846D3F874
:104D9800E02042F08002C3F8E020D3F8E03003F0CE
:104DA80080030793079B02F0BBFC0FB030BD00BF28
:104DB8000044025870B506460D4602F0F9FB044659
:104DC800304602F0FDFB2A1E0146204618BF01228C
:104DD800BDE8704002F0B2BE0023122270B586B062
:104DE800CDE9022304930368032B01D80423059318
:104DF800061D841D304602F0DBFB0546304602F0F6
:104E0800DFFB034601A92846019302F089FC2046EE
:104E180002F0CEFB034620461C4602F0D1FB01A956
:104E280003462046019302F07BFC06B070BD00BF2C
:104E3800634A0368934210B58CB028D0614A934204
:104E480058D0614A934200F09480604A934201D05E
:104E58000CB010BD5E4C5F48D4F8E03043F002035C
:104E6800C4F8E030D4F8E03003F002030A930A9B58
:104E7800FFF7B2FFD4F8F43043F08003C4F8F430FD
:104E8800D4F8F43003F080030B930B9BE0E7504C0D
:104E98005148D4F8E03043F00203C4F8E030D4F8C5
:104EA800E03003F002030193019BFFF795FFD4F86C
:104EB800E83000221F2043F400131146C4F8E830FC
:104EC800D4F8E83003F400130293029BD4F8D830E6
:104ED80043F00103C4F8D830D4F8D83003F0010304
:104EE8000393039BFBF77AFC1F200CB0BDE810402E
:104EF800FBF7B2BC364C3948D4F8E03043F08003B5
:104F0800C4F8E030D4F8E03003F080030493049B45
:104F1800D4F8E03043F00203C4F8E030D4F8E030CD
:104F280003F002030593059BFFF756FFD4F8E8301A
:104F38000022212043F480031146C4F8E830D4F855
:104F4800E83003F480030693069BD4F8D83043F086
:104F58000103C4F8D830D4F8D83003F0010307931C
:104F6800079BFBF73BFC21200CB0BDE81040FBF78A
:104F780073BC1B48FFF730FF154B00224820D3F8BD
:104F8800E840114644F40004C3F8E840D3F8E84088
:104F980004F400040894089CD3F8D84044F00104B1
:104FA800C3F8D840D3F8D83003F001030993099B1C
:104FB800FBF714FC48200CB0BDE81040FBF74CBCD4
:104FC8000054004000580040005C0040001C00589D
:104FD8000044025840090024B80600249007002421
:104FE800680800242DE9F0431A4B87B000254FF0DC
:104FF80010099E46EC46184BFF22E04667461A7099
:105008000EF118060EF13004CDE90055CDE9025530
:10501800ADF80090BCE80F00CDE90455AEE80F00EC
:105028009CE803000095ADF800908EE80300B8E80E
:105038000F000FC69CE803000095ADF8009086E8C5
:1050480003000FCF0FC49CE8030084E8030007B0F7
:10505800BDE8F0830C000024B406002410B5EFF37B
:10506800108472B6084B1A78120602D504B962B6D3
:1050780010BD1B78D82205485BB202FB0300143030
:10508800FCF7D6F8F2E700BFB4060024B8060024FF
:10509800014803F0EBBB00BF44070024014803F0BC
:1050A800E5BB00BF1C080024014803F0DFBB00BFBC
:1050B800F40800242DE9F0430F68D8243F4D85B04B
:1050C80007FB04F4032F05EB0403036040DCCB6803
:1050D8000E46012B3CD84DD04FF0D808B646DFF825
:1050E800FC9008FB0758BEE80F00C446ACE80F0068
:1050F800DEF800300DF1100ECCF80030D8F808C0FA
:1051080099E80F000EE90F000EEB8703BCF1010FC1
:1051180053F8103CC8F88C3031D0BCF1020F42D0A3
:10512800BCF1000F35D0317C8C34D823002201200B
:105138002C4403FB07534900C3E92602C3F8941023
:105148002046C3E92822C3E92A2203F081F918B1CD
:10515800012005B0BDE8F0830146204603F092FB2C
:105168000028F5D10146204603F0B6FB003818BFE9
:105178000120EEE70B7C103B672BADD9E8E702F086
:1051880091F80F4B98420CBF0E4B0F4BC8F890305C
:10519800C9E702F087F80A4B98420CBF0B4B0C4B3F
:1051A800C8F89030BFE702F07DF8054B98420CBF75
:1051B800084B094BC8F89030B5E700BFB806002483
:1051C800000E27072D0FB0303211D0205F439060BA
:1051D8008A62E030200BA0101A09801008F7000836
:1051E8002DE9F041D0F8008082B00D4617461E46E2
:1051F80008F18C04204603F041FB2028FAD1D8F8A6
:105208000C3073B96D002046089C33463A46A9B263
:10521800009403F073F9003818BF012002B0BDE80C
:10522800F081089B32463946204603F03BFAF2E704
:10523800044B10221A7483F8E82083F8C02183F8FD
:1052480098227047B806002430B5002395B04FF473
:105258008071062204460B9306921393CDE90C1332
:10526800CDE90E33CDE9113302F01EF807282BD013
:1052780004F1100541F2883206A9284604F03EF9E7
:1052880028B10123184684F85C3015B030BD0222DD
:10529800022306A92846CDE9002310220123CDE9DF
:1052A800022300224FF48003CDE9042305224FF0A6
:1052B800807306926A460F9341F2883304F08AFAA3
:1052C8000028DED115B030BD0323012084F85C30FE
:1052D80015B030BD0000000070B50023A4B04FF039
:1052E80080724FF480750446ADF806300D93CDE911
:1052F80010320122CDE90E53CDE91223CDE9143342
:10530800002943D0F02300F1100508AEADF80630AF
:10531800C02341F2883231462846089304F0EEF85B
:1053280028B10123184684F85C3024B070BD41F2DE
:1053380088320DF10601284604F04AF90346002890
:10534800EFD105224FF480711E93284616924FF034
:1053580080721B9321931F9202AA9FED1F7BCDE9B8
:105368001C13CDE922338DED027B9FED1D7B41F2AD
:10537800883316A98DED047B9FED1B7B8DED067B95
:1053880004F028FA0028CCD124B070BD00F1100533
:1053980008AE612341F2883231462846089304F06A
:1053A800ADF80028BDD141F288320DF1060128463A
:1053B80004F08CF90028B4D1BDF80630204623F05B
:1053C800780343F04003ADF80630FFF73DFF0028AF
:1053D8009ED0A6E7AFF300800000000001000000A7
:1053E8001000000001000000000000000000400064
:1053F8002DE9F04F00234FF4807501264FF0807897
:1054080004462DED028BABB08DF807301393219332
:10541800299314950E96CDF85C80CDE91533CDE926
:105428001863CDE91A33CDE92253CDE92433CDE908
:10543800273306231C9301F037FF072808D004F10F
:10544800100741F288321CA9384604F057F840B1D9
:105458000123184684F85C302BB0BDEC028BBDE804
:10546800F08F4FF0020A4FF0020B4FF0050941F29E
:10547800883308AA1CA93846CDF89480CDF87090D6
:105488009FED2D8BCDE908AB4FF0000A4FF4800B50
:105498008DED0A8BCDE90CAB04F09CF90028D7D12F
:1054A80041F2883238460EA904F028F80028CFD1F6
:1054B800402341F288320DF1070138468DF8073054
:1054C80004F086F80028C3D141F288330EA902AA55
:1054D8003846CDF83890CDF85C809FED197B8DED7E
:1054E800048BCDE906AB8DED027B04F073F903461E
:1054F8000028ADD1CDF870904FF00109CDF8948017
:105508004FF00008219308AA29931CA93846229530
:10551800CDE92333CDE9273341F288338DED0A8B6A
:10552800CDE90CABCDE9088904F054F9002893D0F3
:10553800304684F85C608FE710000000010000002E
:1055480040000000400000002DE9F043624CA3B089
:105558000D46046001F0A8FE072800F0A98028681D
:1055680023466968AA6807C31E46AB8926F8043B28
:105578003046257B677B03F0A3FFE0B9574B012D2D
:105588004FF00108E061236114BF4FF480134FF41A
:105598000003C4E9058893FAA3F3B3FA83F34FF43D
:1055A8008079013BC4F82490C4E90B00304623629B
:1055B80003F01AFF38B10122134684F85C2018461C
:1055C80023B0BDE8F08366230B90139041F2883234
:1055D80006A90693CDE90C90CDE90E00CDE911009E
:1055E800304603F08BFF0028E5D1992341F2883239
:1055F80006A93046069303F081FF0028DBD1052376
:105608001C9019906A4614934FF08073219014A946
:105618001D9341F288339FED2A7BCDE91A90CDE99D
:105628001F008DED007B9FED287B30468DED027BC2
:105638009FED277B8DED047B04F0CCF80028BAD1D0
:1056480029462046FFF748FE0028B4D12046FFF738
:10565800CFFE03460028AED1002FB0D118933046B4
:105668000027002606AA14A9CDF86890CDE91F33B3
:10567800EB2314934FF440631B934FF40053179399
:105688004FF440431C93A0231693062319934FF01D
:10569800805321934FF04073CDE906671D9304F0C2
:1056A80011F9034600288AD0434684F85C8086E7CF
:1056B80001230322184684F85C2023B0BDE8F08358
:1056C80000000000010000001000000001000000C0
:1056D8000000000000004000180A0024005000529A
:1056E8002DE9F04F8FB0414B0024026800AF9A4279
:1056F8007C63C7E90944C7E90B4403D03C37BD467E
:10570800BDE8F08F3A4B40F609213A48EB46D3F80A
:10571800D42007F11C0607F1220A4FF0020942F4CF
:1057280080424FF00308C3F8D420D3F8D42002F401
:105738008042BA60BA68D3F8E02042F04002C3F869
:10574800E020D3F8E02002F04002FA60FA68D3F8CB
:10575800E02042F02002C3F8E020D3F8E02002F075
:1057680020023A613A69D3F8E02042F01002C3F807
:10577800E020D3F8E02002F010027A617A69D3F8C9
:10578800E02042F00202C3F8E020D3F8E030F861EC
:1057980003F002033984BB61174B7B60BB697B68EC
:1057A80053F8040F7B6001F003FF7B680546186817
:1057B80001F006FF16F8013B786207F1240128463C
:1057C800C7F830807B63C7E90A9401F0A9FF564502
:1057D800E5D100225C201146FBF700F85C20FBF7BE
:1057E8003BF83C37DD46BD46BDE8F08F005000521F
:1057F800004402580A0A0909740A0024114B026875
:105808009A4200D07047104A70B5D2F8D4300F4C85
:1058180023F4804304F11806C2F8D43054F8040F76
:1058280001F0C6FE0546206801F0CAFE014628467A
:1058380002F0B6F8B442F1D15C20BDE87040FBF745
:1058480019B800BF0050005200440258740A0024DE
:10585800014804F0C3B800BF280A0024084B1A1DE9
:10586800981D03F1080110B49C1C9A6603F10A0202
:10587800C3E91834C3E91B015DF8044B5A67704744
:10588800180A002438B5036871B9026A00F12805BE
:1058980000F5AC74012A0CBF002140218BBB1D4BC5
:1058A8005722C0F858310DE0426A00F1C00500F5F2
:1058B800E874012A0CBF00214021EBB1164B5A2293
:1058C800C0F8D03100232046C4E901214FF48052AA
:1058D8004FF48061636262614FF48042C4E903312E
:1058E8004FF48073C4E906234FF400332362FBF7B7
:1058F80027F958B1FFBEFEE7084B5822C0F8D0314F
:10590800E0E7074B5922C0F85831DBE7C5E92044E6
:10591800A56338BD10000240700002402800024014
:10592800580002402DE9F043821D05468BB0031D47
:1059380005F10A010830CDE9052305F10C02AB6930
:10594800CDE907010992002B3DD0EB69B3FA83F842
:105958004FEA58180123022205AE0AAF4FF0060994
:105968000393CDE9012356F8044B2B79227893420F
:1059780016D02B68F3B1012B02D1F2B10A2304939C
:10598800204601F01DFE03462046009301F010FE5C
:10599800694601F0C5FEBE42E5D10BB0BDE8F08313
:1059A800697963789942E4D1B8F1000FF3D02B6894
:1059B800002BE0D1CDF81090E2E76378022B14BFFA
:1059C8000A230823DBE74FF00108C3E7534A0368BB
:1059D800934230B505468BB055D02032934252D011
:1059E8004F4A934204D02032934201D00BB030BDCD
:1059F8004C4C4D48D4F8E03043F00103C4F8E03093
:105A0800D4F8E03003F001030593059BD4F8E030A7
:105A180043F00803C4F8E030D4F8E03003F008039A
:105A28000693069BD4F8E03043F04003C4F8E03016
:105A3800D4F8E03003F040030793079BD4F8F03024
:105A480043F40003C4F8F030D4F8F03003F4000352
:105A58000893089BFFF766FFD4F8D830296843F00D
:105A680001032F4A3048C4F8D830891AD4F8D830FE
:105A780018BF012103F001030993099B0BB0BDE88E
:105A88003040FFF7FFBE274C2848D4F8E03043F0F9
:105A98000103C4F8E030D4F8E03003F001030093C8
:105AA800009BD4F8E03043F01003C4F8E030D4F899
:105AB800E03003F010030193019BD4F8E03043F089
:105AC8004003C4F8E030D4F8E03003F04003029318
