:020000040800F2
:1000000000000220110A00080D0A0008918900086A
:100010000D0A00080D0A00080D0A00080000000083
:100020000000000000000000000000000D0A0008B1
:100030000D0A0008000000000D0A000815890008DC
:100040000D0A00080D0A00080D0A00080D0A000834
:100050000D0A00080D0A00080D0A00080D0A000824
:100060000D0A00080D0A00080D0A0008497500086D
:1000700055750008C9620008617500086D750008B3
:10008000C9830008796A00080D0A00080D0A0008F3
:100090000D0A00080D0A00080D0A00080D0A0008E4
:1000A0000D0A00080D0A00080D0A00080D0A0008D4
:1000B000053C0108113C01081D3C0108AD6A00081F
:1000C0000D0A0008B96A00080D0A00087534010815
:1000D00081340108FD810008298200085D82000842
:1000E0000D0A00080D0A0008000000000D0A0008B3
:1000F0000D0A00080D0A00080D0A00080D0A000884
:100100000D0A00080D0A0008293C01088D34010879
:1001100091820008C58200080D0A00080D0A000837
:100120000D0A00080D0A0008B1340108E534010881
:10013000FD8300080D0A00080D0A00080D0A0008DA
:1001400000000000000000000000000000000000AF
:100150000D0A00080D0A00080D0A0008F9820008BF
:10016000C56A00080D0A00082589000849890008A9
:100170000D0A00086D8900080D0A00080D0A000824
:100180000D0A00080D0A00082D830008618300088D
:1001900099340108A53401080D0A00080D0A000869
:1001A0000D0A00080D0A00080D0A00080D0A0008D3
:1001B000697200080D0A00080D0A00080D0A0008FF
:1001C0000D0A00080D0A00080D0A00080D0A0008B3
:1001D0000D0A00080D0A00080D0A00080D0A0008A3
:1001E0000D0A00080D0A00080D0A00080D0A000893
:1001F0000D0A00080D0A00080D0A00080D0A000883
:100200000D0A00080D0A00080D0A00080D0A000872
:100210000D0A00080D0A00080D0A00080D0A000862
:100220000D0A00080D0A00080D0A00080000000071
:100230000D0A00080D0A0008000000000D0A000861
:100240000D0A00080D0A00080D0A00080D0A000832
:100250000D0A00080D0A00080D0A00080D0A000822
:100260000D0A00080D0A00080D0A00080D0A000812
:100270000D0A00080D0A0008958300080000000020
:100280000D0A00080D0A00080D0A00080000000011
:08029000000000000D0A000847
:1002A00010B5054C237833B9044B13B10448AFF3B0
:1002B00000800123237010BDF8030024000000001B
:1002C000688D010808B5034B1BB103490348AFF320
:1002D000008008BD00000000FC030024688D0108B8
:1002E000034613F8012B002AFBD1181A0138704776
:1002F00001F0FF01102A2BDB10F0070F08D010F8D7
:10030000013B013A8B422DD010F0070F42B3F6D1DA
:10031000F0B441EA012141EA014122F007047FF0F3
:1003200000070023F0E80256083C85EA010586EA4A
:10033000010685FA47F5A3FA87F586FA47F6A5FA86
:1003400087F68EB9EED1F0BC01F0FF0102F0070292
:1003500032B110F8013B013A83EA010313B1F8D13D
:100360000020704701387047002D06BF354603381E
:10037000073815F0010F07D1013015F4807F02BF57
:10038000013015F4C03F0130F0BC0138704700BFA8
:1003900081F0004102E000BF83F0004330B54FEA36
:1003A00041044FEA430594EA050F08BF90EA020FA3
:1003B0001FBF54EA000C55EA020C7FEA645C7FEA36
:1003C000655C00F0E2804FEA5454D4EB5555B8BF59
:1003D0006D420CDD2C4480EA020281EA030382EACA
:1003E000000083EA010180EA020281EA0303362D5C
:1003F00088BF30BD11F0004F4FEA01314FF4801C2F
:100400004CEA113102D0404261EB410113F0004F40
:100410004FEA03334CEA133302D0524263EB4303F7
:1004200094EA050F00F0A780A4F10104D5F1200E95
:100430000DDB02FA0EFC22FA05F2801841F10001F0
:1004400003FA0EF2801843FA05F359410EE0A5F1C4
:1004500020050EF1200E012A03FA0EFC28BF4CF0F5
:10046000020C43FA05F3C01851EBE37101F00045AB
:1004700007D54FF0000EDCF1000C7EEB00006EEBB8
:100480000101B1F5801F1BD3B1F5001F0CD3490842
:100490005FEA30004FEA3C0C04F101044FEA445299
:1004A00012F5800F80F09A80BCF1004F08BF5FEA20
:1004B000500C50F1000041EB045141EA050130BD00
:1004C0005FEA4C0C404141EB0101013C28BFB1F512
:1004D000801FE9D291F0000F04BF01460020B1FA5D
:1004E00081F308BF2033A3F10B03B3F120020CDA30
:1004F0000C3208DD02F1140CC2F10C0201FA0CF00E
:1005000021FA02F10CE002F11402D8BFC2F1200C72
:1005100001FA02F120FA0CFCDCBF41EA0C01904028
:10052000E41AA2BF01EB0451294330BD6FEA040471
:100530001F3C1CDA0C340EDC04F11404C4F120025C
:1005400020FA04F001FA02F340EA030021FA04F36E
:1005500045EA030130BDC4F10C04C4F1200220FAC5
:1005600002F001FA04F340EA0300294630BD21FA03
:1005700004F0294630BD94F0000F83F4801306BFC9
:1005800081F480110134013D4EE77FEA645C18BFBD
:100590007FEA655C29D094EA050F08BF90EA020F54
:1005A00005D054EA000C04BF1946104630BD91EA4C
:1005B000030F1EBF0021002030BD5FEA545C05D14F
:1005C0004000494128BF41F0004130BD14F580048E
:1005D0003CBF01F5801130BD01F0004545F0FE4102
:1005E00041F470014FF0000030BD7FEA645C1ABF37
:1005F000194610467FEA655C1CBF0B46024650EA6E
:10060000013406BF52EA033591EA030F41F4002199
:1006100030BD00BF90F0000F04BF0021704730B51F
:100620004FF4806404F132044FF000054FF00001F4
:1006300050E700BF90F0000F04BF0021704730B5B5
:100640004FF4806404F1320410F0004548BF40428A
:100650004FF000013EE700BF42004FEAE2014FEADF
:1006600031014FEA02701FBF12F07F4393F07F4FBA
:1006700081F06051704732F07F4208BF704793F0BD
:100680007F4F04BF41F40021704730B54FF46074D0
:1006900001F0004521F000411CE700BF50EA0102D3
:1006A00008BF704730B54FF000050AE050EA01027C
:1006B00008BF704730B511F0004502D5404261EBEC
:1006C00041014FF4806404F132045FEA915C3FF42D
:1006D000D8AE4FF003025FEADC0C18BF03325FEACA
:1006E000DC0C18BF033202EBDC02C2F1200300FA7B
:1006F00003FC20FA02F001FA03FE40EA0E0021FAA0
:1007000002F11444BDE600BF53B94AB9002908BF3D
:1007100000281CBF4FF0FF314FF0FF3000F074B9DC
:10072000ADF1080C6DE904CE00F006F8DDF804E048
:10073000DDE9022304B070472DE9F047089D044627
:100740008E46002B4DD18A42944669D9B2FA82F284
:1007500052B101FA02F3C2F1200120FA01F10CFAC0
:1007600002FC41EA030E94404FEA1C48210CBEFBF8
:10077000F8F61FFA8CF708FB16E341EA034306FB81
:1007800007F199420AD91CEB030306F1FF3080F010
:100790001F81994240F21C81023E63445B1AA4B25D
:1007A000B3FBF8F008FB103344EA034400FB07F7FF
:1007B000A7420AD91CEB040400F1FF3380F00A8140
:1007C000A74240F207816444023840EA0640E41B35
:1007D00000261DB1D4400023C5E900433146BDE8E1
:1007E000F0878B4209D9002D00F0EF800026C5E983
:1007F000000130463146BDE8F087B3FA83F6002E9B
:100800004AD18B4202D3824200F2F980841A61EB12
:10081000030301209E46002DE0D0C5E9004EDDE730
:1008200002B9FFDEB2FA82F2002A40F09280A1EB18
:100830000C014FEA1C471FFA8CFE0126200CB1FB6D
:10084000F7F307FB131140EA01410EFB03F0884266
:1008500008D91CEB010103F1FF3802D2884200F2F3
:10086000CB804346091AA4B2B1FBF7F007FB101185
:1008700044EA01440EFB00FEA64508D91CEB040423
:1008800000F1FF3102D2A64500F2BB800846A4EB7E
:100890000E0440EA03409CE7C6F12007B34022FA69
:1008A00007FC4CEA030C20FA07F401FA06F31C4398
:1008B000F9404FEA1C4900FA06F3B1FBF9F8200CA5
:1008C0001FFA8CFE09FB181140EA014108FB0EF0EB
:1008D000884202FA06F20BD91CEB010108F1FF3A3B
:1008E00080F08880884240F28580A8F10208614447
:1008F000091AA4B2B1FBF9F009FB101144EA014155
:1009000000FB0EFE8E4508D91CEB010100F1FF34FF
:100910006CD28E456AD90238614440EA0840A0FB97
:100920000294A1EB0E01A142C846A64656D353D06D
:100930005DB1B3EB080261EB0E0101FA07F722FA91
:1009400006F3F1401F43C5E9007100263146BDE8BA
:10095000F087C2F12003D8400CFA02FC21FA03F31D
:10096000914001434FEA1C471FFA8CFEB3FBF7F09E
:1009700007FB10360B0C43EA064300FB0EF69E42C3
:1009800004FA02F408D91CEB030300F1FF382FD25C
:100990009E422DD9023863449B1B89B2B3FBF7F604
:1009A00007FB163341EA034106FB0EF38B4208D9DD
:1009B0001CEB010106F1FF3816D28B4214D9023E1E
:1009C0006144C91A46EA004638E72E46284605E73C
:1009D0000646E3E61846F8E64B45A9D2B9EB02080D
:1009E00064EB0C0E0138A3E74646EAE7204694E79D
:1009F0004046D1E7D0467BE7023B614432E73046D0
:100A000009E76444023842E7704700BFFEE700BFD1
:100A10000B480C4A904203D0121A0B4915F07EF98C
:100A20000A480B4A904203D0121A002115F084F9AB
:100A300008F006FA15F03EF900F018F8FEE700BFDE
:100A400000000024F8030024988D0108F803002416
:100A500078A30624704700BF8446134602480A461E
:100A6000614600F0FFBF00BF140400242DE9F047E9
:100A7000002194B055484FF0000A03F0EDFF032128
:100A80005248D14603F0ECFE30215048D04603F0E6
:100A900007FF4F4801F03CFD4E4A4C4957464E482F
:100AA000FF2600F0E1F94D4801F084FA07F0E0FF7D
:100AB00001464B4801F0F2FA444803F0EDFE474A84
:100AC0004449484801F05EF84749404803F0C4FEF5
:100AD0002AE0002E57D02146414801F0DFFA4FF0BE
:100AE000000923464F2B1AD94FF480523F493B4807
:100AF00001F08AFA002867D003A839499DED0C1A45
:100B00004FF48053DDED0B0AA1469DED0A0A374AEA
:100B1000009401F0B7FB03A92D4801F00FFE01205E
:100B200037462E4607F0A6FF07F0A2FF04462A49E3
:100B30000AA8264A234600F0FFFA10999DF83A5079
:100B4000A1F101012148B1FA81F1490903F0C4FE84
:100B5000AE4203D029461E4801F0F6FC9DF8443011
:100B6000E3B99DF8383023B9A4EB0803B3F5FA7F55
:100B700004D30AA91648A04601F000FDB5FA85F68F
:100B80007609002FA5D0E5B187B12146144801F0C0
:100B900085FA0F48A24601F037FEC0E7DDE91223CF
:100BA0009DF845100A4801F0ABFDDAE74DB1A4EB22
:100BB0000A03B3F57A7FB2D30548A24601F024FEBA
:100BC000ADE7A4EB09038DE7A146A8E78C750624E1
:100BD0003476062480750624CC75062444750624D4
:100BE0004C75062414040024590A00080000003043
:100BF00038B513480024134A134904604461046261
:100C0000C46314F0B5FB114B11485C6043F8044B0E
:100C10005C6000F0CBF80F4D0F4801F0C7F90F48AA
:100C200001F026FA284600F081FC2846054A0C49C6
:100C300014F09EFB0B48BDE8384001F065BC00BFD6
:100C40008C75062400000024550A000880750624CF
:100C5000CC75062414040024447506244C7506241F
:100C6000690C00083476062410B50446094820446F
:100C700002F098FB0848204402F096FA44F6A430AB
:100C8000204402F075F904F1080002F047F820460C
:100C900010BD00BF8857060028570600F0B50D8824
:100CA00007464E88013A00F10E044FF0000CAE42A8
:100CB0002CBF0023012303732B460AE09E4510D26C
:100CC000734494454FEA530324F8023B0BDA31F89E
:100CD000023FAE420CF1010CB1F802E0EED39E45AA
:100CE000EED80020F0BD012318467B73F0BD00BF95
:100CF00070B50646407B30B3F0697568002801DDA9
:100D0000A84221DD002D4DDD33684FF0010C00209D
:100D10004FF6FF74A3F1020E3EF8023F9942A3EB97
:100D20000102A1EB030392B288BF9AB26346A242CA
:100D300001D260461446AB420CF1010CECDB738926
:100D4000A34238BF002070BD6FF000423368B6F890
:100D50000AE00244348933F8122074448A42A4B26F
:100D600034BF8A1A521A92B29442ECD29E1E0124C7
:100D700000204FF6FF7C36F8023F9942A3EB0102B8
:100D8000A1EB030392B288BF9AB22346624501D217
:100D9000204694469D4204F10104ECDCE64538BF50
:100DA000002070BD00204FF6FF74C8E710B4174C48
:100DB00003464FF60B7C002220680021A3F804C0F4
:100DC00040F2011CC3F86200A088A3F84C20A3F8ED
:100DD000660018461A601A61A3F818C0A3F84420E8
:100DE0009A64196559659965DA65A3F86020C3E9C5
:100DF0000B22C3E902225DF8044BC3E90722C3E9D1
:100E00000922C3E90D22C3E90F227047747101085A
:100E100090F8443033B3036823B3B0F860C030B502
:100E2000B0F85C40B0F85EE090F84C50A0F862403A
:100E3000A0F864E0A0F866C090F84D001A68BFF30F
:100E40005B8F911C42F0010221F001011A601D71BB
:100E50005871DC80A3F808E0A3F80AC0BFF35B8FE9
:100E6000196030BD704700BF2DE9F04F0024022605
:100E70000546804689464FF0010A08F1200B0827F5
:100E80002DED028B9FB045F8042B32468DF814608F
:100E90000CA88DF81540059904F082FF03238DF806
:100EA000184032468DF819300DF14200069904F0D1
:100EB00077FF8DF81CA08DF81DA03246079915A864
:100EC00004F06EFF07238DF8204032468DF8213064
:100ED0000DF16600089909F1180604F061FF04237A
:100EE0000CA930461A4604F06FFF304605F07AF937
:100EF0000521484603F0ACFC8A4A5346284611684F
:100F00002246009405F08CFADFED877A87490622A5
:100F1000874B5846C8F84040B0EE678A88F82D40A5
:100F2000F0EE678AC8F82010C8E90E44C8E9092322
:100F3000FFF7B4FE8246CDED097ACDED0A7ACDED0C
:100F40000B7A0AAD0024E1B2304605F061F9B5EE46
:100F5000C00AF7EE007AF1EE10FA0FD4B4EE670A89
:100F60000134F1EE10FA37FE800A30EE080A032C45
:100F700005ED010A0BD0B5EC018AE4E79FED6A0AA2
:100F8000013430EE080A032C05ED010AF3D12146A5
:100F9000304605F03DF9B5EEC00AF1EE10FA12D474
:100FA000F7EE007AB4EE670AF1EE10FA37FE800A27
:100FB0000121484678EE808A03F04AFC013F05D0C3
:100FC0009DED098ABDE79FED580AF1E708F15C0144
:100FD00009A808F150030C46B4EE007AF0EC017A4F
:100FE000F7EE006A002267EE877AF5EEC07AE3EC4E
:100FF000017AF1EE10FA11D4F4EEE67A9FED4D6A23
:10100000B6EE007A4FF6FF72F1EE10FA06DCA7EEAC
:10101000867ABCEEC77A17EE102A92B29C4221F86B
:10102000022BD9D1BAF1000F31D0F4EE007A68EE7C
:10103000A78AF5EEC08AF1EE10FA33D500210391AC
:1010400007F016FD039906465846FFF751FED8F8FB
:1010500038400546A0423BD00446C8F83800C8F8DE
:1010600040605846FFF744FEA042D8F83C5006F1D5
:10107000140640D02C46C8F83800C8F84060002C50
:1010800008BF2C46631E042B98BF88F84C30012300
:10109000404688F84430FFF7BBFE1FB0BDEC028B22
:1010A000BDE8F08FF7EE007AF4EEE78AF1EE10FA81
:1010B00002DD4FF6FF71C2E7F6EE007A9FED1D7A72
:1010C000E8EE877AFCEEE77A17EE903A99B2B6E747
:1010D000D8F83C00854202461CD0D8F84030F31ABC
:1010E000132B1AD95846C8F83C50FFF701FEA0420E
:1010F00006F11406BED1AC4209D0D8F84010721ADD
:10110000132A94BFD8F83C40C8F83C40B7E72246C1
:10111000D8F83C0004461546B1E72C46143605467F
:10112000E9E700BF18720108000000001C72010806
:101130008403F00A00FF7F472DE9F04F00250C469D
:1011400002F1180B28222946074604F15C0604F137
:101150005008BA46A9462DED028B83B0019314F0D6
:10116000EBFDB4F84C207A82E26BBA61E9B25846E2
:1011700005F04EF8B5EEC00AF1EE10FA5FD4F7EEC6
:10118000007AB4EE670AF1EE10FA37FE800AD8ED65
:10119000007A9FED7A7A30EE670AE0EE077AF5EE94
:1011A000C07AE8EC017AF1EE10FA42D4B7EE007A98
:1011B000F4EEC77AF1EE10FA44DCB6EE007ADFED19
:1011C000706AA7EEA67AFCEEC77A17EE903A9AB24A
:1011D00007EE902AB8EE677AC7EE267AF188328059
:1011E000914234BF521A8A1A92B2802A05F101053F
:1011F00006F10206EAEC017A28BF4FF00109032D3F
:10120000B4D1B6EE008A2946584687ED038A04F029
:10121000FFFFB5EEC00AF1EE10FA18D4F7EE007A2F
:10122000B4EEE70AF1EE10FA40F396804FF6FF7144
:101230000EE00022DFED537A3280F288D5E79FED91
:10124000510AA4E7F0EE477A4FF6FF72C6E7002195
:1012500004F12000B982FFF74BFDA36B984262D0E6
:10126000019BA063E06B2364B8610138042813D9A3
:10127000201D4D4605F0BAF9637E834220D0019BC4
:101280006076E36187F81090002D43D1384603B0B3
:10129000BDEC028BBDE8F08FC0B294F84C308342B5
:1012A000E6D00023012584F84C00B874201D84F892
:1012B0004D30FB747D7405F099F9637E8342DED175
:1012C000227E9A42DED0E2690199A1EB020ABAF1CC
:1012D0000E0FD7D92376002B30D194F84530002B50
:1012E000D0D1012394F84C2084F84530A36C01330D
:1012F000A3647B62002A3BD094F84D3040F2011287
:1013000087F8109083F00103BA831F4A84F84D30A8
:10131000FB743A622046FFF77BFD384603B0BDEC14
:10132000028BBDE8F08FE26B90429DD0236C019957
:10133000CB1A132B94BF1046E06395E794F8453021
:10134000002B9FD0002384F84530A36C7B620123DF
:101350003B770E4B3B6295E7F0EE487A9FED087ABB
:10136000E0EE077AFCEEE77A17EE903A99B26FE773
:1013700040F20113BB83044B3B6283E70AD7A33DD2
:1013800000FF7F4700000000047201080C72010892
:10139000037833B3F0B58C4686460AE0192D98BF22
:1013A000FBB2192C98BFF2B2934214D11EF8013F40
:1013B0006BB11CF8012BA3F1410503F12007A2F149
:1013C000410402F12006002AE8D10120F0BD9CF87A
:1013D0000030002BF9D010F8013F002BDBD118466C
:1013E000F0BD1846704700BF274B0B4400EB83034A
:1013F0002DE9F041D3F80480B8F1000F19D001EBCA
:1014000041031746214A0D4600EB830304464E0074
:10141000995800292ADA73191D4A04EB8303995855
:10142000002916DA35441B4B04EB8504E1580029EA
:1014300001DABDE8F081BB8840469FED170A07EE50
:10144000903AF8EE677ABDE8F04187EE800A01F045
:101450001FBC7B8840469FED100A07EE903AF8EEDD
:10146000677A87EE800A01F013FCDBE73B88404691
:101470009FED090A07EE903AF8EE677A87EE800A48
:1014800001F006FCC7E700BF2E9C0100D0700600EB
:10149000D4700600D870060000FF7F472DE9F047A2
:1014A0000746884691469A4600250DE04946204663
:1014B000FFF76EFF58BBBAF1000F04D0514620462B
:1014C000FFF766FF18BB0135384601F043FBA84221
:1014D00026DD2946384601F03FFBB0FA80F6044687
:1014E0007609B8F1000F15D0A6B94146FFF750FFB5
:1014F00068B9B9F1000FD9D1BAF1000FE3D0002ECD
:10150000E1D151462046FFF743FF0028DBD02846B3
:10151000BDE8F087B9F1000FEED0002CD3D0C5E7BD
:101520004FF0FF352846BDE8F08700BF2DE9F84FA2
:1015300044F6A4390026054600F1080ADFF89C802D
:101540008144244F05F5CE24A8442F44C0E9006609
:10155000504601F053FC484601F068FD404601F05A
:101560008FFE384602F046F91B4BC4F8C88004F1E0
:10157000D00E9C4603F13C08C4F8CC7004F58A7781
:10158000C4F8BC60BCE80F00C4E930A9AEE80F00A5
:10159000BCE80F00AEE80F00BCE80F00AEE80F009B
:1015A0009CE807004FF0000ADFF834908EE807004F
:1015B00098E80300C4E9436687E80300284684F8F6
:1015C0002461C4F828A1C4F82C91C4E94766BDE899
:1015D000F88F00BF885706007C7101082857060065
:1015E0008888883BF8B500F10805002300F5CE2671
:1015F000A34AA449074628461C46FFF74FFFA24BC3
:10160000C6F8DC002846A14AA149FFF747FFC6F803
:10161000E00000E00134284601F09CFA0346214630
:101620002846A3426CDD01F097FA9A490028F1D0D0
:10163000FFF7AEFE0028EDD0D6F8DC30C6F8E44067
:10164000002B65DBD6F8E030002B6EDBD6F8E430FB
:10165000002B76DB44F6A4340023894A3C448949B4
:101660002046FFF71BFF8C4B8C4A8D49C6F8E800DB
:101670002046FFF713FF8B4BC6F8EC0020468A4A42
:101680008A49FFF70BFFD6F8E830C6F8F000002BC8
:10169000C0F28D80D6F8EC30002B7FDBD6F8F0302E
:1016A000002B72DB824C834B3C44834A83492046A7
:1016B000FFF7F4FE774B824A8249C6F8F4002046D1
:1016C000FFF7ECFE774BC6F8F80020467E4A7F49CC
:1016D000FFF7E4FED6F8F430C6F8FC00002B4BDB35
:1016E000D6F8F830002B3EDBD6F8FC30002B31DB8F
:1016F000002101220223C6E94012C6F80831F8BDD4
:10170000D6F8DC304FF0FF34002BC6F8E44099DA0D
:101710000021284601F088FA0028C0F2A780C6F808
:10172000DC00D6F8E030002B90DA0121284601F0E9
:101730007BFA002844DBC6F8E000D6F8E430002B42
:1017400088DA0221284601F06FFA002843DBC6F848
:10175000E4007FE70221204601F066FA00287ADBE8
:10176000C6F8FC00C4E70121204601F05DFA00281C
:1017700066DBC6F8F800B7E70021204601F054FA0E
:10178000002853DBC6F8F400AAE70221204601F046
:101790004BFA00283FDBC6F8F00083E70121204622
:1017A00001F042FA00282BDBC6F8EC0076E70021B6
:1017B000204601F039FA002818DBC6F8E80069E78E
:1017C000284601F0C7F901288CBF01204FF0FF30F7
:1017D000C6F8E000B1E7284601F0BCF902288CBF4A
:1017E00002204FF0FF30C6F8E40033E7204601F056
:1017F000B1F9B0FA80F040094042C6F8E80049E784
:10180000204601F0A7F901288CBF01204FF0FF30DE
:10181000C6F8EC0042E7204601F09CF902288CBF94
:1018200002204FF0FF30C6F8F0003BE7204601F001
:1018300091F9B0FA80F040094042C6F8F4004FE751
:10184000204601F087F901288CBF01204FF0FF30BE
:10185000C6F8F80048E7204601F07CF902288CBF62
:1018600002204FF0FF30C6F8FC0041E7284601F0A7
:1018700071F9B0FA80F040094042C6F8DC0050E748
:10188000287201082C7201083072010838720108B0
:101890004072010848720108907201089C720108A8
:1018A000A472010878720108AC720108B4720108D0
:1018B000285706005072010858720108607201082A
:1018C000687201087072010880720108887201084C
:1018D000F8B503682BB11D68BFF35B8F15F00102EB
:1018E00000D0F8BD197993F805C0B3F806E0D3E944
:1018F00001761B68BFF35B8F9D42F2D100F5CE24C9
:10190000D4F81C31AB42ECD00429C4F81C51C4E912
:10191000437655D9B4F8163184F80C21734508D1B3
:10192000D4F8181194F814318E4200D17BBB94F88E
:101930000C2194F82231934239D0BCF1000318BF36
:101940000123D4ED4A7A84F82221F5EEC07A84F896
:101950002331F1EE10FA05DD94F8201111B194F85D
:101960002111E1B3002184F8202184F82131C4F849
:10197000281102B18BB3002384F8243104F5867357
:1019800004F58A7493E8030084E80300F8BD114667
:101990004B1E154A032B0244C9D8FFF725FD94F8C6
:1019A0000C2194F8223194F80DC19342C5D1BCF1B9
:1019B000000394F8231118BF01239942C1D1DDE738
:1019C000B4F816317345E3D1D4F8182194F81431E2
:1019D0009642DDD18B42AAD0DAE70223CCE701237D
:1019E00084F82431CAE700BF0E71060000F5CE204E
:1019F00090F82431012B13D0022B00D07047D0ED8A
:101A00004A7AB7EE007AD0ED4B6A77EEA67AF4EE1A
:101A1000C77AF1EE10FA0FDB002380ED4A7A1BE063
:101A2000D0ED4A7A002390ED4B7A77EEC77AF5EE47
:101A3000C07AF1EE10FA02D9C0ED4A7A704790F8F8
:101A4000222190F82311C0F8283180F8202180F855
:101A5000211102B119B1002380F82431704702230B
:101A6000FAE700BF2DE9F84F0646884691461F4623
:101A70002DED028BFFF72CFF706820B13A46D8F8A5
:101A8000001000F0A7FA002F71D0002506F5CE2A2D
:101A90000FE0DFED397AB4EE678AF1EE10FA37FE27
:101AA000888A0135304684ED008AFFF79FFFAF42F8
:101AB0005DD09AF820214FEA850B304CD8F80030E1
:101AC000144403EB850306EB840493ED008A6468F9
:101AD000002A44D0002C42D09AF8213113B19AF850
:101AE0002431E3B32368B0EE480A2046DB68984708
:101AF000204601F00BF92046F0EE408A01F00AF989
:101B000038EEC87A9AED4A6AF0EE487ADFED1C6A40
:101B1000D9F80030E6EE077A5B44F4EEE67AF1EEAF
:101B200010FA21D49FED147AF4EE477AF1EE10FA10
:101B300077FE277A30EE480AC3ED007A9AED4A7AAA
:101B4000DFED0F7AA7EE008AD9F804405C44B4EECA
:101B5000E78AF1EE10FA9CD5B0EE678AA1E7B0EE05
:101B6000480AF0EE488ACBE7F0EE667AE2E7BDEC91
:101B7000028BBDE8F88F00BF3333733F2E9C01000A
:101B8000333373BF2DE9F04144F6A437044600F126
:101B900008082A4E07442A4D26442DED028BB0EE4C
:101BA000408AC0E90012404601F05CF9B0EE480AF4
:101BB000384601F075FAB0EE480A304601F08EFB67
:101BC000B0EE480A281901F067FE4046012100F0F6
:101BD00051FE0121384600F04DFE0121304600F053
:101BE00049FE0121281900F045FE2046FFF7FAFCC6
:101BF000204604F5CE24FFF76BFE94F80D3194F8DF
:101C00000C21003B84F8202118BF012384F82221F5
:101C100084F8213184F8233102B133B10023BDECC3
:101C2000028BC4F82831BDE8F0814FF07E53BDEC43
:101C3000028BC4F82831BDE8F08100BF28570600A8
:101C400088570600002ADFEDC07A2DE9F8430746E1
:101C50001C462DED028BB0EE408A08DD0B4601EBF1
:101C60008205B3EC017AAB4277EE877AF9D107EEC1
:101C7000102AB64D501EDFEDB45AB8EEC77A6FF099
:101C80000308DFF824E305F580592E4687EE876ABE
:101C90004246AF4B08F10408DFEDAE6A9FEDAA7A29
:101CA00001E0F3EC016A002A8C4605DB824294468F
:101CB000A8BF844601EB8C0CDCED007A734502F181
:101CC000010277EEC67AA7EEA67AEAD1A6EC017AEF
:101CD0004E45E7EE075ADBD1DFED9F7A25EEA70AE6
:101CE000B5EE400AF1EE10FA00F12981F1EEC07A6A
:101CF0009FED9A7AD7ED086AF4EEC77AF1EE10FA02
:101D000007DD9FED977AF4EEC76AF1EE10FA00F363
:101D1000CF809FED947ADFED945A27EE877A9FED7E
:101D2000936AF4EEC67AA6EEA57AF1EE10FA87ED84
:101D3000087A00F1AE80002140F2F4628C4801265E
:101D400013F0FAFF8B484FEA450C8B4907460CF518
:101D5000805CACEB01022B469FED7B7AF3EC017AC1
:101D6000F2EC016A8B4277EEE67AA7EEA77AF5D11C
:101D7000013640F2BD12191FA7EC017A9642E8D154
:101D80007E4D4FF07E53DFED707A2A467C4942F853
:101D9000043B0123F0EC016AB7EE007A9FED796A0B
:101DA00077EEA67AF4EEC67AF1EE10FA07DD07EECA
:101DB000103AB8EEC77A67EE266A86EEA77A8142B5
:101DC00003F10103A2EC017AE4D1B5EEC08AF1EE91
:101DD00010FA63D59FED6C7A6C4A0C2302E0013354
:101DE0008B4256D0F2EC017A40F2BD11F4EEC77A84
:101DF000F1EE10FAF3D505EB830209E0D2ED017A9A
:101E0000B2EC017AF4EEC77AF1EE10FA66D50B4621
:101E1000B3F5DE7F03F10101F0DBDFED4B7A07EE76
:101E2000103AF7EE006AB8EEC77A77EE277AF4EE4A
:101E3000E67AF1EE10FA2CD9DFED555AB3EE0B6AC3
:101E400085EEA77AB4EEC67AF1EE10FA21D4DFED72
:101E5000517AB4EEE77AF1EE10FA1ADC05EB83035F
:101E600084ED007AD3ED007A76EEE77AF5EEC07A6B
:101E7000F1EE10FA5DD4F4EE667AF1EE10FA76FE29
:101E8000A77A0A9B0120BDEC028BC3ED007ABDE866
:101E9000F883BDEC028B0020BDE8F883F7EE007AF2
:101EA000B4EEE78AF1EE10FA11DD9FED3B7A93E78D
:101EB00087EEA67A9FED396AB4EEC67AF1EE10FA93
:101EC0007FF727AFFB6A0B9A13447B6221E7DFEDB4
:101ED000347A9FED2D7AA8EE677A7DE705EB8302D1
:101EE000B0EE005ADFED2F5A52ED016AB0EE666A8D
:101EF00097EE056A36EE676AB0EEC67AB4EEE57A1A
:101F0000F1EE10FA89D476EEE77AF6EE006AFEEE8C
:101F1000005A27EEA67AC7EE067AF4EEE57AF1EEDD
:101F200010FA09D4F4EE667AF1EE10FA76FEA77A8A
:101F300075E7DFED057AA4E7F0EE657A6FE713F059
:101F400071FEF0EE407AD3E6000000000060003041
:101F50002C730108F1F0F03C0000803AA69B443C51
:101F6000BD3786359A99193E9A99593F0AD7233C2D
:101F70000050003004500030FC6F00300040003052
:101F8000F45600305F708930AE47613E304000301B
:101F900000803B4600007A44CDCCCC3D3333D33F68
:101FA0008FC2F53DCCBC8C2B4C7301080022C0E9DC
:101FB0000022704710B54FF4004204460021044847
:101FC00013F0BAFE00232360BFF35B8F636010BD84
:101FD00000700030036830B492B19C18094DC3F30F
:101FE0000C02013351F804CB05EB8202A342C2F884
:101FF00000C0F4D10460BFF35B8F446030BC704715
:102000001C46F7E700700030531EB3F5805F03D223
:10201000B1FA81F35B0909B90020704770B502F588
:1020200080754668BFF35B8FB5421CD8A6F58076F5
:102030008C460E4D1946B41A0B19013141F6FF7E3C
:10204000C3F30C038A4205EB83031B684CF8043B83
:10205000F2DC4368901BBFF35B8F184470458CBF64
:102060000020012070BD002070BD00BF0070003056
:102070000022002110B478248161C161C462016230
:102080005DF8044B80F83020C0E90022C0E902224C
:10209000C0E90422C0E90922704700BF00230022E2
:1020A0007831036043608360C36003614261836190
:1020B000C361036280F8302010B47824C0E90912AB
:1020C000C4625DF8044B7047B5EEC00AF0B5F1EE9E
:1020D00010FA15462DED028B83B044D9DFED267A38
:1020E00004460E469FED258A80EE270A244F13F002
:1020F00095FA2046234B3146234EF2EE087AA0EEA5
:10210000278AF8FE487AFDEEE77A17EE904A83FBBD
:1021100004234FEAE47C1D4ACCEB630C0CEB4C032C
:102120000CF1FF3CA4EB8303CDF800C00C33A6FBFD
:10213000036C4FEADC0C0CEB4C0CA3EB8C0357F854
:10214000233013F039FF07EE904A9FED117AF8EE35
:10215000E77A38EE678A28EE078A85ED008A03B0B1
:10216000BDEC028BF0BD00270A4A13F025FF2F605B
:1021700003B0BDEC028BF0BD0000DC4300008A42DE
:10218000F8720108ABAAAA2AABAAAAAAC0720108CF
:102190000000C842BC720108D0ED006AD0ED017A9F
:1021A00090ED020AF4EEE76A90ED037A90ED046A8E
:1021B000F1EE10FA05DDF0EE665AF0EE676AF0EE29
:1021C000657AB4EEC67AF1EE10FA33DCB4EEC60AE4
:1021D000F1EE10FA05DDF0EE405AB0EE460AB0EE30
:1021E000656AB4EEC70AF1EE10FA30DCF4EEC76AA5
:1021F000F1EE10FA05DDF0EE665AF0EE476AB0EE49
:10220000657AF4EE406AF1EE10FA36FE800AF4EEDA
:10221000467AF1EE10FA76FE277AF4EE477AF1EE7E
:1022200010FA77FE277AF4EE407AF1EE10FA37FED4
:10223000800A7047B4EEC70AF1EE10FA0FDDF0EE37
:10224000405AB0EE470AB0EE467AB0EE656AF4EE58
:10225000C06AF1EE10FA0EDDB0EE667AD7E7F0EE66
:10226000475AB0EE467AB0EE656AB4EEC70AF1EEB0
:1022700010FABBDDEBE7F0EE475AB0EE407AB0EE75
:10228000650ABEE7F0B50D461146954A04460020A2
:10229000166895F830202DED028B206185B02682DE
:1022A000360CB0EE608A0C9FA674C4E90000C4E945
:1022B0000200C4E905002AB1AA6ABA1AB2F5966FFB
:1022C00000F2AE80B5EEC01A00220292F1EE10FAD2
:1022D00003921AD4F7EE007AB4EEE71AF1EE10FA90
:1022E00040F38580C822EA6299B96B6A00229F4256
:1022F000A26180F0888095F83030002B40F0A180FA
:10230000204605B0BDEC028BF0BD3C22EA620029FC
:10231000EBD0B3F5805FE8DB1A4603AB28460197A4
:10232000009302ABFFF78EFC6B6A9DED020ABB4285
:1023300084ED060ADFD8002865D095F83020002A01
:1023400040F094809DED035A6B682B60AB686B6026
:10235000EB68AB602B6985ED040AEB606B69042BBD
:1023600000F3B7800133052B6B6100F0B280B5EE4E
:10237000C08AF1EE10FA00F1A980F7EE007AB4EE0F
:10238000E78AF1EE10FA00F3A8809FED567ADFEDB0
:10239000567AE8EE077A3AB195ED067A70EE476A1A
:1023A000A6EEA77AB0EE470ADFED507A85ED060A71
:1023B000B4EEE75AF1EE10FACCBF0123002305DD9D
:1023C000012285ED070AAF6285F8302004F1100084
:1023D00004F10C020821237084ED010A84ED025AF5
:1023E000FFF772FE204605B0BDEC028BF0BDF6EEA5
:1023F000007A9FED3F7AE1EE077AFCEEE77A17EE7E
:10240000902A3C3282E7002295F830302270002B6F
:102410004CD100232046A36005B0BDEC028BF0BD7B
:1024200000226861A8622A606A60AA60EA602A6184
:10243000AA61EA612A6207F1780285F830006A62CF
:1024400040E7002095ED070A4FF07A5304F10C02A3
:102450002070082104F1100084ED010AA360FFF749
:1024600033FE204605B0BDEC028BF0BDD5ED077AFA
:10247000DFED206A80EE277AB4EEE67AF1EE10FA0C
:1024800007DCDFED1D6AB4EEE67AF1EE10FA7FF5B7
:1024900059AF9DED035A9FED197AB4EEC75AF1EE8C
:1024A00010FA7FF551AF0023237001E0D5ED077AD4
:1024B000134BB0EE670A04F10C02082104F110007E
:1024C000A360C4ED017AFFF7FFFD19E7DFED067A9F
:1024D00061E72846FFF760FE49E7DFED0A7A5AE731
:1024E000BC72010814AEC7BE6666E63ECDCCCC3EDB
:1024F00000000C439A99F93FB81E053F6666663F97
:10250000CDCC4C3E90C2753D0022C0E90022704700
:1025100010B50C4A88B001230021B2F800C04FF476
:10252000E134039306930491029101A905939388E2
:102530000794ADF804C0ADF8063006F015F808B001
:1025400010BD00BFC071010810B588B00B460A4A23
:1025500020210446684613F02FFD6846FDF7C0FEB3
:102560000A2302466946204606F068F810B16368FF
:102570000133636008B010BD4C73010891ED007A1F
:10258000B5EEC07A30B5F1EE10FA9DB0044640D4F5
:10259000F7EE007AB4EEE77AF1EE10FA40F39980A4
:1025A00091ED017A42F21073B5EEC07AF1EE10FAB5
:1025B00037D5002091ED027AB5EEC07AF1EE10FA2F
:1025C0003FD4F7EE007AB4EEE77AF1EE10FA5CDD74
:1025D00091ED037A42F21075B5EEC07AF1EE10FA81
:1025E00037D5002260210292434ACDE9000504A8B4
:1025F00013F0E2FC04A8FDF773FE0A23024604A9C7
:10260000204606F01BF810B16368013363601DB00B
:1026100030BD002391ED017AB5EEC07AF1EE10FAEB
:10262000C7D4F7EE007AB4EEE77AF1EE10FA3EDDA9
:1026300091ED027A42F21070B5EEC07AF1EE10FA26
:10264000BFD5002591ED037AB5EEC07AF1EE10FA10
:10265000C7D4F7EE007AB4EEE77AF1EE10FA02DDB5
:1026600042F21072BEE7F6EE007ADFED246A42F223
:102670001071E7EE267AFDEEE77A17EE902A8A428D
:10268000A8BF0A4622EAE272ACE7F6EE007ADFED76
:102690001B6A42F21072E7EE267AFDEEE77A17EE39
:1026A000905A9542A8BF154625EAE575CAE7F6EEA9
:1026B000007ADFED126A42F21072E7EE267AFDEE42
:1026C000E77A17EE900A9042A8BF104620EAE07021
:1026D00070E7F6EE007ADFED096A42F21072E7EE7B
:1026E000267AFDEEE77A17EE903A9342A8BF13469A
:1026F00023EAE3738EE700BF5473010800401C46D1
:1027000010B514469AB01A460B4600946021044650
:10271000019202A8084A13F04FFC02A8FDF7E0FD61
:102720000A23024602A9204605F088FF10B163681B
:10273000013363601AB010BD6473010891ED017A32
:10274000B5EEC07A10B5F1EE10FAA4B0044653D439
:10275000F6EE007ADFED296AE7EE267AFDEEE77AFB
:1027600017EE900A9FED266AF6EE006A91ED037A65
:10277000FEEE007A27EE067A91ED026AB5EEC07A97
:10278000F1EE10FAB5EEC06A66FEA77A77EE877AA8
:10279000F1EE10FAFDEEE77A09D4B7EE007AB4EE66
:1027A000C76AF1EE10FA1EDD4FF47A7300E00023E1
:1027B000CDED027A009004A8039311F8103B114A62
:1027C0000191802113F0F8FB04A8FDF789FD0A238D
:1027D000024604A9204605F031FF10B163680133B9
:1027E000636024B010BD9FED057AE6EE076ABDEE8A
:1027F000E67A17EE103ADBE70020B3E700007A44F0
:102800000000C842707301080B4A002300B512682B
:1028100089B04FEA124C01A9059301930493ADF8D6
:1028200014208DF816C0CDE90233CDE90633FFF749
:1028300085FF09B05DF804FBBC72010880ED080A51
:10284000704700BF80ED050A80ED060A704700BFA3
:1028500080ED050AC0ED060A704700BF037FF7EE62
:10286000007A9FED030A002B00FE270A704700BF85
:102870000000000001777047704700BF704700BF3D
:10288000704700BF10B5044B0446C068236008B110
:1028900012F075FD204610BDA073010810B5064B5F
:1028A0000446C068236008B112F069FD2046242167
:1028B00012F063FD204610BDA073010838B5044630
:1028C000C0680D4618B112F05AFD0023E360002DD8
:1028D00002DC0023A36038BD2846A56012F051FD3C
:1028E000A368E060002BF6DD00210B4608E09CF8B1
:1028F0001020C2540133A2681C319A42EBDDE0681B
:10290000226902EB010C002AF1D1C254F2E700BFA8
:102910002DE9F04F95B01746013B0D461E9C0990DE
:10292000B4F90620B4F90400002A069320EAE07006
:10293000B4F90230B4BF561C16460593A0F1090342
:102940007610B4F900C01BB29642314623EAE37315
:102950001FFA8CFCA8BF1146921B092812B221EA6B
:10296000E17AA8BF0920092B22EAE272E280BDF8D1
:1029700014201144A2F1050261801946A8BF092163
:1029800002EB6A02002FA3EB01030A910CEB00019A
:1029900096B20FFA82F88AB20C920AB208929AB2F0
:1029A0001BB20B92079345DDACF1020C0CEB6000FF
:1029B000031D02B20FFA83FB0D9293453ADB06F139
:1029C0000902012128465B4612B200922A68019151
:1029D0005946D2F818904246C847721C28464FF014
:1029E000070912B25B462546013B0D991FFA82FB8F
:1029F0001BB21FFA89F999421ADC0BEB0901012479
:102A0000A9F1020909B20FFA89F90091016829EACE
:102A1000E97901948C691946CDE90E03A0470D9B15
:102A20000BF101020E9819460F9B12B29942DBD1AD
:102A30002C460546069BBB4240DD0C9B0B9A023B95
:102A40001A4413460A9A03EB62031FFA83F91BB276
:102A500009F1050212B2934230DA06F109010120B0
:102A60004246A9EB060909B24FF007080091296810
:102A7000019028468F691946B847721C053612B274
:102A800036B297B2B2421FFA88F807EB09031BB2BD
:102A900014D008EB0701012009B2009129680190C8
:102AA0002846D1F818B01946D847A8F102037A1C75
:102AB0001BB212B2002B23EAE378E2DC099B4FF051
:102AC00000084FF0010910AE5A6829462B6812A879
:102AD000DF6A089BADF846A0ADF84030059B009634
:102AE000ADF84230079BCDE90189ADF844300D4B7C
:102AF000B8472B68294612A8DD6A0096094BCDE934
:102B000001892288ADF840206288ADF84220A28871
:102B1000ADF84420E288ADF84620034AA84715B036
:102B2000BDE8F08F500200248473010810B4074CF4
:102B3000002200210460064C4161446081615DF81F
:102B4000044B02770261C0E902227047A0730108BA
:102B500088730108007A7047C3685BB1002909DBFC
:102B600083688B4206DD036923B1C1EBC10153F8D1
:102B7000210070470048704790730108C36873B123
:102B800000290CDB8268914209DA5B5C9FED057AD3
:102B900007EE903AF8EE677A87EE870A70479FED66
:102BA000020A70470000FE42000000000029C268CF
:102BB00032DB8AB3836899422EDA036963B3C1EBCF
:102BC000C10003EB80031879032825D19B68581CAA
:102BD00022D007EE903A9FED115A525CF8EEE75A78
:102BE000DFED0F7A07EE102ADFED0E6A85EE256A1B
:102BF000B8EEC77A37EE277AC7EE067A77EEA67A6E
:102C0000FDEEE77A17EE900A01300128B8BF0120E7
:102C10009842A8BF18467047012070470000004343
:102C20000000FC3E0000003C0369A3B110B48468BE
:102C3000002C0BDD002002E00130A04206D05A69D2
:102C40001C338A42F8D15DF8044B70474FF0FF30D7
:102C50005DF8044B70474FF0FF30704730B5C468E3
:102C600084B100290EDB85688D420BDD150609D481
:102C700014F801E0964505D062540368034ADB6A04
:102C8000934200D130BDBDE8304018477D28000890
:102C9000B5EEC00AF1EE10FA2CD4F7EE007AB4EEDD
:102CA000E70AF1EE10FA22DC002930B5C4681DDB1A
:102CB000E4B18568A94219DA9FED117ADFED117A46
:102CC000E0EE077AFCEEE77A17EE90CA1CF0800F70
:102CD0005FFA8CFE0AD114F801C0F44506D004F85E
:102CE00001E00368084ADB6A934206D130BD7F22C7
:102CF000FFF7B4BF0022FFF7B1BFBDE8304018476F
:102D00000000FE423333B33E7D28000890ED050AF3
:102D1000704700BF90ED060A704700BF034B10B527
:102D200004460360FFF7AEFD204610BD9474010811
:102D3000064B10B504460360FFF7A4FD44F69C3132
:102D4000204612F01AFB204610BD00BF9474010803
:102D50002DE9F041044682B0002104F58045FFF7DB
:102D60000DFF2046012105F6883305F68C3805F560
:102D7000396705F6943683ED000AFFF7FFFE20461B
:102D8000022188ED000AFFF7F9FE05F6843304F509
:102D9000974220EE000A93ED007A2046D2ED007AA9
:102DA000032105F6983537EE677AE0EE077AC7ED2E
:102DB000007AFFF7E3FE0421204686ED000AFFF7C4
:102DC000DDFEF0EE407A04F1240098ED000AC5ED36
:102DD000007A019012F08AFA97ED000A019812F039
:102DE0004BFA96ED000A019812F02AFA95ED000AC6
:102DF000019802B0BDE8F04112F0A8BA38B5044617
:102E0000FFF794FE134A4FF07E5104F580431248B9
:102E1000226004F59742114D116003F68432106070
:102E2000002203F68830026003F68C30026003F55E
:102E30003960016003F6943103F6983320460A6046
:102E400005211A60064B65602361FFF737FD2046B8
:102E500038BD00BF947401080000A041D073010880
:102E60000074010838B52DED028BB0EE408A05469E
:102E7000FFF7E4FC002405F12400B0EE480A11F04D
:102E8000D1FF2B68214601342846DB6A9847052C80
:102E9000F7D1BDEC028B38BD30B5044644F6883519
:102EA0002DED028B83B02544FFF7CCFC04F1240008
:102EB00094ED050AB7EE008A019012F07DF80198B2
:102EC00012F0B2F995ED007AD4ED056A78EE477A02
:102ED000019867EEA67AE0EE077AC4ED057A12F063
:102EE000A9F9D5ED007A94ED067A38EE678A28EED6
:102EF000078AA0EE278A84ED068A03B0BDEC028B18
:102F000030BD00BF10B5036882B00446DB68CDED6C
:102F1000010A9847DDED010A94ED050A2046FFF706
:102F200097FC04F1240012F085F944F68833F7EE9B
:102F3000007AD4ED066A234493ED007A77EEC77ADF
:102F400067EEA67AE0EE077AC4ED067A02B010BD0D
:102F500038B50C460546FFF781FC012C00D038BD82
:102F600044F688332B44D3ED007A20EE270A38BD8F
:102F7000034B10B504460360FFF784FC204610BDE8
:102F80003C750108054B10B504460360FFF77AFC59
:102F90000349204612F0F1F9204610BD3C750108A6
:102FA000840B0600F8B500F5C0240021054604F6A0
:102FB000683604F678372DED028B96ED008AFFF720
:102FC000DDFD04F66C3396ED007A01212846D3ED41
:102FD000007A04F67C3677EEC77AA0EE278A87ED72
:102FE000008AFFF7CBFD04F53763F7EE007A022184
:102FF00093ED007A04F6743304F53864284637EE0E
:10300000C00AD3ED007A77EEC77A20EE000AA7EE69
:10301000807A86ED007AFFF7B1FD84ED000A3B6807
:10302000BDEC028B6B623368AB62F8BD10B5044631
:10303000FFF77CFD144A4FF07E5004F5C02313497E
:10304000226003F66832116003F66C32106003F5FB
:1030500037620F48106003F674300E4A026003F6C0
:103060007830016003F67C31002003F538630A6094
:10307000094A0A4918602046616003212261FFF76E
:103080001DFC204610BD00BF3C7501089A99193FF0
:103090000000164400007A46E0740108C474010878
:1030A00038B52DED028BB0EE408A0546FFF7C6FB22
:1030B000002405F12400B0EE480A01F0C5F92B68A0
:1030C000214601342846DB6A9847032CF7D1BDEC32
:1030D000028B38BD10B5044686B0FFF7B3FB6069BC
:1030E00003AAA16902AB009205AA049004F124008E
:1030F000059104A901F014FA0E4BF7EE007A9DED4C
:10310000047A23449DED055ADDED025AD3ED006AA1
:103110009DED036A77EEE67A27EE877A67EE857A89
:10312000A6EEA57AE6EE867A84ED057AC4ED067AF7
:1031300006B010BD800B060010B504462DED028BC5
:1031400086B0B0EE408AF0EE608AFFF781FB6169DD
:1031500003A8A26902AB009004F12400049104A921
:10316000059205AA01F0DCF90D4BB7EE007ADDED12
:10317000025A23449DED036AD3ED006A77EE667A26
:1031800027EE888A67EEA87AA6EEA58AE6EE867A0A
:1031900084ED058AC4ED067A06B0BDEC028B10BD45
:1031A000800B0600FFF75ABB034B10B504460360C3
:1031B000FFF768FB204610BDE8750108054B10B508
:1031C00004460360FFF75EFB6021204612F0D5F84D
:1031D000204610BDE875010810B5044600212DED0C
:1031E000028B90ED118AFFF7C9FC94ED117A012151
:1031F000D4ED127A204677EEC77AA0EE278A84EDC6
:10320000158AFFF7D3FC07EE900A02212046F8EE5C
:10321000E77A94ED138AC4ED167AFFF7AFFCD4ED8C
:10322000137A94ED147A04F1240037EE677AF0EE05
:10323000487AE0EE077AC4ED177AC4ED0C7A01F013
:10324000D3FAF7EE007AD4ED160AF4EEE70AF1EEBF
:1032500010FA10D4DFED097AF4EE670AF1EE10FAF5
:1032600077FEA00AB0EE000A12F042FA84ED100ACE
:10327000BDEC028B10BDF0EE670AF3E700000042E0
:1032800038B50446FFF752FC0D494FF07E520D4809
:10329000A1640D490D4B2060E1644FF084416265EB
:1032A0000B480C4A0C4D60642046A1650321236540
:1032B000E36565602261FFF701FB204638BD00BF72
:1032C0000000A041E87501080000FA4300409C4658
:1032D0000AD7233C8C7501086C75010838B52DEDB3
:1032E000028BB0EE408A0546FFF7A8FA002405F1EC
:1032F0002400B0EE480A01F069FA4FF08F432B64C6
:103300002B68214601342846DB6A9847032CF7D105
:10331000BDEC028B38BD00BF10B504462DED028B0D
:10332000B0EE408AFFF78EFA94ED107AD4ED156A6C
:1033300028EE078AB6EEC88AC8EE077ABDEC028B83
:1033400067EEA67AC4ED057AC4ED067A10BD00BF1B
:1033500010B504462DED028BF0EE408AB0EE608A87
:10336000FFF776FAD4ED107A94ED156A68EEA78A25
:1033700028EE278AF6EEE88AC8EEA76AB6EEC88A73
:1033800088EE277ABDEC028B66EE866AC4ED056A8C
:1033900067EE067AC4ED067A10BD00BF0368DB68ED
:1033A000184700BF034B10B504460360FFF76AFAE5
:1033B000204610BD3C770108064B10B5044603605B
:1033C000FFF760FA41F63411204611F0D6FF20468F
:1033D00010BD00BF3C77010810B5044606290CD883
:1033E000DFE801F0263D4658616C0C00DFED557AB0
:1033F00041F614132344C3ED007A10BD0621FFF7F4
:10340000BDFBDFED517AB4EEE70AF1EE10FA09D414
:10341000B7EE007AB4EEC70AF1EE10FA40F38680F8
:10342000DFED4A7A41F624132344C3ED007A10BD40
:103430000021FFF7A3FBB5EEC00AF7EE007AF1EE2C
:1034400010FA06D4B4EEE70AF1EE10FA69DDDFED0A
:10345000407A41F618132344C3ED007A10BD0121D0
:10346000FFF78CFB41F61C13234483ED000A10BDCB
:103470000221FFF783FBB5EEC00AF1EE10FAB5D4D6
:10348000F7EE007AB4EEE70AF1EE10FA2FDDDFED89
:10349000317AADE70321FFF771FB04F12400BDE8A9
:1034A000104000F009BC0421FFF780FB014604F145
:1034B00024000139BDE8104000F0F8BB0521FFF7FA
:1034C0005DFBB5EEC00AF1EE10FA09D4F7EE007A12
:1034D000B4EEE70AF1EE10FA2DDDF0EE007A01E02D
:1034E000F8EE007A04F5C954C4ED007A10BDF3EE8D
:1034F000087ADFED196ABAEE087AA0EE277AF6EEBE
:10350000007AB5EEC07AF1EE10FAACBF77EE277A0A
:1035100077EE677AFDEEE77AF8EEE77A67EEA67A5D
:1035200066E79FED0E7AE0EE077A92E79FED077A65
:10353000E0EE077A76E7B1EE007AF8EE007AE0EE98
:10354000077ACFE7000096C4000000000000484260
:1035500000009643000096440000C8420080954356
:1035600070B545680446012D2DED028BF0EE408AC2
:1035700040F2A180037F90ED0A8A1BB1F6EE007A3B
:1035800028EE278A637F0BB1B1EE488AA669DFED8A
:10359000947A07EE106A9FED930AB8EE477A27EE09
:1035A000277A27EE000A12F037FAAB1EF0EE407AC7
:1035B00084ED050A012B00F20C81DFE803F00141E4
:1035C00094ED047A40F2AE41A268FCEEC76A8E42E6
:1035D00016EE903A02EB830393ED000A0DD8B7EE96
:1035E000007A013677EE677AB0EE407AA7EEA87AD5
:1035F00083ED007A94ED047AA661236A37EE088A97
:10360000013B84ED048A07EE903AF8EE677AB4EE57
:10361000E78AF1EE10FA40F3C0800023236194F8AA
:103620002430002B00F0A1802368012B40F09D8006
:1036300000220321134684F824206160A26156E031
:1036400094ED047AA268BCEEC77A2168022917EECD
:10365000103A02EB830393ED000A00F0AD800329DA
:1036600040F0A3809FED607A20EE077AA8EEA77A5B
:1036700083ED007A40F2AE439E4201D80136A66146
:10368000236AD4ED047A013B38EE278A07EE903A9C
:10369000F8EE677A84ED048AB4EEE78AF1EE10FA68
:1036A00040F38F8000232361012970D1022200237F
:1036B0006260A36159E086699FED497A07EE906ADE
:1036C0009FED480AF8EE677A67EE877A27EE800A60
:1036D00012F0A2F9012D84ED050A0DD0DFED437A39
:1036E0000022B0EE670A1346C4ED047A226284F821
:1036F0002530BDEC028B70BDD4ED047A40F2AE42B1
:10370000A36828EE807AFCEEE77A964217EE901ACC
:1037100003EB810383ED007A01D80136A661D4ED75
:10372000047AF7EE006AE368BCEEE77A013B77EED5
:10373000A67A17EE102A07EE103AC4ED047AB8EE16
:10374000477A2262F4EEC77AF1EE10FA1DDD77EEC9
:10375000E67A9FED267A0223B0EE470A84ED047ADA
:10376000FCEEE77A6360C4ED087A94ED047ADFED4D
:10377000207AB4EEE77ABDEC028BF1EE10FA4CBF82
:103780000123002384F8253070BD9FED180A002323
:10379000BDEC028B84F8253070BDB5EEC08AF1EE29
:1037A00010FAE2D5C4ED047A39E7B0EE407AA8EE1B
:1037B000A77A83ED007A5DE768EEA77AC3ED007A19
:1037C00058E7B5EEC08AF1EE10FAE0D5C4ED047A00
:1037D0006AE725F002059FED050A012DC5D1D6E760
:1037E0000E745A3ADB0FC93FF304353F0000000066
:1037F0000000964538B50446FFF798F9214B0021A3
:1038000020464FF4006204F5805540F8403B12F02A
:1038100093FA4FF40062002104F5046012F08CFA70
:103820004FF40062002104F5825012F085FA05F68B
:10383000141C4FF0000E144A4FF07C511348CCF882
:1038400000E005F6181C0023CCF8002005F61C1C2F
:10385000CCF8001004F5C95CCCF8001005F6241172
:10386000086005F6281120460A60094A0949C5F88A
:103870002C39A5F83039616007212261FFF71EF865
:10388000204638BD3C770108000016430000C841BF
:103890007076010818760108F8B50546224C45F601
:1038A000C05705F580562DED028BB0EE408AFEF72D
:1038B000C5FF1E4A0021204612F03EFA1C4A002194
:1038C0002046C6F8F048C6F8F47812F035FA3A46C1
:1038D000214600274FF07E5406F6E803C6F8EC7840
:1038E000B0EE480A86F80C79B6EE001AC6F80079F0
:1038F00005F12400A6F804799C6203233C46DFED21
:103900000D0AC6F8E83800F0F7F8C6F82C79A6F8E2
:1039100030792B68214601342846DB6A9847072C0A
:10392000F7D1BDEC028BF8BD000000C000770100AC
:10393000FC7601000000000030B5054605F5805416
:103940002DED028B83B0B0EE408AFEF77BFF94F83A
:10395000303953B9D4F82C39002B5ED045F6C0521B
:1039600093424FDC0133C4F82C3994F83139002BE1
:1039700040D004F6281304F618129FED527A05F190
:10398000240093ED001AD2ED007A04F6241201907F
:1039900077EEC17AD2ED001AA7EE871A83ED001AEE
:1039A00004F6141304F61C14D3ED000A05F5C953EC
:1039B00093ED000A00F094F9019800F083F9019862
:1039C000F0EE408A00F084F9B7EE007AD4ED006A98
:1039D00037EE667A67EE087AB0EE677AE6EE807ABE
:1039E000A6EEA87AC5ED067A85ED057A03B0BDECA2
:1039F000028B30BD41F6E800B0EE480A2844FFF7DC
:103A0000AFFDB6E70122D4F8EC3884F83029032B57
:103A100053D8DFE803F03B141E14D4F8EC28032A33
:103A200047D8DFE802F01E022B020222C4F8EC287D
:103A300094F80C29002A95D1C4F8002992E70223B2
:103A4000C4F8EC3894F80C39002B8ED1C4F8003946
:103A50008BE7D4F8E838012B25D00323C4F8EC38E1
:103A6000F0E704F6E8020021116100220121C4F808
:103A70000829A4F80429C4F8EC18D9E7D4F8E828F0
:103A8000012A13D00322C4F8EC28D1E704F6E80396
:103A90000021002219610123C4F80829A4F804298F
:103AA000C4F8EC38CEE784F80C395EE784F80C29CA
:103AB00058E70022C4F8EC28BAE70023C4F8EC3831
:103AC000C0E700BF17B7D13838B50D460446FEF73A
:103AD000C5FE012D00D038BD04F5805090F8313975
:103AE000002BF8D1DFED027A20EE270A38BD00BFA7
:103AF000000000000000000007EE902AF8EEE77AD0
:103B0000F8B500F5805700F5C654064607F63C03A5
:103B100006F11C052DED028B0160B0EE418ADFED50
:103B2000608A8260C4ED007A80ED010A41F63C00B3
:103B3000C3ED030A83ED010A3044B0EE680A11F0C8
:103B400043F907F64C03726841F64C00B0EE680A80
:103B5000C3ED038A5A60304411F036F907F65C036E
:103B6000726841F65C00B0EE680A83ED038A5A6021
:103B7000304411F029F907F66C03726841F66C00C5
:103B8000B0EE680AC3ED038A30445A6011F01CF9A4
:103B900094ED007AD6ED016AB0EE680A0024C6EE14
:103BA000877AC6ED067A0BE000EE104ABAEEEB0A11
:103BB000B7EEC00A20EE070BB7EEC00B11F02CFFDA
:103BC0000134A5EC010AB4F5007F9FED337BEBD106
:103BD00006F61C020123DFED327A05E077EE877AE4
:103BE000C2ED007A01330432591E9FED2E7AB1F5F1
:103BF000C07FF3D39FED2C7AB3F5007F77EEC77AC1
:103C0000C2ED007AEED141F21C020123DFED247AED
:103C1000324408E077EEC77AB3F5007FC2ED007A50
:103C20000DD001330432591E9FED1E7A7F29F1D841
:103C30009FED1D7A77EE877AC2ED007AF1E70023D7
:103C400006F5C451002207F698000B6007F68401C0
:103C500007F69C0406F5C5560B604FF07C51A7F89B
:103C60009028C7F8942801604FF07E50216007F635
:103C7000A40133600B6007F6AC010B6007F50B6124
:103C80000B6007F6B401BDEC028B0B6007F6B803BE
:103C9000186087F8BC28F8BD182D4454FB21094052
:103CA00000000000ABAA2A3B0000003C00F5805059
:103CB000C0F89418704700BF41F6A803034483ED91
:103CC000000A704700F5C55090ED000A704700BF2C
:103CD00041F6A403034493ED000A7047000000007E
:103CE0002DE9F84300F58054054604F67C0294F86B
:103CF000BC382DED048B80ED031AF0EE418AB0EE56
:103D0000408AC2ED001AB0EE609A4BB104F6AC03E3
:103D1000D3ED007AF4EE407AF1EE10FA00F0C181B2
:103D2000D5ED067A41F63C0704F6AC0304F6B4067A
:103D300068EE277A2F4441F65C0983ED008A384605
:103D4000B0EEE70AC6ED007A11F03EF8A94496ED10
:103D5000000A4846B0EEC00A11F036F8012384F894
:103D6000BC3804F50B63D3ED007AF4EE497AF1EE3A
:103D700010FA40F0E18104F6B803D3ED007AB7EE13
:103D8000007A04F6B40337EEC80A1B68F4EEC78A5B
:103D90002B61F1EE10FA07DBDFEDE36A95ED037AB4
:103DA000C6EE877A20EE270AB6EE008A41F64C0668
:103DB00085ED050A41F66C082E4420EE080AA84459
:103DC0003046B0EEC00A10F0FFFF95ED050A404600
:103DD00020EE080AB0EEC00A10F0F6FFD5ED047A26
:103DE0003846F5EEC07AF1EE10FA40F3788110F023
:103DF000FBFF95ED047A05F5C65704F62403484603
:103E0000B5EEC07AD7ED007A27EE800AF1EE10FA0F
:103E100083ED000A40F35C8110F0E6FF95ED057A32
:103E200004F62803D7ED007A3046B5EEC07A27EEC7
:103E3000800AF1EE10FA83ED000A40F35E8110F083
:103E4000D3FFD5ED037A04F61C039FEDBA6A404612
:103E5000D5ED016A67EE867A95ED057AB5EEC07A02
:103E600067EEA67AF1EE10FA27EE800A83ED000ADB
:103E700040F33C8110F0B8FFD5ED037A04F624033B
:103E8000DFEDAC6A05F5C45995ED017A67EEA67AC7
:103E900067EE877A27EE800AD3ED007A04F61C03DA
:103EA00093ED007A04F6280377EE877A99ED007A8D
:103EB00077EE877A93ED007A04F6840330EE077A82
:103EC000F5EEC07AD3ED006A05F5C15337EE267AD8
:103ED000F1EE10FA83ED000A03D5D7ED006A77EE14
:103EE000A67AB5EEC07AF1EE10FA03D5D7ED006AE6
:103EF00037EE267AF5EEC07AF1EE10FA00F107817E
:103F0000FCEEE77A17EE903AD7ED007AFCEEE77A0E
:103F100017EE902A002A00F0F7809A4203D8B3FBEC
:103F2000F2F102FB1133B5EEC07AC4F83438F1EE89
:103F300010FA00F1BD80FCEEC77A17EE903A9A4273
:103F400000F28781B3FBF2F102FB11323046C4F874
:103F5000382810F049FFF0EE408A404610F044FF48
:103F6000B0EE408AB7EEE89A9FED6B7BB4EEC79B4C
:103F7000F1EE10FA04D594F89038002B40F031811E
:103F80009FED677BB4EEC79BF1EE10FA02DD0123D3
:103F900084F89038B7EEC89A9FED5F7BB4EEC79B6C
:103FA000F1EE10FA04D594F89138002B40F0E5803A
:103FB00004F69C03D3ED006A9FED597BB4EEC79BDA
:103FC000F1EE10FA02DD012384F89138DFED577A23
:103FD00040F2FF11D4F8940828EEA70A28EE278AA9
:103FE000FCEEC07A17EE902AFCEEC87A8A4217EEF1
:103FF000903A28BF0A468B4228BF0B46002859D169
:1040000005EB8202296805EB830392ED077A04F63B
:104010002C02D3ED077AD4F8340804F5036301EBDE
:10402000800090ED006A26EE076A82ED006AD4F8FF
:10403000382801EB8201D1ED005A65EEA75AC3ED95
:10404000005AB7EE004B04F69803B7EEE67A05F592
:10405000C555B7EEE50A93ED005AB7EEC62A04F649
:10406000A40434EE477BB7EEC51A66EEA56A27EEC8
:10407000007B34EE414BB6EE003BE5EE066AA2EE65
:10408000047BF6EE005ABDEC048B66EEA56A27EEC3
:10409000037BB7EEC77B85ED007AC4ED006ABDE80F
:1040A000F88341F63C0741F65C090744814458E631
:1040B00000224BE7012850D0022800F0C48004F60B
:1040C0002C0204F5036392ED006AD3ED005AB8E7C1
:1040D00010F08AFEF7EE007A37EEC00A9EE610F086
:1040E00083FEF7EE007A37EEC00A82E610F07CFE1F
:1040F000F7EE007A37EEC00ABEE610F075FEF7EE76
:10410000007A37EEC00A9CE6C4F834281EE7002384
:10411000FAE600BFAFF300807B14AE47E17A843F3C
:10412000CDCCCCCCCCCCEC3F00007A440000004499
:10413000000096446F12833A5FED030AB0EE000A66
:1041400083ED009AC9EE200A11F0D2FA04F6B80302
:1041500083ED000AF0EE407A11E6296802F20622A9
:1041600003F2062305EB820205EB830392ED017A4D
:1041700004F62C02D3ED017A4DE711F08BFE07EE29
:10418000100A04F6A802B6EE006BBAEEE07A04F666
:104190007C0392ED005AB6EE003AD3ED007A04F6B5
:1041A0009C02B7EEC74A5FED1D3AB7EEC55A04F65A
:1041B000840367EEA37AD5ED013A34EE464B002135
:1041C00037EE437A67EEA37AA4EE056B67EE877A43
:1041D000F7EEC66BC2ED006AC3ED007A84F8911861
:1041E000EAE611F057FE07EE100A04F6A802B6EE52
:1041F000006BBAEEE07A04F67C0392ED005AB6EE5C
:10420000003AD3ED007A04F69802B7EEC74A5FEDA4
:10421000373AB7EEC55A002367EEA37AD5ED013AD7
:1042200034EE464B37EE437A67EEA37AA4EE056B85
:1042300067EE877AB7EEC66B82ED006AC9ED007A49
:1042400084F890389CE6296802F2064203F206439D
:1042500088E717EE902A79E68B6943F6095C90EDC2
:10426000056AB6EE004B002B9FED395AB8BF03F537
:1042700080330CFB03F310B403F1010C354C1FFA2F
:104280008CF31CF4004F04EB021C18BFA3F5803321
:104290001201DCED027A8B6186EE277AB7EEC77ADF
:1042A00037EE047BBDEEC77BD1ED037AF8EEE75A1B
:1042B000D1ED027A81ED077AF8EEE77AE5EE857ABC
:1042C000F0EE676AD1ED007AF8EEE77A77EEE67AFB
:1042D000F5EEC07AF1EE10FA0AD5D1ED016AF8EEEA
:1042E000E66A77EEA67AF5EEC07AF1EE10FAF8D427
:1042F000C7EE865A07EE903A2244DFED172A90ED7A
:10430000033AD2ED014A92ED005AF8EEE76ADFED8A
:10431000133AF8EEC77A5DF8044BB7EE007A66EE12
:10432000A46AB6EE004B66EEA26AA3EE265A75EEBC
:10433000C56AC6EEA75AA6EE257A27EE237AB7EE0F
:10434000C77A37EE047BBDEEC77B81ED047A7047F8
:10435000000080316C770108000000380000804DBB
:1043600038B5354BB6EE005B90ED037AB7EE022B15
:1043700003EB021390ED050ADFED300A002593ED03
:10438000034AD3ED017AB7EEC44A93ED006AB7EE63
:10439000E71A34EE054B2DED028BBDEEC44B9FEDBD
:1043A000288AF0EE464A4D610D60F8EEC46A81ED50
:1043B000064A9FED1F3B66EEA76A66EE886AE7EE47
:1043C000264AB7EEC66AA1EE026BB7EEC67B27EEB1
:1043D000007AB7EEC77A37EE037BBDEEC77BF8EE07
:1043E000C77A81ED017AE0EE647AFDEEE76AB8EE15
:1043F000E67AC1ED026A37EEC77A27EE207AB7EE89
:10440000C77A37EE057BBDEEC77B81ED037AFFF7F8
:1044100023FF4A680023AA420B6205DD0C46920086
:104420002946606A11F088FC0020BDEC028B38BD83
:1044300000000000008030406C7701080000804DD3
:1044400000000038000000002DE9F84330498046A4
:104450004FF07E5200232F48002408F5B27908F16E
:1044600024072D4E25462DED028BC8F8041001219E
:10447000B0EE408A88ED020A88ED050AC8F800000F
:10448000C8F80C20C8F81030C8F81820C8F81C303C
:10449000C8F8201001E09C4230DC09EB84032A4676
:1044A000394640467B620135FFF75AFF96ED015AC7
:1044B00096ED006AB7EE027BB7EEC55A082DB7EE4F
:1044C000C66A164B07F1280706F11006A5EE076B22
:1044D0009FED0D4BB7EEC67B27EE087AB7EEC77A95
:1044E00037EE047BBDEEC77B17EE102A04EB820487
:1044F000D1D10020BDEC028BBDE8F883BDEC028B6E
:104500000120BDE8F88300BF0000000000803040BB
:1045100000401C46EC51783F6C770108788201001E
:104520002DE9F8431F46036A002B2DED028B40F363
:104530003581D0ED017A814690ED077A0D4614461B
:10454000F4EE477AF1EE10FA40F0E58090ED061AAD
:104550004B46DFED9B7A09F5A07093ED117A283375
:10456000984277EE877AF8D1B5EE007AD5ED000A59
:1045700094ED000A4FF000089FED912A09F14C04D8
:10458000E7EE870AD9F82860A7EE870A4046F0EEE2
:10459000421AF0EE607A16E054F80C3C32EE272A0C
:1045A000013B002B44F80C3C40F39B8008F10108D0
:1045B000B8F1080F00F09F80666818F0010004F160
:1045C000280440FE807A14ED027AA4F1280154F800
:1045D000282C54F8043C77EEC77A03EB8203C3ED32
:1045E000007A54F8285C0135B542A8BFAD1B44F8E9
:1045F000285C54E90852B2F1805F06DB22F0704378
:1046000005EB22751A4644E90853B54202DBAD1B9F
:1046100044F8205CBFEE007A05EE102AF7EE005A4F
:10462000002DBAEEC25AB0EE476AF6EE004A75EEB9
:10463000255AA5EE056AF0EE087AA5EEA47A9FED5C
:104640005E3BB7EEC66A26EE036BB7EEC66B66EE50
:10465000277A77EE466AB0EE674A77EEC57A95EE2E
:10466000A44A78DDB31EAB4240F396806FF040461B
:1046700054F8043C2E4403EB8603D3ED004AD3EDFB
:10468000015A93ED023AD3ED033A65EEA77A54F856
:10469000183C14ED027A1344E4EEA67AF0EE656A53
:1046A00044F81C3CD9ED004AE3EE047AE3EE867A46
:1046B000E7EE856AF0EE477AE4EEE67A67EE817A15
:1046C000E4EEA67A44ED027A00287FF465AF54F850
:1046D0000C3C71EEA71A013B002B44F80C3C3FF751
:1046E00065AF424608F101084846FFF7B5FDB8F14D
:1046F000080F7FF461AFDFED337A00200A9B61EE93
:10470000A71A22EE272ABDEC028BC7ED001A83ED13
:10471000002ABDE8F8839FED2C7AC0ED077A67EE9A
:10472000877A90ED050A87EE800A10F049FEF0EED8
:10473000007ABFEE007A37EEC08AA8EE087AB5EEAE
:10474000407AF1EE10FA2ED4F1EEC77A38EE671AFD
:1047500089ED061AFCE66B1E33445D1C54F804CC4C
:10476000AE420CEB8303D8BFAD1BD3ED004A0CEB7C
:1047700085030135D3ED005AB542A8BFAD1B0CEB44
:1047800085030135B54293ED003AA8BFAD1B0CEB94
:104790008505D5ED003A78E76B1EDFE7BDEC028BAF
:1047A0000120BDE8F883B0EE470A11F03BFAF0EEC5
:1047B000407ACBE7AFF30080555555555555C53F69
:1047C000000000003333B33EDB0FC9404FF07C5391
:1047D0000021044A4160C2600361436180ED060A22
:1047E000704700BF0000C8429FED187AD0ED037AF1
:1047F00090ED060A67EE877A10B587EE800A0446C8
:104800002DED028B10F0DCFDF0EE007ABFEE007AA9
:1048100037EEC08AA8EE087AB5EE407AF1EE10FACB
:104820000ED4B1EEC70A38EE408AF7EE007A84ED76
:10483000058A77EEC87ABDEC028BC4ED047A10BD10
:10484000B0EE470A11F0EEF9EDE700BFDB0FC9400B
:10485000084604F00FB900BF143001F06DBA00BF74
:1048600038B500F1140504462DED028B284601F001
:104870001FFA284601F018FA2846B0EE408A01F0E7
:1048800001FAD0ED007AF8EE677A88EE277ABDEC6F
:10489000028B84ED0E7A38BD143001F005BA00BFEA
:1048A00038B500F1140504462DED028B284601F0C1
:1048B000EDF9284601F0F8F92846B0EE408A01F0FB
:1048C000E1F9D0ED007AF8EE677A88EE277ABDEC50
:1048D000028B84ED0E7A38BD253001F079BF00BF20
:1048E00010B540F203338EB000244FF60B7240F245
:1048F0000341ADF8083009A80123ADF81020ADF848
:1049000024202246ADF80C100094029907940C94D0
:10491000CDE90544CDE90A4401F082FD04A8012354
:1049200022460399009401F07BFD09A801F05EFE88
:1049300010B901200EB010BD04A801F057FEA0422E
:104940000CBF022020460EB010BD00BF2DE9F04183
:1049500003239AB0012700240646CDE914373B4BC8
:10496000CDE9104340F20453CDE91647ADF8483085
:10497000FFF7B6FFB842054625D0022845D040F6DD
:104980000132334B0DF12C081894ADF82C200B9804
:104990001997CDF84A3000F0E3F810A906F13C0071
:1049A00002F05EFE302003224FF07E5341460D930D
:1049B0000E93CDE90B02F26B06F1140001F02AF917
:1049C0001AB0BDE8F0811023214A06A906908DF89F
:1049D00028300DF12C081F4BCDF84A200793029484
:1049E000CDE91804CDE9080402A802F071F8082303
:1049F000029A03A94046ADF80C508DF80E4004957C
:104A000005930B9400F0ECF8C7E700200121104B50
:104A10000DF12C083A460094CDF84A304FF60B734E
:104A20000C94ADF82C302346CDE9180140F6013145
:104A30004046ADF818100699CDE90D4401F0F0FCA0
:104A40002146404601F0DEFDA7E700BF0402040452
:104A5000040604030704010B2DE9F04704462DED7D
:104A6000028B82B000294DD0012140F201120023B7
:104A70000091ADF804208DF80630364A0127364BF8
:104A800004F10409354904F12908626040F2027218
:104A9000A36040F60663E16004F1250AA4F825202E
:104AA000A4F82930278284F8277084F82B7004F04A
:104AB0007DF9054603F0E0FF6946064650BB4DB35D
:104AC00004F130008DF8067004F0F8F8072D3CD1A1
:104AD00004F114052046FFF739FF284601F0E4F8F9
:104AE0002846B0EE408A01F0CDF8D0ED007AF8EE1D
:104AF000677A88EE277A84ED0E7A02B0BDEC028BDD
:104B0000BDE8F08740F2011300918DF80610ADF872
:104B10000430B2E704F1300004F0D0F8072D11D0D2
:104B20004946204602F01CFA0EB9002DD0D150465D
:104B300001F072FD404601F06FFD04F1120000F03B
:104B400079F9C5E7002EF2D1C2E74946204602F0C6
:104B500007FABDE70508050905070506050A060663
:104B600010B584B003460124ADF8040003A8ADF8E5
:104B70000C30ADF80E4001F04FFD214603A801F0C6
:104B800027FE204603F076FF002103A801F020FE57
:104B9000204603F06FFF214603A801F019FE04B080
:104BA00010BD00BF10B5C2F3002384B00C46017CD9
:104BB0008DF80D2043EA4402FA2402238DF80C20DC
:104BC00003AA009402F01AF818B10124204604B098
:104BD00010BD04460A2003F04DFF204604B010BD6E
:104BE000034670B543F8042B044684B007C983E834
:104BF0000700A37983B91A210B461E22FA252374D4
:104C00002046ADF80C20022303AA009501F0F6FF20
:104C100028B1012004B070BD1B210B46EDE70A202E
:104C200003F028FF4FF4B85200950223ADF80C2092
:104C3000204603AA217C01F0E1FF0028E9D10A20E7
:104C400003F018FF41F2027200950223ADF80C2028
:104C5000204603AA217C01F0D1FF0028D9D10A20E7
:104C600003F008FF042200950223ADF80C20204633
:104C700003AA217C01F0C2FF0028CAD10A2003F058
:104C8000F9FE062200950223ADF80C20204603AA67
:104C9000217C01F0B3FF0028BBD10A2003F0EAFE1B
:104CA00041F2082200950223ADF80C20204603AA09
:104CB000217C01F0A3FF0028ABD10A20064603F0B7
:104CC000D9FE0095022303AA217C2046ADF80C6092
:104CD00001F094FF00289CD1304603F0CBFE0095F4
:104CE00022790C232046002A8DF80C3003AA4FF0BD
:104CF000020314BF622142218DF80D10217C01F0C6
:104D00007DFF002885D1304603F0B4FE2279D4E936
:104D100002310B43DBB20AB943F0400362790AB1B6
:104D200043F020030E22FA258DF80D302046009521
:104D300002238DF80C2003AA217C01F05FFF0028DC
:104D40007FF467AF0A2003F095FE1022009502233E
:104D5000ADF80C20204603AA217C01F04FFF00286B
:104D60007FF457AF0A2003F085FE1221009502233D
:104D7000ADF80C1003AA217C204601F03FFF00286B
:104D80007FF447AF0A2003F075FE01220921204677
:104D9000FFF708FF003818BF01203BE7F0B51023EC
:104DA00087B0234C012200250126002702A92046B6
:104DB0000195CDE902234FF48052CDE904670AF052
:104DC000ADFD642004F098FA02A94FF48052204609
:104DD000CDE9046702261027CDE902670AF09EFD9F
:104DE0000322102302A92046CDE902230023042236
:104DF000CDE904234FF480520AF090FD40F23223B3
:104E0000042202A9019310232046CDE90223019A2E
:104E1000012305924FF4805204930AF07FFD40F67F
:104E2000060120460AF09AFD284607B0F0BD00BFF3
:104E3000447606241C4B00221C494FF0400C30B530
:104E4000054689B00220596007219A601A62012440
:104E5000DA620A224FF4006EDC6006922022CDE96D
:104E6000000104200821CDE9020103201021CDE931
:104E7000040108206946C3E904024FF4C072181DFA
:104E8000C3E906C24FF48052C3E909E20AF01CFDEF
:104E900038B92846FFF782FF003818BF012009B053
:104EA00030BD204609B030BD407606244041005256
:104EB000614A0021D0B513688EB00A91002B40F0F2
:104EC000B9805E4B01214FF683700C2411600221E2
:104ED000D3F8D4200026032742F48052C3F8D4200C
:104EE000D3F8D42002F480520092009AD3F8E02044
:104EF00042F01002C3F8E020D3F8E02002F01002E4
:104F00000192019AD3F8E02042F04002C3F8E02079
:104F1000D3F8E02002F040020292029AD3F8E02097
:104F200042F00802C3F8E020D3F8E02002F00802C3
:104F30000392039AD3F8E02042F48072C3F8E02091
:104F4000D3F8E02002F480720492049AD3F8E020AF
:104F500042F08002C3F8E020D3F8E02002F08002A3
:104F60000592059AD3F8E02042F02002C3F8E02031
:104F7000D3F8E02002F020020692069AD3F8E0204F
:104F800042F00402C3F8E020D3F8E0300C9403F0C0
:104F9000040307930323079A0B93CDE9080108A99B
:104FA000274806F02FF848F23712022308A92548AF
:104FB0000C94CDE90823CDE90A6706F023F84CF2FA
:104FC0000372022308A920480C94CDE90823CDE9F7
:104FD0000A6706F017F840F2FF62022308A91B488F
:104FE0000C94CDE90823CDE90A6706F00BF84FF6DB
:104FF0000C72022308A916480C94CDE90823CDE9C8
:105000000A6705F0FFFF4FF63F02022308A9114887
:105010000C94CDE90823CDE90A6705F0F3FF2022BF
:10502000022308A90A480C94CDE90A67CDE90823B0
:1050300005F0E8FF0EB0D0BD3C76062400440258CF
:105040000010025800180258000C025800200258A4
:10505000001C0258001402582DE9F04FDFF81084AC
:1050600006460D46144608F118002DED028B89B056
:1050700000AF02F0EDFBD8F8183073B3D8F81C304D
:10508000D8F80490002B43690BBF4FF0080A4FF08B
:10509000100A4FF0020B4FF0040BB9F1000F2AD0A9
:1050A000A200EA46012B02F1070222F00702ADEB53
:1050B000020D6846ADEB020D694600F03F81022B00
:1050C00000F0D680002B6FD02246C847D546243743
:1050D000BD46BDEC028BBDE8F08FD8F81C30002B2C
:1050E000F5D0D8F804904FF0080A4FF0020B43694E
:1050F000B9F1000FD4D1FB61D8F80030BB61002BAF
:10510000E5D0D54802F016FC6B46BBF1020F786182
:1051100008EE103AFB6900F083816A465146A2EB23
:10512000C40295466200EA46B2FBFBF2AAEBC40059
:1051300085460AEB8200EE46F861ADEB010DF86999
:105140000EEB820CC7F810C0EC46ADEB010D00EB86
:105150008201CCF80400CCF8081001EB8201386918
:10516000E946CCF80C1000EB8201CCF800A001EB72
:105170008202C9E900E0C9E90212012B00F0648350
:10518000022B00F06C82002B00F0808162084946FF
:105190006046BB69984718EE103A24379D46BD46D5
:1051A000BDEC028BBDE8F08F002C8DD01A46D8EDF7
:1051B0000C6A9FEDB27A8446331D36F922E00CF179
:1051C000080C07EE90EA33F922E00232F8EEE77AB3
:1051D000944267EE877A67EEA67A4CED027A07EE84
:1051E00090EAF8EEE77A67EE877A67EEA67A4CEDFA
:1051F000017AE2D8F9612246C847984ED8ED0D6A87
:105200000020F9692B1D9FED9E7A9FED9E6ADFEDD0
:105210009E5A22E0F4EEC67AF1EE10FAC0F2C8848B
:1052200047F6FE72D1ED017A45F8202066EEA77AA6
:10523000F4EEC77AF1EE10FA40F2F080F4EEC67A9E
:10524000F1EE10FAC0F2D58447F6FE7243F8202042
:105250000230083184427FF639AFD1ED007A66EE34
:10526000A77AF4EEC77AF1EE10FAD3D83246D9E72E
:10527000002C3FF429AFD8ED0C6A84469FED787A74
:105280000022331D8E4656F822100CF1080C07EE52
:10529000901A53F822100232F8EEE77A944267EE41
:1052A000877A67EEA67A4CED027A07EE901AF8EE4E
:1052B000E77A67EE877A67EEA67A4CED017AE2D854
:1052C00071462246C7F81CE0C847664ED8ED0D6A05
:1052D0000020F9692B1D9FED6A7A9FED6A6ADFF85D
:1052E00094C120E0F4EEC67AF1EE10FAC0F27984AF
:1052F0003246D1ED017A45F8202066EEA77AF4EE29
:10530000C77AF1EE10FA40F28780F4EEC67AF1EE39
:1053100010FAC0F25E84324643F820200230083191
:1053200084427FF6D3AED1ED007A66EEA77AF4EE32
:10533000C77AF1EE10FAD5D86246DAE7002C3FF4CE
:10534000C3AED8ED0C6A86469FED477A4FF0000C4D
:10535000331D56F82C200EF1080E82F40002A2F53F
:10536000000207EE902A53F82C200CF1020CF8EE04
:10537000E77A82F400026445A2F5000267EE877ABC
:1053800067EEA67A4EED027A07EE902AF8EEE77AFB
:1053900067EE877A67EEA67A4EED017AD9D8F96181
:1053A0002246C847314ED8ED0D6A0020F9692B1D01
:1053B0009FED337A9FED336ADFF8BCC01FE0F4EE57
:1053C000C67AF1EE10FAC0F2FC833246D1ED017AD2
:1053D00045F8202066EEA77AF4EEC77AF1EE10FACF
:1053E00018D9F4EEC67AF1EE10FAC0F2DA8332463A
:1053F00043F820200230083184427FF667AED1EDB9
:10540000007A66EEA77AF4EEC77AF1EE10FAD6D8F3
:105410006246DBE76246EBE762467DE7324615E728
:10542000A100D6466208073121F00701ADEB010D5E
:10543000EA46ADEB010D6946ADEB0E0D0AEB8200BD
:10544000EC46ADEB0E0D01EB8202F861E946CCE9CA
:1054500000A0C9E9001290E6947606240280FFFFBE
:10546000000000300082FF7F0000003482FF7F00D8
:1054700078760624007E00807E0080FF00000038E1
:1054800004FF7FBF04FF7F3F00FEFF46002C00F0BB
:10549000C982BBF1020FD8F8242000F0FA827969A2
:1054A000C7F8049002EB810E5FED0C5A8A00DCF81D
:1054B00008100EF104007A611A46DCF80C303B61EA
:1054C000331DD7F810903D61FD69C7E902CB8C46CA
:1054D000834636F92210D8ED0C7A06EE101A33F90D
:1054E000221006EE901A3EF92210B8EEC66A07EEB8
:1054F000101AF8EEE66A3BF92210B8EEC77A26EEEB
:10550000256A66EEA56A27EE257A26EE276A66EEFC
:10551000A76A27EE277A07EE901A51080232F8EEB2
:10552000E77A0AEB8100944280ED006A05EB810086
:1055300067EEA57AC0ED006A0CEB810009EB8101F2
:1055400080ED007A98ED0C7A67EE877AC1ED007AEB
:10555000BFD8D7F804903D69D7E902CB604662080E
:10556000BB6949469847D8F82C307A69D8ED0D6A5E
:105570001A441FED3D7A1FED3D6A2B1D904602F146
:10558000040A5FED3F5A0022A84ED9E900EC51E031
:10559000F4EEC67AF1EE10FAC0F2C78247F6FE705A
:1055A00045F822000CEB0100D0ED007A66EEA77AF8
:1055B000F4EEC77AF1EE10FA4BD9F4EEC67AF1EEBA
:1055C00010FAC0F2BA8247F6FE70BBF1020F43F840
:1055D00022002BD0D9F808000844D0ED007A66EEFE
:1055E000A77AF4EEC77AF1EE10FA36D9F4EEC67A5D
:1055F000F1EE10FAC0F2CD8247F6FE7048F82200B4
:10560000D9F80C000144D1ED007A66EEA77AF4EEE9
:10561000C77AF1EE10FA1ED9F4EEC67AF1EE10FA5E
:10562000C0F2AF8247F6FE714AF82210023294426D
:105630007FF6B1AD51080EEB81008900D0ED007A04
:1056400066EEA77AF4EEC77AF1EE10FAA0D83046EB
:10565000A6E73046B9E73146E6E73046CEE7002C0C
:1056600000F0E081BBF1020FD8F8243000F0E181B6
:105670007A69DCF8081003EB820EC7F804909300F7
:10568000DFED6B5A0EF1040000227B61DCF80C3078
:105690003B61331DD7F810903D61FD69C7E902CB2E
:1056A0008C46834656F82210D8ED0C7A07EE101A75
:1056B00053F82210B8EEC76A07EE101A5EF82210EF
:1056C000F8EEC76A07EE101A26EE256A5BF822107C
:1056D000B8EEC77A66EEA56A26EE276A27EE257A27
:1056E00066EEA76A27EE277A07EE901A5108023273
:1056F000F8EEE77A0AEB8100944280ED006A05EB50
:10570000810067EEA57AC0ED006A0CEB810009EB21
:10571000810180ED007A98ED0C7A67EE877AC1ED11
:10572000007ABFD8D7F804903D69D7E902CB60462C
:105730006208BB6949469847D8F82C307A69D8ED99
:105740000D6A1A449FED3E7A9FED3E6A131D924604
:10575000DFF8E4C00022FB612B1D364ED9E9008E34
:105760004EE0F4EEC67AF1EE10FAC0F2FC8130465B
:1057700045F822000EEB0100D0ED007A66EEA77A24
:10578000F4EEC77AF1EE10FA49D9F4EEC67AF1EEEA
:1057900010FAC0F2EF813046BBF1020F43F822004D
:1057A0002AD0D9F808000844D0ED007A66EEA77A2E
:1057B000F4EEC77AF1EE10FA35D9F4EEC67AF1EECE
:1057C00010FAC0F2C98130464AF82200D9F80C001C
:1057D0000144D1ED007A66EEA77AF4EEC77AF1EED5
:1057E00010FA1ED9F4EEC67AF1EE10FAC0F2AD81CD
:1057F0003146F86940F82210023294427FF6CBAC71
:10580000510808EB81008900D0ED007A66EEA77A96
:10581000F4EEC77AF1EE10FAA3D86046A8E7604626
:10582000BAE76146E5E76046CEE700BF0280FFFFCA
:10583000000000300082FF7F007E00800000003406
:1058400004FF7FBF04FF7F3F002C00F0EB807A69EC
:105850000021D8F82430C7F8109003EB820ED7F857
:105860001C909300FD610EF104021FED0C6A7B6138
:10587000331D154656F821204808D8ED0C6ABBF1B7
:10588000020F82F40002A2F5000207EE902A53F8FC
:10589000212082F40002B8EEE77AA2F5000227EE9A
:1058A000067A07EE902A0AEB8002F8EEE77A27EEF6
:1058B000267A67EE867A82ED007A09EB80024FEA5B
:1058C000800067EEA67AC2ED007A27D05EF821202C
:1058D00082F40002A2F5000207EE902A55F821207A
:1058E00082F40002B8EEE77AA2F5000227EE067A0B
:1058F00007EE902ADCF80820F8EEE77A024427EE5B
:10590000267A67EE867A82ED007A98ED0C7ADCF8DA
:105910000C2067EE877A0244C2ED007A02318C4295
:10592000A8D8D7F8109060466208BB694946FD695F
:105930009847D8F82C307A69D8ED0D6A1A441FEDD3
:10594000407A1FED406A131D9246DFF8C4C2002260
:10595000FB612B1DAB4ED9E9008E4EE0F4EEC67A0A
:10596000F1EE10FAC0F2C580304645F822000EEB89
:105970000100D0ED007A66EEA77AF4EEC77AF1EE78
:1059800010FA49D9F4EEC67AF1EE10FAC0F2BF80EF
:105990003046BBF1020F43F822002AD0D9F80800A4
:1059A0000844D0ED007A66EEA77AF4EEC77AF1EEFD
:1059B00010FA35D9F4EEC67AF1EE10FAC0F2AE80E4
:1059C00030464AF82200D9F80C000144D1ED007AA3
:1059D00066EEA77AF4EEC77AF1EE10FA1ED9F4EE6D
:1059E000C67AF1EE10FAC0F28B803146F86940F8C1
:1059F0002210023294427FF6CEAB510808EB8100B0
:105A00008900D0ED007A66EEA77AF4EEC77AF1EE5F
:105A100010FAA3D86046A8E76046BAE76146E5E712
:105A20006046CEE7224649466046BB699847FFF785
:105A3000B2BBC7F810B0002298ED0C6A331DDFED41
:105A4000726AD7F81CB0786956F8221007EE901ADF
:105A500053F82210B8EEE77A07EE901A5108023296
:105A6000F8EEE77A27EE267A0AEB810E94420BEBEA
:105A7000810167EEA67A27EE067A67EE867A8EEDCA
:105A8000007AC1ED007ADFD88300D7F810B07B61CF
:105A90004DE61A46C7F810B098ED0C6A331DDFEDDD
:105AA0005B6AD7F81CB0786936F9221007EE101A35
:105AB00033F9221007EE901AB8EEC77A5108023275
:105AC000F8EEE77A27EE267A0AEB810E94420BEB8A
:105AD000810167EEA67A27EE067A67EE867A8EED6A
