:020000040800F2
:1000000000000220110A00080D0A000899A3000848
:100010000D0A00080D0A00080D0A00080000000083
:100020000000000000000000000000000D0A0008B1
:100030000D0A0008000000000D0A00081DA30008BA
:100040000D0A00080D0A00080D0A00080D0A000834
:100050000D0A00080D0A00080D0A00080D0A000824
:100060000D0A00080D0A00080D0A0008518F00084B
:100070005D8F0008D17C0008698F0008758F00082B
:10008000D19D0008818400080D0A00080D0A0008AF
:100090000D0A00080D0A00080D0A00080D0A0008E4
:1000A0000D0A00080D0A00080D0A00080D0A0008D4
:1000B000411C01084D1C0108591C0108B5840008A9
:1000C0000D0A0008C18400080D0A0008B1140108D7
:1000D000BD140108059C0008319C0008659C0008BF
:1000E0000D0A00080D0A0008000000000D0A0008B3
:1000F0000D0A00080D0A00080D0A00080D0A000884
:100100000D0A00080D0A0008651C0108C914010841
:10011000999C0008CD9C00080D0A00080D0A0008F3
:100120000D0A00080D0A0008ED1401082115010848
:10013000059E00080D0A00080D0A00080D0A0008B7
:1001400000000000000000000000000000000000AF
:100150000D0A00080D0A00080D0A0008019D00089C
:10016000CD8400080D0A00082DA3000851A3000843
:100170000D0A000875A300080D0A00080D0A000802
:100180000D0A00080D0A0008359D0008699D000849
:10019000D5140108E11401080D0A00080D0A000831
:1001A0000D0A00080D0A00080D0A00080D0A0008D3
:1001B000718C00080D0A00080D0A00080D0A0008DD
:1001C0000D0A00080D0A00080D0A00080D0A0008B3
:1001D0000D0A00080D0A00080D0A00080D0A0008A3
:1001E0000D0A00080D0A00080D0A00080D0A000893
:1001F0000D0A00080D0A00080D0A00080D0A000883
:100200000D0A00080D0A00080D0A00080D0A000872
:100210000D0A00080D0A00080D0A00080D0A000862
:100220000D0A00080D0A00080D0A00080000000071
:100230000D0A00080D0A0008000000000D0A000861
:100240000D0A00080D0A00080D0A00080D0A000832
:100250000D0A00080D0A00080D0A00080D0A000822
:100260000D0A00080D0A00080D0A00080D0A000812
:100270000D0A00080D0A00089D9D000800000000FE
:100280000D0A00080D0A00080D0A00080000000011
:08029000000000000D0A000847
:1002A00010B5054C237833B9044B13B10448AFF3B0
:1002B00000800123237010BDE8030024000000002B
:1002C0007C3D010808B5034B1BB103490348AFF35C
:1002D000008008BD00000000EC0300247C3D010804
:1002E000034613F8012B002AFBD1181A0138704776
:1002F00001F0FF01102A2BDB10F0070F08D010F8D7
:10030000013B013A8B422DD010F0070F42B3F6D1DA
:10031000F0B441EA012141EA014122F007047FF0F3
:1003200000070023F0E80256083C85EA010586EA4A
:10033000010685FA47F5A3FA87F586FA47F6A5FA86
:1003400087F68EB9EED1F0BC01F0FF0102F0070292
:1003500032B110F8013B013A83EA010313B1F8D13D
:100360000020704701387047002D06BF354603381E
:10037000073815F0010F07D1013015F4807F02BF57
:10038000013015F4C03F0130F0BC0138704700BFA8
:1003900081F0004102E000BF83F0004330B54FEA36
:1003A00041044FEA430594EA050F08BF90EA020FA3
:1003B0001FBF54EA000C55EA020C7FEA645C7FEA36
:1003C000655C00F0E2804FEA5454D4EB5555B8BF59
:1003D0006D420CDD2C4480EA020281EA030382EACA
:1003E000000083EA010180EA020281EA0303362D5C
:1003F00088BF30BD11F0004F4FEA01314FF4801C2F
:100400004CEA113102D0404261EB410113F0004F40
:100410004FEA03334CEA133302D0524263EB4303F7
:1004200094EA050F00F0A780A4F10104D5F1200E95
:100430000DDB02FA0EFC22FA05F2801841F10001F0
:1004400003FA0EF2801843FA05F359410EE0A5F1C4
:1004500020050EF1200E012A03FA0EFC28BF4CF0F5
:10046000020C43FA05F3C01851EBE37101F00045AB
:1004700007D54FF0000EDCF1000C7EEB00006EEBB8
:100480000101B1F5801F1BD3B1F5001F0CD3490842
:100490005FEA30004FEA3C0C04F101044FEA445299
:1004A00012F5800F80F09A80BCF1004F08BF5FEA20
:1004B000500C50F1000041EB045141EA050130BD00
:1004C0005FEA4C0C404141EB0101013C28BFB1F512
:1004D000801FE9D291F0000F04BF01460020B1FA5D
:1004E00081F308BF2033A3F10B03B3F120020CDA30
:1004F0000C3208DD02F1140CC2F10C0201FA0CF00E
:1005000021FA02F10CE002F11402D8BFC2F1200C72
:1005100001FA02F120FA0CFCDCBF41EA0C01904028
:10052000E41AA2BF01EB0451294330BD6FEA040471
:100530001F3C1CDA0C340EDC04F11404C4F120025C
:1005400020FA04F001FA02F340EA030021FA04F36E
:1005500045EA030130BDC4F10C04C4F1200220FAC5
:1005600002F001FA04F340EA0300294630BD21FA03
:1005700004F0294630BD94F0000F83F4801306BFC9
:1005800081F480110134013D4EE77FEA645C18BFBD
:100590007FEA655C29D094EA050F08BF90EA020F54
:1005A00005D054EA000C04BF1946104630BD91EA4C
:1005B000030F1EBF0021002030BD5FEA545C05D14F
:1005C0004000494128BF41F0004130BD14F580048E
:1005D0003CBF01F5801130BD01F0004545F0FE4102
:1005E00041F470014FF0000030BD7FEA645C1ABF37
:1005F000194610467FEA655C1CBF0B46024650EA6E
:10060000013406BF52EA033591EA030F41F4002199
:1006100030BD00BF90F0000F04BF0021704730B51F
:100620004FF4806404F132044FF000054FF00001F4
:1006300050E700BF90F0000F04BF0021704730B5B5
:100640004FF4806404F1320410F0004548BF40428A
:100650004FF000013EE700BF42004FEAE2014FEADF
:1006600031014FEA02701FBF12F07F4393F07F4FBA
:1006700081F06051704732F07F4208BF704793F0BD
:100680007F4F04BF41F40021704730B54FF46074D0
:1006900001F0004521F000411CE700BF50EA0102D3
:1006A00008BF704730B54FF000050AE050EA01027C
:1006B00008BF704730B511F0004502D5404261EBEC
:1006C00041014FF4806404F132045FEA915C3FF42D
:1006D000D8AE4FF003025FEADC0C18BF03325FEACA
:1006E000DC0C18BF033202EBDC02C2F1200300FA7B
:1006F00003FC20FA02F001FA03FE40EA0E0021FAA0
:1007000002F11444BDE600BF53B94AB9002908BF3D
:1007100000281CBF4FF0FF314FF0FF3000F074B9DC
:10072000ADF1080C6DE904CE00F006F8DDF804E048
:10073000DDE9022304B070472DE9F047089D044627
:100740008E46002B4DD18A42944669D9B2FA82F284
:1007500052B101FA02F3C2F1200120FA01F10CFAC0
:1007600002FC41EA030E94404FEA1C48210CBEFBF8
:10077000F8F61FFA8CF708FB16E341EA034306FB81
:1007800007F199420AD91CEB030306F1FF3080F010
:100790001F81994240F21C81023E63445B1AA4B25D
:1007A000B3FBF8F008FB103344EA034400FB07F7FF
:1007B000A7420AD91CEB040400F1FF3380F00A8140
:1007C000A74240F207816444023840EA0640E41B35
:1007D00000261DB1D4400023C5E900433146BDE8E1
:1007E000F0878B4209D9002D00F0EF800026C5E983
:1007F000000130463146BDE8F087B3FA83F6002E9B
:100800004AD18B4202D3824200F2F980841A61EB12
:10081000030301209E46002DE0D0C5E9004EDDE730
:1008200002B9FFDEB2FA82F2002A40F09280A1EB18
:100830000C014FEA1C471FFA8CFE0126200CB1FB6D
:10084000F7F307FB131140EA01410EFB03F0884266
:1008500008D91CEB010103F1FF3802D2884200F2F3
:10086000CB804346091AA4B2B1FBF7F007FB101185
:1008700044EA01440EFB00FEA64508D91CEB040423
:1008800000F1FF3102D2A64500F2BB800846A4EB7E
:100890000E0440EA03409CE7C6F12007B34022FA69
:1008A00007FC4CEA030C20FA07F401FA06F31C4398
:1008B000F9404FEA1C4900FA06F3B1FBF9F8200CA5
:1008C0001FFA8CFE09FB181140EA014108FB0EF0EB
:1008D000884202FA06F20BD91CEB010108F1FF3A3B
:1008E00080F08880884240F28580A8F10208614447
:1008F000091AA4B2B1FBF9F009FB101144EA014155
:1009000000FB0EFE8E4508D91CEB010100F1FF34FF
:100910006CD28E456AD90238614440EA0840A0FB97
:100920000294A1EB0E01A142C846A64656D353D06D
:100930005DB1B3EB080261EB0E0101FA07F722FA91
:1009400006F3F1401F43C5E9007100263146BDE8BA
:10095000F087C2F12003D8400CFA02FC21FA03F31D
:10096000914001434FEA1C471FFA8CFEB3FBF7F09E
:1009700007FB10360B0C43EA064300FB0EF69E42C3
:1009800004FA02F408D91CEB030300F1FF382FD25C
:100990009E422DD9023863449B1B89B2B3FBF7F604
:1009A00007FB163341EA034106FB0EF38B4208D9DD
:1009B0001CEB010106F1FF3816D28B4214D9023E1E
:1009C0006144C91A46EA004638E72E46284605E73C
:1009D0000646E3E61846F8E64B45A9D2B9EB02080D
:1009E00064EB0C0E0138A3E74646EAE7204694E79D
:1009F0004046D1E7D0467BE7023B614432E73046D0
:100A000009E76444023842E7704700BFFEE700BFD1
:100A10000B480C4A904203D0121A0B4912F0F2FA1A
:100A20000A480B4A904203D0121A002112F0F8FA39
:100A300009F00AFF12F0C2FA00F02AF8FEE700BF40
:100A400000000024E4030024AC3D0108E803002476
:100A5000F8220124704700BFF8B5154606460F4638
:100A600001680A4800F066FE7DB133683C68706832
:100A700003EB850C796853F8042B44F8042B634589
:100A800050F8042B41F8042BF5D1F8BD04040024E0
:100A90002DE9F047002194B0574805F0E1FC03210F
:100AA000554805F0E5FB3021534805F0FDFB534A5E
:100AB0005348544F544E554D554C4F494FF0000A32
:100AC00000F0CCF9384601F0D3F8304600F022FEB1
:100AD000D14609F0D1FC01462846D04600F08EFEF2
:100AE000574609F0C9FC52460146204601F0DCFC9D
:100AF00048494148FF2605F0B7FB2AE0002E57D0B1
:100B00002146424800F07AFE4FF0000923464F2B61
:100B10001AD94FF4805240493B4800F025FE002886
:100B200067D003A839499DED0C1A4FF48053DDEDD1
:100B30000B0AA1469DED0A0A374A009400F052FFC5
:100B400003A9304801F0AAF9012037462E4609F0E2
:100B500095FC09F091FC044629490AA8264A234637
:100B600000F0E4FA10999DF83A50A1F101012248F1
:100B7000B1FA81F1490905F0B3FBAE4203D0294631
:100B8000204801F091F89DF84430E3B99DF83830E1
:100B900023B9A4EB0803B3F5FA7F04D30AA91948D3
:100BA000A04601F09BF8B5FA85F67609002FA5D08E
:100BB000E5B187B12146154800F020FE1148A24654
:100BC00001F0D2F9C0E7DDE912239DF845100D4888
:100BD00001F046F9DAE74DB1A4EB0A03B3F57A7FE9
:100BE000B2D30848A24601F0BFF9ADE7A4EB090370
:100BF0008DE7A146A8E700BF10450024400400246B
:100C000050450024B8450024040400240C040024AA
:100C100050040024590A00081005002410B510489B
:100C20000024104A1049046044610462C46312F055
:100C3000E9F80E4B0E485C6043F8044B5C601C8185
:100C400000F0A8F80B4800F051FD0B4800F0C0FD83
:100C50000A4801F009F80A48BDE8104001F0C4BB99
:100C60001045002400000024550A00084004002418
:100C700050450024040400240C040024B84500243A
:100C800050040024F0B50D8807464E88013A00F163
:100C90000E044FF0000CAE422CBF0023012303735F
:100CA0002B460AE09E4510D2734494454FEA530305
:100CB00024F8023B0BDA31F8023FAE420CF1010C92
:100CC000B1F802E0EED39E45EED80020F0BD01233E
:100CD00018467B73F0BD00BF70B50646407B30B34D
:100CE000F0697568002801DDA84221DD002D4DDD89
:100CF00033684FF0010C00204FF6FF74A3F1020E91
:100D00003EF8023F9942A3EB0102A1EB030392B22A
:100D100088BF9AB26346A24201D260461446AB42F3
:100D20000CF1010CECDB7389A34238BF002070BDCD
:100D30006FF000423368B6F80AE00244348933F8B1
:100D4000122074448A42A4B234BF8A1A521A92B250
:100D50009442ECD29E1E012400204FF6FF7C36F810
:100D6000023F9942A3EB0102A1EB030392B288BFB9
:100D70009AB22346624501D2204694469D4204F130
:100D80000104ECDCE64538BF002070BD00204FF6C2
:100D9000FF74C8E710B4184C03464FF60B7C0022D2
:100DA00020680021A3F804C040F2011CC3F86200CF
:100DB000A088A3F84C20A3F8660018461A601A61B0
:100DC000A3F818C0A3F844209A6483F84E2019654C
:100DD00059659965DA65A3F86020C3E90B22C3E978
:100DE00002225DF8044BC3E90722C3E90922C3E9E3
:100DF0000D22C3E90F227047AC38010890F8443047
:100E00005BB303684BB3B0F860C0F0B5B0F85C40BA
:100E1000B0F85EE090F84C7090F84D6090F84E504D
:100E2000A0F86240A0F864E0A0F866C000201A684C
:100E3000BFF35B8F911C42F0010221F001011A60A7
:100E40001F715E719D71D8711C81A3F80AE0A3F82F
:100E50000CC0BFF35B8F1960F0BD70472DE9F04FF8
:100E6000002402260546804689464FF0010A08F113
:100E7000200B08272DED028B9FB045F8042B32463E
:100E80008DF814600CA88DF81540059906F08CFCBF
:100E900003238DF8184032468DF819300DF14200C9
:100EA000069906F081FC8DF81CA08DF81DA0324635
:100EB000079915A806F078FC07238DF820403246E4
:100EC0008DF821300DF16600089909F1180606F039
:100ED0006BFC04230CA930461A4606F079FC304618
:100EE00006F084FE0521484605F0BAF98A4A5346C1
:100EF000284611682246009406F096FFDFED877AB7
:100F000087490622874B5846C8F84040B0EE678AAA
:100F100088F82D40F0EE678AC8F82010C8E90E4422
:100F2000C8E90923FFF7AEFE8246CDED097ACDED83
:100F30000A7ACDED0B7A0AAD0024E1B2304606F014
:100F40006BFEB5EEC00AF7EE007AF1EE10FA0FD4A0
:100F5000B4EE670A0134F1EE10FA37FE800A30EE83
:100F6000080A032C05ED010A0BD0B5EC018AE4E771
:100F70009FED6A0A013430EE080A032C05ED010AE0
:100F8000F3D12146304606F047FEB5EEC00AF1EE39
:100F900010FA12D4F7EE007AB4EE670AF1EE10FA06
:100FA00037FE800A0121484678EE808A05F058F91C
:100FB000013F05D09DED098ABDE79FED580AF1E795
:100FC00008F15C0109A808F150030C46B4EE007A60
:100FD000F0EC017AF7EE006A002267EE877AF5EE10
:100FE000C07AE3EC017AF1EE10FA11D4F4EEE67A6D
:100FF0009FED4D6AB6EE007A4FF6FF72F1EE10FAF1
:1010000006DCA7EE867ABCEEC77A17EE102A92B2FB
:101010009C4221F8022BD9D1BAF1000F31D0F4EE65
:10102000007A68EEA78AF5EEC08AF1EE10FA33D5A1
:101030000021039109F020FA039906465846FFF76C
:101040004BFED8F838400546A0423BD00446C8F8CD
:101050003800C8F840605846FFF73EFEA042D8F876
:101060003C5006F1140640D02C46C8F83800C8F8A9
:101070004060002C08BF2C46631E042B98BF88F8E4
:101080004C300123404688F84430FFF7B7FE1FB0CC
:10109000BDEC028BBDE8F08FF7EE007AF4EEE78A44
:1010A000F1EE10FA02DD4FF6FF71C2E7F6EE007ABC
:1010B0009FED1D7AE8EE877AFCEEE77A17EE903A1C
:1010C00099B2B6E7D8F83C00854202461CD0D8F861
:1010D0004030F31A132B1AD95846C8F83C50FFF782
:1010E000FBFDA04206F11406BED1AC4209D0D8F8EF
:1010F0004010721A132A94BFD8F83C40C8F83C40FC
:10110000B7E72246D8F83C0004461546B1E72C461E
:1011100014360546E9E700BF0C390108000000005D
:10112000103901088403F00A00FF7F472DE9F04FD2
:1011300000250C4602F1180B28222946074604F127
:101140005C0604F15008BA46A9462DED028B83B027
:10115000019311F065FFB4F84C207A82E26BBA611A
:10116000E9B2584606F058FDB5EEC00AF1EE10FAA5
:101170005FD4F7EE007AB4EE670AF1EE10FA37FEAC
:10118000800AD8ED007A9FED7A7A30EE670AE0EEB9
:10119000077AF5EEC07AE8EC017AF1EE10FA42D463
:1011A000B7EE007AF4EEC77AF1EE10FA44DCB6EE50
:1011B000007ADFED706AA7EEA67AFCEEC77A17EE2A
:1011C000903A9AB207EE902AB8EE677AC7EE267A7E
:1011D000F1883280914234BF521A8A1A92B2802A20
:1011E00005F1010506F10206EAEC017A28BF4FF08D
:1011F0000109032DB4D1B6EE008A2946584687ED81
:10120000038A06F009FDB5EEC00AF1EE10FA18D413
:10121000F7EE007AB4EEE70AF1EE10FA40F39680AA
:101220004FF6FF710EE00022DFED537A3280F28834
:10123000D5E79FED510AA4E7F0EE477A4FF6FF722B
:10124000C6E7002104F12000B982FFF745FDA36B3A
:10125000984262D0019BA063E06B2364B8610138BF
:10126000042813D9201D4D4606F0C4FE637E834238
:1012700020D0019B6076E36187F81090002D43D168
:10128000384603B0BDEC028BBDE8F08FC0B294F8D5
:101290004C308342E6D00023012584F84C00B8741A
:1012A000201D84F84D30FB747D7406F0A3FE637E30
:1012B0008342DED1227E9A42DED0E2690199A1EB1F
:1012C000020ABAF10E0FD7D92376002B30D194F849
:1012D0004530002BD0D1012394F84C2084F84530C0
:1012E000A36C0133A3647B62002A3BD094F84D3099
:1012F00040F2011287F8109083F00103BA831F4A6D
:1013000084F84D30FB743A622046FFF777FD38468B
:1013100003B0BDEC028BBDE8F08FE26B90429DD034
:10132000236C0199CB1A132B94BF1046E06395E709
:1013300094F84530002B9FD0002384F84530A36CEF
:101340007B6201233B770E4B3B6295E7F0EE487AD8
:101350009FED087AE0EE077AFCEEE77A17EE903A16
:1013600099B26FE740F20113BB83044B3B6283E702
:101370000AD7A33D00FF7F4700000000F8380108AE
:1013800000390108002ADFEDC07A2DE9F84307464D
:101390001C462DED028BB0EE408A08DD0B4601EBBA
:1013A0008205B3EC017AAB4277EE877AF9D107EE8A
:1013B000102AB64D501EDFEDB45AB8EEC77A6FF062
:1013C0000308DFF824E305F580592E4687EE876A87
:1013D0004246AF4B08F10408DFEDAE6A9FEDAA7AF2
:1013E00001E0F3EC016A002A8C4605DB8242944658
:1013F000A8BF844601EB8C0CDCED007A734502F14A
:10140000010277EEC67AA7EEA67AEAD1A6EC017AB7
:101410004E45E7EE075ADBD1DFED9F7A25EEA70AAE
:10142000B5EE400AF1EE10FA00F12981F1EEC07A32
:101430009FED9A7AD7ED086AF4EEC77AF1EE10FACA
:1014400007DD9FED977AF4EEC76AF1EE10FA00F32C
:10145000CF809FED947ADFED945A27EE877A9FED47
:10146000936AF4EEC67AA6EEA57AF1EE10FA87ED4D
:10147000087A00F1AE80002140F2F4628C48012627
:1014800011F0CEFD8B484FEA450C8B4907460CF511
:10149000805CACEB01022B469FED7B7AF3EC017A8A
:1014A000F2EC016A8B4277EEE67AA7EEA77AF5D1E5
:1014B000013640F2BD12191FA7EC017A9642E8D11D
:1014C0007E4D4FF07E53DFED707A2A467C4942F81C
:1014D000043B0123F0EC016AB7EE007A9FED796AD4
:1014E00077EEA67AF4EEC67AF1EE10FA07DD07EE93
:1014F000103AB8EEC77A67EE266A86EEA77A81427E
:1015000003F10103A2EC017AE4D1B5EEC08AF1EE59
:1015100010FA63D59FED6C7A6C4A0C2302E001331C
:101520008B4256D0F2EC017A40F2BD11F4EEC77A4C
:10153000F1EE10FAF3D505EB830209E0D2ED017A62
:10154000B2EC017AF4EEC77AF1EE10FA66D50B46EA
:10155000B3F5DE7F03F10101F0DBDFED4B7A07EE3F
:10156000103AF7EE006AB8EEC77A77EE277AF4EE13
:10157000E67AF1EE10FA2CD9DFED555AB3EE0B6A8C
:1015800085EEA77AB4EEC67AF1EE10FA21D4DFED3B
:10159000517AB4EEE77AF1EE10FA1ADC05EB830328
:1015A00084ED007AD3ED007A76EEE77AF5EEC07A34
:1015B000F1EE10FA5DD4F4EE667AF1EE10FA76FEF2
:1015C000A77A0A9B0120BDEC028BC3ED007ABDE82F
:1015D000F883BDEC028B0020BDE8F883F7EE007ABB
:1015E000B4EEE78AF1EE10FA11DD9FED3B7A93E756
:1015F00087EEA67A9FED396AB4EEC67AF1EE10FA5C
:101600007FF727AFFB6A0B9A13447B6221E7DFED7C
:10161000347A9FED2D7AA8EE677A7DE705EB830299
:10162000B0EE005ADFED2F5A52ED016AB0EE666A55
:1016300097EE056A36EE676AB0EEC67AB4EEE57AE2
:10164000F1EE10FA89D476EEE77AF6EE006AFEEE55
:10165000005A27EEA67AC7EE067AF4EEE57AF1EEA6
:1016600010FA09D4F4EE667AF1EE10FA76FEA77A53
:1016700075E7DFED057AA4E7F0EE657A6FE711F024
:101680005DFCF0EE407AD3E600000000C055002477
:101690008C390108F1F0F03C0000803AA69B443CF4
:1016A000BD3786359A99193E9A99593F0AD7233CF6
:1016B000C0E50024C4E50024BC650024C045002426
:1016C000B4EC00245F708930AE47613EF0450024E1
:1016D00000803B4600007A44CDCCCC3D3333D33F31
:1016E0008FC2F53DCCBC8C2BAC39010800220549DA
:1016F000054B10B4C0E90022044C054A5DF8044BC8
:10170000704700BFC0650024C0E50024C055002418
:10171000C045002410B54FF400420446002104489F
:1017200011F07EFC00232360BFF35B8F636010BD6C
:10173000C0650024036830B492B19C18094DC3F30E
:101740000C02013351F804CB05EB8202A342C2F82C
:1017500000C0F4D10460BFF35B8F446030BC7047BD
:101760001C46F7E7C0650024531EB3F5805F03D223
:10177000B1FA81F35B0909B90020704770B502F531
:1017800080754668BFF35B8FB5421CD8A6F580769E
:101790008C460E4D1946B41A0B19013141F6FF7EE5
:1017A000C3F30C038A4205EB83031B684CF8043B2C
:1017B000F2DC4368901BBFF35B8F184470458CBF0D
:1017C0000020012070BD002070BD00BFC065002456
:1017D0000022002110B478248161C161C4620162D9
:1017E0005DF8044B80F83020C0E90022C0E90222F5
:1017F000C0E90422C0E90922704700BF002300228B
:101800007831036043608360C36003614261836138
:10181000C361036280F8302010B47824C0E9091253
:10182000C4625DF8044B7047B5EEC00AF0B5F1EE46
:1018300010FA15462DED028B83B044D9DFED267AE0
:1018400004460E469FED258A80EE270A244F11F0AC
:101850000DFB2046234B3146234EF2EE087AA0EED4
:10186000278AF8FE487AFDEEE77A17EE904A83FB66
:1018700004234FEAE47C1D4ACCEB630C0CEB4C03D5
:101880000CF1FF3CA4EB8303CDF800C00C33A6FBA6
:10189000036C4FEADC0C0CEB4C0CA3EB8C0357F8FD
:1018A000233011F07BFC07EE904A9FED117AF8EEA1
:1018B000E77A38EE678A28EE078A85ED008A03B05A
:1018C000BDEC028BF0BD00270A4A11F067FC2F60C7
:1018D00003B0BDEC028BF0BD0000DC4300008A4287
:1018E00058390108ABAAAA2AABAAAAAA203901082A
:1018F0000000C8421C390108D0ED006AD0ED017A21
:1019000090ED020AF4EEE76A90ED037A90ED046A36
:10191000F1EE10FA05DDF0EE665AF0EE676AF0EED1
:10192000657AB4EEC67AF1EE10FA33DCB4EEC60A8C
:10193000F1EE10FA05DDF0EE405AB0EE460AB0EED8
:10194000656AB4EEC70AF1EE10FA30DCF4EEC76A4D
:10195000F1EE10FA05DDF0EE665AF0EE476AB0EEF1
:10196000657AF4EE406AF1EE10FA36FE800AF4EE83
:10197000467AF1EE10FA76FE277AF4EE477AF1EE27
:1019800010FA77FE277AF4EE407AF1EE10FA37FE7D
:10199000800A7047B4EEC70AF1EE10FA0FDDF0EEE0
:1019A000405AB0EE470AB0EE467AB0EE656AF4EE01
:1019B000C06AF1EE10FA0EDDB0EE667AD7E7F0EE0F
:1019C000475AB0EE467AB0EE656AB4EEC70AF1EE59
:1019D00010FABBDDEBE7F0EE475AB0EE407AB0EE1E
:1019E000650ABEE7F0B50D461146954A044600204B
:1019F000166895F830202DED028B206185B0268287
:101A0000360CB0EE608A0C9FA674C4E90000C4E9ED
:101A10000200C4E905002AB1AA6ABA1AB2F5966FA3
:101A200000F2AE80B5EEC01A00220292F1EE10FA7A
:101A300003921AD4F7EE007AB4EEE71AF1EE10FA38
:101A400040F38580C822EA6299B96B6A00229F42FE
:101A5000A26180F0888095F83030002B40F0A180A2
:101A6000204605B0BDEC028BF0BD3C22EA620029A5
:101A7000EBD0B3F5805FE8DB1A4603AB284601974D
:101A8000009302ABFFF77EFC6B6A9DED020ABB423E
:101A900084ED060ADFD8002865D095F83020002AAA
:101AA00040F094809DED035A6B682B60AB686B60CF
:101AB000EB68AB602B6985ED040AEB606B69042B66
:101AC00000F3B7800133052B6B6100F0B280B5EEF7
:101AD000C08AF1EE10FA00F1A980F7EE007AB4EEB8
:101AE000E78AF1EE10FA00F3A8809FED567ADFED59
:101AF000567AE8EE077A3AB195ED067A70EE476AC3
:101B0000A6EEA77AB0EE470ADFED507A85ED060A19
:101B1000B4EEE75AF1EE10FACCBF0123002305DD45
:101B2000012285ED070AAF6285F8302004F110002C
:101B300004F10C020821237084ED010A84ED025A9D
:101B4000FFF772FE204605B0BDEC028BF0BDF6EE4D
:101B5000007A9FED3F7AE1EE077AFCEEE77A17EE26
:101B6000902A3C3282E7002295F830302270002B18
:101B70004CD100232046A36005B0BDEC028BF0BD24
:101B800000226861A8622A606A60AA60EA602A612D
:101B9000AA61EA612A6207F1780285F830006A6278
:101BA00040E7002095ED070A4FF07A5304F10C024C
:101BB0002070082104F1100084ED010AA360FFF7F2
:101BC00033FE204605B0BDEC028BF0BDD5ED077AA3
:101BD000DFED206A80EE277AB4EEE67AF1EE10FAB5
:101BE00007DCDFED1D6AB4EEE67AF1EE10FA7FF560
:101BF00059AF9DED035A9FED197AB4EEC75AF1EE35
:101C000010FA7FF551AF0023237001E0D5ED077A7C
:101C1000134BB0EE670A04F10C02082104F1100026
:101C2000A360C4ED017AFFF7FFFD19E7DFED067A47
:101C300061E72846FFF760FE49E7DFED0A7A5AE7D9
:101C40001C39010814AEC7BE6666E63ECDCCCC3E5C
:101C500000000C439A99F93FB81E053F6666663F3F
:101C6000CDCC4C3E90C2753D0022C0E900227047A9
:101C700010B50C4A88B001230021B2F800C04FF41F
:101C8000E134039306930491029101A9059393888B
:101C90000794ADF804C0ADF8063008F069F908B053
:101CA00010BD00BFB438010810B588B00B460A4A11
:101CB00020210446684611F071FA6846FEF710FBD1
:101CC0000A2302466946204608F0BCF910B1636851
:101CD0000133636008B010BDAC39010891ED007AA2
:101CE000B5EEC07A30B5F1EE10FA9DB0044640D49E
:101CF000F7EE007AB4EEE77AF1EE10FA40F399804D
:101D000091ED017A42F21073B5EEC07AF1EE10FA5D
:101D100037D5002091ED027AB5EEC07AF1EE10FAD7
:101D20003FD4F7EE007AB4EEE77AF1EE10FA5CDD1C
:101D300091ED037A42F21075B5EEC07AF1EE10FA29
:101D400037D5002260210292434ACDE9000504A85C
:101D500011F024FA04A8FEF7C3FA0A23024604A9E4
:101D6000204608F06FF910B16368013363601DB05D
:101D700030BD002391ED017AB5EEC07AF1EE10FA94
:101D8000C7D4F7EE007AB4EEE77AF1EE10FA3EDD52
:101D900091ED027A42F21070B5EEC07AF1EE10FACF
:101DA000BFD5002591ED037AB5EEC07AF1EE10FAB9
:101DB000C7D4F7EE007AB4EEE77AF1EE10FA02DD5E
:101DC00042F21072BEE7F6EE007ADFED246A42F2CC
:101DD0001071E7EE267AFDEEE77A17EE902A8A4236
:101DE000A8BF0A4622EAE272ACE7F6EE007ADFED1F
:101DF0001B6A42F21072E7EE267AFDEEE77A17EEE2
:101E0000905A9542A8BF154625EAE575CAE7F6EE51
:101E1000007ADFED126A42F21072E7EE267AFDEEEA
:101E2000E77A17EE900A9042A8BF104620EAE070C9
:101E300070E7F6EE007ADFED096A42F21072E7EE23
:101E4000267AFDEEE77A17EE903A9342A8BF134642
:101E500023EAE3738EE700BFB439010800401C4653
:101E600010B514469AB01A460B46009460210446F9
:101E7000019202A8084A11F091F902A8FEF730FA7F
:101E80000A23024602A9204608F0DCF810B1636874
:101E9000013363601AB010BDC439010891ED017AB5
:101EA000B5EEC07A10B5F1EE10FAA4B0044653D4E2
:101EB000F6EE007ADFED296AE7EE267AFDEEE77AA4
:101EC00017EE900A9FED266AF6EE006A91ED037A0E
:101ED000FEEE007A27EE067A91ED026AB5EEC07A40
:101EE000F1EE10FAB5EEC06A66FEA77A77EE877A51
:101EF000F1EE10FAFDEEE77A09D4B7EE007AB4EE0F
:101F0000C76AF1EE10FA1EDD4FF47A7300E0002389
:101F1000CDED027A009004A8039311F8103B114A0A
:101F20000191802111F03AF904A8FEF7D9F90A23AA
:101F3000024604A9204608F085F810B16368013311
:101F4000636024B010BD9FED057AE6EE076ABDEE32
:101F5000E67A17EE103ADBE70020B3E700007A4498
:101F60000000C842D03901080B4A002300B51268AE
:101F700089B04FEA124C01A9059301930493ADF87F
:101F800014208DF816C0CDE90233CDE90633FFF7F2
:101F900085FF09B05DF804FB1C390108394A4FF68A
:101FA000FF71138CF0B5A0F8703089B0B2F84040E2
:101FB00005468C4218BFA342A0F8724003F1FF33DC
:101FC000B2F860202CBF012400244FF6FD719BB2B3
:101FD000A0F87420013A8B4288BF44F0010492B209
:101FE0008A4288BF44F001042CB103230024836695
:101FF000204609B0F0BD244B214604270126D3F822
:10200000E02042F08072C3F8E0206422D3F8E03090
:1020100003F080730093009B11F002F84FF48023CB
:102020001A4A28462F61AE61C5E900234FF4805358
:102030002B6301F0D1F810B10223AB66D8E740F270
:10204000FF724FF00111284601F0D2F90028F3D1B8
:102050000F4B062201A92846019307230597CDE9D6
:10206000022340F2FF73CDE90644049300F0C2FB63
:102070000028E1D1304608F001FAAC6685F86460CA
:102080003446B5E700E8F11F0044025800600258EA
:10209000000084CBF0B5002389B0174606220191D9
:1020A0000446CDE906330723CDE90223042340F299
:1020B000FF720DEB0301CDE9042300F09BFB00BB95
:1020C00008260546204600F063FE0346022120460E
:1020D000A3B900F0B7FA034620467BB900F03AFBFB
:1020E000034620461D4400F091FF50B9013EE9D15E
:1020F00004350120ED083D8009B0F0BD204600F018
:1021000085FF002009B0F0BD10B54FF6FE7C00F150
:10211000FF3EE6452DED028B68D801F1FF3EE64516
:1021200064D802F1FF3EE64560D803F1FF3EE64584
:102130005CD8049CA34238BFB4F5803F56D2069CBD
:10214000A446059CA44551DD049CB4EB030C6EEB46
:102150000E0EBCF1010F7EF1000447DB07EE902A62
:1021600005EE903A9FED241BB8EEE74B07EE901A70
:10217000B8EEE55B7146B8EEE76B07EE900A24EE29
:10218000014B6046B8EEE77BDDE9052384EE062BC4
:102190009B1A03EE103AB8EEC33B22EE077B87EEA4
:1021A000018B38EE458B28EE038BFEF77FFADDEDD1
:1021B000057A079BB8EEE77BFBEE045A41EC160B61
:1021C00088EE066B36EE077BB7EEC77BB4EEE57A9A
:1021D00083ED007AF1EE10FA08DBDFED097AB4EE58
:1021E000E77AF1EE10FA01D8012000E00020BDEC02
:1021F000028B10BDAFF300800000000000C8A940B2
:1022000000000243002391F8642030B5C0E9003398
:10221000836085B08B6E0446C36012B9204605B05A
:1022200030BD0D4600F1080215492846FFF732FF80
:1022300048B195F8643033B104F10A0211492846D7
:10224000FFF728FF20B904232046E36005B030BD26
:10225000A96F231DB5F8722002911E2103930092ED
:10226000B5F87030B5F87420019161892089FFF7C5
:102270004BFF0028207014BF00230523E360CDE747
:10228000000084CB0000B8CF03789A1E012A78D9C9
:10229000CA6810B40C89026384850C78002C5AD06B
:1022A000BBEE047AD1ED017AF4EEC77AF1EE10FAC2
:1022B00051D49FED477AF4EEC77AF1EE10FA4ADC7A
:1022C0009FED447A0022F4EEC77A4262F1EE10FAF2
:1022D00058DA81694A1C00EB81015442C1ED017A50
:1022E00002F0030204F0030158BF4A424169032986
:1022F000826103DC01310029416158DD021DDFEDFF
:10230000367A02EB8104B2EC017AA24277EE877A48
:10231000F9D107EE101A9FED316AB8EEC77AC7EE11
:10232000876AF4EEC66AC0ED0A6AF1EE10FA41DA85
:10233000DFED2B7A0022F4EEE76A0262F1EE10FA8A
:1023400029DBC3690133022BC36101DD0123037063
:102350005DF8044B7047436A00210133022B43624E
:10236000C0E90711F4DD8A424FF002034FF0030188
:102370005DF8044B08BF052280F834300170026319
:102380007047704702210123C0ED0A7A0263017091
:1023900080F83430DCE7012BC261D9D1DFED117A4E
:1023A000F4EEE76AF1EE10FA98BF0270D0E7DFEDC5
:1023B0000A7AAEE7036A00220133022BC0E9072341
:1023C000C6DD022101230263017080F83430BFE7CB
:1023D000000002430000C842000000000000B442B8
:1023E0000000A0420000964210B56422002104467D
:1023F00010F016FE002300220221204684F86430EB
:102400002367A4F87430A36784F87C30C4F8802074
:10241000C4F88420C4F88820C4F88C20C4F8A03004
:10242000C4F8A420A4F8A830C4F8AC3084F8B030C4
:10243000A4F8BC30C4E91A13C4E92433C4E9263330
:10244000C4E92D3310BD00BF70B590F8BC6084B0F6
:10245000DEB190F87C300446023B012B18D9D0F84D
:10246000B4300D46CB1A632B12D90146C0F8B450D4
:102470006846FFF7C7FE694604F17C00FFF704FFDA
:1024800094F87C30023B012B06D9304604B070BD75
:102490000026304604B070BDD4F8B830002BF4D11B
:1024A000C4F8B850F1E700BF00234FF0000C70B53E
:1024B00080F87C300446C0F880C00D46C0F884C067
:1024C0001646C0F888C0C0F88CC0C0F8A030C0F86C
:1024D000A4C0A0F8A830C0F8AC3080F8B030C0E993
:1024E0002433C0E9263300F0A7F880B2E066D8B103
:1024F0004FF6FF73984217D041F2030398428CBF06
:1025000082236E232046A367FFF748FDA5F16403ED
:10251000002284F8BD00C4F8B4300123C4F8B82008
:1025200084F8BC302EB970BD00200623A067A366D6
:10253000ECE729462046BDE87040FFF785BF00BFA5
:10254000704700BF0F4B1B780BB90120704710B5C7
:1025500004464FF47A700C4AB0FBF3F31068B0FBFA
:10256000F3F001F06BF80F2C00D808B1012010BD7A
:10257000002221464FF0FF3001F000F8034B00200D
:102580001C6010BD04000024440200240800002444
:1025900038B50320124D00F0DFFF124C02F0F8FABC
:1025A000114A12499369C3F30323CB5C03F01F0361
:1025B00020FA03F30E202B60926902F00F028A5C6E
:1025C00002F01F02D3402360FFF7BCFF10B10124CB
:1025D000204638BD0446FFF7B3FF204638BD00BF94
:1025E0004402002448020024004402589C3A010896
:1025F000034A044B11681B780B441360704700BFFB
:10260000C0F5002404000024014B1868704700BF87
:10261000C0F5002438B50446FFF7F6FF0546631CF5
:1026200002D0044B1B781C44FFF7EEFF431BA34270
:10263000FAD338BD04000024014B1868000C704721
:102640000010005C3F4A036893422DE9F0410546C3
:102650000E4657D002F58072934253D03A4A2C6905
:102660009768082C07F01F070AD0092F4CD840F2B2
:102670002121F940C90747D5DB68DA0748D404248B
:10268000FFF7C2FF8046731C2A6827D113681C42DB
:10269000FCD06B6D43F400736B65D36813F4406F2B
:1026A0000FD16B7D6BB9136818070AD56B6D23F4D6
:1026B00080736B656B6DD90403D46B6D43F00103BC
:1026C0006B65224B9A422ED0D068082C27D010F48C
:1026D000804034D10C231360BDE8F081136823429D
:1026E000D7D1FFF791FFA0EB0800B04201D8002E30
:1026F000C9D16B6D0022032043F0040385F85020FC
:102700006B65E9E7124AAAE7936813F4404FB6D025
:102710006B6D012043F020036B65BDE8F081002064
:102720001460BDE8F081092F02D9064BD868CCE7C8
:1027300040F2212323FA07F7FB07C5D4F5E7002071
:10274000BDE8F081002002400063025800210240F1
:10275000002302400368186C704700BF704700BF39
:10276000806B08B5FFF7FAFF08BD00BF836B5A6D99
:1027700012F0500F5A6D10B51DD1196842F4007255
:102780005A650A6812F0080FCA681BD012F4406F2D
:102790000DD1CA6894040AD45A6D22F480725A6525
:1027A0005A6DD10403D45A6D42F001025A6518469D
:1027B00005F094FA10BDD2060AD4DB6CBDE81040D7
:1027C000DB6C18479007E7D0184605F087FAF1E769
:1027D000184605F027FB10BD806B08B5436D43F02C
:1027E00040034365836D43F00403836505F01AFBE2
:1027F00008BD00BFF0B5002283B0019290F85020D0
:10280000012A00F01C81034601201A6883F8500059
:102810009468640700F18A800C68C4F31305002DE6
:1028200040F08F80C4F38464A0404D684FF01F0EC9
:10283000D6694FEA951C30430CF00C0CD06105F0C2
:102840001F0002F1300584400EFA00FE5CF805001E
:1028500020EA0E0004434CF80540906840076ED40F
:10286000956815F0080547D10C68072002F1140699
:10287000B94F4FEAD45CC4F304540CF0040C00FAD2
:1028800004FE886800FA04F45CF8060020EA0E00F2
:1028900020434CF80600386800F07040B0F1805FCB
:1028A00000F0C580D068D668C70600F1E880C6F39E
:1028B00082064869760000FA06F60F69042F00F0D8
:1028C000C18002F16004086854F827C000F0F840A5
:1028D0000CF0004C40EA0C00304344F82700487EDE
:1028E0000E69012854F8260008BF4FF0004520F07B
:1028F0000040054344F826509068C40714D4CE68BD
:10290000086806F01807954CD2F8C050FC40C0F398
:102910001307044025EA07052C43C2F8C040904C39
:10292000A64246D0002816DB002003E05A6D42F094
:1029300020025A65002283F8502003B0F0BD906851
:10294000DAE794FAA4F5B5FA85F5C4F3846405F0E2
:102950001F05A84069E783498A4200F0B68001F567
:1029600080718A4200F0B1807F4D804CA968A468D4
:1029700001F0E076E44304F00104002C00F0B480A0
:102980007B4CA04200F0FC807A4CA04200F01A81FF
:10299000794CA042C8D14902C6D474498A42C3D1F5
:1029A000AA68002022F0E072324342F48002AA605A
:1029B000C0E7002F6AD090FAA0F4B4FA84F401348E
:1029C00004F01F04092C00F2A48090FAA0F4B4FAD9
:1029D00084F490FAA0F5B5FA85F5013401260135A5
:1029E000A40605F01F0504F0F84406FA05F52C438B
:1029F00090FAA0F0B0FA80F0304400F01F0000EB35
:102A0000400000052043C60D02F11405C0F3045038
:102A1000072406F0040604FA00F7745924EA0704B0
:102A20008F6807FA00F02043705108687AE7D6688B
:102A30004869C6F38206760000FA06F63DE70220F2
:102A400003B0F0BD106E0C6800F0F840A506B0EBC6
:102A5000846F30D0506E00F0F840854226D0906EE2
:102A600000F0F84085422BD0D06E00F0F84085424F
:102A70007FF442AFD06E20F00040D0663CE776088D
:102A8000486906F0080600FA06F616E7800E441CB0
:102A900004F01F06092E2DD8A406012004F0F844E6
:102AA000B040044306EB46000005ABE7506E20F053
:102AB00000405066D3E7106E20F000401066C9E772
:102AC000906E20F000409066CEE7264C2B4D04F52A
:102AD0008074A96854F8F86CA468344301F0E07677
:102AE000E44304F0010448E75A6D012042F020025B
:102AF0005A651FE706EB4600A50601241E3805F0BF
:102B0000F84504FA06F60005354340F00070284306
:102B100079E790FAA0F5B5FA85F590FAA0F4B4FA41
:102B200084F4013501260134AD0604F01F0405F0DC
:102B3000F84506FA04F4254390FAA0F4B4FA84F4B4
:102B4000344404F01F0404EB4404A4F11E00000507
:102B500040F00070DBE700BF0010005CFFFF0F00DB
:102B60000000FF4700200240006302580060025846
:102B7000000084CB000052C70000B8CF0023024001
:102B800008023FF5D1AE17498A427FF4CDAE164A0E
:102B9000A9681268154821F0E07192093143A0FB41
:102BA000020241F400019209A96052000192019AC7
:102BB000002A3FF4B9AE019A013A0192019A002A23
:102BC000F9D1B1E611F080707FF4AEAE05498A42CA
:102BD0007FF4AAAEAA6822F0E072324342F080721B
:102BE000AA60A7E60060025844020024632D3E0557
:102BF00003689A6812F0040F9A6870B5044603D10E
:102C0000120701D4002070BDDA68950104D5A08AAE
:102C100040F2011290421AD002299A683ED055071C
:102C200008D59A68900705D498682C4A024042F06B
:102C300010029A60012919D09A68120702D59A6881
:102C4000900732D5032914BF04260C260FE01A681A
:102C5000500606D4224A01E0013A16D01968490606
:102C6000FAD540221A609A68560725D40426FFF741
:102C7000CBFC054604E0FFF7C7FC431B052B04D83B
:102C800023689B683342F6D1BCE7636D012043F0B3
:102C900010036365A36D0343A36570BD150702D5DB
:102CA0009A68920713D50826E1E798680B4A024014
:102CB00042F020029A60C5E79A689607D6D49968D0
:102CC0000426064A0A4042F010029A60CFE799684B
:102CD000024A0A4042F020029A60E4E7C0FFFF7F08
:102CE00000DC0C0003689A68D20701D50020704709
:102CF0009968214A114270B5044608D0636D0120DD
:102D000043F010036365A36D0343A36570BD996829
:102D10001A4A0A4042F001029A60FFF775FC2368E4
:102D2000174A054693421ED002F5807293421AD08C
:102D3000144A9268114E0AE09A68324042F0010249
:102D40009A60FFF761FC401B0228D7D823681A68F5
:102D5000D2070FD49A68D107EED5FFF755FC401B78
:102D60000228F3D9CAE7084A9268D006E2D0074A97
:102D70009342DFD1002070BD3F000080C0FFFF7F85
:102D8000002002400063025800230240002102405C
:102D9000394A0368934270B5044646D002F5807202
:102DA000934242D0354A96689D6815F0040542D199
:102DB00094F85030012B3ED00123204684F8503047
:102DC000FFF790FF002838D1636D06F01F062C4AEC
:102DD0001A40236842F4807262652A4A934245D0C1
:102DE0001946626D22F480126265626D12F480529F
:102DF00040D0A26D22F00602A2651C228B421A600E
:102E00004FF0000284F8502020D0092E18D9636DAD
:102E100043F480136365CB689B0105D5636D23F490
:102E2000405343F48053636570BD174A96689D68AC
:102E300015F00405BCD0022070BD84F8505070BD60
:102E400040F2212222FA06F6F507E0D5DA6892016F
:102E500005D5626D22F4405242F480526265996851
:102E60000A4A0A4042F004029A6070BD0249002EEC
:102E7000B7D0BAE7A265C0E700200240006302585D
:102E8000FEF0FFFF0021024000230240C0FFFF7F51
:102E90002DE9F0413A4D044600680F461646A84217
:102EA00019D0384B984216D0374DAB68806842072E
:102EB00016D494F85020012A12D003F01F080122E2
:102EC000B8F1090F84F850200DD90023012084F8AF
:102ED0005030BDE8F0812D4DAB6880684207E8D5E1
:102EE0000220BDE8F08140F2212323FA08F3DB43FE
:102EF00013EA0205E9D12046FFF7F4FE002839D194
:102F0000626D234B2168134043F480736365B8F10D
:102F1000000F02D01B4B994203D0636D23F4801342
:102F20006365636D13F4805328D0A36D23F006030B
:102F3000A365E06C3346174D3A464031C563164DE4
:102F40000564164DC5641C2541F8405C002584F8D5
:102F5000505051F83C5C45F0100541F83C5C00F0E5
:102F60007DFE22680E4B91680B4043F00403936092
:102F7000BDE8F08184F85050BDE8F081A365D8E742
:102F8000002002400021024000630258002302405A
:102F9000FEF0FFFF6D27000861270008D927000811
:102FA000C0FFFF7F38B503689A68910702D59B6818
:102FB000002038BD9A68D20723D59A68044602F0EB
:102FC0000D02012A08D0636D012043F010036365F0
:102FD000A36D0343A36538BD986803210A4A0240E4
:102FE00042F002029A601960FFF70EFB054604E00A
:102FF000FFF70AFB401B0228E5D823689B68DB0724
:10300000F6D4002038BD00BFC0FFFF7F90F85030DD
:10301000012B1BD00123032110B580F8503004464A
:10302000FFF7E6FD18B1002384F8503010BD2046AC
:10303000FFF7B8FF0028F6D1626D054B134043F04F
:1030400001036365002384F8503010BD02207047EF
:10305000FEEEFFFF38B5574A04460368934226D078
:1030600002F58072934222D0534B9B6813F4403F89
:1030700022D001F047FF63680546B3F5003F00F03A
:103080008880B3F5403F70D0B3F5803F00F0818079
:10309000FFF7D2FA41F2030398422DD8474B9D42E5
:1030A0005DD92268936843F48073936038BD444BC4
:1030B0009B6813F4403FDCD14FF4002002F0EEFF98
:1030C00063680546B3F5101F6DD008D8B3F5E01F4F
:1030D00055D01AD9B3F5001FDAD14509D8E7B3F5B1
:1030E000201F4AD0B3F5301FD2D1FFF7A5FA41F225
:1030F0000303984233D92D0A324B9D421DD82268D2
:10310000936823F44073936038BDB3F5801F06D0F5
:103110000AD9B3F5A01F02D0B3F5C01FB8D19B0CDC
:103120005B00B5FBF3F5B3E7B3F5002FF7D023F45D
:103130000022B2F5802FF2D0AAE7234B234A2B447A
:1031400093421ED9224B234A2B4493422268936810
:103150002BD823F4407343F40073936038BD226886
:10316000936823F48073936038BD8508FFF764FA91
:1031700041F203039842BFD890E7C50988E70509E3
:1031800086E72268936823F4407343F48073936066
:1031900038BD1B0CB5FBF3F5FFF74EFA41F2030304
:1031A0009842A9D87AE7850972E743F4407393609F
:1031B00038BD00BF0020024000630258002D3101DD
:1031C00000230240105E5F00EFA1A0FF0F5E5F00D2
:1031D000DF4341FF1FBCBE0030B5002383B0019325
:1031E000002800F0D080456D0446002D00F0BA8024
:1031F000226893689B0003D59168714B0B409360E4
:103200009368DD0015D46F4B90686F491B680140CF
:103210006E489B0941F08051A0FB030391609B091C
:103220000193019B2BB1019B013B0193019B002B5F
:10323000F9D19368D80024D4636D012543F01003BD
:103240006365A36D2B43A365936813F0040F636D4F
:103250001DD1D9061BD4636D23F4817343F002039F
:1032600063659368DB0728D4594B9A4217D003F55E
:1032700080739A4213D0574B9B68D9071DD4564A86
:1032800015E09368002513F0040F636DE1D0636DC2
:10329000012543F010032846636503B030BD4C4A56
:1032A0004E4B92689B681343D80706D44C4A9368E8
:1032B000616823F47C130B439360FFF7BDF941F27F
:1032C0000303A1689842237F52D894F815C01A04CA
:1032D000206B42EA4C3202430A43012B03D1236A9A
:1032E000013B42EA4342636A23B103F47873A16A63
:1032F0000B431A4323683B49D86801400A43DA600C
:103300009A6812F0040F9A681CD112071AD4D86870
:10331000354A217D024042EA8132E16A0A43DA609D
:1033200094F83820012A3AD01A6922F001021A6171
:103330001A692046616B22F070420A431A61FFF756
:1033400089FE2368E268012A21D01A6B22F00F025D
:103350001A63636D284623F0030343F0010363659A
:1033600003B030BD04F068FCA56584F850503FE719
:103370001029AAD1617D1A0442EA4132216B0A4325
:1033800042F01C02A9E70125284603B030BD196BA5
:10339000A26921F00F01013A0A431A63D9E7D4E97F
:1033A000102118690A43114901400A43A16C0A43DC
:1033B000E16B42EA014242F001021A61B8E700BF44
:1033C000C0FFFF5F44020024C0FFFF6F632D3E0576
:1033D00000200240006002580063025800210240B1
:1033E0000023024003C0F0FFFCBFFFFF1EF800FCFB
:1033F000F0B5002383B0019390F85030012B40D0FA
:10340000012304460E46154680F85030FFF7CAFDEA
:10341000E8B9676D05F080421B4B06F480311B4D07
:103420003B401B4F43F00203636523689E683540B1
:1034300015430D4345F000459D609A68002A0FDB57
:10344000636D23F0030343F00103636503E0636DE1
:1034500043F010036365002384F8503003B0F0BDDF
:10346000019A01320192019ABA42E6D9636D0022B3
:10347000012023F0120384F8502043F01003636509
:10348000ECE7022003B0F0BDFDEEFFFFC0FFFE3F02
:10349000FF955A55F0B490F850200E68012A49D093
:1034A0000346294A01201C6883F85000944208D042
:1034B0005A6D002142F0200283F850105A65F0BC8A
:1034C0007047224DAA6852070AD5A2685A6D01209A
:1034D00042F020025A65002283F85020F0BC704769
:1034E000A06810F00400F1D1C6B1DFF868C04F68E1
:1034F000DCF8082022F440423A43CCF80820A468C3
:10350000AA682243D40713D48A68DCF8081016434B
:103510000F4A0A401643CCF80860DCE70D498A6878
:1035200022F440428A60A068AA680243D00704D50A
:103530000020D0E70220F0BC70478C683046044A77
:1035400022408A60C7E700BF0020024000210240FD
:10355000E0F0FFFF0023024006494FF6FF0C000297
:10356000054BCA6800F4E06002EA0C021043034312
:10357000CB60704700ED00E00000FA051B4BDB68F4
:10358000C3F3022300B5C3F1070E03F1040CBEF12F
:10359000040F28BF4FF0040EBCF1060F1AD9033BED
:1035A0004FF0FF3C0CFA03FC22EA0C024FF0FF3C08
:1035B00000280CFA0EFC21EA0C0101FA03F141EAA1
:1035C00002010ADB09010A4BC9B2034483F8001364
:1035D0005DF804FB00221346E8E700F00F00090144
:1035E000044BC9B2034419765DF804FB00ED00E01A
:1035F00000E100E0FCEC00E0002807DB00F01F0128
:1036000001234009024A8B4042F82030704700BF36
:1036100000E100E000280DDB4309012200F01F005B
:103620000549203302FA00F041F82300BFF34F8F21
:10363000BFF36F8F704700BF00E100E0431EB3F19E
:10364000807F0CD24FF0E022002006494FF0F00CB2
:103650005361072381F823C09061136170470120F3
:10366000704700BF00ED00E0BFF35F8F044B002107
:103670005A6A22F480325A62C3F89410704700BF2D
:1036800000ED00E0064B40F00100C3F894005A6AD8
:1036900042F480325A62BFF34F8FBFF36F8F70478F
:1036A00000ED00E0174A4378C2F89830017821B362
:1036B000436800B5C2F89C30C37A90F80CC01B0672
:1036C00090F80FE043EA0C7390F80AC00B43817B3B
:1036D00043EACC4390F80DC043EA8C4390F809C00C
:1036E00043EA4143017A43EA0E4343EA0C2343EAA7
:1036F0004103C2F8A0305DF804FBC2F89C10C2F888
:10370000A010704700ED00E0704700BF08B5FFF75C
:10371000FBFF08BD0268344B344930B4344D354C9E
:10372000AA4218BF9A420CBF012300238A4208BF55
:1037300043F001033031A24208BF43F001033034AB
:103740008A4208BF43F001033031A24208BF43F070
:10375000010330348A4208BF43F0010301F55C7174
:10376000A24208BF43F0010304F55C748A4208BF1B
:1037700043F001033031A24208BF43F0010330346B
:103780008A4208BF43F001033031A24208BF43F030
:10379000010330348A4208BF43F001033031A242B2
:1037A00008BF43F001038A4208BF43F0010313B985
:1037B000114B9A4213D1D3B21049114C103BA1FBCB
:1037C00003515F2B0F4BC1F3021103EA0203615C4B
:1037D00088BF0433C1658365184630BC704722F04A
:1037E000FF038365F8E700BF10000240400002407D
:1037F0002800024058000240B8040240ABAAAAAA1E
:10380000E439010800FCFFFF0368294A294930B464
:10381000294D2A4CAB4218BF93420CBF0122002213
:103820008B4208BF42F001022831A34208BF42F098
:10383000010228348B4208BF42F001022831A34222
:1038400008BF42F001028B4208BF42F0010212B9E8
:103850001B4A934213D1DBB21A4C1B4A0121083B8D
:103860001A4DA4FB0343456602EB1312C3F3041382
:10387000920001FA03F30266836630BC7047DAB245
:103880001349144C1944103AA829A4FB02234FEA07
:10389000131300D80833104A03F01F0501210F4C01
:1038A0001A44A9404466920081660266E5E700BFBB
:1038B00008540258305402581C54025844540258B8
:1038C00094540258CDCCCCCC0096001680580258A7
:1038D000F0FBFDBFABAAAAAA00820010800802403C
:1038E00070B50446FEF790FE002C00F0C6802368F9
:1038F0000546954A934248D01832934245D030321B
:1039000092498B4218BF934201F130010CBF012252
:1039100000228B4208BF42F0010218318B4208BFDF
:1039200042F0010218318B4208BF42F00102183107
:103930008B4208BF42F0010201F556718B4208BF6D
:1039400042F0010218318B4208BF42F001021831E7
:103950008B4208BF42F0010218318B4208BF42F08F
:10396000010218318B4208BF42F0010218318B422C
:1039700008BF42F0010218318B4208BF42F0010239
:103980001AB9734A934240F0F5800222002184F86C
:10399000352084F834101A6822F001021A6005E01C
:1039A000FEF732FE431B052B40D823681A68D10767
:1039B000F6D4D4E9022521692A43A0691D680A4387
:1039C00061690A43E16902430A4362492940256A61
:1039D0002A430A43616A04292FD01A605A6922F0E7
:1039E0000702114359612046FFF794FEE26D3F2321
:1039F00002F01F02934083602046FFF705FFA36893
:103A0000802B3CD06368A06EDAB2013BD4E9185138
:103A1000072B2A60486026D90023C4E91B3363675B
:103A200000200123606584F8353070BD2022032317
:103A30000120626584F8353070BDD4E90B5129430B
:103A40000A431A605969A26A21F00701114341F043
:103A50000401002DC6D000284FD1012A6ED032F0CB
:103A60000202BFD151E0501E072810D9626FD4E97D
:103A70001B31002018604A60D2E7012070BD00238E
:103A8000A16ED4E91802636003605160C4E7216845
:103A9000314B324DA94218BF994205F114050CBFB4
:103AA00001230023A94208BF43F001031435A942B2
:103AB00008BF43F001031435A94208BF43F00103D6
:103AC0001435A94208BF43F001031435A94208BFC9
:103AD00043F001033BB9224B994204D0214B2249C8
:103AE00013449B0003E0214B214913449B00012216
:103AF0008240C4E91B316267BBE7B0F5005F0ED0BE
:103B0000022A05D9032A7FF46DAFEA017FF56AAF77
:103B1000012340221846626584F8353070BD032ABF
:103B20003FF660AF01A050F822F000BF113B000843
:103B30000B3B0008113B00083D3B0008B5F1C07F7E
:103B40007FF450AFE4E700BF1000024040000240A5
:103B5000B80402403F8010FE085402581C5402581A
:103B6000945402583F820010400902403F960016CC
:103B700040590258324A33483349834218BF93426E
:103B800000F128000CBF012200228B4208BF42F046
:103B900001022831834208BF42F0010228308B42E3
:103BA00008BF42F001022831834208BF42F00102FF
:103BB0008B4208BF42F0010212B9244A934238D125
:103BC00002220021224D84F8341084F835201A682E
:103BD0001540A268402A2AD0802A0CBF4FF48040AA
:103BE0000846266AD4E90312D20842EAD102616982
:103BF00042EAD102A16942EAD102E16942EAD10274
:103C0000144942EA161219442A4302431248A0FBFF
:103C1000010120461A600B099B00E365FFF77AFD5E
:103C2000E26D012302F01F0293404360E4E610209E
:103C3000D7E7402203230120626584F8353070BD48
:103C4000085402581C5402583054025894540258D4
:103C50000F00FEFFF8ABFDA7CDCCCCCC002800F0C8
:103C6000BC80844690F83400012800F0B880012020
:103C70002DE9F0419CF835408CF83400844208D09E
:103C800000224FF400638CF83420CCF85430BDE8A7
:103C9000F0810220DCF800507A4C8CF835000020CE
:103CA000794ECCF854007948854218BFA54200F1FE
:103CB00018000CBF01240024854208BF44F0010411
:103CC0001830854208BF44F001041830854208BF0F
:103CD00044F001041830854208BF44F0010400F5A7
:103CE0005670854208BF44F001041830854208BF71
:103CF00044F001041830854208BF44F00104183034
:103D0000854208BF44F001041830854208BF44F0E2
:103D100001041830854208BF44F001041830854280
:103D200008BF44F001041830854208BF44F0010484
:103D3000A0F59560B54218BF8542DCF86C600CBFF9
:103D40000120002054EA0008286820F001002860C3
:103D5000DCF86400DCF86840DCF85870446040D05F
:103D600016B1DCE91C044460DCF85C004FF03F0E47
:103D700000F01F000EFA00F0B860286820F48020E0
:103D800028606B60DCF80830402B23D0A960EA6023
:103D90002B6823F01E0343F016032B60DCF8403041
:103DA0001BB12B6843F008032B60DCF860301A6805
:103DB000D20303D51A6842F480721A601EB13368C8
:103DC00043F4807333602B68002043F001032B60C1
:103DD000BDE8F081AA60E960DAE7012070470220BF
:103DE000704716B1DCE91C0444602948DFF8A8E0FC
:103DF000754518BF85420EF1140E0CBF012000203E
:103E0000754508BF40F001000EF1140E754508BF5E
:103E100040F001000EF1140E754508BF40F001009E
:103E20000EF1140E754508BF40F001000EF1140E9E
:103E3000754508BF40F0010010B9164885420ED103
:103E4000DCF85C0000F01F0E012000FA0EF0786034
:103E50006B60DCF80830402B10D0A960EA602B685A
:103E600023F00E0343F00A032B60DCF84030002BF4
:103E70009BD02B6843F004032B6096E7AA60E960AF
:103E8000EDE700BF40000240280002405800024019
:103E900008540258945402581C54025800285FD009
:103EA00038B590F835200346022A55D10168444AB6
:103EB000914248D01832914245D03032414C42486C
:103EC000A14218BF914204F148040CBF0122002214
:103ED000814208BF42F001023030A14208BF42F0E7
:103EE00001023034814208BF42F0010200F55C70EB
:103EF000A14208BF42F0010204F55C74814208BF90
:103F000042F001023030A14208BF42F001023034D9
:103F1000814208BF42F001023030A14208BF42F0A6
:103F200001023034814208BF42F001023030A14228
:103F300008BF42F00102814208BF42F0010212B9FB
:103F4000224A91420ED10422002083F835200B68CA
:103F500023F001030B6038BD802201205A6538BD73
:103F6000012070470A681C6E22F00E02D86D9D6D0C
:103F70000A6000F01F000A6822F001020A600122B4
:103F80002168824021F4807121606A60DA6ED3E991
:103F90001910486032B11168D3E91C0421F4807112
:103FA00011604460002401211A6D83F8344083F8C5
:103FB00035101AB118469047204638BD104638BD16
:103FC000100002404000024070000240B80402406D
:103FD0002DE9F04300229C4B83B09C4E1D68814626
:103FE000019203689A4A846D934218BFB3422768CE
:103FF00008BF0126216818BF002645D01832954811
:10400000834218BF934200F118000CBF0122002226
:10401000834208BF42F001021830834208BF42F0D9
:1040200001021830834208BF42F001021830834277
:1040300008BF42F0010200F55670834208BF42F00B
:1040400001021830834208BF42F001021830834257
:1040500008BF42F001021830834208BF42F001025B
:104060001830834208BF42F001021830834208BF73
:1040700042F001021830834208BF42F001021AB92F
:10408000754A934240F05082D9F85C10082201F042
:104090001F0C02FA0CF2174240F0888127FA0CF24A
:1040A000D2070CD55A69100609D5012202FA0CF282
:1040B000A260D9F8542042F00202C9F854204FF00F
:1040C000040E0EFA0CF038425BD0002E4FD1634A3A
:1040D000DFF88081434518BF934208F118080CBFF0
:1040E00001220022434508BF42F0010208F11808EE
:1040F000434508BF42F0010208F11808434508BFD4
:1041000042F0010208F11808434508BF42F00102DD
:1041100008F55678434508BF42F0010208F1180837
:10412000434508BF42F0010208F11808434508BFA3
:1041300042F0010208F11808434508BF42F00102AD
:1041400008F11808434508BF42F0010208F11808B9
:10415000434508BF42F0010208F11808434508BF73
:1041600042F001021AB93C4A934240F019821A689F
:10417000920706D5A060D9F8542042F00402C9F88D
:104180005420102202FA0CFC1CEA070F6CD0002EFF
:1041900045D1324A2F4EB34218BF934206F118065A
:1041A0000CBF01220022B34208BF42F001021836C0
:1041B000B34208BF42F001021836B34208BF42F0D2
:1041C00001021836B34208BF42F0010206F55676E6
:1041D000B34208BF42F001021836B34208BF42F0B2
:1041E00001021836B34208BF42F001021836B3424A
:1041F00008BF42F001021836B34208BF42F0010284
:104200001836B34208BF42F001021836B34208BF65
:1042100042F001021AB9104A934240F0C9811A686B
:10422000100721D5C4F808C01A68560300F14C8164
:104230001A68D20503D41A6822F008021A60D9F865
:1042400040308BB10CE000BF44020024100002405B
:104250002800024058000240B804024040000240DA
:1042600048469847D9F85C1001F01F0120268E407F
:104270003E4268D0D9F80020A54BA64FBA4218BFDD
:104280009A4207F118070CBF01230023BA4208BF66
:1042900043F001031837BA4208BF43F0010318374F
:1042A000BA4208BF43F001031837BA4208BF43F0CF
:1042B00001031837BA4208BF43F001031837BA4266
:1042C00008BF43F0010307F55677BA4208BF43F031
:1042D00001031837BA4208BF43F001031837BA4246
:1042E00008BF43F001031837BA4208BF43F0010387
:1042F0001837BA4208BF43F001031837BA4208BF63
:1043000043F001031837BA4208BF43F001031BB959
:10431000814B9A4240F062811368DB0613D5A66098
:1043200099F83530042B136800F0AE8013F4802F19
:10433000136800F0D3801C0340F1DE80D9F83C30D4
:104340000BB148469847D9F85430002B00F0B9809B
:10435000D9F85430D8071FD5D9F80020042189F89E
:104360003510136823F0010313606C4BA3FB053574
:10437000AD0A02E01368D90704D5019B0133AB42B3
:104380000193F7D9002389F834301368DB074CBF59
:104390000323012389F83530D9F84C30002B00F085
:1043A0009080484603B0BDE8F043184718684007BE
:1043B0000AD5186820F004001860A260D9F85420CB
:1043C00042F00102C9F8542027FA0CF2D2077FF517
:1043D00076AE534A5348834218BF934200F13000EF
:1043E0000CBF01220022834208BF42F001021830B4
:1043F000834208BF42F001021830834208BF42F0F6
:1044000001021830834208BF42F0010200F55670E5
:10441000834208BF42F001021830834208BF42F0D5
:1044200001021830834208BF42F001021830834273
:1044300008BF42F001021830834208BF42F0010277
:104440001830834208BF42F001021830834208BF8F
:1044500042F001021830834208BF42F00102002AF4
:104460007FF420AE002E7FF41DAE1A68042202FAFB
:104470000CF23A4240F09480102202FA0CFC17EA47
:104480000C0F3FF4F1AE84E623F01603136053697A
:1044900023F080035361D9F840309BB3136823F0B5
:1044A000080313603F230025012203FA01F1D9F824
:1044B0005030A16089F8345089F83520002B7FF402
:1044C00070AF03B0BDE8F0831B6818037FF5B7AE8B
:1044D000D9F84830002B7FF4C3AEC5E613F48073DF
:1044E0007FF42CAF116821F010011160012289F8CE
:1044F000343089F8352021E7D9F84430002B7FF497
:1045000020AF20E7D9F84830002BC7D1CAE700BF59
:104510001000024028000240B8040240B5814E1B42
:1045200058000240400002404E4A4F4DAB4218BF77
:10453000934205F114050CBF01220022AB4208BFD3
:1045400042F001021435AB4208BF42F001021435BB
:10455000AB4208BF42F001021435AB4208BF42F043
:1045600001021435AB4208BF42F0010212B93F4AC2
:104570009342A6D1D9F85C5004261A6805F01F05AD
:10458000AE400E4219D0570717D5100466604BD5C0
:10459000D1034FD4D9F84830002B7FF402AF90E715
:1045A0001A68102202FA0CFC17EA0C0F3FF45CAEFA
:1045B0001A6852077FF558AE34E60226AE400E4226
:1045C00011D097070FD56660140439D5D00343D4B2
:1045D000D9F84430002B7FF4E4AE72E713689F07EC
:1045E0007FF5B1AE9BE60826AE400E423FF469AFC0
:1045F00011077FF566AF1A68002122F00E021A60DB
:104600000123D9F84C2003FA05F56560C9F8543048
:1046100089F8341089F83530002A3FF452AF484603
:1046200003B0BDE8F0431047920603D41A6822F0A5
:1046300004021A60D9F84030002B7FF4B2AE40E794
:1046400012F0200208D11968012421F00A01196032
:1046500089F8342089F83540D9F83C30002B7FF4B4
:10466000A0AE2EE7085402581C5402589454025825
:10467000406D7047002800F0DE81F8B503680446FD
:10468000D80730D59F490A69896A02F03802102A92
:1046900000F00081182A00F0F8806368B3F5803FCD
:1046A00000F02081002B00F05E81B3F5A02F954B28
:1046B0001A6800F02F8222F480321A601A6822F4FD
:1046C00080221A60FDF7A0FF8E4E41F28837054622
:1046D00005E0FDF799FF401BB84200F242813368C4
:1046E0009A03F6D523689D0700F18580D9062FD55A
:1046F000844A1369926A03F03803082B00F0DA80C9
:10470000182B00F0D280E3697E4D002B00F065810C
:104710002B6843F080032B60FDF776FF064605E02B
:10472000FDF772FF801B022800F21B812B68DB055E
:10473000F6D5FDF781FF41F20303984200F20B82A8
:104740006B68226A23F0F84343EA82636B60236854
:104750001D0716D563696B4D002B00F01C816B6F34
:1047600043F001036B67FDF74FFF064605E0FDF7D9
:104770004BFF801B022800F2F4806B6F9807F6D580
:1047800023689A0616D5A3695E4D002B00F01481AC
:104790002B6843F480532B60FDF736FF064605E097
:1047A000FDF732FF801B022800F2DB802B689F049C
:1047B000F6D52368590700F19B80636ACBB1514D50
:1047C0002A6902F03802182A6DD0022B2B6823F0D8
:1047D00080732B6000F03981FDF716FF044605E079
:1047E000FDF712FF001B022800F2BB802B689B0123
:1047F000F6D40020F8BD434A1369926A13F03803D7
:1048000029D1404BE2681B68590701D5002A4AD0DC
:104810003C4D2B6823F0190313432B60FDF7F4FE86
:10482000064605E0FDF7F0FE801B022800F29980A5
:104830002B685B07F6D5FDF7FFFE41F20303226903
:1048400098426B6800F2F08023F47C3343EA023331
:104850006B6023684AE7182B00F0E280294DE2687C
:104860002B68002A00F0CB8023F0190313432B6040
:10487000FDF7CAFE064604E0FDF7C6FE801B0228CF
:104880006FD82B685F07F7D5D5E701F00301022940
:104890007FF403AF1B4A126891037FF524AF62686F
:1048A000002A7FF420AF0120F8BD02F00302012AA4
:1048B0007FF429AF134B1B68DA0502D5E369802B1F
:1048C000F1D1FDF7B9FE41F203030E4A9842216A85
:1048D00000F2B380536823F0F84343EA81635360E6
:1048E000236835E7074A136843F480331360E9E629
:1048F000054D2B6843F480732B60FDF785FE06465B
:1049000009E000BF0044025800480258FDF77CFE51
:10491000801B642825D82B68DA05F7D5A368012BFE
:1049200000F02281002B00F0FD80052B954B1A6FC3
:1049300000F0208122F001021A671A6F22F00402AF
:104940001A67FDF761FE8F4E41F28837054604E095
:10495000FDF75AFE401BB84203D8336F9B07F7D5CB
:104960002BE70320F8BD874D41F288372B6823F4ED
:1049700080332B602B6823F480232B60FDF744FEEB
:10498000064604E0FDF740FE801BB842E9D82B68DC
:104990009B03F7D4A6E66B6F23F001036B67FDF76B
:1049A00033FE064604E0FDF72FFE801B0228D8D810
:1049B0006B6F9907F7D4E3E62B6823F480532B60E1
:1049C000FDF722FE064604E0FDF71EFE801B0228CE
:1049D000C7D82B689804F7D4EBE62B6823F0800344
:1049E0002B60FDF711FE064604E0FDF70DFE801B6F
:1049F0000228B6D82B68DF05F7D42368A8E623F091
:104A000001032B60FDF700FE064604E0FDF7FCFD08
:104A1000801B0228A5D82B685807F7D4236865E6C1
:104A200090077FF41BAFECE623F0FE4343EA0263FA
:104A30006B6023685AE601207047D36823F07C53EB
:104A400043EA0163D360236882E6FDF7DDFD064695
:104A500004E0FDF7D9FD801B022882D82B6899015C
:104A6000F7D4A96A484BA26A0B404849454E134304
:104A7000E26A43EA0213AB62D4E90D32013B013A28
:104A80005B0212049BB202F4FE021343226B013A52
:104A9000C2F308021343E26B013A120602F0FE422F
:104AA00013432B63EB6A23F00103EB626A6BA36C85
:104AB000114041EAC3016963EB6A226C23F00C03E5
:104AC0001343EB62EB6A626C23F002031343EB6265
:104AD000EB6A43F48033EB62EB6A43F40033EB623E
:104AE000EB6A43F48023EB62EB6A43F00103EB6271
:104AF0002B6843F080732B60FDF786FD044605E0CC
:104B0000FDF782FD001B02283FF62BAF33689A01A8
:104B1000F6D56EE642F480221A601A6842F48032BA
:104B20001A60CFE5174D41F288372B6F23F0010350
:104B30002B672B6F23F004032B67FDF765FD0646FB
:104B400005E0FDF761FD801BB8423FF60AAF2B6F11
:104B50009807F6D431E6EB68226A23F07C5343EAE7
:104B60000263EB602368F3E5064A136F43F0010329
:104B70001367E6E642F004021A671A6F42F0010278
:104B80001A67DEE6004402580CFCFFFF0700FFFF37
:104B9000474A136903F03803102B04D0182B0DD0AB
:104BA0001BB14448704744487047136899064AD57A
:104BB00013684248C3F3C103D8407047936A30B4C6
:104BC000946AD56A14F47C7F516BC4F3051038D015
:104BD000C1F3CC0105F0010503F0030305FB01F16E
:104BE000012B07EE901AB8EEE77A02D0022B2CD0F8
:104BF00093B307EE900A9FED325AF8EEE77A136B03
:104C0000C5EE276ADFED2F5AC3F3080307EE903A8B
:104C1000B7EE006AF8EEE77AE7EE257A77EE867A65
:104C200066EEA76A224B1B6BC3F34623013307EEE4
:104C3000903AB8EEE77AC6EE877AFCEEE77A17EE9E
:104C4000900A30BC70471D48704707EE900A9FEDF0
:104C50001E5AF8EEE77AD2E713689B0620D514684F
:104C600007EE900A1549F7EE005A136BC4F3C1041E
:104C7000F8EEE77A9FED135AC3F30803E14006EE1E
:104C8000903A06EE101AF8EEE66AB8EEC66AE7EE5B
:104C9000056A86EE277A76EEA56A66EE876AC1E730
:104CA00007EE900A9FED095AF8EEE77AA7E700BFF2
:104CB0000044025800093D000024F4000090D00395
:104CC0000024744A000000390024744B0024744C02
:104CD000002800F00281874A136803F00F038B421B
:104CE0002DE9F04104460D460CD2136823F00F0362
:104CF0000B431360136803F00F038B4202D00120B3
:104D0000BDE8F08123685F070BD57B4920698A697C
:104D100002F07002904204D98A6922F070020243C4
:104D20008A611E070BD574496069CA6902F0700276
:104D3000904204D9CA6922F070020243CA61D806BF
:104D40000BD56D49A069CA6902F4E062904204D9AA
:104D5000CA6922F4E0620243CA6199060BD566492A
:104D6000E0690A6A02F07002904204D90A6A22F0ED
:104D7000700202430A629A0740F1A1805E48E1682E
:104D8000826902F00F02914204D9826922F00F0277
:104D90000A438261D80730D5574AA168936923F442
:104DA00070630B43936161681368022900F0978078
:104DB000032900F08E80012900F0978058079ED5C6
:104DC0004D4E41F28838336923F007030B433361BA
:104DD000FDF71AFC074605E0FDF716FCC01B404531
:104DE00000F281803369626803F03803B3EBC20FCD
:104DF000F2D12368990706D5E1683F48826902F03D
:104E00000F028A425FD83B490A6802F00F02AA42A9
:104E10000AD90A6822F00F022A430A600A6802F0DF
:104E20000F02AA427FF46BAF5A070BD532492069B3
:104E30008A6902F07002904204D28A6922F07002FC
:104E400002438A611F070BD52B496069CA6902F0CA
:104E50007002904204D2CA6922F070020243CA6111
:104E6000DE060BD52449A069CA6902F4E0629042CB
:104E700004D2CA6922F4E0620243CA619D060BD5DE
:104E80001D4AE169136A03F07003994204D2136A60
:104E900023F070030B431362FFF77AFE164A0346B2
:104EA000164892691649C2F30322825C0E2002F072
:104EB0001F02D340BDE8F0410B60FDF743BBDA07AA
:104EC0003FF56AAF9FE7826922F00F0211438161CB
:104ED00099E79F013FF574AF11E7012070479B03ED
:104EE0003FF56EAF0BE703200AE7DE053FF568AF3D
:104EF00005E700BF00200052004402589C3A010818
:104F00004402002408B501F095F9064B06499B6957
:104F1000064A03F00F03CB5C03F01F03D840106078
:104F200008BD00BF004402589C3A01084802002412
:104F300010B501F07FF90949094A8B69094C03F062
:104F40000F03D35C03F01F03D8402060CB69C3F389
:104F50000213D35C03F01F03D84010BD0044025875
:104F60009C3A01084802002410B501F063F9094990
:104F7000094A8B69094C03F00F03D35C03F01F034C
:104F8000D8402060CB69C3F30223D35C03F01F0336
:104F9000D84010BD004402589C3A01084802002441
:104FA000F8B53A4CA36A03F00303032B67D02368D8
:104FB00006460F4623F080632360FDF725FB054678
:104FC00004E0FDF721FB431B022B56D823681A018E
:104FD000F7D4A36A326823F47C3343EA0233A36232
:104FE000D6E90232013B013A5B0212049BB202F4A1
:104FF000FE0213437268013AC2F308021343326996
:10500000013A120602F0FE421343A363E36A726997
:1050100023F0C0031343E362E26AB36922F0200283
:105020001A431B4BE262E26A22F01002E262E16B79
:10503000F2690B4043EAC203E363E36A43F01003FF
:10504000E362E36AEFB1012F0CBF43F4801343F432
:105050000013E3620D4C236843F080632360FDF787
:10506000D3FA054604E0FDF7CFFA401B022804D826
:1050700023681B01F7D50020F8BD0320F8BD0120EF
:10508000F8BD43F40023E362E4E700BF00440258A4
:105090000700FFFFF8B53A4CA36A03F00303032BA4
:1050A00067D0236806460F4623F080532360FDF740
:1050B000ABFA054604E0FDF7A7FA431B022B56D8CE
:1050C00023689A00F7D4A36A326823F07C7343EA1A
:1050D0000253A362D6E90232013B013A5B02120499
:1050E0009BB202F4FE0213437268013AC2F3080253
:1050F00013433269013A120602F0FE42134323645D
:10510000E36A726923F440631343E362E26AB369BA
:1051100022F400721A431B4BE262E26A22F48072AC
:10512000E262616CF2690B4043EAC2036364E36AC2
:1051300043F48073E362E36AEFB1012F0CBF43F4E1
:10514000000343F08073E3620D4C236843F0805307
:105150002360FDF759FA054604E0FDF755FA401BB8
:10516000022804D823689B00F7D50020F8BD03204F
:10517000F8BD0120F8BD43F48003E362E4E700BF1B
:10518000004402580700FFFF2DE9F8430368044676
:1051900013F0006622D0426EB2F5001F00F0CE84FC
:1051A00011D8002A00F0F884B2F5801F40F0F18495
:1051B00002210430FFF7F4FE0646002E40F08684FC
:1051C000626E236803E0B2F5401F40F0E284A84815
:1051D0000026016D21F440110A430265DD050AD560
:1051E000626D042A06D8DFE812F0A20493049A0440
:1051F000DF02DF020126354698051BD5A26D802A05
:1052000000F05B8400F2EC80002A00F08B83402ADF
:1052100040F0ED800021201DFFF7C2FE2368054607
:10522000002D40F067839249A06D0A6D22F4E07270
:1052300002430A6559051FD5D4F8A420B2F5800FA2
:1052400000F0478400F2D680002A00F07183B2F5A6
:10525000001F40F0D7800021201DFFF7A1FE23682A
:105260000546002D40F044838149D4F8A4008A6D9E
:1052700022F4600202438A651A051FD5D4F8A820DB
:10528000B2F1007F00F02E8400F2BF80002A00F00F
:105290005583B2F1807F40F0C0800021201DFFF7D0
:1052A0007FFE23680546002D40F02A837049D4F81C
:1052B000A8008A6D22F0E06202438A659F0118D53A
:1052C000A26C202A00F0DA8300F2AA803AB1102AF8
:1052D00040F0A9806649CA6A42F40032CA62002DD1
:1052E00040F059836249A06CCA6C22F0300202433C
:1052F000CA64D8041DD5E26DB2F5005F00F0FB83EF
:1053000000F29480002A00F01F83B2F5805F40F025
:1053100095800021201DFFF743FE23680546002DE0
:1053200040F0EC825249E06D0A6D22F4E042024303
:105330000A6599041AD5226EB2F5003F00F0748315
:105340007FD84AB1B2F5803F40F083800121201D13
:10535000FFF726FE23680546002D40F01E834449D2
:10536000206E0A6D22F4E02202430A655A041BD51E
:10537000D4F8AC20B2F1005F00F060836CD842B189
:10538000B2F1805F70D10121201DFFF709FE236873
:105390000546002D40F003833549D4F8AC008A6DF2
:1053A00022F0E04202438A651F040DD5E26EB2F19D
:1053B000805F00F03183B2F1005F00F00182002ACB
:1053C00000F0048201263546D8015DD5626C032ABF
:1053D00000F20A84DFE812F0540017034E00540074
:1053E000C02A3FF41DAFB2F5807F3FF419AF01260C
:1053F00035461FE7B2F5C00F3FF433AFB2F5000FEB
:105400003FF42FAF0126354636E7B2F1407F3FF437
:105410004AAFB2F1806F3FF446AF012635464DE703
:10542000302A3FF45CAF0126354662E7B2F5405FB3
:105430003FF475AFB2F5804F3FF471AF01263546AA
:1054400077E722F48031B1F5802F85D0B2F5403F67
:1054500082D00126354689E722F08051B1F1804F94
:1054600097D0B2F1405F94D0012635469CE700BF4B
:10547000004402580221201DFFF792FD23680546D3
:10548000002D00F06B822E46590200F1F081DF07FB
:105490002FD5A26F282A2AD8DFE812F0D3012900DD
:1054A0002900290029002900290029006D0329006D
:1054B000290029002900290029002900CC01290000
:1054C000290029002900290029002900D3012900E9
:1054D000290029002900290029002900D3012900D9
:1054E000290029002900290029002900D3010126CB
:1054F0003546980716D5626F052A00F27883DFE8F3
:1055000012F00D00300306000D000D000D0001210A
:1055100004F12400FFF7BEFD23680546002D00F0CE
:1055200025822E46590717D5D4F89020052A00F277
:105530006183DFE812F00D000C0306000D000D0082
:105540000D00012104F12400FFF7A4FD23680546A6
:10555000002D00F013822E469A061DD5D4F88C201B
:10556000B2F1005F00F0458200F2DC804AB1B2F196
:10557000805F40F0E1800021201DFFF711FD2368CE
:105580000546002D40F00582A949D4F88C004A6DEB
:1055900022F0E04202434A655F061DD5D4F8982008
:1055A000B2F5006F00F0548200F2C9804AB1B2F542
:1055B000806F40F0CE800021201DFFF7F1FC2368B2
:1055C0000546002D40F0C8819949D4F898008A6DAD
:1055D00022F4E05202438A6518061DD5D4F89C20B7
:1055E000B2F5804F00F03F8200F2B6804AB1B2F5CA
:1055F000005F40F0BB800021201DFFF7D1FC236835
:105600000546002D40F0A6818949D4F89C008A6D9A
:1056100022F4604202438A6519070BD5D4F8801042
:10562000B1F5805F00F03E828148426D22F4405225
:105630000A434265DA060BD5D4F89410B1F5807FA1
:1056400000F025827A48826D22F440720A43826516
:105650001F030ED5D4F8A010B1F5803F00F0D48020
:10566000B1F5003F00F0D780002900F0BA81012693
:10567000354658030FD5D4F88420B2F5001F00F04A
:10568000B080B2F5401F00F0B380B2F5801F00F08B
:10569000A08101263546D90309D5E26C002A00F025
:1056A0008681B2F5803F00F02D81012635469A00B3
:1056B00000F1D2809F035CD4301E18BF0120DE02AF
:1056C00006D55B49256F0A6D22F000422A430A6520
:1056D000DD0007D55649D4F8B4500A6922F4804257
:1056E0002A430A61990206D55149A56E0A6D22F036
:1056F00080722A430A655A0009D54D4A116921F47E
:10570000004111611169D4F8B85029431161002B8F
:1057100006DA474A216DD36C23F040530B43D36420
:10572000BDE8F88322F08051B1F1804F3FF429AFFA
:10573000B2F1405F3FF425AF012635462CE722F455
:105740008061B1F5805F3FF43CAFB2F5406F3FF44C
:1057500038AF012635463FE722F40051B1F5004F3E
:105760003FF44FAFB2F5C04F3FF44BAF0126354683
:1057700052E7E26FB2F5807F00F0228106D922F471
:105780008071B1F5007F03D0012098E7002AFBD19A
:10579000002DF9D1264D301E696D18BF012021F46E
:1057A00040710A436A658AE73546002D40F0A480BF
:1057B0001F49606D0A6D22F0070202430A651BE56E
:1057C0000121201DFFF7ECFB23680546002D40F06A
:1057D000DE801749E06E0A6D22F0405202430A65EE
:1057E000F2E5012104F12400FFF754FC236805468B
:1057F000002D40F0DA800E49D4F884004A6D22F47E
:10580000401202434A6546E7022104F12400FFF7F3
:1058100041FC23680546002D40F0C5800449D4F8BA
:10582000A0008A6D22F4403202438A6521E700BF5E
:1058300000440258012104F12400FFF72BFC2368E7
:105840000546002D40F0AD80AF49A06F4A6D22F0B3
:10585000380202434A654CE6022104F12400FFF7B6
:1058600019FC236800283FF425AF012622E7A74F43
:105870003B6843F480733B60FCF7C6FE804606E05D
:10588000FCF7C2FEA0EB0800642800F27E813B68B2
:10589000DA05F5D5002D40F0A4819B4AD4F8B0304C
:1058A000116F594011F4407F0BD0116F106F21F42C
:1058B000407140F480301067106F20F48030106722
:1058C0001167B3F5807F00F06E8103F44072B2F58A
:1058D000407F00F07C818C490A6922F47C520A6185
:1058E000894AC3F30B03116F0B4313672368CEE59B
:1058F0002E46C1E42E469DE42E467DE42E4618E554
:105900002E46DBE40221201DFFF74AFB05462368F3
:10591000002D53D17C49E06CCA6C22F480320243E2
:10592000CA64C4E67849CA6A42F40032CA6277E4BB
:105930007549CA6A42F40032CA6292E47249CA6A7C
:1059400042F40032CA62AEE46F49CA6A42F40032DD
:10595000CA62E4E42E465FE62E463DE66A49606C84
:10596000CA6C22F003020243CA648DE56649606F87
:105970004A6D22F0070202434A65D3E56249D4F832
:1059800090008A6D22F0070202438A65E4E52E4604
:105990001AE52E4600E62E46ABE42E46E6E42E46F9
:1059A00002E52E46A5E52E4663E62E4673E65649E9
:1059B000CA6A42F40032CA62002DABD02E4676E6A7
:1059C0005148C16A41F40031C162002D7FF4DCAE60
:1059D000E0E64D49CA6A42F40032CA62002DE4D1C1
:1059E00009E7201DFFF7DCFA05462368002DDAD110
:1059F00014E7022104F12400FFF74CFB054623685D
:105A0000002DC6D1C0E54049CA6A42F40032CA62DC
:105A1000002D7FF438ADA1E73B49CA6A42F4003259
:105A2000CA62002DB3D1D4E6012104F12400FFF7AE
:105A300031FB05462368002DAFD190E4012104F12C
:105A40002400FFF727FB05462368002DA7D1A3E418
:105A5000022104F12400FFF71DFB05462368002DF9
:105A60007FF47AAFB0E5022104F12400FFF712FBC6
:105A700005462368002D7FF46DAFC5E50221201D8A
:105A8000FFF78EFA05462368002D84D12AE402210F
:105A900004F12400FFF7FEFA236800283FF4D8AD94
:105AA0000126D5E5022104F12400FFF7F3FA23686B
:105AB00000283FF4BFAD0126BCE5002104F124001D
:105AC000FFF7E8FA23680546FFF7AABB2368FFF74C
:105AD00085BB002104F12400FFF7DCFA23680546AA
