:020000040800F2
:1000000000000220110A00080D0A000829BA0008A1
:100010000D0A00080D0A00080D0A00080000000083
:100020000000000000000000000000000D0A0008B1
:100030000D0A0008000000000D0A0008ADB9000814
:100040000D0A00080D0A00080D0A00080D0A000834
:100050000D0A00080D0A00080D0A00080D0A000824
:100060000D0A00080D0A00080D0A0008E1A50008A5
:10007000EDA500085D930008F9A5000805A6000895
:1000800061B400080D9B00080D0A00080D0A000865
:100090000D0A00080D0A00080D0A00080D0A0008E4
:1000A0000D0A00080D0A00080D0A00080D0A0008D4
:1000B000E9320108F532010801330108419B0008CB
:1000C0000D0A00084D9B00080D0A0008592B010875
:1000D000652B010895B20008C1B20008F5B200080E
:1000E0000D0A00080D0A0008000000000D0A0008B3
:1000F0000D0A00080D0A00080D0A00080D0A000884
:100100000D0A00080D0A00080D330108712B0108C3
:1001100029B300085DB300080D0A00080D0A0008A5
:100120000D0A00080D0A0008952B0108C92B0108CB
:1001300095B400080D0A00080D0A00080D0A000811
:1001400000000000000000000000000000000000AF
:100150000D0A00080D0A00080D0A000891B30008F6
:10016000599B00080D0A0008BDB90008E1B9000854
:100170000D0A000805BA00080D0A00080D0A00085B
:100180000D0A00080D0A0008C5B30008F9B30008FD
:100190007D2B0108892B01080D0A00080D0A0008B3
:1001A0000D0A00080D0A00080D0A00080D0A0008D3
:1001B00001A300080D0A00080D0A00080D0A000836
:1001C0000D0A00080D0A00080D0A00080D0A0008B3
:1001D0000D0A00080D0A00080D0A00080D0A0008A3
:1001E0000D0A00080D0A00080D0A00080D0A000893
:1001F0000D0A00080D0A00080D0A00080D0A000883
:100200000D0A00080D0A00080D0A00080D0A000872
:100210000D0A00080D0A00080D0A00080D0A000862
:100220000D0A00080D0A00080D0A00080000000071
:100230000D0A00080D0A0008000000000D0A000861
:100240000D0A00080D0A00080D0A00080D0A000832
:100250000D0A00080D0A00080D0A00080D0A000822
:100260000D0A00080D0A00080D0A00080D0A000812
:100270000D0A00080D0A00082DB400080000000057
:100280000D0A00080D0A00080D0A00080000000011
:08029000000000000D0A000847
:1002A00010B5054C237833B9044B13B10448AFF3B0
:1002B00000800123237010BDF00300240000000023
:1002C000D467010808B5034B1BB103490348AFF3DA
:1002D000008008BD00000000F4030024D46701087A
:1002E000034613F8012B002AFBD1181A0138704776
:1002F00001F0FF01102A2BDB10F0070F08D010F8D7
:10030000013B013A8B422DD010F0070F42B3F6D1DA
:10031000F0B441EA012141EA014122F007047FF0F3
:1003200000070023F0E80256083C85EA010586EA4A
:10033000010685FA47F5A3FA87F586FA47F6A5FA86
:1003400087F68EB9EED1F0BC01F0FF0102F0070292
:1003500032B110F8013B013A83EA010313B1F8D13D
:100360000020704701387047002D06BF354603381E
:10037000073815F0010F07D1013015F4807F02BF57
:10038000013015F4C03F0130F0BC0138704700BFA8
:1003900081F0004102E000BF83F0004330B54FEA36
:1003A00041044FEA430594EA050F08BF90EA020FA3
:1003B0001FBF54EA000C55EA020C7FEA645C7FEA36
:1003C000655C00F0E2804FEA5454D4EB5555B8BF59
:1003D0006D420CDD2C4480EA020281EA030382EACA
:1003E000000083EA010180EA020281EA0303362D5C
:1003F00088BF30BD11F0004F4FEA01314FF4801C2F
:100400004CEA113102D0404261EB410113F0004F40
:100410004FEA03334CEA133302D0524263EB4303F7
:1004200094EA050F00F0A780A4F10104D5F1200E95
:100430000DDB02FA0EFC22FA05F2801841F10001F0
:1004400003FA0EF2801843FA05F359410EE0A5F1C4
:1004500020050EF1200E012A03FA0EFC28BF4CF0F5
:10046000020C43FA05F3C01851EBE37101F00045AB
:1004700007D54FF0000EDCF1000C7EEB00006EEBB8
:100480000101B1F5801F1BD3B1F5001F0CD3490842
:100490005FEA30004FEA3C0C04F101044FEA445299
:1004A00012F5800F80F09A80BCF1004F08BF5FEA20
:1004B000500C50F1000041EB045141EA050130BD00
:1004C0005FEA4C0C404141EB0101013C28BFB1F512
:1004D000801FE9D291F0000F04BF01460020B1FA5D
:1004E00081F308BF2033A3F10B03B3F120020CDA30
:1004F0000C3208DD02F1140CC2F10C0201FA0CF00E
:1005000021FA02F10CE002F11402D8BFC2F1200C72
:1005100001FA02F120FA0CFCDCBF41EA0C01904028
:10052000E41AA2BF01EB0451294330BD6FEA040471
:100530001F3C1CDA0C340EDC04F11404C4F120025C
:1005400020FA04F001FA02F340EA030021FA04F36E
:1005500045EA030130BDC4F10C04C4F1200220FAC5
:1005600002F001FA04F340EA0300294630BD21FA03
:1005700004F0294630BD94F0000F83F4801306BFC9
:1005800081F480110134013D4EE77FEA645C18BFBD
:100590007FEA655C29D094EA050F08BF90EA020F54
:1005A00005D054EA000C04BF1946104630BD91EA4C
:1005B000030F1EBF0021002030BD5FEA545C05D14F
:1005C0004000494128BF41F0004130BD14F580048E
:1005D0003CBF01F5801130BD01F0004545F0FE4102
:1005E00041F470014FF0000030BD7FEA645C1ABF37
:1005F000194610467FEA655C1CBF0B46024650EA6E
:10060000013406BF52EA033591EA030F41F4002199
:1006100030BD00BF90F0000F04BF0021704730B51F
:100620004FF4806404F132044FF000054FF00001F4
:1006300050E700BF90F0000F04BF0021704730B5B5
:100640004FF4806404F1320410F0004548BF40428A
:100650004FF000013EE700BF42004FEAE2014FEADF
:1006600031014FEA02701FBF12F07F4393F07F4FBA
:1006700081F06051704732F07F4208BF704793F0BD
:100680007F4F04BF41F40021704730B54FF46074D0
:1006900001F0004521F000411CE700BF50EA0102D3
:1006A00008BF704730B54FF000050AE050EA01027C
:1006B00008BF704730B511F0004502D5404261EBEC
:1006C00041014FF4806404F132045FEA915C3FF42D
:1006D000D8AE4FF003025FEADC0C18BF03325FEACA
:1006E000DC0C18BF033202EBDC02C2F1200300FA7B
:1006F00003FC20FA02F001FA03FE40EA0E0021FAA0
:1007000002F11444BDE600BF53B94AB9002908BF3D
:1007100000281CBF4FF0FF314FF0FF3000F074B9DC
:10072000ADF1080C6DE904CE00F006F8DDF804E048
:10073000DDE9022304B070472DE9F047089D044627
:100740008E46002B4DD18A42944669D9B2FA82F284
:1007500052B101FA02F3C2F1200120FA01F10CFAC0
:1007600002FC41EA030E94404FEA1C48210CBEFBF8
:10077000F8F61FFA8CF708FB16E341EA034306FB81
:1007800007F199420AD91CEB030306F1FF3080F010
:100790001F81994240F21C81023E63445B1AA4B25D
:1007A000B3FBF8F008FB103344EA034400FB07F7FF
:1007B000A7420AD91CEB040400F1FF3380F00A8140
:1007C000A74240F207816444023840EA0640E41B35
:1007D00000261DB1D4400023C5E900433146BDE8E1
:1007E000F0878B4209D9002D00F0EF800026C5E983
:1007F000000130463146BDE8F087B3FA83F6002E9B
:100800004AD18B4202D3824200F2F980841A61EB12
:10081000030301209E46002DE0D0C5E9004EDDE730
:1008200002B9FFDEB2FA82F2002A40F09280A1EB18
:100830000C014FEA1C471FFA8CFE0126200CB1FB6D
:10084000F7F307FB131140EA01410EFB03F0884266
:1008500008D91CEB010103F1FF3802D2884200F2F3
:10086000CB804346091AA4B2B1FBF7F007FB101185
:1008700044EA01440EFB00FEA64508D91CEB040423
:1008800000F1FF3102D2A64500F2BB800846A4EB7E
:100890000E0440EA03409CE7C6F12007B34022FA69
:1008A00007FC4CEA030C20FA07F401FA06F31C4398
:1008B000F9404FEA1C4900FA06F3B1FBF9F8200CA5
:1008C0001FFA8CFE09FB181140EA014108FB0EF0EB
:1008D000884202FA06F20BD91CEB010108F1FF3A3B
:1008E00080F08880884240F28580A8F10208614447
:1008F000091AA4B2B1FBF9F009FB101144EA014155
:1009000000FB0EFE8E4508D91CEB010100F1FF34FF
:100910006CD28E456AD90238614440EA0840A0FB97
:100920000294A1EB0E01A142C846A64656D353D06D
:100930005DB1B3EB080261EB0E0101FA07F722FA91
:1009400006F3F1401F43C5E9007100263146BDE8BA
:10095000F087C2F12003D8400CFA02FC21FA03F31D
:10096000914001434FEA1C471FFA8CFEB3FBF7F09E
:1009700007FB10360B0C43EA064300FB0EF69E42C3
:1009800004FA02F408D91CEB030300F1FF382FD25C
:100990009E422DD9023863449B1B89B2B3FBF7F604
:1009A00007FB163341EA034106FB0EF38B4208D9DD
:1009B0001CEB010106F1FF3816D28B4214D9023E1E
:1009C0006144C91A46EA004638E72E46284605E73C
:1009D0000646E3E61846F8E64B45A9D2B9EB02080D
:1009E00064EB0C0E0138A3E74646EAE7204694E79D
:1009F0004046D1E7D0467BE7023B614432E73046D0
:100A000009E76444023842E7704700BFFEE700BFD1
:100A10000B480C4A904203D0121A0B4913F060FFA6
:100A20000A480B4A904203D0121A002113F066FFC5
:100A30000BF05EFA13F020FF00F018F8FEE700BF9D
:100A400000000024EC03002404680108F0030024E3
:100A50004C2F0724704700BF8446134602480A46BD
:100A6000614600F073BF00BF0C0400242DE9F04F75
:100A7000002197B07C4807F039F803217A4806F046
:100A800039FF3021784806F055FF784C7848DFF878
:100A9000F481784D784FDFF8F0A1784E7249224604
:100AA00000F02EFA404601F071FD4FF00008284694
:100AB00001F0BEFAC3460BF027F801463846C1469E
:100AC00001F02AFB47460BF01FF84246014650460C
:100AD00002F002FA644806F029FF214630462A4611
:100AE00001F064F866496048FF26CDF80C8006F0F6
:100AF000FDFE25E0002E5BD021465F4801F00CFB97
:100B000023464FF0000B4F2B00F28580A4EB080327
:100B1000B3F5FA7F0FD3594904A801F025F89DEDEC
:100B2000081A02220B99DDED050AA0469DED040A84
:100B3000544801F00BFF012037462E460AF0ECFF27
:100B40000AF0E2FF04465048214602F095F99AF86F
:100B50007C30023B012B3ED945490CA82346424A32
:100B600000F036FB12999DF84250A1F101013E4878
:100B7000B1FA81F1490906F0F9FEAE4203D02946E7
:100B8000404801F01FFD9DF84C30E3B99DF840301E
:100B900023B9A4EB0903B3F5FA7F04D30CA93948B0
:100BA000A14601F029FDB5FA85F67609002FA1D0FE
:100BB00065B307B32146304801F0AEFA31480394DB
:100BC00001F060FEA2E7DDE914239DF84D102D48E9
:100BD00001F0D4FDDAE72D4802F016F9012837D0EC
:100BE00002283BD02146284802F0C2F901461E489F
:100BF00006F0BCFEB0E74DB1039BE31AB3F57A7F74
:100C000084D32048039401F03DFE7FE7A4EB0B035F
:100C10004F2B7FF67BAF4FF480521D49154801F0F2
:100C200031FA08B9A34671E704A89DED0E1ADDED6F
:100C30000D0A4FF480539DED0C0AA346144A0E4949
:100C4000009401F05DFB04A90E4801F0B5FD5DE7DD
:100C50009AED290A0B4801F02FFEC3E7DAF8AC1031
:100C6000084801F059FEBDE75C5106248C100624AB
:100C70009C51062450100624581006240C0400240D
:100C8000590A0008045206249C1006241811062450
:100C90005C11062438B515480024154A154904602E
:100CA00044610462C46313F005FC134B13485C6099
:100CB00043F8044B5C601C8100F0BEF8104D1148F5
:100CC00001F0A2F9104801F011FA284600F07AFC70
:100CD000074A0E49284613F0EDFB0D4801F052FC7F
:100CE0000C48BDE8384002F097B800BF5C510624BC
:100CF00000000024550A00088C1006249C5106248C
:100D00000C0400245010062458100624190D000865
:100D1000045206249C10062410B50446083002F044
:100D20007BFB204610BD00BFF0B50D8807464E88FE
:100D3000013A00F10E044FF0000CAE422CBF00232C
:100D4000012303732B460AE09E4510D27344944559
:100D50004FEA530324F8023B0BDA31F8023FAE426C
:100D60000CF1010CB1F802E0EED39E45EED8002064
:100D7000F0BD012318467B73F0BD00BF70B5064679
:100D8000407B30B3F0697568002801DDA84221DDA1
:100D9000002D4DDD33684FF0010C00204FF6FF743D
:100DA000A3F1020E3EF8023F9942A3EB0102A1EB30
:100DB000030392B288BF9AB26346A24201D2604650
:100DC0001446AB420CF1010CECDB7389A34238BF33
:100DD000002070BD6FF000423368B6F80AE00244AC
:100DE000348933F8122074448A42A4B234BF8A1A78
:100DF000521A92B29442ECD29E1E012400204FF669
:100E0000FF7C36F8023F9942A3EB0102A1EB0303FA
:100E100092B288BF9AB22346624501D220469446D8
:100E20009D4204F10104ECDCE64538BF002070BDB2
:100E300000204FF6FF74C8E710B4184C03464FF675
:100E40000B7C002220680021A3F804C040F2011CA2
:100E5000C3F86200A088A3F84C20A3F866001846E7
:100E60001A601A61A3F818C0A3F844209A6483F8A2
:100E70004E20196559659965DA65A3F86020C3E9C4
:100E80000B22C3E902225DF8044BC3E90722C3E940
:100E90000922C3E90D22C3E90F2270473452010829
:100EA00090F844305BB303684BB3B0F860C0F0B562
:100EB000B0F85C40B0F85EE090F84C7090F84D608F
:100EC00090F84E50A0F86240A0F864E0A0F866C028
:100ED00000201A68BFF35B8F911C42F0010221F0E1
:100EE00001011A601F715E719D71D8711C81A3F898
:100EF0000AE0A3F80CC0BFF35B8F1960F0BD704728
:100F00002DE9F04F002402260546804689464FF021
:100F1000010A08F1200B08272DED028B9FB045F840
:100F2000042B32468DF814600CA88DF815400599F5
:100F300007F080FF03238DF8184032468DF81930F2
:100F40000DF14200069907F075FF8DF81CA08DF891
:100F50001DA03246079915A807F06CFF07238DF8EE
:100F6000204032468DF821300DF16600089909F1D4
:100F7000180607F05FFF04230CA930461A4607F055
:100F80006DFF304608F078F90521484606F0AAFCC6
:100F90008A4A5346284611682246009408F08AFA85
:100FA000DFED877A87490622874B5846C8F84040CC
:100FB000B0EE678A88F82D40F0EE678AC8F82010F6
:100FC000C8E90E44C8E90923FFF7AEFE8246CDED1D
:100FD000097ACDED0A7ACDED0B7A0AAD0024E1B2A3
:100FE000304608F05FF9B5EEC00AF7EE007AF1EE90
:100FF00010FA0FD4B4EE670A0134F1EE10FA37FE9E
:10100000800A30EE080A032C05ED010A0BD0B5EC7E
:10101000018AE4E79FED6A0A013430EE080A032CE6
:1010200005ED010AF3D12146304608F03BF9B5EE53
:10103000C00AF1EE10FA12D4F7EE007AB4EE670AA5
:10104000F1EE10FA37FE800A0121484678EE808AD8
:1010500006F048FC013F05D09DED098ABDE79FEDF4
:10106000580AF1E708F15C0109A808F150030C46A1
:10107000B4EE007AF0EC017AF7EE006A002267EE37
:10108000877AF5EEC07AE3EC017AF1EE10FA11D42A
:10109000F4EEE67A9FED4D6AB6EE007A4FF6FF72F7
:1010A000F1EE10FA06DCA7EE867ABCEEC77A17EEF0
:1010B000102A92B29C4221F8022BD9D1BAF1000F2A
:1010C00031D0F4EE007A68EEA78AF5EEC08AF1EE30
:1010D00010FA33D5002103910AF016FD0399064654
:1010E0005846FFF74BFED8F838400546A0423BD0A3
:1010F0000446C8F83800C8F840605846FFF73EFE7E
:10110000A042D8F83C5006F1140640D02C46C8F84E
:101110003800C8F84060002C08BF2C46631E042B22
:1011200098BF88F84C300123404688F84430FFF7D8
:10113000B7FE1FB0BDEC028BBDE8F08FF7EE007A72
:10114000F4EEE78AF1EE10FA02DD4FF6FF71C2E726
:10115000F6EE007A9FED1D7AE8EE877AFCEEE77AEC
:1011600017EE903A99B2B6E7D8F83C0085420246AD
:101170001CD0D8F84030F31A132B1AD95846C8F8A7
:101180003C50FFF7FBFDA04206F11406BED1AC4275
:1011900009D0D8F84010721A132A94BFD8F83C40EE
:1011A000C8F83C40B7E72246D8F83C00044615464C
:1011B000B1E72C4614360546E9E700BFDC520108CA
:1011C00000000000E05201088403F00A00FF7F479E
:1011D0002DE9F04F00250C4602F1180B2822294674
:1011E000074604F15C0604F15008BA46A9462DED05
:1011F000028B83B0019313F081FBB4F84C207A8208
:10120000E26BBA61E9B2584608F04CF8B5EEC00A94
:10121000F1EE10FA5FD4F7EE007AB4EE670AF1EE61
:1012200010FA37FE800AD8ED007A9FED7A7A30EE18
:10123000670AE0EE077AF5EEC07AE8EC017AF1EEA3
:1012400010FA42D4B7EE007AF4EEC77AF1EE10FA53
:1012500044DCB6EE007ADFED706AA7EEA67AFCEE0B
:10126000C77A17EE903A9AB207EE902AB8EE677AEC
:10127000C7EE267AF1883280914234BF521A8A1A18
:1012800092B2802A05F1010506F10206EAEC017A24
:1012900028BF4FF00109032DB4D1B6EE008A2946CC
:1012A000584687ED038A07F0FDFFB5EEC00AF1EE60
:1012B00010FA18D4F7EE007AB4EEE70AF1EE10FA5D
:1012C00040F396804FF6FF710EE00022DFED537A77
:1012D0003280F288D5E79FED510AA4E7F0EE477A15
:1012E0004FF6FF72C6E7002104F12000B982FFF734
:1012F00045FDA36B984262D0019BA063E06B236421
:10130000B8610138042813D9201D4D4608F0B8F9FA
:10131000637E834220D0019B6076E36187F8109062
:10132000002D43D1384603B0BDEC028BBDE8F08FF1
:10133000C0B294F84C308342E6D00023012584F8F3
:101340004C00B874201D84F84D30FB747D7408F097
:1013500097F9637E8342DED1227E9A42DED0E26933
:101360000199A1EB020ABAF10E0FD7D92376002B0F
:1013700030D194F84530002BD0D1012394F84C2083
:1013800084F84530A36C0133A3647B62002A3BD010
:1013900094F84D3040F2011287F8109083F0010369
:1013A000BA831F4A84F84D30FB743A622046FFF737
:1013B00077FD384603B0BDEC028BBDE8F08FE26BE1
:1013C00090429DD0236C0199CB1A132B94BF1046E9
:1013D000E06395E794F84530002B9FD0002384F814
:1013E0004530A36C7B6201233B770E4B3B6295E754
:1013F000F0EE487A9FED087AE0EE077AFCEEE77AA5
:1014000017EE903A99B26FE740F20113BB83044B99
:101410003B6283E70AD7A33D00FF7F47000000003F
:10142000C8520108D0520108037833B3F0B58C4696
:1014300086460AE0192D98BFFBB2192C98BFF2B26C
:10144000934214D11EF8013F6BB11CF8012BA3F19C
:10145000410503F12007A2F1410402F12006002A10
:10146000E8D10120F0BD9CF80030002BF9D010F835
:10147000013F002BDBD11846F0BD1846704700BF76
:10148000274B0B4400EB83032DE9F041D3F8048094
:10149000B8F1000F19D001EB41031746214A0D4660
:1014A00000EB830304464E00995800292ADA731989
:1014B0001D4A04EB83039958002916DA35441B4B67
:1014C00004EB8504E158002901DABDE8F081BB880E
:1014D00040469FED170A07EE903AF8EE677ABDE8AE
:1014E000F04187EE800A01F051BF7B8840469FEDB6
:1014F000100A07EE903AF8EE677A87EE800A01F05C
:1015000045FFDBE73B8840469FED090A07EE903A2E
:10151000F8EE677A87EE800A01F038FFC7E700BF70
:10152000E2820100A00B0600A40B0600A80B060037
:1015300000FF7F472DE9F0470746884691469A46C7
:1015400000250DE049462046FFF76EFF58BBBAF173
:10155000000F04D051462046FFF766FF18BB013547
:10156000384601F0B3FEA84226DD2946384601F090
:10157000AFFEB0FA80F604467609B8F1000F15D038
:10158000A6B94146FFF750FF68B9B9F1000FD9D1AC
:10159000BAF1000FE3D0002EE1D151462046FFF70B
:1015A00043FF0028DBD02846BDE8F087B9F1000FE3
:1015B000EED0002CD3D0C5E74FF0FF352846BDE86C
:1015C000F08700BF2DE9F04F002500F10804064622
:1015D00083B0C0E90055204601F07CFF06F5C02E1F
:1015E0002F4BB7EE007A0EF60C42CEF8944B9C4689
:1015F00003F13C070EF6084301920EF53A64CEF86B
:101600008C5B00930EF6FC3BCEF8905B0EF5406AC7
:10161000CEF8985BCEF89C5B9FED226ADFED226AE4
:10162000DFED227ABCE80F000FC4BCE80F000FC446
:10163000BCE80F000FC49CE8070084E8070003CF54
:10164000019A3B88CEF8E60B3046AEF8EE3B009BA5
:10165000CEF8DC5BCEF8E05BAEF8E45BCEF8F05B96
:10166000CEF8F45B8EF8F85BCEF8EA1B8BED006ADF
:10167000CAED006A8EF8045C83ED007AC2ED007A50
:10168000CEF82C5CCEF8305CCEF8345CCEF8385C0A
:10169000CEF83C5CCEF8405C03B0BDE8F08F00BFF4
:1016A0003C520108000000008888883B8888083B7D
:1016B00038B500F1080500F5C02400232F4A304951
:1016C0002846FFF737FF2F4B2F4A3049C4F8B80B95
:1016D0002846FFF72FFF2E4BC4F8BC0B28462D4A97
:1016E0002D49FFF727FFD4F8B83BC4F8C00B002BF7
:1016F0001ADBD4F8BC3B002B0DDBD4F8C03B002B2D
:1017000000DB38BD0221284601F00CFE002829DB51
:10171000C4F8C00B38BD0121284601F003FE0028A3
:1017200015DBC4F8BC0BE8E70021284601F0FAFD00
:10173000002802DBC4F8B80BDBE7284601F0C6FD41
:10174000B0FA80F040094042C4F8B80BD1E728460F
:1017500001F0BCFD01288CBF01204FF0FF30C4F820
:10176000BC0BCAE7284601F0B1FD02288CBF02205D
:101770004FF0FF30C4F8C00BCCE700BFEC520108BB
:10178000F0520108F45201080053010808530108FF
:10179000105301081853010820530108F0B50468DC
:1017A00087B02CB12568BFF35B8F15F0010C01D019
:1017B00007B0F0BD03AE221D0346B64607CAAEE829
:1017C0000300AEF800202268BFF35B8F9542EFD193
:1017D000EE4603F5C02496E80700774603C73A8033
:1017E000D4F8F02BAA42E3D0C4F8F05B04F6DC3561
:1017F000B4F8EA6B02279EE8070003C52A80B4F814
:10180000E02BA4F8DC7BB24244D02E4A18460221D9
:101810001A44FFF735FE94F8DD3B94F8DC2BB3F166
:10182000000C18BF4FF0010C94F8F61B914203D145
:1018300094F8F71B614521D004F6FC3184F8F62BAF
:1018400084F8F7CBD1ED007AF5EEC07AF1EE10FA1C
:1018500005DD94F8F41B11B194F8F51B69B304F697
:10186000FC31002084F8F42B84F8F5CB086012B129
:10187000BCF1000F1FD0002384F8F83B04F6DC33E2
:1018800003CB1B88C4F8E60BC4F8EA1BA4F8EE3BB4
:1018900007B0F0BDB4F8E21BB4F8EC2B9142B4D120
:1018A000B4F8E41BB4F8EE2B9142AED194F8E62BD9
:1018B000BA42B9D0A9E70223DEE7012384F8F83B56
:1018C000DCE700BFE00B060000F5C02090F8F83B15
:1018D000012B17D0022B00D0704700F6FC3200F528
:1018E0004063B7EE007AD2ED007AD3ED006A77EE6E
:1018F000A67AF4EEC77AF1EE10FA13DB002382ED3C
:10190000007A1EE000F6FC3200F540630021D2EDC3
:10191000007A93ED007A77EEC77AF5EEC07AF1EEB1
:1019200010FA02D9C2ED007A7047116090F8F72BD7
:1019300090F8F63B80F8F52B80F8F43B03B11AB130
:10194000002380F8F83B70470223FAE72DE9F04FB7
:1019500000F5C02607469846894693462DED028B32
:1019600083B096F8F43B01930AF0D0F8C6F8180C4F
:101970003846FFF713FF786820B196F8043C002B37
:1019800000F0E380B8F1000F74D000250FE0DFED28
:10199000727AB4EE678AF1EE10FA37FE888A013562
:1019A000384683ED008AFFF78FFFA84562D096F88E
:1019B000F41B4FEA850A694CD9F800300C4403EB5C
:1019C000850307EB840493ED008A6468E9B3E4B30C
:1019D00096F8F53BB0EE480AFBB396F8F83BE3BB4C
:1019E000F0EE488A06F6FC3138EEC87AF0EE487A16
:1019F000DFED5B6A91ED006ADBF80030E6EE077A16
:101A00005344F4EEE67AF1EE10FA23D49FED527AC5
:101A1000F4EE477AF1EE10FA77FE277A06F6FC31FB
:101A200030EE480AC3ED007A91ED007ADFED4C7A92
:101A3000A7EE008ADBF804305344B4EEE78AF1EEF7
:101A400010FAA4D5B0EE678AA9E7B0EE480AF0EE26
:101A5000488AC7E7F0EE667AE0E723682046DB684D
:101A60009847204601F0D0FC2046F0EE408A01F075
:101A7000CFFCB7E70AF04AF8D6F8183C96F8102CD5
:101A8000C31A07EE903A06F54163F8EE677A93EDD4
:101A9000017A67EE877A1AB3B0EE677A0022C3ED57
:101AA000057AC3ED037AC3ED047A86F8102CB4EE00
:101AB000477AF1EE10FA02D1019B042B37D9F7EEE9
:101AC000007AB4EEE77AF1EE10FA04DDD6F8403C85
:101AD0000133C6F8403C03B0BDEC028BBDE8F08F8B
:101AE00093ED047AF4EEC77AF1EE10FA03DDB0EE6E
:101AF000677AC3ED047A06F54163D3ED036AF4EE29
:101B0000E67AF7EE006AF1EE10FA48BFC3ED037A09
:101B100006F5416393ED066AD3ED055A76EEC66A83
:101B200066EEA56AE7EE866AC3ED056ABFE707EBD6
:101B300083070C4B3B44D3ED007AF4EEC77AF1EE09
:101B400010FA48BF83ED007AB9E74246D9F8001091
:101B500000F07EFA16E700BF3333733FE2820100E4
:101B6000333373BF2C0C060001F5C022844602F506
:101B7000416310B518690CF1080ED2F8404C5A694F
:101B8000094BCCF81C40CC18CCF80400CCF8002051
:101B9000A268C8586168E368AEE80F002069CEF813
:101BA0000000604610BD00BF2C0C060030B5054695
:101BB00008302DED028B83B0B0EE408AF7EE008A3C
:101BC00005F5C0240190C5E9001201F0BDFC01211A
:101BD000019801F00BFA2846FFF76AFD0AF038F980
:101BE0009FED2B7ADFED2B5A04F5416388EE076AEF
:101BF000294A0121C7EE087A07EE100A2846002577
:101C0000B8EE477AC5EE866A67EE877A88EEA77ADD
:101C100036EEA86AC6EE867A83ED017AC3ED067ABF
:101C200084F8101C04F62C41DA601A615A61002312
:101C300004F543620B60136004F63442136004F64B
:101C40003842136004F63C421360C4F8405CFFF76E
:101C5000A5FD9FED120A04F6FC33022228EE008A4D
:101C60004FF00211A4F8DC2B04F60842C4F8F41B70
:101C7000C8EE887AC3ED008A04F60C4384F8045C4D
:101C8000C2ED008AC3ED007A03B0BDEC028B30BD1B
:101C900000004042DB0FC9400000C07F0BD7233C4F
:101CA000002ADFEDC07A2DE9F84307461C462DEDEA
:101CB000028BB0EE408A08DD0B4601EB8205B3ECE7
:101CC000017AAB4277EE877AF9D107EE102AB64D4A
:101CD000501EDFEDB45AB8EEC77A6FF00308DFF894
:101CE00024E305F580592E4687EE876A4246AF4BBE
:101CF00008F10408DFEDAE6A9FEDAA7A01E0F3EC8B
:101D0000016A002A8C4605DB82429446A8BF8446BD
:101D100001EB8C0CDCED007A734502F1010277EEE9
:101D2000C67AA7EEA67AEAD1A6EC017A4E45E7EE8E
:101D3000075ADBD1DFED9F7A25EEA70AB5EE400A00
:101D4000F1EE10FA00F12981F1EEC07A9FED9A7A56
:101D5000D7ED086AF4EEC77AF1EE10FA07DD9FEDD1
:101D6000977AF4EEC76AF1EE10FA00F3CF809FED98
:101D7000947ADFED945A27EE877A9FED936AF4EE1A
:101D8000C67AA6EEA57AF1EE10FA87ED087A00F190
:101D9000AE80002140F2F4628C48012612F0AEFDC4
:101DA0008B484FEA450C8B4907460CF5805CACEB41
:101DB00001022B469FED7B7AF3EC017AF2EC016A8B
:101DC0008B4277EEE67AA7EEA77AF5D1013640F29C
:101DD000BD12191FA7EC017A9642E8D17E4D4FF053
:101DE0007E53DFED707A2A467C4942F8043B01239A
:101DF000F0EC016AB7EE007A9FED796A77EEA67A89
:101E0000F4EEC67AF1EE10FA07DD07EE103AB8EEFE
:101E1000C77A67EE266A86EEA77A814203F101034C
:101E2000A2EC017AE4D1B5EEC08AF1EE10FA63D5E6
:101E30009FED6C7A6C4A0C2302E001338B4256D042
:101E4000F2EC017A40F2BD11F4EEC77AF1EE10FA2D
:101E5000F3D505EB830209E0D2ED017AB2EC017A09
:101E6000F4EEC77AF1EE10FA66D50B46B3F5DE7FD5
:101E700003F10101F0DBDFED4B7A07EE103AF7EEEC
:101E8000006AB8EEC77A77EE277AF4EEE67AF1EEDA
:101E900010FA2CD9DFED555AB3EE0B6A85EEA77A0E
:101EA000B4EEC67AF1EE10FA21D4DFED517AB4EE39
:101EB000E77AF1EE10FA1ADC05EB830384ED007A81
:101EC000D3ED007A76EEE77AF5EEC07AF1EE10FA0D
:101ED0005DD4F4EE667AF1EE10FA76FEA77A0A9BEC
:101EE0000120BDEC028BC3ED007ABDE8F883BDECA8
:101EF000028B0020BDE8F883F7EE007AB4EEE78AA3
:101F0000F1EE10FA11DD9FED3B7A93E787EEA67AAA
:101F10009FED396AB4EEC67AF1EE10FA7FF727AF7B
:101F2000FB6A0B9A13447B6221E7DFED347A9FED65
:101F30002D7AA8EE677A7DE705EB8302B0EE005AB2
:101F4000DFED2F5A52ED016AB0EE666A97EE056A30
:101F500036EE676AB0EEC67AB4EEE57AF1EE10FAC4
:101F600089D476EEE77AF6EE006AFEEE005A27EEA6
:101F7000A67AC7EE067AF4EEE57AF1EE10FA09D405
:101F8000F4EE667AF1EE10FA76FEA77A75E7DFEDE9
:101F9000057AA4E7F0EE657A6FE712F025FCF0EE23
:101FA000407AD3E6000000000C6206249853010832
:101FB000F1F0F03C0000803AA69B443CBD378635EA
:101FC0009A99193E9A99593F0AD7233C0CF2062454
:101FD00010F20624087206240C52062400F9062486
:101FE0005F708930AE47613E3C52062400803B461C
:101FF00000007A44CDCCCC3D3333D33F8FC2F53D86
:10200000CCBC8C2BB853010800220549054B10B4F9
:10201000C0E90022044C054A5DF8044B704700BF3C
:102020000C7206240CF206240C6206240C520624C0
:1020300010B54FF4004204460021044812F05EFC43
:1020400000232360BFF35B8F636010BD0C72062416
:10205000036830B492B19C18094DC3F30C020133EC
:1020600051F804CB05EB8202A342C2F800C0F4D1C0
:102070000460BFF35B8F446030BC70471C46F7E7D9
:102080000C720624531EB3F5805F03D2B1FA81F3BC
:102090005B0909B90020704770B502F58075466884
:1020A000BFF35B8FB5421CD8A6F580768C460E4DEB
:1020B0001946B41A0B19013141F6FF7EC3F30C0324
:1020C0008A4205EB83031B684CF8043BF2DC43684F
:1020D000901BBFF35B8F184470458CBF002001201C
:1020E00070BD002070BD00BF0C72062400220021CC
:1020F00010B478248161C161C46201625DF8044B4F
:1021000080F83020C0E90022C0E90222C0E90422A0
:10211000C0E90922704700BF002300227831036024
:1021200043608360C360036142618361C361036292
:1021300080F8302010B47824C0E90912C4625DF838
:10214000044B7047B5EEC00AF0B5F1EE10FA154633
:102150002DED028B83B044D9DFED267A04460E467E
:102160009FED258A80EE270A244F12F0D5FA2046EB
:10217000234B3146234EF2EE087AA0EE278AF8FE72
:10218000487AFDEEE77A17EE904A83FB04234FEA84
:10219000E47C1D4ACCEB630C0CEB4C030CF1FF3CD4
:1021A000A4EB8303CDF800C00C33A6FB036C4FEA0D
:1021B000DC0C0CEB4C0CA3EB8C0357F8233012F027
:1021C0009FFC07EE904A9FED117AF8EEE77A38EE21
:1021D000678A28EE078A85ED008A03B0BDEC028B82
:1021E000F0BD00270A4A12F08BFC2F6003B0BDEC53
:1021F000028BF0BD0000DC4300008A4264530108FA
:10220000ABAAAA2AABAAAAAA2C5301080000C8426A
:1022100028530108D0ED006AD0ED017A90ED020A52
:10222000F4EEE76A90ED037A90ED046AF1EE10FAAD
:1022300005DDF0EE665AF0EE676AF0EE657AB4EE10
:10224000C67AF1EE10FA33DCB4EEC60AF1EE10FAFB
:1022500005DDF0EE405AB0EE460AB0EE656AB4EE27
:10226000C70AF1EE10FA30DCF4EEC76AF1EE10FAAC
:1022700005DDF0EE665AF0EE476AB0EE657AF4EEF0
:10228000406AF1EE10FA36FE800AF4EE467AF1EE7C
:1022900010FA76FE277AF4EE477AF1EE10FA77FE1E
:1022A000277AF4EE407AF1EE10FA37FE800A704792
:1022B000B4EEC70AF1EE10FA0FDDF0EE405AB0EEC0
:1022C000470AB0EE467AB0EE656AF4EEC06AF1EE07
:1022D00010FA0EDDB0EE667AD7E7F0EE475AB0EEB0
:1022E000467AB0EE656AB4EEC70AF1EE10FABBDDCD
:1022F000EBE7F0EE475AB0EE407AB0EE650ABEE783
:10230000F0B50D461146954A04460020166895F82A
:1023100030202DED028B206185B02682360CB0EE88
:10232000608A0C9FA674C4E90000C4E90200C4E9F5
:1023300005002AB1AA6ABA1AB2F5966F00F2AE8009
:10234000B5EEC01A00220292F1EE10FA03921AD4EE
:10235000F7EE007AB4EEE71AF1EE10FA40F385805A
:10236000C822EA6299B96B6A00229F42A26180F09A
:10237000888095F83030002B40F0A180204605B0D1
:10238000BDEC028BF0BD3C22EA620029EBD0B3F534
:10239000805FE8DB1A4603AB28460197009302AB47
:1023A000FFF77EFC6B6A9DED020ABB4284ED060AD4
:1023B000DFD8002865D095F83020002A40F09480BE
:1023C0009DED035A6B682B60AB686B60EB68AB608C
:1023D0002B6985ED040AEB606B69042B00F3B78071
:1023E0000133052B6B6100F0B280B5EEC08AF1EECF
:1023F00010FA00F1A980F7EE007AB4EEE78AF1EE68
:1024000010FA00F3A8809FED567ADFED567AE8EED9
:10241000077A3AB195ED067A70EE476AA6EEA77A8A
:10242000B0EE470ADFED507A85ED060AB4EEE75AC2
:10243000F1EE10FACCBF0123002305DD012285ED6A
:10244000070AAF6285F8302004F1100004F10C0295
:102450000821237084ED010A84ED025AFFF772FE11
:10246000204605B0BDEC028BF0BDF6EE007A9FED84
:102470003F7AE1EE077AFCEEE77A17EE902A3C32DB
:1024800082E7002295F830302270002B4CD10023D7
:102490002046A36005B0BDEC028BF0BD0022686150
:1024A000A8622A606A60AA60EA602A61AA61EA6199
:1024B0002A6207F1780285F830006A6240E700205E
:1024C00095ED070A4FF07A5304F10C0220700821B1
:1024D00004F1100084ED010AA360FFF733FE2046EB
:1024E00005B0BDEC028BF0BDD5ED077ADFED206ABB
:1024F00080EE277AB4EEE67AF1EE10FA07DCDFED33
:102500001D6AB4EEE67AF1EE10FA7FF559AF9DED53
:10251000035A9FED197AB4EEC75AF1EE10FA7FF51F
:1025200051AF0023237001E0D5ED077A134BB0EED5
:10253000670A04F10C02082104F11000A360C4ED45
:10254000017AFFF7FFFD19E7DFED067A61E728461C
:10255000FFF760FE49E7DFED0A7A5AE728530108E2
:1025600014AEC7BE6666E63ECDCCCC3E00000C4342
:102570009A99F93FB81E053F6666663FCDCC4C3E42
:1025800090C2753D0022C0E90022704710B50C4A88
:1025900088B001230021B2F800C04FF4E134039366
:1025A00006930491029101A9059393880794ADF8CD
:1025B00004C0ADF8063009F023F808B010BD00BF24
:1025C0008452010810B588B00B460A4A20210446FF
:1025D000684612F095FA6846FDF782FE0A23024625
:1025E0006946204609F076F810B1636801336360EC
:1025F00008B010BDB853010891ED007AB5EEC07A6D
:1026000030B5F1EE10FA9DB0044640D4F7EE007AF2
:10261000B4EEE77AF1EE10FA40F3998091ED017A89
:1026200042F21073B5EEC07AF1EE10FA37D5002001
:1026300091ED027AB5EEC07AF1EE10FA3FD4F7EEE2
:10264000007AB4EEE77AF1EE10FA5CDD91ED037AF0
:1026500042F21075B5EEC07AF1EE10FA37D50022CD
:1026600060210292434ACDE9000504A812F048FA1D
:1026700004A8FDF735FE0A23024604A9204609F006
:1026800029F810B16368013363601DB030BD0023C9
:1026900091ED017AB5EEC07AF1EE10FAC7D4F7EEFB
:1026A000007AB4EEE77AF1EE10FA3EDD91ED027AAF
:1026B00042F21070B5EEC07AF1EE10FABFD50025E7
:1026C00091ED037AB5EEC07AF1EE10FAC7D4F7EEC9
:1026D000007AB4EEE77AF1EE10FA02DD42F21072FF
:1026E000BEE7F6EE007ADFED246A42F21071E7EE03
:1026F000267AFDEEE77A17EE902A8A42A8BF0A46AC
:1027000022EAE272ACE7F6EE007ADFED1B6A42F2F3
:102710001072E7EE267AFDEEE77A17EE905A9542B0
:10272000A8BF154625EAE575CAE7F6EE007ADFEDA3
:10273000126A42F21072E7EE267AFDEEE77A17EEA1
:10274000900A9042A8BF104620EAE07070E7F6EECB
:10275000007ADFED096A42F21072E7EE267AFDEEAA
:10276000E77A17EE903A9342A8BF134623EAE37341
:102770008EE700BFC053010800401C4610B5144648
:102780009AB01A460B46009460210446019202A8B2
:10279000084A12F0B5F902A8FDF7A2FD0A23024685
:1027A00002A9204608F096FF10B163680133636008
:1027B0001AB010BDD053010891ED017AB5EEC07A80
:1027C00010B5F1EE10FAA4B0044653D4F6EE007A38
:1027D000DFED296AE7EE267AFDEEE77A17EE900A3A
:1027E0009FED266AF6EE006A91ED037AFEEE007A1E
:1027F00027EE067A91ED026AB5EEC07AF1EE10FA94
:10280000B5EEC06A66FEA77A77EE877AF1EE10FA27
:10281000FDEEE77A09D4B7EE007AB4EEC76AF1EEBE
:1028200010FA1EDD4FF47A7300E00023CDED027A3A
:10283000009004A8039311F8103B114A01918021E4
:1028400012F05EF904A8FDF74BFD0A23024604A925
:10285000204608F03FFF10B163680133636024B085
:1028600010BD9FED057AE6EE076ABDEEE67A17EE3B
:10287000103ADBE70020B3E700007A440000C842CA
:10288000DC5301080B4A002300B5126889B04FEAF7
:10289000124C01A9059301930493ADF814208DF80F
:1028A00016C0CDE90233CDE90633FFF785FF09B045
:1028B0005DF804FB28530108DFED156ABEEE007ACF
:1028C000F6EE007A134A20EE260A302110B5B5EE56
:1028D000C00A8CB004466846F1EE10FA67FE877AAB
:1028E00077EE807AFDEEE77A17EE903A12F008F96B
:1028F0006846FDF7F5FC0A2302466946204608F0C3
:10290000E9FE10B16368013363600CB010BD00BF15
:102910000000C842F053010810B58CB00B460A4ABB
:1029200030210446684612F0EBF86846FDF7D8FC03
:102930000A2302466946204608F0CCFE10B16368BF
:10294000013363600CB010BD00540108F6EE007A4C
:10295000DFED186A1346184AB0EE677AB0EE676A80
:10296000E1EE267AA0EEA67AA0EE266A10B5FDEE7C
:10297000E77A9CB0BDEEC77A0446019104A8CDED7C
:10298000037AFDEEC67A602102938DED007A17EE90
:10299000903A12F0B5F804A8FDF7A2FC0A2302460B
:1029A00004A9204608F096FE10B163680133636005
:1029B0001CB010BD00401C4614540108394A4FF6A3
:1029C000FF71138CF0B5A0F8703089B0B2F84040B8
:1029D00005468C4218BFA342A0F8724003F1FF33B2
:1029E000B2F860202CBF012400244FF6FD719BB289
:1029F000A0F87420013A8B4288BF44F0010492B2DF
:102A00008A4288BF44F001042CB10323002483666A
:102A1000204609B0F0BD244B214604270126D3F8F7
:102A2000E02042F08072C3F8E0206422D3F8E03066
:102A300003F080730093009B11F060FF4FF480233C
:102A40001A4A28462F61AE61C5E900234FF480532E
:102A50002B6301F003FF10B10223AB66D8E740F20D
:102A6000FF724FF00111284602F004F80028F3D15C
:102A70000F4B062201A92846019307230597CDE9AC
:102A8000022340F2FF73CDE90644049301F0F4F908
:102A90000028E1D1304609F03FF8AC6685F8646063
:102AA0003446B5E700E8F11F0044025800600258C0
:102AB000000084CBF0B5002389B0174606220191AF
:102AC0000446CDE906330723CDE90223042340F26F
:102AD000FF720DEB0301CDE9042301F0CDF900BB3A
:102AE00008260546204601F095FC034602212046B3
:102AF000A3B901F0E9F8034620467BB901F06CF96F
:102B0000034620461D4401F0C3FD50B9013EE9D102
:102B100004350120ED083D8009B0F0BD204601F0EC
:102B2000B7FD002009B0F0BD10B54FF6FE7C00F1F6
:102B3000FF3EE6452DED028B68D801F1FF3EE645EC
:102B400064D802F1FF3EE64560D803F1FF3EE6455A
:102B50005CD8049CA34238BFB4F5803F56D2069C93
:102B6000A446059CA44551DD049CB4EB030C6EEB1C
:102B70000E0EBCF1010F7EF1000447DB07EE902A38
:102B800005EE903A9FED241BB8EEE74B07EE901A46
:102B9000B8EEE55B7146B8EEE76B07EE900A24EEFF
:102BA000014B6046B8EEE77BDDE9052384EE062B9A
:102BB0009B1A03EE103AB8EEC33B22EE077B87EE7A
:102BC000018B38EE458B28EE038BFDF76FFDDDEDB5
:102BD000057A079BB8EEE77BFBEE045A41EC160B37
:102BE00088EE066B36EE077BB7EEC77BB4EEE57A70
:102BF00083ED007AF1EE10FA08DBDFED097AB4EE2E
:102C0000E77AF1EE10FA01D8012000E00020BDECD7
:102C1000028B10BDAFF300800000000000C8A94087
:102C200000000243002391F8642030B5C0E900336E
:102C3000836085B08B6E0446C36012B9204605B030
:102C400030BD0D4600F1080215492846FFF732FF56
:102C500048B195F8643033B104F10A0211492846AD
:102C6000FFF728FF20B904232046E36005B030BDFC
:102C7000A96F231DB5F8722002911E2103930092C3
:102C8000B5F87030B5F87420019161892089FFF79B
:102C90004BFF0028207014BF00230523E360CDE71D
:102CA000000084CB0000B8CF03789A1E012A78D99F
:102CB000CA6810B40C89026384850C78002C5AD041
:102CC000BBEE047AD1ED017AF4EEC77AF1EE10FA98
:102CD00051D49FED477AF4EEC77AF1EE10FA4ADC50
:102CE0009FED447A0022F4EEC77A4262F1EE10FAC8
:102CF00058DA81694A1C00EB81015442C1ED017A26
:102D000002F0030204F0030158BF4A42416903295B
:102D1000826103DC01310029416158DD021DDFEDD4
:102D2000367A02EB8104B2EC017AA24277EE877A1E
:102D3000F9D107EE101A9FED316AB8EEC77AC7EEE7
:102D4000876AF4EEC66AC0ED0A6AF1EE10FA41DA5B
:102D5000DFED2B7A0022F4EEE76A0262F1EE10FA60
:102D600029DBC3690133022BC36101DD0123037039
:102D70005DF8044B7047436A00210133022B436224
:102D8000C0E90711F4DD8A424FF002034FF003015E
:102D90005DF8044B08BF052280F8343001700263EF
:102DA0007047704702210123C0ED0A7A0263017067
:102DB00080F83430DCE7012BC261D9D1DFED117A24
:102DC000F4EEE76AF1EE10FA98BF0270D0E7DFED9B
:102DD0000A7AAEE7036A00220133022BC0E9072317
:102DE000C6DD022101230263017080F83430BFE7A1
:102DF000000002430000C842000000000000B4428E
:102E00000000A042000096420346002290F83400E1
:102E100083F83420704700BF10B5642200210446B7
:102E200011F06CFD002300220221204684F864305A
:102E30002367A4F87430A36784F87C30C4F880203A
:102E4000C4F88420C4F88820C4F88C20C4F8A030CA
:102E5000C4F8A420A4F8A830C4F8AC3084F8B0308A
:102E6000A4F8BC30C4E91A13C4E92433C4E92633F6
:102E7000C4E92D3310BD00BF70B590F8BC6084B0BC
:102E8000DEB190F87C300446023B012B18D9D0F813
:102E9000B4300D46CB1A632B12D90146C0F8B4509A
:102EA0006846FFF7BFFE694604F17C00FFF7FCFEB1
:102EB00094F87C30023B012B06D9304604B070BD3B
:102EC0000026304604B070BDD4F8B830002BF4D1E1
:102ED000C4F8B850F1E700BF00234FF0000C70B504
:102EE00080F87C300446C0F880C00D46C0F884C02D
:102EF0001646C0F888C0C0F88CC0C0F8A030C0F832
:102F0000A4C0A0F8A830C0F8AC3080F8B030C0E958
:102F10002433C0E9263300F0D1FE80B2E066D8B198
:102F20004FF6FF73984217D041F2030398428CBFCB
:102F300082236E232046A367FFF740FDA5F16403BB
:102F4000002284F8BD00C4F8B4300123C4F8B820CE
:102F500084F8BC302EB970BD00200623A067A3669C
:102F6000ECE729462046BDE87040FFF785BF00BF6B
:102F700090F87C30023B012B15D8D0F8B82040F2F5
:102F800014530A48891AA0FB0120800A03FB101081
:102F9000B0F5167F07D2064BA3FB0030C0F34010FC
:102FA00080F0010070470020704700BFFD33A6C9C4
:102FB0001F85EB5180ED080A704700BF80ED050AC0
:102FC00080ED060A704700BF80ED050AC0ED060AD5
:102FD000704700BF037FF7EE007A9FED030A002BD6
:102FE00000FE270A704700BF00000000017770470D
:102FF000704700BF704700BF704700BF10B5044B5B
:103000000446C068236008B111F05BFA204610BD89
:103010004854010810B5064B0446C068236008B147
:1030200011F04FFA2046242111F049FA204610BD34
:103030004854010838B50446C0680D4618B111F06F
:1030400040FA0023E360002D02DC0023A36038BDBA
:103050002846A56011F037FAA368E060002BF6DD82
:1030600000210B4608E09CF81020C2540133A268EE
:103070001C319A42EBDDE068226902EB010C002A68
:10308000F1D1C254F2E700BF2DE9F04F95B01746D9
:10309000013B0D461E9C0990B4F90620B4F90400CA
:1030A000002A069320EAE070B4F90230B4BF561C3F
:1030B00016460593A0F109037610B4F900C01BB2BF
:1030C0009642314623EAE3731FFA8CFCA8BF1146EF
:1030D000921B092812B221EAE17AA8BF0920092B24
:1030E00022EAE272E280BDF814201144A2F1050246
:1030F00061801946A8BF092102EB6A02002FA3EBE9
:1031000001030A910CEB000196B20FFA82F88AB221
:103110000C920AB208929AB21BB20B92079345DD49
:10312000ACF1020C0CEB6000031D02B20FFA83FB42
:103130000D9293453ADB06F10902012128465B46D0
:1031400012B200922A6801915946D2F8189042466C
:10315000C847721C28464FF0070912B25B46254645
:10316000013B0D991FFA82FB1BB21FFA89F99942A4
:103170001ADC0BEB09010124A9F1020909B20FFACB
:1031800089F90091016829EAE97901948C69194665
:10319000CDE90E03A0470D9B0BF101020E981946D5
:1031A0000F9B12B29942DBD12C460546069BBB42CF
:1031B00040DD0C9B0B9A023B1A4413460A9A03EB20
:1031C00062031FFA83F91BB209F1050212B293429E
:1031D00030DA06F1090101204246A9EB060909B2DD
:1031E0004FF0070800912968019028468F69194619
:1031F000B847721C053612B236B297B2B2421FFA05
:1032000088F807EB09031BB214D008EB0701012073
:1032100009B20091296801902846D1F818B01946E2
:10322000D847A8F102037A1C1BB212B2002B23EA82
:10323000E378E2DC099B4FF000084FF0010910AE83
:103240005A6829462B6812A8DF6A089BADF846A089
:10325000ADF84030059B0096ADF84230079BCDE9B4
:103260000189ADF844300D4BB8472B68294612A8A8
:10327000DD6A0096094BCDE901892288ADF840202E
:103280006288ADF84220A288ADF84420E288ADF80B
:103290004620034AA84715B0BDE8F08F4C02002431
:1032A0002C54010810B4074C002200210460064C85
:1032B0004161446081615DF8044B02770261C0E9BD
:1032C000022270474854010830540108007A7047C0
:1032D000C3685BB1002909DB83688B4206DD0369A3
:1032E00023B1C1EBC10153F821007047004870477A
:1032F00038540108C36873B100290CDB826891421D
:1033000009DA5B5C9FED057A07EE903AF8EE677A92
:1033100087EE870A70479FED020A70470000FE4261
:10332000000000000369A3B110B48468002C0BDD19
:10333000002002E00130A04206D05A691C338A42C4
:10334000F8D15DF8044B70474FF0FF305DF8044B47
:1033500070474FF0FF30704730B5C46884B1002922
:103360000EDB85688D420BDD150609D414F801E0EB
:10337000964505D062540368034ADB6A934200D144
:1033800030BDBDE830401847F52F0008B5EEC00A43
:10339000F1EE10FA2CD4F7EE007AB4EEE70AF1EE73
:1033A00010FA22DC002930B5C4681DDBE4B1856861
:1033B000A94219DA9FED117ADFED117AE0EE077A72
:1033C000FCEEE77A17EE90CA1CF0800F5FFA8CFED5
:1033D0000AD114F801C0F44506D004F801E00368EE
:1033E000084ADB6A934206D130BD7F22FFF7B4BFA3
:1033F0000022FFF7B1BFBDE8304018470000FE4291
:103400003333B33EF52F000890ED050A704700BF37
:1034100090ED060A704700BF034B10B504460360E9
:10342000FFF7ECFD204610BDF0540108054B10B528
:1034300004460360FFF7E2FD0349204611F03FF820
:10344000204610BDF0540108840B0600F8B500F5C5
:10345000C0240021054604F6683604F678372DEDC1
:10346000028B96ED008AFFF745FF04F66C3396ED6C
:10347000007A01212846D3ED007A04F67C3677EEF7
:10348000C77AA0EE278A87ED008AFFF733FF04F59D
:103490003763F7EE007A022193ED007A04F6743375
:1034A00004F53864284637EEC00AD3ED007A77EE8B
:1034B000C77A20EE000AA7EE807A86ED007AFFF741
:1034C00019FF84ED000A3B68BDEC028B6B62336828
:1034D000AB62F8BD10B50446FFF7E4FE144A4FF0A6
:1034E0007E5004F5C0231349226003F66832116050
:1034F00003F66C32106003F537620F48106003F674
:1035000074300E4A026003F67830016003F67C31B5
:10351000002003F538630A60094A0A49186020460A
:10352000616003212261FFF785FD204610BD00BFC9
:10353000F05401089A99193F0000164400007A4699
:10354000945401087854010838B52DED028BB0EE83
:10355000408A0546FFF72EFD002405F12400B0EE59
:10356000480A00F06DF92B68214601342846DB6AD1
:103570009847032CF7D1BDEC028B38BD10B504463B
:1035800086B0FFF71BFD606903AAA16902AB009238
:1035900005AA049004F12400059104A900F0BCF9E7
:1035A0000E4BF7EE007A9DED047A23449DED055A0B
:1035B000DDED025AD3ED006A9DED036A77EEE67AFF
:1035C00027EE877A67EE857AA6EEA57AE6EE867A0A
:1035D00084ED057AC4ED067A06B010BD800B0600B6
:1035E00010B504462DED028B86B0B0EE408AF0EEA9
:1035F000608AFFF7E9FC616903A8A26902AB009049
:1036000004F12400049104A9059205AA00F084F9AC
:103610000D4BB7EE007ADDED025A23449DED036AAF
:10362000D3ED006A77EE667A27EE888A67EEA87A8D
:10363000A6EEA58AE6EE867A84ED058AC4ED067AC2
:1036400006B0BDEC028B10BD800B0600FFF7C2BCBC
:103650008B6943F6095C90ED056AB6EE004B002BD2
:103660009FED395AB8BF03F580330CFB03F310B458
:1036700003F1010C354C1FFA8CF31CF4004F04EBE2
:10368000021C18BFA3F580331201DCED027A8B61B6
:1036900086EE277AB7EEC77A37EE047BBDEEC77B9E
:1036A000D1ED037AF8EEE75AD1ED027A81ED077A8F
:1036B000F8EEE77AE5EE857AF0EE676AD1ED007A0A
:1036C000F8EEE77A77EEE67AF5EEC07AF1EE10FAE8
:1036D0000AD5D1ED016AF8EEE66A77EEA67AF5EE44
:1036E000C07AF1EE10FAF8D4C7EE865A07EE903A97
:1036F0002244DFED172A90ED033AD2ED014A92ED14
:10370000005AF8EEE76ADFED133AF8EEC77A5DF893
:10371000044BB7EE007A66EEA46AB6EE004B66EE96
:10372000A26AA3EE265A75EEC56AC6EEA75AA6EEA1
:10373000257A27EE237AB7EEC77A37EE047BBDEE03
:10374000C77B81ED047A7047000080312055010865
:10375000000000380000804D38B5354BB6EE005BF8
:1037600090ED037AB7EE022B03EB021390ED050AFE
:10377000DFED300A002593ED034AD3ED017AB7EE71
:10378000C44A93ED006AB7EEE71A34EE054B2DED0F
:10379000028BBDEEC44B9FED288AF0EE464A4D6188
:1037A0000D60F8EEC46A81ED064A9FED1F3B66EEA0
:1037B000A76A66EE886AE7EE264AB7EEC66AA1EE09
:1037C000026BB7EEC67B27EE007AB7EEC77A37EE0C
:1037D000037BBDEEC77BF8EEC77A81ED017AE0EEA0
:1037E000647AFDEEE76AB8EEE67AC1ED026A37EE7A
:1037F000C77A27EE207AB7EEC77A37EE057BBDEEA3
:10380000C77B81ED037AFFF723FF4A680023AA42B2
:103810000B6205DD0C4692002946606A11F06EF8D5
:103820000020BDEC028B38BD00000000008030405D
:10383000205501080000804D000000380000000005
:103840002DE9F843304980464FF07E5200232F483F
:10385000002408F5B27908F124072D4E25462DEDF8
:10386000028BC8F804100121B0EE408A88ED020AEC
:1038700088ED050AC8F80000C8F80C20C8F8103018
:10388000C8F81820C8F81C30C8F8201001E09C4285
:1038900030DC09EB84032A46394640467B62013519
:1038A000FFF75AFF96ED015A96ED006AB7EE027BDC
:1038B000B7EEC55A082DB7EEC66A164B07F12807B2
:1038C00006F11006A5EE076B9FED0D4BB7EEC67B1C
:1038D00027EE087AB7EEC77A37EE047BBDEEC77BDA
:1038E00017EE102A04EB8204D1D10020BDEC028B2C
:1038F000BDE8F883BDEC028B0120BDE8F88300BF72
:10390000000000000080304000401C46EC51783F31
:1039100020550108788201002DE9F8431F46036A0B
:10392000002B2DED028B40F33581D0ED017A8146DD
:1039300090ED077A0D461446F4EE477AF1EE10FA50
:1039400040F0E58090ED061A4B46DFED9B7A09F5D5
:10395000A07093ED117A2833984277EE877AF8D1E8
:10396000B5EE007AD5ED000A94ED000A4FF000089C
:103970009FED912A09F14C04E7EE870AD9F82860F7
:10398000A7EE870A4046F0EE421AF0EE607A16E0A3
:1039900054F80C3C32EE272A013B002B44F80C3C37
:1039A00040F39B8008F10108B8F1080F00F09F80F8
:1039B000666818F0010004F1280440FE807A14EDD6
:1039C000027AA4F1280154F8282C54F8043C77EE2C
:1039D000C77A03EB8203C3ED007A54F8285C013503
:1039E000B542A8BFAD1B44F8285C54E90852B2F1B7
:1039F000805F06DB22F0704305EB22751A4644E92E
:103A00000853B54202DBAD1B44F8205CBFEE007AE0
:103A100005EE102AF7EE005A002DBAEEC25AB0EEAB
:103A2000476AF6EE004A75EE255AA5EE056AF0EEF5
:103A3000087AA5EEA47A9FED5E3BB7EEC66A26EE45
:103A4000036BB7EEC66B66EE277A77EE466AB0EE8A
:103A5000674A77EEC57A95EEA44A78DDB31EAB428D
:103A600040F396806FF0404654F8043C2E4403EB3C
:103A70008603D3ED004AD3ED015A93ED023AD3ED1C
:103A8000033A65EEA77A54F8183C14ED027A134411
:103A9000E4EEA67AF0EE656A44F81C3CD9ED004AE3
:103AA000E3EE047AE3EE867AE7EE856AF0EE477A93
:103AB000E4EEE67A67EE817AE4EEA67A44ED027AE5
:103AC00000287FF465AF54F80C3C71EEA71A013B57
:103AD000002B44F80C3C3FF765AF424608F1010863
:103AE0004846FFF7B5FDB8F1080F7FF461AFDFED91
:103AF000337A00200A9B61EEA71A22EE272ABDEC3A
:103B0000028BC7ED001A83ED002ABDE8F8839FED14
:103B10002C7AC0ED077A67EE877A90ED050A87EE7A
:103B2000800A10F0EDFCF0EE007ABFEE007A37EE7E
:103B3000C08AA8EE087AB5EE407AF1EE10FA2ED4DB
:103B4000F1EEC77A38EE671A89ED061AFCE66B1EAD
:103B500033445D1C54F804CCAE420CEB8303D8BF55
:103B6000AD1BD3ED004A0CEB85030135D3ED005AB4
:103B7000B542A8BFAD1B0CEB85030135B54293EDF3
:103B8000003AA8BFAD1B0CEB8505D5ED003A78E7F0
:103B90006B1EDFE7BDEC028B0120BDE8F883B0EEC1
:103BA000470A10F021FEF0EE407ACBE7AFF3008039
:103BB000555555555555C53F000000003333B33EAC
:103BC000DB0FC940704700BF0F4B1B780BB90120BA
:103BD000704710B504464FF47A700C4AB0FBF3F30B
:103BE0001068B0FBF3F001F06BF80F2C00D808B1AF
:103BF000012010BD002221464FF0FF3001F000F8F7
:103C0000034B00201C6010BD04000024440200246B
:103C10000800002438B50320124D00F0DFFF124CDD
:103C200002F0F8FA114A12499369C3F30323CB5CFB
:103C300003F01F0320FA03F30E202B60926902F0B9
:103C40000F028A5C02F01F02D3402360FFF7BCFF23
:103C500010B10124204638BD0446FFF7B3FF2046CB
:103C600038BD00BF4402002448020024004402582A
:103C700058560108034A044B11681B780B44136023
:103C8000704700BF0C02072404000024014B186891
:103C9000704700BF0C02072438B50446FFF7F6FF53
:103CA0000546631C02D0044B1B781C44FFF7EEFF53
:103CB000431BA342FAD338BD04000024014B18680B
:103CC000000C70470010005C3F4A036893422DE9E6
:103CD000F04105460E4657D002F58072934253D00C
:103CE0003A4A2C699768082C07F01F070AD0092F59
:103CF0004CD840F22121F940C90747D5DB68DA07E3
:103D000048D40424FFF7C2FF8046731C2A6827D1D9
:103D100013681C42FCD06B6D43F400736B65D36871
:103D200013F4406F0FD16B7D6BB9136818070AD578
:103D30006B6D23F480736B656B6DD90403D46B6D6D
:103D400043F001036B65224B9A422ED0D068082CB9
:103D500027D010F4804034D10C231360BDE8F081EB
:103D600013682342D7D1FFF791FFA0EB0800B042C0
:103D700001D8002EC9D16B6D0022032043F004034B
:103D800085F850206B65E9E7124AAAE7936813F4B7
:103D9000404FB6D06B6D012043F020036B65BDE84A
:103DA000F08100201460BDE8F081092F02D9064B94
:103DB000D868CCE740F2212323FA07F7FB07C5D4E4
:103DC000F5E70020BDE8F0810020024000630258C2
:103DD00000210240002302400368186C704700BFB6
:103DE000704700BF806B08B5FFF7FAFF08BD00BF42
:103DF000836B5A6D12F0500F5A6D10B51DD11968B2
:103E000042F400725A650A6812F0080FCA681BD0A3
:103E100012F4406F0DD1CA6894040AD45A6D22F48A
:103E200080725A655A6DD10403D45A6D42F0010272
:103E30005A65184605F098FA10BDD2060AD4DB6C14
:103E4000BDE81040DB6C18479007E7D0184605F036
:103E50008BFAF1E7184605F02BFB10BD806B08B517
:103E6000436D43F040034365836D43F00403836572
:103E700005F01EFB08BD00BFF0B5002283B0019223
:103E800090F85020012A00F01C81034601201A6896
:103E900083F850009468640700F18A800C68C4F3CA
:103EA0001305002D40F08F80C4F38464A0404D685A
:103EB0004FF01F0ED6694FEA951C30430CF00C0CE6
:103EC000D06105F01F0002F1300584400EFA00FEBB
:103ED0005CF8050020EA0E0004434CF805409068A9
:103EE00040076ED4956815F0080547D10C68072087
:103EF00002F11406B94F4FEAD45CC4F304540CF039
:103F0000040C00FA04FE886800FA04F45CF8060069
:103F100020EA0E0020434CF80600386800F070409C
:103F2000B0F1805F00F0C580D068D668C70600F1A8
:103F3000E880C6F382064869760000FA06F60F6943
:103F4000042F00F0C18002F16004086854F827C013
:103F500000F0F8400CF0004C40EA0C00304344F80C
:103F60002700487E0E69012854F8260008BF4FF04C
:103F7000004520F00040054344F826509068C407EF
:103F800014D4CE68086806F01807954CD2F8C050D3
:103F9000FC40C0F31307044025EA07052C43C2F890
:103FA000C040904CA64246D0002816DB002003E01B
:103FB0005A6D42F020025A65002283F8502003B067
:103FC000F0BD9068DAE794FAA4F5B5FA85F5C4F384
:103FD000846405F01F05A84069E783498A4200F020
:103FE000B68001F580718A4200F0B1807F4D804C2F
:103FF000A968A46801F0E076E44304F00104002C11
:1040000000F0B4807B4CA04200F0FC807A4CA042CF
:1040100000F01A81794CA042C8D14902C6D4744933
:104020008A42C3D1AA68002022F0E072324342F4EF
:104030008002AA60C0E7002F6AD090FAA0F4B4FA18
:1040400084F4013404F01F04092C00F2A48090FAD7
:10405000A0F4B4FA84F490FAA0F5B5FA85F5013429
:1040600001260135A40605F01F0504F0F84406FA00
:1040700005F52C4390FAA0F0B0FA80F0304400F03F
:104080001F0000EB400000052043C60D02F114059F
:10409000C0F30450072406F0040604FA00F774592C
:1040A00024EA07048F6807FA00F02043705108687B
:1040B0007AE7D6684869C6F38206760000FA06F603
:1040C0003DE7022003B0F0BD106E0C6800F0F84030
:1040D000A506B0EB846F30D0506E00F0F8408542FA
:1040E00026D0906E00F0F84085422BD0D06E00F0C4
:1040F000F84085427FF442AFD06E20F00040D06699
:104100003CE77608486906F0080600FA06F616E766
:10411000800E441C04F01F06092E2DD8A406012091
:1041200004F0F844B040044306EB46000005ABE75A
:10413000506E20F000405066D3E7106E20F0004033
:104140001066C9E7906E20F000409066CEE7264CDE
:104150002B4D04F58074A96854F8F86CA4683443B6
:1041600001F0E076E44304F0010448E75A6D0120D1
:1041700042F020025A651FE706EB4600A50601241F
:104180001E3805F0F84504FA06F60005354340F000
:104190000070284379E790FAA0F5B5FA85F590FA12
:1041A000A0F4B4FA84F4013501260134AD0604F01C
:1041B0001F0405F0F84506FA04F4254390FAA0F42C
:1041C000B4FA84F4344404F01F0404EB4404A4F16E
:1041D0001E00000540F00070DBE700BF0010005C2F
:1041E000FFFF0F000000FF4700200240006302585D
:1041F00000600258000084CB000052C70000B8CF16
:104200000023024008023FF5D1AE17498A427FF4ED
:10421000CDAE164AA9681268154821F0E0719209DE
:104220003143A0FB020241F400019209A96052004F
:104230000192019A002A3FF4B9AE019A013A019223
:10424000019A002AF9D1B1E611F080707FF4AEAE88
:1042500005498A427FF4AAAEAA6822F0E07232438E
:1042600042F08072AA60A7E600600258440200246F
:10427000632D3E0503689A6812F0040F9A6870B5C2
:10428000044603D1120701D4002070BDDA689501FD
:1042900004D5A08A40F2011290421AD002299A68ED
:1042A0003ED0550708D59A68900705D498682C4ADF
:1042B000024042F010029A60012919D09A68120750
:1042C00002D59A68900732D5032914BF04260C261C
:1042D0000FE01A68500606D4224A01E0013A16D0CF
:1042E00019684906FAD540221A609A68560725D4FB
:1042F0000426FFF7CBFC054604E0FFF7C7FC431B91
:10430000052B04D823689B683342F6D1BCE7636D64
:10431000012043F010036365A36D0343A36570BDE3
:10432000150702D59A68920713D50826E1E7986821
:104330000B4A024042F020029A60C5E79A6896074D
:10434000D6D499680426064A0A4042F010029A60C0
:10435000CFE79968024A0A4042F020029A60E4E7F7
:10436000C0FFFF7F00DC0C0003689A68D20701D50C
:10437000002070479968214A114270B5044608D060
:10438000636D012043F010036365A36D0343A365D0
:1043900070BD99681A4A0A4042F001029A60FFF71C
:1043A00075FC2368174A054693421ED002F58072B9
:1043B00093421AD0144A9268114E0AE09A68324029
:1043C00042F001029A60FFF761FC401B0228D7D837
:1043D00023681A68D2070FD49A68D107EED5FFF781
:1043E00055FC401B0228F3D9CAE7084A9268D00658
:1043F000E2D0074A9342DFD1002070BD3F00008029
:10440000C0FFFF7F002002400063025800230240EB
:1044100000210240394A0368934270B5044646D0F1
:1044200002F58072934242D0354A96689D6815F035
:10443000040542D194F85030012B3ED00123204690
:1044400084F85030FFF790FF002838D1636D06F0F4
:104450001F062C4A1A40236842F4807262652A4A79
:10446000934245D01946626D22F480126265626DF6
:1044700012F4805240D0A26D22F00602A2651C22E6
:104480008B421A604FF0000284F8502020D0092E91
:1044900018D9636D43F480136365CB689B0105D520
:1044A000636D23F4405343F48053636570BD174A32
:1044B00096689D6815F00405BCD0022070BD84F894
:1044C000505070BD40F2212222FA06F6F507E0D5E1
:1044D000DA68920105D5626D22F4405242F48052AE
:1044E000626599680A4A0A4042F004029A6070BD07
:1044F0000249002EB7D0BAE7A265C0E7002002400B
:1045000000630258FEF0FFFF00210240002302403A
:10451000C0FFFF7F2DE9F0413A4D044600680F4689
:104520001646A84219D0384B984216D0374DAB6882
:104530008068420716D494F85020012A12D003F064
:104540001F080122B8F1090F84F850200DD900236B
:10455000012084F85030BDE8F0812D4DAB688068B3
:104560004207E8D50220BDE8F08140F2212323FA7A
:1045700008F3DB4313EA0205E9D12046FFF7F4FE16
:10458000002839D1626D234B2168134043F48073B6
:104590006365B8F1000F02D01B4B994203D0636DE5
:1045A00023F480136365636D13F4805328D0A36DE7
:1045B00023F00603A365E06C3346174D3A464031BD
:1045C000C563164D0564164DC5641C2541F8405C55
:1045D000002584F8505051F83C5C45F0100541F836
:1045E0003C5C00F07DFE22680E4B91680B4043F06E
:1045F00004039360BDE8F08184F85050BDE8F08179
:10460000A365D8E700200240002102400063025861
:1046100000230240FEF0FFFFF13D0008E53D0008E9
:104620005D3E0008C0FFFF7F38B503689A689107B8
:1046300002D59B68002038BD9A68D20723D59A68B6
:10464000044602F00D02012A08D0636D012043F0F8
:1046500010036365A36D0343A36538BD9868032108
:104660000A4A024042F002029A601960FFF70EFB0C
:10467000054604E0FFF70AFB401B0228E5D8236843
:104680009B68DB07F6D4002038BD00BFC0FFFF7F6A
:1046900090F85030012B1BD00123032110B580F876
:1046A00050300446FFF7E6FD18B1002384F850307F
:1046B00010BD2046FFF7B8FF0028F6D1626D054B0C
:1046C000134043F001036365002384F8503010BDAC
:1046D00002207047FEEEFFFF38B5574A04460368D4
:1046E000934226D002F58072934222D0534B9B68AE
:1046F00013F4403F22D001F047FF63680546B3F54D
:10470000003F00F08880B3F5403F70D0B3F5803FA4
:1047100000F08180FFF7D2FA41F2030398422DD8CE
:10472000474B9D425DD92268936843F48073936040
:1047300038BD444B9B6813F4403FDCD14FF400205C
:1047400002F0EEFF63680546B3F5101F6DD008D880
:10475000B3F5E01F55D01AD9B3F5001FDAD14509DA
:10476000D8E7B3F5201F4AD0B3F5301FD2D1FFF7F9
:10477000A5FA41F20303984233D92D0A324B9D42E8
:104780001DD82268936823F44073936038BDB3F555
:10479000801F06D00AD9B3F5A01F02D0B3F5C01F01
:1047A000B8D19B0C5B00B5FBF3F5B3E7B3F5002F75
:1047B000F7D023F40022B2F5802FF2D0AAE7234BE2
:1047C000234A2B4493421ED9224B234A2B44934223
:1047D000226893682BD823F4407343F400739360EA
:1047E00038BD2268936823F48073936038BD8508D0
:1047F000FFF764FA41F203039842BFD890E7C50976
:1048000088E7050986E72268936823F4407343F438
:104810008073936038BD1B0CB5FBF3F5FFF74EFAC0
:1048200041F203039842A9D87AE7850972E743F475
:104830004073936038BD00BF0020024000630258FF
:10484000002D310100230240105E5F00EFA1A0FFA8
:104850000F5E5F00DF4341FF1FBCBE0030B5002389
:1048600083B00193002800F0D080456D0446002DF0
:1048700000F0BA80226893689B0003D59168714B61
:104880000B4093609368DD0015D46F4B90686F49BF
:104890001B6801406E489B0941F08051A0FB030357
:1048A00091609B090193019B2BB1019B013B0193FB
:1048B000019B002BF9D19368D80024D4636D0125A6
:1048C00043F010036365A36D2B43A365936813F056
:1048D000040F636D1DD1D9061BD4636D23F481735E
:1048E00043F0020363659368DB0728D4594B9A426F
:1048F00017D003F580739A4213D0574B9B68D907A2
:104900001DD4564A15E09368002513F0040F636D1B
:10491000E1D0636D012543F010032846636503B0C1
:1049200030BD4C4A4E4B92689B681343D80706D45F
:104930004C4A9368616823F47C130B439360FFF740
:10494000BDF941F20303A1689842237F52D894F83D
:1049500015C01A04206B42EA4C3202430A43012B71
:1049600003D1236A013B42EA4342636A23B103F461
:104970007873A16A0B431A4323683B49D868014006
:104980000A43DA609A6812F0040F9A681CD1120781
:104990001AD4D868354A217D024042EA8132E16A60
:1049A0000A43DA6094F83820012A3AD01A6922F0D2
:1049B00001021A611A692046616B22F070420A43B3
:1049C0001A61FFF789FE2368E268012A21D01A6B79
:1049D00022F00F021A63636D284623F0030343F0AD
:1049E0000103636503B030BD04F06CFCA56584F879
:1049F00050503FE71029AAD1617D1A0442EA4132A2
:104A0000216B0A4342F01C02A9E70125284603B0A6
:104A100030BD196BA26921F00F01013A0A431A63F4
:104A2000D9E7D4E9102118690A43114901400A4322
:104A3000A16C0A43E16B42EA014242F001021A61B1
:104A4000B8E700BFC0FFFF5F44020024C0FFFF6F54
:104A5000632D3E05002002400060025800630258AA
:104A6000002102400023024003C0F0FFFCBFFFFF13
:104A70001EF800FCF0B5002383B0019390F850308D
:104A8000012B40D0012304460E46154680F85030D5
:104A9000FFF7CAFDE8B9676D05F080421B4B06F4CD
:104AA00080311B4D3B401B4F43F00203636523687D
:104AB0009E68354015430D4345F000459D609A685A
:104AC000002A0FDB636D23F0030343F001036365EA
:104AD00003E0636D43F010036365002384F85030F6
:104AE00003B0F0BD019A01320192019ABA42E6D9AF
:104AF000636D0022012023F0120384F8502043F05C
:104B000010036365ECE7022003B0F0BDFDEEFFFF8C
:104B1000C0FFFE3FFF955A55F0B490F850200E6844
:104B2000012A49D00346294A01201C6883F8500015
:104B3000944208D05A6D002142F0200283F85010B0
:104B40005A65F0BC7047224DAA6852070AD5A26880
:104B50005A6D012042F020025A65002283F850204D
:104B6000F0BC7047A06810F00400F1D1C6B1DFF8C6
:104B700068C04F68DCF8082022F440423A43CCF881
:104B80000820A468AA682243D40713D48A68DCF8F2
:104B9000081016430F4A0A401643CCF80860DCE7B9
:104BA0000D498A6822F440428A60A068AA680243DC
:104BB000D00704D50020D0E70220F0BC70478C68F5
:104BC0003046044A22408A60C7E700BF0020024006
:104BD00000210240E0F0FFFF0023024006494FF6AB
:104BE000FF0C0002054BCA6800F4E06002EA0C0208
:104BF00010430343CB60704700ED00E00000FA056E
:104C00001B4BDB68C3F3022300B5C3F1070E03F1AE
:104C1000040CBEF1040F28BF4FF0040EBCF1060FC8
:104C20001AD9033B4FF0FF3C0CFA03FC22EA0C02BA
:104C30004FF0FF3C00280CFA0EFC21EA0C0101FAAF
:104C400003F141EA02010ADB09010A4BC9B203443C
:104C500083F800135DF804FB00221346E8E700F038
:104C60000F000901044BC9B2034419765DF804FB37
:104C700000ED00E000E100E0FCEC00E0002807DBD4
:104C800000F01F0101234009024A8B4042F8203006
:104C9000704700BF00E100E000280DDB430901225E
:104CA00000F01F000549203302FA00F041F823000C
:104CB000BFF34F8FBFF36F8F704700BF00E100E07D
:104CC000431EB3F1807F0CD24FF0E0220020064952
:104CD0004FF0F00C5361072381F823C090611361FA
:104CE00070470120704700BF00ED00E0BFF35F8F09
:104CF000044B00215A6A22F480325A62C3F894109D
:104D0000704700BF00ED00E0064B40F00100C3F823
:104D100094005A6A42F480325A62BFF34F8FBFF355
:104D20006F8F704700ED00E0174A4378C2F8983063
:104D3000017821B3436800B5C2F89C30C37A90F87B
:104D40000CC01B0690F80FE043EA0C7390F80AC001
:104D50000B43817B43EACC4390F80DC043EA8C437C
:104D600090F809C043EA4143017A43EA0E4343EA1B
:104D70000C2343EA4103C2F8A0305DF804FBC2F8FB
:104D80009C10C2F8A010704700ED00E0704700BF13
:104D900008B5FFF7FBFF08BD0268344B344930B457
:104DA000344D354CAA4218BF9A420CBF0123002350
:104DB0008A4208BF43F001033031A24208BF43F0EA
:104DC000010330348A4208BF43F001033031A2426C
:104DD00008BF43F0010330348A4208BF43F00103A7
:104DE00001F55C71A24208BF43F0010304F55C7455
:104DF0008A4208BF43F001033031A24208BF43F0AA
:104E0000010330348A4208BF43F001033031A2422B
:104E100008BF43F0010330348A4208BF43F0010366
:104E20003031A24208BF43F001038A4208BF43F079
:104E3000010313B9114B9A4213D1D3B21049114C4B
:104E4000103BA1FB03515F2B0F4BC1F3021103EA8F
:104E50000203615C88BF0433C1658365184630BCBA
:104E6000704722F0FF038365F8E700BF100002409F
:104E7000400002402800024058000240B8040240AE
:104E8000ABAAAAAAA055010800FCFFFF0368294AA3
:104E9000294930B4294D2A4CAB4218BF93420CBF6C
:104EA000012200228B4208BF42F001022831A342B6
:104EB00008BF42F0010228348B4208BF42F00102D1
:104EC0002831A34208BF42F001028B4208BF42F0E2
:104ED000010212B91B4A934213D1DBB21A4C1B4A8E
:104EE0000121083B1A4DA4FB0343456602EB131254
:104EF000C3F30413920001FA03F30266836630BC25
:104F00007047DAB21349144C1944103AA829A4FB8B
:104F100002234FEA131300D80833104A03F01F0589
:104F200001210F4C1A44A940446692008166026632
:104F3000E5E700BF08540258305402581C54025888
:104F40004454025894540258CDCCCCCC0096001650
:104F500080580258F0FBFDBFABAAAAAA008200103D
:104F60008008024070B50446FEF790FE002C00F069
:104F7000C68023680546954A934248D0183293422A
:104F800045D0303292498B4218BF934201F1300133
:104F90000CBF012200228B4208BF42F001021831EF
:104FA0008B4208BF42F0010218318B4208BF42F029
:104FB000010218318B4208BF42F0010201F556711F
:104FC0008B4208BF42F0010218318B4208BF42F009
:104FD000010218318B4208BF42F0010218318B42A6
:104FE00008BF42F0010218318B4208BF42F00102B3
:104FF00018318B4208BF42F0010218318B4208BFC2
:1050000042F001021AB9734A934240F0F58002223D
:10501000002184F8352084F834101A6822F0010247
:105020001A6005E0FEF732FE431B052B40D82368CB
:105030001A68D107F6D4D4E9022521692A43A06968
:105040001D680A4361690A43E16902430A436249F0
:105050002940256A2A430A43616A04292FD01A602D
:105060005A6922F00702114359612046FFF794FE66
:10507000E26D3F2302F01F02934083602046FFF75A
:1050800005FFA368802B3CD06368A06EDAB2013BB9
:10509000D4E91851072B2A60486026D90023C4E9B7
:1050A0001B33636700200123606584F8353070BDD1
:1050B000202203230120626584F8353070BDD4E9D5
:1050C0000B5129430A431A605969A26A21F007016A
:1050D000114341F00401002DC6D000284FD1012A10
:1050E0006ED032F00202BFD151E0501E072810D915
:1050F000626FD4E91B31002018604A60D2E70120BA
:1051000070BD0023A16ED4E9180263600360516092
:10511000C4E72168314B324DA94218BF994205F1CD
:1051200014050CBF01230023A94208BF43F001036B
:105130001435A94208BF43F001031435A94208BF42
:1051400043F001031435A94208BF43F001031435AD
:10515000A94208BF43F001033BB9224B994204D056
:10516000214B224913449B0003E0214B2149134466
:105170009B0001228240C4E91B316267BBE7B0F5A6
:10518000005F0ED0022A05D9032A7FF46DAFEA0131
:105190007FF56AAF012340221846626584F83530F6
:1051A00070BD032A3FF660AF01A050F822F000BFA7
:1051B000955100088F51000895510008C151000811
:1051C000B5F1C07F7FF450AFE4E700BF10000240AC
:1051D00040000240B80402403F8010FE08540258CC
:1051E0001C540258945402583F8200104009024057
:1051F0003F96001640590258324A33483349834299
:1052000018BF934200F128000CBF012200228B42FC
:1052100008BF42F001022831834208BF42F0010278
:1052200028308B4208BF42F001022831834208BF78
:1052300042F001028B4208BF42F0010212B9244A37
:10524000934238D102220021224D84F8341084F890
:1052500035201A681540A268402A2AD0802A0CBF3F
:105260004FF480400846266AD4E90312D20842EA85
:10527000D102616942EAD102A16942EAD102E1693F
:1052800042EAD102144942EA161219442A4302435F
:105290001248A0FB010120461A600B099B00E36540
:1052A000FFF77AFDE26D012302F01F029340436095
:1052B000E4E61020D7E7402203230120626584F84A
:1052C000353070BD085402581C54025830540258EE
:1052D000945402580F00FEFFF8ABFDA7CDCCCCCC08
:1052E000002800F0BC80844690F83400012800F0CB
:1052F000B88001202DE9F0419CF835408CF834004D
:10530000844208D000224FF400638CF83420CCF89B
:105310005430BDE8F0810220DCF800507A4C8CF863
:1053200035000020794ECCF854007948854218BFEA
:10533000A54200F118000CBF01240024854208BFDB
:1053400044F001041830854208BF44F001041830CD
:10535000854208BF44F001041830854208BF44F07C
:10536000010400F55670854208BF44F0010418306E
:10537000854208BF44F001041830854208BF44F05C
:1053800001041830854208BF44F0010418308542FA
:1053900008BF44F001041830854208BF44F00104FE
:1053A0001830854208BF44F001041830854208BF18
:1053B00044F00104A0F59560B54218BF8542DCF8C1
:1053C0006C600CBF0120002054EA0008286820F01F
:1053D00001002860DCF86400DCF86840DCF85870F4
:1053E000446040D016B1DCE91C044460DCF85C0089
:1053F0004FF03F0E00F01F000EFA00F0B860286872
:1054000020F4802028606B60DCF80830402B23D02B
:10541000A960EA602B6823F01E0343F016032B609B
:10542000DCF840301BB12B6843F008032B60DCF83C
:1054300060301A68D20303D51A6842F480721A6089
:105440001EB1336843F4807333602B68002043F04F
:1054500001032B60BDE8F081AA60E960DAE7012072
:1054600070470220704716B1DCE91C0444602948EB
:10547000DFF8A8E0754518BF85420EF1140E0CBF89
:1054800001200020754508BF40F001000EF1140E08
:10549000754508BF40F001000EF1140E754508BFB8
:1054A00040F001000EF1140E754508BF40F00100F8
:1054B0000EF1140E754508BF40F0010010B91648F2
:1054C00085420ED1DCF85C0000F01F0E012000FACE
:1054D0000EF078606B60DCF80830402B10D0A960CB
:1054E000EA602B6823F00E0343F00A032B60DCF81C
:1054F0004030002B9BD02B6843F004032B6096E7D1
:10550000AA60E960EDE700BF4000024028000240C9
:105510005800024008540258945402581C5402582F
:1055200000285FD038B590F835200346022A55D1BF
:105530000168444A914248D01832914245D03032F5
:10554000414C4248A14218BF914204F148040CBFAB
:1055500001220022814208BF42F001023030A14204
:1055600008BF42F001023034814208BF42F001021C
:1055700000F55C70A14208BF42F0010204F55C74C2
:10558000814208BF42F001023030A14208BF42F020
:1055900001023034814208BF42F001023030A142A2
:1055A00008BF42F001023034814208BF42F00102DC
:1055B0003030A14208BF42F00102814208BF42F0F0
:1055C000010212B9224A91420ED10422002083F82E
:1055D00035200B6823F001030B6038BD80220120C9
:1055E0005A6538BD012070470A681C6E22F00E0211
:1055F000D86D9D6D0A6000F01F000A6822F001025C
:105600000A6001222168824021F4807121606A6071
:10561000DA6ED3E91910486032B11168D3E91C047D
:1056200021F4807111604460002401211A6D83F817
:10563000344083F835101AB118469047204638BDDB
:10564000104638BD10000240400002407000024089
:10565000B80402402DE9F04300229C4B83B09C4EDD
:105660001D688146019203689A4A846D934218BF6F
:10567000B342276808BF0126216818BF002645D01D
:1056800018329548834218BF934200F118000CBFAE
:1056900001220022834208BF42F0010218308342F7
:1056A00008BF42F001021830834208BF42F00102F5
:1056B0001830834208BF42F0010200F55670834261
:1056C00008BF42F001021830834208BF42F00102D5
:1056D0001830834208BF42F001021830834208BFED
:1056E00042F001021830834208BF42F00102183034
:1056F000834208BF42F001021830834208BF42F0E3
:1057000001021AB9754A934240F05082D9F85C10F0
:10571000082201F01F0C02FA0CF2174240F08881B7
:1057200027FA0CF2D2070CD55A69100609D50122C6
:1057300002FA0CF2A260D9F8542042F00202C9F831
:1057400054204FF0040E0EFA0CF038425BD0002EBD
:105750004FD1634ADFF88081434518BF934208F177
:1057600018080CBF01220022434508BF42F0010285
:1057700008F11808434508BF42F0010208F1180873
:10578000434508BF42F0010208F11808434508BF2D
:1057900042F0010208F55678434508BF42F0010285
:1057A00008F11808434508BF42F0010208F1180843
:1057B000434508BF42F0010208F11808434508BFFD
:1057C00042F0010208F11808434508BF42F0010207
:1057D00008F11808434508BF42F0010208F1180813
:1057E000434508BF42F001021AB93C4A934240F0D7
:1057F00019821A68920706D5A060D9F8542042F0A1
:105800000402C9F85420102202FA0CFC1CEA070F0B
:105810006CD0002E45D1324A2F4EB34218BF93426E
:1058200006F118060CBF01220022B34208BF42F065
:1058300001021836B34208BF42F001021836B342E3
:1058400008BF42F001021836B34208BF42F001021D
:1058500006F55676B34208BF42F001021836B3424D
:1058600008BF42F001021836B34208BF42F00102FD
:105870001836B34208BF42F001021836B34208BFDF
:1058800042F001021836B34208BF42F00102183656
:10589000B34208BF42F001021AB9104A934240F0E5
:1058A000C9811A68100721D5C4F808C01A685603C0
:1058B00000F14C811A68D20503D41A6822F008025C
:1058C0001A60D9F840308BB10CE000BF44020024CC
:1058D000100002402800024058000240B804024074
:1058E0004000024048469847D9F85C1001F01F017B
:1058F00020268E403E4268D0D9F80020A54BA64F06
:10590000BA4218BF9A4207F118070CBF01230023BF
:10591000BA4208BF43F001031837BA4208BF43F048
:1059200001031837BA4208BF43F001031837BA42DF
:1059300008BF43F001031837BA4208BF43F0010320
:105940001837BA4208BF43F0010307F55677BA4249
:1059500008BF43F001031837BA4208BF43F0010300
:105960001837BA4208BF43F001031837BA4208BFDC
:1059700043F001031837BA4208BF43F00103183758
:10598000BA4208BF43F001031837BA4208BF43F0D8
:1059900001031BB9814B9A4240F062811368DB0618
:1059A00013D5A66099F83530042B136800F0AE804B
:1059B00013F4802F136800F0D3801C0340F1DE80C5
:1059C000D9F83C300BB148469847D9F85430002BF1
:1059D00000F0B980D9F85430D8071FD5D9F8002085
:1059E000042189F83510136823F0010313606C4B10
:1059F000A3FB0535AD0A02E01368D90704D5019B66
:105A00000133AB420193F7D9002389F8343013688E
:105A1000DB074CBF0323012389F83530D9F84C301C
:105A2000002B00F09080484603B0BDE8F0431847D3
:105A3000186840070AD5186820F004001860A260B2
:105A4000D9F8542042F00102C9F8542027FA0CF288
:105A5000D2077FF576AE534A5348834218BF93422C
:105A600000F130000CBF01220022834208BF42F047
:105A700001021830834208BF42F00102183083420D
:105A800008BF42F001021830834208BF42F0010211
:105A900000F55670834208BF42F00102183083427D
:105AA00008BF42F001021830834208BF42F00102F1
:105AB0001830834208BF42F001021830834208BF09
:105AC00042F001021830834208BF42F00102183050
:105AD000834208BF42F001021830834208BF42F0FF
